{
	"data": {
		"bytecode": {
			"linkReferences": {
				"remix_accounts.sol": {
					"TestsAccounts": [
						{
							"length": 20,
							"start": 19
						},
						{
							"length": 20,
							"start": 205
						},
						{
							"length": 20,
							"start": 392
						},
						{
							"length": 20,
							"start": 579
						},
						{
							"length": 20,
							"start": 766
						},
						{
							"length": 20,
							"start": 953
						},
						{
							"length": 20,
							"start": 1140
						},
						{
							"length": 20,
							"start": 1340
						}
					]
				},
				"remix_tests.sol": {
					"Assert": [
						{
							"length": 20,
							"start": 4177
						},
						{
							"length": 20,
							"start": 4299
						},
						{
							"length": 20,
							"start": 4574
						},
						{
							"length": 20,
							"start": 5039
						},
						{
							"length": 20,
							"start": 6251
						},
						{
							"length": 20,
							"start": 6449
						},
						{
							"length": 20,
							"start": 6634
						},
						{
							"length": 20,
							"start": 7147
						},
						{
							"length": 20,
							"start": 7528
						},
						{
							"length": 20,
							"start": 7925
						},
						{
							"length": 20,
							"start": 8667
						},
						{
							"length": 20,
							"start": 9347
						}
					]
				}
			},
			"object": "60806040526170806001556201518060025573__$1068a87eb54ed04c4e435de35b2ebf536f$__63ce88b1455f6040518263ffffffff1660e01b81526004016200004a919062000756565b602060405180830381865af415801562000066573d5f803e3d5ffd5b505050506040513d601f19601f820116820180604052508101906200008c9190620007d6565b600a5f6101000a81548173ffffffffffffffffffffffffffffffffffffffff021916908373ffffffffffffffffffffffffffffffffffffffff16021790555073__$1068a87eb54ed04c4e435de35b2ebf536f$__63ce88b14560016040518263ffffffff1660e01b815260040162000105919062000847565b602060405180830381865af415801562000121573d5f803e3d5ffd5b505050506040513d601f19601f82011682018060405250810190620001479190620007d6565b600b5f6101000a81548173ffffffffffffffffffffffffffffffffffffffff021916908373ffffffffffffffffffffffffffffffffffffffff16021790555073__$1068a87eb54ed04c4e435de35b2ebf536f$__63ce88b14560026040518263ffffffff1660e01b8152600401620001c09190620008a3565b602060405180830381865af4158015620001dc573d5f803e3d5ffd5b505050506040513d601f19601f82011682018060405250810190620002029190620007d6565b600c5f6101000a81548173ffffffffffffffffffffffffffffffffffffffff021916908373ffffffffffffffffffffffffffffffffffffffff16021790555073__$1068a87eb54ed04c4e435de35b2ebf536f$__63ce88b14560036040518263ffffffff1660e01b81526004016200027b9190620008ff565b602060405180830381865af415801562000297573d5f803e3d5ffd5b505050506040513d601f19601f82011682018060405250810190620002bd9190620007d6565b600d5f6101000a81548173ffffffffffffffffffffffffffffffffffffffff021916908373ffffffffffffffffffffffffffffffffffffffff16021790555073__$1068a87eb54ed04c4e435de35b2ebf536f$__63ce88b14560046040518263ffffffff1660e01b81526004016200033691906200095b565b602060405180830381865af415801562000352573d5f803e3d5ffd5b505050506040513d601f19601f82011682018060405250810190620003789190620007d6565b600e5f6101000a81548173ffffffffffffffffffffffffffffffffffffffff021916908373ffffffffffffffffffffffffffffffffffffffff16021790555073__$1068a87eb54ed04c4e435de35b2ebf536f$__63ce88b14560056040518263ffffffff1660e01b8152600401620003f19190620009b7565b602060405180830381865af41580156200040d573d5f803e3d5ffd5b505050506040513d601f19601f82011682018060405250810190620004339190620007d6565b600f5f6101000a81548173ffffffffffffffffffffffffffffffffffffffff021916908373ffffffffffffffffffffffffffffffffffffffff16021790555073__$1068a87eb54ed04c4e435de35b2ebf536f$__63ce88b14560066040518263ffffffff1660e01b8152600401620004ac919062000a13565b602060405180830381865af4158015620004c8573d5f803e3d5ffd5b505050506040513d601f19601f82011682018060405250810190620004ee9190620007d6565b60105f6101000a81548173ffffffffffffffffffffffffffffffffffffffff021916908373ffffffffffffffffffffffffffffffffffffffff16021790555034801562000539575f80fd5b5073__$1068a87eb54ed04c4e435de35b2ebf536f$__63ce88b1455f6040518263ffffffff1660e01b815260040162000573919062000756565b602060405180830381865af41580156200058f573d5f803e3d5ffd5b505050506040513d601f19601f82011682018060405250810190620005b59190620007d6565b805f73ffffffffffffffffffffffffffffffffffffffff168173ffffffffffffffffffffffffffffffffffffffff160362000629575f6040517f1e4fbdf700000000000000000000000000000000000000000000000000000000815260040162000620919062000a3f565b60405180910390fd5b6200063a816200064260201b60201c565b505062000a5a565b5f805f9054906101000a900473ffffffffffffffffffffffffffffffffffffffff169050815f806101000a81548173ffffffffffffffffffffffffffffffffffffffff021916908373ffffffffffffffffffffffffffffffffffffffff1602179055508173ffffffffffffffffffffffffffffffffffffffff168173ffffffffffffffffffffffffffffffffffffffff167f8be0079c531659141344cd1fd0a4f28419497f9722a3daafe3b4186f6b6457e060405160405180910390a35050565b5f819050919050565b5f819050919050565b5f819050919050565b5f6200073e62000738620007328462000703565b62000715565b6200070c565b9050919050565b62000750816200071e565b82525050565b5f6020820190506200076b5f83018462000745565b92915050565b5f80fd5b5f73ffffffffffffffffffffffffffffffffffffffff82169050919050565b5f620007a08262000775565b9050919050565b620007b28162000794565b8114620007bd575f80fd5b50565b5f81519050620007d081620007a7565b92915050565b5f60208284031215620007ee57620007ed62000771565b5b5f620007fd84828501620007c0565b91505092915050565b5f819050919050565b5f6200082f62000829620008238462000806565b62000715565b6200070c565b9050919050565b62000841816200080f565b82525050565b5f6020820190506200085c5f83018462000836565b92915050565b5f819050919050565b5f6200088b620008856200087f8462000862565b62000715565b6200070c565b9050919050565b6200089d816200086b565b82525050565b5f602082019050620008b85f83018462000892565b92915050565b5f819050919050565b5f620008e7620008e1620008db84620008be565b62000715565b6200070c565b9050919050565b620008f981620008c7565b82525050565b5f602082019050620009145f830184620008ee565b92915050565b5f819050919050565b5f620009436200093d62000937846200091a565b62000715565b6200070c565b9050919050565b620009558162000923565b82525050565b5f602082019050620009705f8301846200094a565b92915050565b5f819050919050565b5f6200099f62000999620009938462000976565b62000715565b6200070c565b9050919050565b620009b1816200097f565b82525050565b5f602082019050620009cc5f830184620009a6565b92915050565b5f819050919050565b5f620009fb620009f5620009ef84620009d2565b62000715565b6200070c565b9050919050565b62000a0d81620009db565b82525050565b5f60208201905062000a285f83018462000a02565b92915050565b62000a398162000794565b82525050565b5f60208201905062000a545f83018462000a2e565b92915050565b612ebe8062000a685f395ff3fe608060405234801561000f575f80fd5b5060043610610171575f3560e01c8063a9a29436116100dc578063c1961cea11610095578063ee55f11e1161006f578063ee55f11e1461037c578063f0004b141461039a578063f2fde38b146103a4578063fd1ab0df146103c057610171565b8063c1961cea14610338578063d52f998614610354578063e34461741461035e57610171565b8063a9a29436146102af578063b0c73513146102b9578063b25924c1146102d5578063b45c396914610306578063b5e422d414610310578063c115de8b1461032e57610171565b8063803baa6d1161012e578063803baa6d146101fe57806389813f84146102085780638da5cb5b146102245780638f023f85146102425780638f6021c314610274578063a1c904b4146102a557610171565b80630e0864cb146101755780631d108546146101915780632c8fa70d1461019b57806340deb070146101a55780636cdf69f0146101d5578063715018a6146101f4575b5f80fd5b61018f600480360381019061018a9190611e51565b6103ca565b005b6101996105e7565b005b6101a3610661565b005b6101bf60048036038101906101ba9190611e51565b6107f0565b6040516101cc9190611f06565b60405180910390f35b6101dd61089b565b6040516101eb929190611f35565b60405180910390f35b6101fc610932565b005b610206610945565b005b610222600480360381019061021d919061208f565b610a4d565b005b61022c610b1f565b6040516102399190612144565b60405180910390f35b61025c60048036038101906102579190611e51565b610b46565b60405161026b9392919061215d565b60405180910390f35b61028e60048036038101906102899190611e51565b610c87565b60405161029c9291906121a0565b60405180910390f35b6102ad610e01565b005b6102b7610f80565b005b6102d360048036038101906102ce91906121d5565b611088565b005b6102ef60048036038101906102ea9190611e51565b6110c0565b6040516102fd929190612249565b60405180910390f35b61030e611181565b005b610318611289565b6040516103259190612277565b60405180910390f35b6103366112fe565b005b610352600480360381019061034d91906122c6565b611406565b005b61035c61148b565b005b610366611593565b6040516103739190612277565b60405180910390f35b6103846115ce565b6040516103919190612486565b60405180910390f35b6103a2611771565b005b6103be60048036038101906103b991906124d0565b611995565b005b6103c8611a19565b005b60066001015442101580156103f157506001546006600101546103ed9190612528565b4211155b6103f9575f80fd5b5f60095f3373ffffffffffffffffffffffffffffffffffffffff1673ffffffffffffffffffffffffffffffffffffffff1681526020019081526020015f205490505f6005828154811061044f5761044e61255b565b5b905f5260205f2090600202016001015f9054906101000a900460ff166104f157600190508260085f3373ffffffffffffffffffffffffffffffffffffffff1673ffffffffffffffffffffffffffffffffffffffff1681526020019081526020015f20819055506001600583815481106104cb576104ca61255b565b5b905f5260205f2090600202016001015f6101000a81548160ff0219169083151502179055505b5f600460085f3373ffffffffffffffffffffffffffffffffffffffff1673ffffffffffffffffffffffffffffffffffffffff1681526020019081526020015f2054815481106105435761054261255b565b5b905f5260205f20906003020190508181600201546105619190612528565b81600201819055507fd5f7cb52613a2bacd6e90c181d02d8eb3d9236bdb28d47edf16fe7c8ff2e39a360085f3373ffffffffffffffffffffffffffffffffffffffff1673ffffffffffffffffffffffffffffffffffffffff1681526020019081526020015f2054825f016040516105d9929190612678565b60405180910390a150505050565b73__$acbfb1c35000d78352310b16a054a6b106$__6339df137f60016040518263ffffffff1660e01b815260040161061f919061270f565b602060405180830381865af415801561063a573d5f803e3d5ffd5b505050506040513d601f19601f8201168201806040525081019061065e9190612765565b50565b73__$acbfb1c35000d78352310b16a054a6b106$__6339df137f600a5f9054906101000a900473ffffffffffffffffffffffffffffffffffffffff1673ffffffffffffffffffffffffffffffffffffffff163373ffffffffffffffffffffffffffffffffffffffff16146040518263ffffffff1660e01b81526004016106e791906127da565b602060405180830381865af4158015610702573d5f803e3d5ffd5b505050506040513d601f19601f820116820180604052508101906107269190612765565b506107746040518060400160405280601381526020017f4a6f726e616461206465207072756562612031000000000000000000000000008152506202a3004261076f9190612528565b611088565b73__$acbfb1c35000d78352310b16a054a6b106$__63e8c2cb1660065f016040518263ffffffff1660e01b81526004016107ae9190612941565b602060405180830381865af41580156107c9573d5f803e3d5ffd5b505050506040513d601f19601f820116820180604052508101906107ed9190612765565b50565b600381815481106107ff575f80fd5b905f5260205f20015f91509050805f01805461081a906125b5565b80601f0160208091040260200160405190810160405280929190818152602001828054610846906125b5565b80156108915780601f1061086857610100808354040283529160200191610891565b820191905f5260205f20905b81548152906001019060200180831161087457829003601f168201915b5050505050905081565b6006805f0180546108ab906125b5565b80601f01602080910402602001604051908101604052809291908181526020018280546108d7906125b5565b80156109225780601f106108f957610100808354040283529160200191610922565b820191905f5260205f20905b81548152906001019060200180831161090557829003601f168201915b5050505050908060010154905082565b61093a611b20565b6109435f611ba7565b565b73__$acbfb1c35000d78352310b16a054a6b106$__6339df137f600c5f9054906101000a900473ffffffffffffffffffffffffffffffffffffffff1673ffffffffffffffffffffffffffffffffffffffff163373ffffffffffffffffffffffffffffffffffffffff16146040518263ffffffff1660e01b81526004016109cb91906129f7565b602060405180830381865af41580156109e6573d5f803e3d5ffd5b505050506040513d601f19601f82011682018060405250810190610a0a9190612765565b50610a4b6040518060400160405280600981526020017f566f74616e746520320000000000000000000000000000000000000000000000815250601e611406565b565b610a55611b20565b600254600660010154610a689190612a23565b421115610a73575f80fd5b5f805b600380549050811015610b055783604051602001610a949190612a90565b6040516020818303038152906040528051906020012060038281548110610abe57610abd61255b565b5b905f5260205f20015f01604051602001610ad89190612b26565b6040516020818303038152906040528051906020012003610af857600191505b8080600101915050610a76565b50610b108382611c68565b610b1a8383611cbf565b505050565b5f805f9054906101000a900473ffffffffffffffffffffffffffffffffffffffff16905090565b60048181548110610b55575f80fd5b905f5260205f2090600302015f91509050805f018054610b74906125b5565b80601f0160208091040260200160405190810160405280929190818152602001828054610ba0906125b5565b8015610beb5780601f10610bc257610100808354040283529160200191610beb565b820191905f5260205f20905b815481529060010190602001808311610bce57829003601f168201915b505050505090806001018054610c00906125b5565b80601f0160208091040260200160405190810160405280929190818152602001828054610c2c906125b5565b8015610c775780601f10610c4e57610100808354040283529160200191610c77565b820191905f5260205f20905b815481529060010190602001808311610c5a57829003601f168201915b5050505050908060020154905083565b6060806006600101544210158015610cb15750600154600660010154610cad9190612528565b4211155b610cb9575f80fd5b5f60048481548110610cce57610ccd61255b565b5b905f5260205f2090600302019050805f0181600101818054610cef906125b5565b80601f0160208091040260200160405190810160405280929190818152602001828054610d1b906125b5565b8015610d665780601f10610d3d57610100808354040283529160200191610d66565b820191905f5260205f20905b815481529060010190602001808311610d4957829003601f168201915b50505050509150808054610d79906125b5565b80601f0160208091040260200160405190810160405280929190818152602001828054610da5906125b5565b8015610df05780601f10610dc757610100808354040283529160200191610df0565b820191905f5260205f20905b815481529060010190602001808311610dd357829003601f168201915b505050505090509250925050915091565b73__$acbfb1c35000d78352310b16a054a6b106$__6339df137f600e5f9054906101000a900473ffffffffffffffffffffffffffffffffffffffff1673ffffffffffffffffffffffffffffffffffffffff163373ffffffffffffffffffffffffffffffffffffffff16146040518263ffffffff1660e01b8152600401610e8791906129f7565b602060405180830381865af4158015610ea2573d5f803e3d5ffd5b505050506040513d601f19601f82011682018060405250810190610ec69190612765565b5073__$acbfb1c35000d78352310b16a054a6b106$__63abcd796060095f3373ffffffffffffffffffffffffffffffffffffffff1673ffffffffffffffffffffffffffffffffffffffff1681526020019081526020015f205460026040518363ffffffff1660e01b8152600401610f3e929190612bfd565b602060405180830381865af4158015610f59573d5f803e3d5ffd5b505050506040513d601f19601f82011682018060405250810190610f7d9190612765565b50565b73__$acbfb1c35000d78352310b16a054a6b106$__6339df137f600d5f9054906101000a900473ffffffffffffffffffffffffffffffffffffffff1673ffffffffffffffffffffffffffffffffffffffff163373ffffffffffffffffffffffffffffffffffffffff16146040518263ffffffff1660e01b815260040161100691906129f7565b602060405180830381865af4158015611021573d5f803e3d5ffd5b505050506040513d601f19601f820116820180604052508101906110459190612765565b506110866040518060400160405280600981526020017f566f74616e7465203300000000000000000000000000000000000000000000008152506037611406565b565b611090611b20565b5f600660010154146110a0575f80fd5b8160065f0190816110b19190612db9565b50806006600101819055505050565b600581815481106110cf575f80fd5b905f5260205f2090600202015f91509050805f0180546110ee906125b5565b80601f016020809104026020016040519081016040528092919081815260200182805461111a906125b5565b80156111655780601f1061113c57610100808354040283529160200191611165565b820191905f5260205f20905b81548152906001019060200180831161114857829003601f168201915b505050505090806001015f9054906101000a900460ff16905082565b73__$acbfb1c35000d78352310b16a054a6b106$__6339df137f600f5f9054906101000a900473ffffffffffffffffffffffffffffffffffffffff1673ffffffffffffffffffffffffffffffffffffffff163373ffffffffffffffffffffffffffffffffffffffff16146040518263ffffffff1660e01b815260040161120791906129f7565b602060405180830381865af4158015611222573d5f803e3d5ffd5b505050506040513d601f19601f820116820180604052508101906112469190612765565b506112876040518060400160405280600981526020017f566f74616e746520350000000000000000000000000000000000000000000000815250601b611406565b565b5f60015460066001015461129d9190612528565b4210156112a8575f80fd5b5f805b6004805490508110156112f657600481815481106112cc576112cb61255b565b5b905f5260205f20906003020160020154826112e79190612528565b915080806001019150506112ab565b508091505090565b73__$acbfb1c35000d78352310b16a054a6b106$__6339df137f600b5f9054906101000a900473ffffffffffffffffffffffffffffffffffffffff1673ffffffffffffffffffffffffffffffffffffffff163373ffffffffffffffffffffffffffffffffffffffff16146040518263ffffffff1660e01b815260040161138491906129f7565b602060405180830381865af415801561139f573d5f803e3d5ffd5b505050506040513d601f19601f820116820180604052508101906113c39190612765565b506114046040518060400160405280600981526020017f566f74616e7465203100000000000000000000000000000000000000000000008152506012611406565b565b8060128160ff161015611417575f80fd5b60025460066001015461142a9190612a23565b421115611435575f80fd5b5f60095f3373ffffffffffffffffffffffffffffffffffffffff1673ffffffffffffffffffffffffffffffffffffffff1681526020019081526020015f20541461147d575f80fd5b61148683611d3c565b505050565b73__$acbfb1c35000d78352310b16a054a6b106$__6339df137f600e5f9054906101000a900473ffffffffffffffffffffffffffffffffffffffff1673ffffffffffffffffffffffffffffffffffffffff163373ffffffffffffffffffffffffffffffffffffffff16146040518263ffffffff1660e01b815260040161151191906129f7565b602060405180830381865af415801561152c573d5f803e3d5ffd5b505050506040513d601f19601f820116820180604052508101906115509190612765565b506115916040518060400160405280600981526020017f566f74616e7465203400000000000000000000000000000000000000000000008152506046611406565b565b5f60066001015442101580156115bb57506001546006600101546115b79190612528565b4211155b6115c3575f80fd5b600480549050905090565b60606001546006600101546115e39190612528565b4210156115ee575f80fd5b6004805480602002602001604051908101604052809291908181526020015f905b82821015611768578382905f5260205f2090600302016040518060600160405290815f8201805461163f906125b5565b80601f016020809104026020016040519081016040528092919081815260200182805461166b906125b5565b80156116b65780601f1061168d576101008083540402835291602001916116b6565b820191905f5260205f20905b81548152906001019060200180831161169957829003601f168201915b505050505081526020016001820180546116cf906125b5565b80601f01602080910402602001604051908101604052809291908181526020018280546116fb906125b5565b80156117465780601f1061171d57610100808354040283529160200191611746565b820191905f5260205f20905b81548152906001019060200180831161172957829003601f168201915b505050505081526020016002820154815250508152602001906001019061160f565b50505050905090565b73__$acbfb1c35000d78352310b16a054a6b106$__6339df137f600a5f9054906101000a900473ffffffffffffffffffffffffffffffffffffffff1673ffffffffffffffffffffffffffffffffffffffff163373ffffffffffffffffffffffffffffffffffffffff16146040518263ffffffff1660e01b81526004016117f791906127da565b602060405180830381865af4158015611812573d5f803e3d5ffd5b505050506040513d601f19601f820116820180604052508101906118369190612765565b506118ab6040518060400160405280600981526020017f5061727469646f204100000000000000000000000000000000000000000000008152506040518060400160405280600b81526020017f43616e64696461746f2031000000000000000000000000000000000000000000815250610a4d565b61191f6040518060400160405280600981526020017f5061727469646f204200000000000000000000000000000000000000000000008152506040518060400160405280600b81526020017f43616e64696461746f2032000000000000000000000000000000000000000000815250610a4d565b6119936040518060400160405280600981526020017f5061727469646f204300000000000000000000000000000000000000000000008152506040518060400160405280600b81526020017f43616e64696461746f2033000000000000000000000000000000000000000000815250610a4d565b565b61199d611b20565b5f73ffffffffffffffffffffffffffffffffffffffff168173ffffffffffffffffffffffffffffffffffffffff1603611a0d575f6040517f1e4fbdf7000000000000000000000000000000000000000000000000000000008152600401611a049190612144565b60405180910390fd5b611a1681611ba7565b50565b73__$acbfb1c35000d78352310b16a054a6b106$__6339df137f600a5f9054906101000a900473ffffffffffffffffffffffffffffffffffffffff1673ffffffffffffffffffffffffffffffffffffffff163373ffffffffffffffffffffffffffffffffffffffff16146040518263ffffffff1660e01b8152600401611a9f91906127da565b602060405180830381865af4158015611aba573d5f803e3d5ffd5b505050506040513d601f19601f82011682018060405250810190611ade9190612765565b50611b1e6040518060400160405280601381526020017f4a6f726e6164612064652070727565626120320000000000000000000000000081525042611088565b565b611b28611e06565b73ffffffffffffffffffffffffffffffffffffffff16611b46610b1f565b73ffffffffffffffffffffffffffffffffffffffff1614611ba557611b69611e06565b6040517f118cdaa7000000000000000000000000000000000000000000000000000000008152600401611b9c9190612144565b60405180910390fd5b565b5f805f9054906101000a900473ffffffffffffffffffffffffffffffffffffffff169050815f806101000a81548173ffffffffffffffffffffffffffffffffffffffff021916908373ffffffffffffffffffffffffffffffffffffffff1602179055508173ffffffffffffffffffffffffffffffffffffffff168173ffffffffffffffffffffffffffffffffffffffff167f8be0079c531659141344cd1fd0a4f28419497f9722a3daafe3b4186f6b6457e060405160405180910390a35050565b8015611c72575f80fd5b6003604051806020016040528084815250908060018154018082558091505060019003905f5260205f20015f909190919091505f820151815f019081611cb89190612db9565b5050505050565b600460405180606001604052808381526020018481526020015f815250908060018154018082558091505060019003905f5260205f2090600302015f909190919091505f820151815f019081611d159190612db9565b506020820151816001019081611d2b9190612db9565b506040820151816002015550505050565b600560405180604001604052808381526020015f1515815250908060018154018082558091505060019003905f5260205f2090600202015f909190919091505f820151815f019081611d8e9190612db9565b506020820151816001015f6101000a81548160ff02191690831515021790555050506001600580549050611dc29190612a23565b60095f3373ffffffffffffffffffffffffffffffffffffffff1673ffffffffffffffffffffffffffffffffffffffff1681526020019081526020015f208190555050565b5f33905090565b5f604051905090565b5f80fd5b5f80fd5b5f819050919050565b611e3081611e1e565b8114611e3a575f80fd5b50565b5f81359050611e4b81611e27565b92915050565b5f60208284031215611e6657611e65611e16565b5b5f611e7384828501611e3d565b91505092915050565b5f81519050919050565b5f82825260208201905092915050565b5f5b83811015611eb3578082015181840152602081019050611e98565b5f8484015250505050565b5f601f19601f8301169050919050565b5f611ed882611e7c565b611ee28185611e86565b9350611ef2818560208601611e96565b611efb81611ebe565b840191505092915050565b5f6020820190508181035f830152611f1e8184611ece565b905092915050565b611f2f81611e1e565b82525050565b5f6040820190508181035f830152611f4d8185611ece565b9050611f5c6020830184611f26565b9392505050565b5f80fd5b5f80fd5b7f4e487b71000000000000000000000000000000000000000000000000000000005f52604160045260245ffd5b611fa182611ebe565b810181811067ffffffffffffffff82111715611fc057611fbf611f6b565b5b80604052505050565b5f611fd2611e0d565b9050611fde8282611f98565b919050565b5f67ffffffffffffffff821115611ffd57611ffc611f6b565b5b61200682611ebe565b9050602081019050919050565b828183375f83830152505050565b5f61203361202e84611fe3565b611fc9565b90508281526020810184848401111561204f5761204e611f67565b5b61205a848285612013565b509392505050565b5f82601f83011261207657612075611f63565b5b8135612086848260208601612021565b91505092915050565b5f80604083850312156120a5576120a4611e16565b5b5f83013567ffffffffffffffff8111156120c2576120c1611e1a565b5b6120ce85828601612062565b925050602083013567ffffffffffffffff8111156120ef576120ee611e1a565b5b6120fb85828601612062565b9150509250929050565b5f73ffffffffffffffffffffffffffffffffffffffff82169050919050565b5f61212e82612105565b9050919050565b61213e81612124565b82525050565b5f6020820190506121575f830184612135565b92915050565b5f6060820190508181035f8301526121758186611ece565b905081810360208301526121898185611ece565b90506121986040830184611f26565b949350505050565b5f6040820190508181035f8301526121b88185611ece565b905081810360208301526121cc8184611ece565b90509392505050565b5f80604083850312156121eb576121ea611e16565b5b5f83013567ffffffffffffffff81111561220857612207611e1a565b5b61221485828601612062565b925050602061222585828601611e3d565b9150509250929050565b5f8115159050919050565b6122438161222f565b82525050565b5f6040820190508181035f8301526122618185611ece565b9050612270602083018461223a565b9392505050565b5f60208201905061228a5f830184611f26565b92915050565b5f60ff82169050919050565b6122a581612290565b81146122af575f80fd5b50565b5f813590506122c08161229c565b92915050565b5f80604083850312156122dc576122db611e16565b5b5f83013567ffffffffffffffff8111156122f9576122f8611e1a565b5b61230585828601612062565b9250506020612316858286016122b2565b9150509250929050565b5f81519050919050565b5f82825260208201905092915050565b5f819050602082019050919050565b5f82825260208201905092915050565b5f61236382611e7c565b61236d8185612349565b935061237d818560208601611e96565b61238681611ebe565b840191505092915050565b61239a81611e1e565b82525050565b5f606083015f8301518482035f8601526123ba8282612359565b915050602083015184820360208601526123d48282612359565b91505060408301516123e96040860182612391565b508091505092915050565b5f6123ff83836123a0565b905092915050565b5f602082019050919050565b5f61241d82612320565b612427818561232a565b9350836020820285016124398561233a565b805f5b85811015612474578484038952815161245585826123f4565b945061246083612407565b925060208a0199505060018101905061243c565b50829750879550505050505092915050565b5f6020820190508181035f83015261249e8184612413565b905092915050565b6124af81612124565b81146124b9575f80fd5b50565b5f813590506124ca816124a6565b92915050565b5f602082840312156124e5576124e4611e16565b5b5f6124f2848285016124bc565b91505092915050565b7f4e487b71000000000000000000000000000000000000000000000000000000005f52601160045260245ffd5b5f61253282611e1e565b915061253d83611e1e565b9250828201905080821115612555576125546124fb565b5b92915050565b7f4e487b71000000000000000000000000000000000000000000000000000000005f52603260045260245ffd5b7f4e487b71000000000000000000000000000000000000000000000000000000005f52602260045260245ffd5b5f60028204905060018216806125cc57607f821691505b6020821081036125df576125de612588565b5b50919050565b5f819050815f5260205f209050919050565b5f8154612603816125b5565b61260d8186611e86565b9450600182165f8114612627576001811461263d5761266f565b60ff19831686528115156020028601935061266f565b612646856125e5565b5f5b8381101561266757815481890152600182019150602081019050612648565b808801955050505b50505092915050565b5f60408201905061268b5f830185611f26565b818103602083015261269d81846125f7565b90509392505050565b6126af8161222f565b82525050565b5f82825260208201905092915050565b7f4572726f722e00000000000000000000000000000000000000000000000000005f82015250565b5f6126f96006836126b5565b9150612704826126c5565b602082019050919050565b5f6040820190506127225f8301846126a6565b8181036020830152612733816126ed565b905092915050565b6127448161222f565b811461274e575f80fd5b50565b5f8151905061275f8161273b565b92915050565b5f6020828403121561277a57612779611e16565b5b5f61278784828501612751565b91505092915050565b7f4375656e7461206e6f207469656e65207065726d69736f20276f776e6572272e5f82015250565b5f6127c46020836126b5565b91506127cf82612790565b602082019050919050565b5f6040820190506127ed5f8301846126a6565b81810360208301526127fe816127b8565b905092915050565b5f8154612812816125b5565b61281c81866126b5565b9450600182165f8114612836576001811461284c5761287e565b60ff19831686528115156020028601935061287e565b612855856125e5565b5f5b8381101561287657815481890152600182019150602081019050612857565b808801955050505b50505092915050565b7f4a6f726e616461206465207072756562612031000000000000000000000000005f82015250565b5f6128bb6013836126b5565b91506128c682612887565b602082019050919050565b7f4a6f726e616461206e6f207469656e6520656c206e6f6d6272652065737065725f8201527f61646f2e00000000000000000000000000000000000000000000000000000000602082015250565b5f61292b6024836126b5565b9150612936826128d1565b604082019050919050565b5f6060820190508181035f8301526129598184612806565b9050818103602083015261296c816128af565b9050818103604083015261297f8161291f565b905092915050565b7f4375656e7461206e6f20636f72726573706f6e646520616c20766f74616e74655f8201527f206465736561646f2e0000000000000000000000000000000000000000000000602082015250565b5f6129e16029836126b5565b91506129ec82612987565b604082019050919050565b5f604082019050612a0a5f8301846126a6565b8181036020830152612a1b816129d5565b905092915050565b5f612a2d82611e1e565b9150612a3883611e1e565b9250828203905081811115612a5057612a4f6124fb565b5b92915050565b5f81905092915050565b5f612a6a82611e7c565b612a748185612a56565b9350612a84818560208601611e96565b80840191505092915050565b5f612a9b8284612a60565b915081905092915050565b5f8154612ab2816125b5565b612abc8186612a56565b9450600182165f8114612ad65760018114612aeb57612b1d565b60ff1983168652811515820286019350612b1d565b612af4856125e5565b5f5b83811015612b1557815481890152600182019150602081019050612af6565b838801955050505b50505092915050565b5f612b318284612aa6565b915081905092915050565b612b4581611e1e565b82525050565b5f819050919050565b5f819050919050565b5f612b77612b72612b6d84612b4b565b612b54565b611e1e565b9050919050565b612b8781612b5d565b82525050565b7f417369676e6163696f6e20646520766f74616e7465206e6f20636f72726573705f8201527f6f6e64652e000000000000000000000000000000000000000000000000000000602082015250565b5f612be76025836126b5565b9150612bf282612b8d565b604082019050919050565b5f606082019050612c105f830185612b3c565b612c1d6020830184612b7e565b8181036040830152612c2e81612bdb565b90509392505050565b5f6020601f8301049050919050565b5f82821b905092915050565b5f60088302612c817fffffffffffffffffffffffffffffffffffffffffffffffffffffffffffffffff82612c46565b612c8b8683612c46565b95508019841693508086168417925050509392505050565b5f612cbd612cb8612cb384611e1e565b612b54565b611e1e565b9050919050565b5f819050919050565b612cd683612ca3565b612cea612ce282612cc4565b848454612c52565b825550505050565b5f90565b612cfe612cf2565b612d09818484612ccd565b505050565b5b81811015612d2c57612d215f82612cf6565b600181019050612d0f565b5050565b601f821115612d7157612d42816125e5565b612d4b84612c37565b81016020851015612d5a578190505b612d6e612d6685612c37565b830182612d0e565b50505b505050565b5f82821c905092915050565b5f612d915f1984600802612d76565b1980831691505092915050565b5f612da98383612d82565b9150826002028217905092915050565b612dc282611e7c565b67ffffffffffffffff811115612ddb57612dda611f6b565b5b612de582546125b5565b612df0828285612d30565b5f60209050601f831160018114612e21575f8415612e0f578287015190505b612e198582612d9e565b865550612e80565b601f198416612e2f866125e5565b5f5b82811015612e5657848901518255600182019150602085019450602081019050612e31565b86831015612e735784890151612e6f601f891682612d82565b8355505b6001600288020188555050505b50505050505056fea26469706673582212208aef886c0a9bd1295967b825e8f5e736b795e878ad66734234a148270659a1f964736f6c63430008160033",
			"opcodes": "PUSH1 0x80 PUSH1 0x40 MSTORE PUSH2 0x7080 PUSH1 0x1 SSTORE PUSH3 0x15180 PUSH1 0x2 SSTORE PUSH20 0x0 PUSH4 0xCE88B145 PUSH0 PUSH1 0x40 MLOAD DUP3 PUSH4 0xFFFFFFFF AND PUSH1 0xE0 SHL DUP2 MSTORE PUSH1 0x4 ADD PUSH3 0x4A SWAP2 SWAP1 PUSH3 0x756 JUMP JUMPDEST PUSH1 0x20 PUSH1 0x40 MLOAD DUP1 DUP4 SUB DUP2 DUP7 GAS DELEGATECALL ISZERO DUP1 ISZERO PUSH3 0x66 JUMPI RETURNDATASIZE PUSH0 DUP1 RETURNDATACOPY RETURNDATASIZE PUSH0 REVERT JUMPDEST POP POP POP POP PUSH1 0x40 MLOAD RETURNDATASIZE PUSH1 0x1F NOT PUSH1 0x1F DUP3 ADD AND DUP3 ADD DUP1 PUSH1 0x40 MSTORE POP DUP2 ADD SWAP1 PUSH3 0x8C SWAP2 SWAP1 PUSH3 0x7D6 JUMP JUMPDEST PUSH1 0xA PUSH0 PUSH2 0x100 EXP DUP2 SLOAD DUP2 PUSH20 0xFFFFFFFFFFFFFFFFFFFFFFFFFFFFFFFFFFFFFFFF MUL NOT AND SWAP1 DUP4 PUSH20 0xFFFFFFFFFFFFFFFFFFFFFFFFFFFFFFFFFFFFFFFF AND MUL OR SWAP1 SSTORE POP PUSH20 0x0 PUSH4 0xCE88B145 PUSH1 0x1 PUSH1 0x40 MLOAD DUP3 PUSH4 0xFFFFFFFF AND PUSH1 0xE0 SHL DUP2 MSTORE PUSH1 0x4 ADD PUSH3 0x105 SWAP2 SWAP1 PUSH3 0x847 JUMP JUMPDEST PUSH1 0x20 PUSH1 0x40 MLOAD DUP1 DUP4 SUB DUP2 DUP7 GAS DELEGATECALL ISZERO DUP1 ISZERO PUSH3 0x121 JUMPI RETURNDATASIZE PUSH0 DUP1 RETURNDATACOPY RETURNDATASIZE PUSH0 REVERT JUMPDEST POP POP POP POP PUSH1 0x40 MLOAD RETURNDATASIZE PUSH1 0x1F NOT PUSH1 0x1F DUP3 ADD AND DUP3 ADD DUP1 PUSH1 0x40 MSTORE POP DUP2 ADD SWAP1 PUSH3 0x147 SWAP2 SWAP1 PUSH3 0x7D6 JUMP JUMPDEST PUSH1 0xB PUSH0 PUSH2 0x100 EXP DUP2 SLOAD DUP2 PUSH20 0xFFFFFFFFFFFFFFFFFFFFFFFFFFFFFFFFFFFFFFFF MUL NOT AND SWAP1 DUP4 PUSH20 0xFFFFFFFFFFFFFFFFFFFFFFFFFFFFFFFFFFFFFFFF AND MUL OR SWAP1 SSTORE POP PUSH20 0x0 PUSH4 0xCE88B145 PUSH1 0x2 PUSH1 0x40 MLOAD DUP3 PUSH4 0xFFFFFFFF AND PUSH1 0xE0 SHL DUP2 MSTORE PUSH1 0x4 ADD PUSH3 0x1C0 SWAP2 SWAP1 PUSH3 0x8A3 JUMP JUMPDEST PUSH1 0x20 PUSH1 0x40 MLOAD DUP1 DUP4 SUB DUP2 DUP7 GAS DELEGATECALL ISZERO DUP1 ISZERO PUSH3 0x1DC JUMPI RETURNDATASIZE PUSH0 DUP1 RETURNDATACOPY RETURNDATASIZE PUSH0 REVERT JUMPDEST POP POP POP POP PUSH1 0x40 MLOAD RETURNDATASIZE PUSH1 0x1F NOT PUSH1 0x1F DUP3 ADD AND DUP3 ADD DUP1 PUSH1 0x40 MSTORE POP DUP2 ADD SWAP1 PUSH3 0x202 SWAP2 SWAP1 PUSH3 0x7D6 JUMP JUMPDEST PUSH1 0xC PUSH0 PUSH2 0x100 EXP DUP2 SLOAD DUP2 PUSH20 0xFFFFFFFFFFFFFFFFFFFFFFFFFFFFFFFFFFFFFFFF MUL NOT AND SWAP1 DUP4 PUSH20 0xFFFFFFFFFFFFFFFFFFFFFFFFFFFFFFFFFFFFFFFF AND MUL OR SWAP1 SSTORE POP PUSH20 0x0 PUSH4 0xCE88B145 PUSH1 0x3 PUSH1 0x40 MLOAD DUP3 PUSH4 0xFFFFFFFF AND PUSH1 0xE0 SHL DUP2 MSTORE PUSH1 0x4 ADD PUSH3 0x27B SWAP2 SWAP1 PUSH3 0x8FF JUMP JUMPDEST PUSH1 0x20 PUSH1 0x40 MLOAD DUP1 DUP4 SUB DUP2 DUP7 GAS DELEGATECALL ISZERO DUP1 ISZERO PUSH3 0x297 JUMPI RETURNDATASIZE PUSH0 DUP1 RETURNDATACOPY RETURNDATASIZE PUSH0 REVERT JUMPDEST POP POP POP POP PUSH1 0x40 MLOAD RETURNDATASIZE PUSH1 0x1F NOT PUSH1 0x1F DUP3 ADD AND DUP3 ADD DUP1 PUSH1 0x40 MSTORE POP DUP2 ADD SWAP1 PUSH3 0x2BD SWAP2 SWAP1 PUSH3 0x7D6 JUMP JUMPDEST PUSH1 0xD PUSH0 PUSH2 0x100 EXP DUP2 SLOAD DUP2 PUSH20 0xFFFFFFFFFFFFFFFFFFFFFFFFFFFFFFFFFFFFFFFF MUL NOT AND SWAP1 DUP4 PUSH20 0xFFFFFFFFFFFFFFFFFFFFFFFFFFFFFFFFFFFFFFFF AND MUL OR SWAP1 SSTORE POP PUSH20 0x0 PUSH4 0xCE88B145 PUSH1 0x4 PUSH1 0x40 MLOAD DUP3 PUSH4 0xFFFFFFFF AND PUSH1 0xE0 SHL DUP2 MSTORE PUSH1 0x4 ADD PUSH3 0x336 SWAP2 SWAP1 PUSH3 0x95B JUMP JUMPDEST PUSH1 0x20 PUSH1 0x40 MLOAD DUP1 DUP4 SUB DUP2 DUP7 GAS DELEGATECALL ISZERO DUP1 ISZERO PUSH3 0x352 JUMPI RETURNDATASIZE PUSH0 DUP1 RETURNDATACOPY RETURNDATASIZE PUSH0 REVERT JUMPDEST POP POP POP POP PUSH1 0x40 MLOAD RETURNDATASIZE PUSH1 0x1F NOT PUSH1 0x1F DUP3 ADD AND DUP3 ADD DUP1 PUSH1 0x40 MSTORE POP DUP2 ADD SWAP1 PUSH3 0x378 SWAP2 SWAP1 PUSH3 0x7D6 JUMP JUMPDEST PUSH1 0xE PUSH0 PUSH2 0x100 EXP DUP2 SLOAD DUP2 PUSH20 0xFFFFFFFFFFFFFFFFFFFFFFFFFFFFFFFFFFFFFFFF MUL NOT AND SWAP1 DUP4 PUSH20 0xFFFFFFFFFFFFFFFFFFFFFFFFFFFFFFFFFFFFFFFF AND MUL OR SWAP1 SSTORE POP PUSH20 0x0 PUSH4 0xCE88B145 PUSH1 0x5 PUSH1 0x40 MLOAD DUP3 PUSH4 0xFFFFFFFF AND PUSH1 0xE0 SHL DUP2 MSTORE PUSH1 0x4 ADD PUSH3 0x3F1 SWAP2 SWAP1 PUSH3 0x9B7 JUMP JUMPDEST PUSH1 0x20 PUSH1 0x40 MLOAD DUP1 DUP4 SUB DUP2 DUP7 GAS DELEGATECALL ISZERO DUP1 ISZERO PUSH3 0x40D JUMPI RETURNDATASIZE PUSH0 DUP1 RETURNDATACOPY RETURNDATASIZE PUSH0 REVERT JUMPDEST POP POP POP POP PUSH1 0x40 MLOAD RETURNDATASIZE PUSH1 0x1F NOT PUSH1 0x1F DUP3 ADD AND DUP3 ADD DUP1 PUSH1 0x40 MSTORE POP DUP2 ADD SWAP1 PUSH3 0x433 SWAP2 SWAP1 PUSH3 0x7D6 JUMP JUMPDEST PUSH1 0xF PUSH0 PUSH2 0x100 EXP DUP2 SLOAD DUP2 PUSH20 0xFFFFFFFFFFFFFFFFFFFFFFFFFFFFFFFFFFFFFFFF MUL NOT AND SWAP1 DUP4 PUSH20 0xFFFFFFFFFFFFFFFFFFFFFFFFFFFFFFFFFFFFFFFF AND MUL OR SWAP1 SSTORE POP PUSH20 0x0 PUSH4 0xCE88B145 PUSH1 0x6 PUSH1 0x40 MLOAD DUP3 PUSH4 0xFFFFFFFF AND PUSH1 0xE0 SHL DUP2 MSTORE PUSH1 0x4 ADD PUSH3 0x4AC SWAP2 SWAP1 PUSH3 0xA13 JUMP JUMPDEST PUSH1 0x20 PUSH1 0x40 MLOAD DUP1 DUP4 SUB DUP2 DUP7 GAS DELEGATECALL ISZERO DUP1 ISZERO PUSH3 0x4C8 JUMPI RETURNDATASIZE PUSH0 DUP1 RETURNDATACOPY RETURNDATASIZE PUSH0 REVERT JUMPDEST POP POP POP POP PUSH1 0x40 MLOAD RETURNDATASIZE PUSH1 0x1F NOT PUSH1 0x1F DUP3 ADD AND DUP3 ADD DUP1 PUSH1 0x40 MSTORE POP DUP2 ADD SWAP1 PUSH3 0x4EE SWAP2 SWAP1 PUSH3 0x7D6 JUMP JUMPDEST PUSH1 0x10 PUSH0 PUSH2 0x100 EXP DUP2 SLOAD DUP2 PUSH20 0xFFFFFFFFFFFFFFFFFFFFFFFFFFFFFFFFFFFFFFFF MUL NOT AND SWAP1 DUP4 PUSH20 0xFFFFFFFFFFFFFFFFFFFFFFFFFFFFFFFFFFFFFFFF AND MUL OR SWAP1 SSTORE POP CALLVALUE DUP1 ISZERO PUSH3 0x539 JUMPI PUSH0 DUP1 REVERT JUMPDEST POP PUSH20 0x0 PUSH4 0xCE88B145 PUSH0 PUSH1 0x40 MLOAD DUP3 PUSH4 0xFFFFFFFF AND PUSH1 0xE0 SHL DUP2 MSTORE PUSH1 0x4 ADD PUSH3 0x573 SWAP2 SWAP1 PUSH3 0x756 JUMP JUMPDEST PUSH1 0x20 PUSH1 0x40 MLOAD DUP1 DUP4 SUB DUP2 DUP7 GAS DELEGATECALL ISZERO DUP1 ISZERO PUSH3 0x58F JUMPI RETURNDATASIZE PUSH0 DUP1 RETURNDATACOPY RETURNDATASIZE PUSH0 REVERT JUMPDEST POP POP POP POP PUSH1 0x40 MLOAD RETURNDATASIZE PUSH1 0x1F NOT PUSH1 0x1F DUP3 ADD AND DUP3 ADD DUP1 PUSH1 0x40 MSTORE POP DUP2 ADD SWAP1 PUSH3 0x5B5 SWAP2 SWAP1 PUSH3 0x7D6 JUMP JUMPDEST DUP1 PUSH0 PUSH20 0xFFFFFFFFFFFFFFFFFFFFFFFFFFFFFFFFFFFFFFFF AND DUP2 PUSH20 0xFFFFFFFFFFFFFFFFFFFFFFFFFFFFFFFFFFFFFFFF AND SUB PUSH3 0x629 JUMPI PUSH0 PUSH1 0x40 MLOAD PUSH32 0x1E4FBDF700000000000000000000000000000000000000000000000000000000 DUP2 MSTORE PUSH1 0x4 ADD PUSH3 0x620 SWAP2 SWAP1 PUSH3 0xA3F JUMP JUMPDEST PUSH1 0x40 MLOAD DUP1 SWAP2 SUB SWAP1 REVERT JUMPDEST PUSH3 0x63A DUP2 PUSH3 0x642 PUSH1 0x20 SHL PUSH1 0x20 SHR JUMP JUMPDEST POP POP PUSH3 0xA5A JUMP JUMPDEST PUSH0 DUP1 PUSH0 SWAP1 SLOAD SWAP1 PUSH2 0x100 EXP SWAP1 DIV PUSH20 0xFFFFFFFFFFFFFFFFFFFFFFFFFFFFFFFFFFFFFFFF AND SWAP1 POP DUP2 PUSH0 DUP1 PUSH2 0x100 EXP DUP2 SLOAD DUP2 PUSH20 0xFFFFFFFFFFFFFFFFFFFFFFFFFFFFFFFFFFFFFFFF MUL NOT AND SWAP1 DUP4 PUSH20 0xFFFFFFFFFFFFFFFFFFFFFFFFFFFFFFFFFFFFFFFF AND MUL OR SWAP1 SSTORE POP DUP2 PUSH20 0xFFFFFFFFFFFFFFFFFFFFFFFFFFFFFFFFFFFFFFFF AND DUP2 PUSH20 0xFFFFFFFFFFFFFFFFFFFFFFFFFFFFFFFFFFFFFFFF AND PUSH32 0x8BE0079C531659141344CD1FD0A4F28419497F9722A3DAAFE3B4186F6B6457E0 PUSH1 0x40 MLOAD PUSH1 0x40 MLOAD DUP1 SWAP2 SUB SWAP1 LOG3 POP POP JUMP JUMPDEST PUSH0 DUP2 SWAP1 POP SWAP2 SWAP1 POP JUMP JUMPDEST PUSH0 DUP2 SWAP1 POP SWAP2 SWAP1 POP JUMP JUMPDEST PUSH0 DUP2 SWAP1 POP SWAP2 SWAP1 POP JUMP JUMPDEST PUSH0 PUSH3 0x73E PUSH3 0x738 PUSH3 0x732 DUP5 PUSH3 0x703 JUMP JUMPDEST PUSH3 0x715 JUMP JUMPDEST PUSH3 0x70C JUMP JUMPDEST SWAP1 POP SWAP2 SWAP1 POP JUMP JUMPDEST PUSH3 0x750 DUP2 PUSH3 0x71E JUMP JUMPDEST DUP3 MSTORE POP POP JUMP JUMPDEST PUSH0 PUSH1 0x20 DUP3 ADD SWAP1 POP PUSH3 0x76B PUSH0 DUP4 ADD DUP5 PUSH3 0x745 JUMP JUMPDEST SWAP3 SWAP2 POP POP JUMP JUMPDEST PUSH0 DUP1 REVERT JUMPDEST PUSH0 PUSH20 0xFFFFFFFFFFFFFFFFFFFFFFFFFFFFFFFFFFFFFFFF DUP3 AND SWAP1 POP SWAP2 SWAP1 POP JUMP JUMPDEST PUSH0 PUSH3 0x7A0 DUP3 PUSH3 0x775 JUMP JUMPDEST SWAP1 POP SWAP2 SWAP1 POP JUMP JUMPDEST PUSH3 0x7B2 DUP2 PUSH3 0x794 JUMP JUMPDEST DUP2 EQ PUSH3 0x7BD JUMPI PUSH0 DUP1 REVERT JUMPDEST POP JUMP JUMPDEST PUSH0 DUP2 MLOAD SWAP1 POP PUSH3 0x7D0 DUP2 PUSH3 0x7A7 JUMP JUMPDEST SWAP3 SWAP2 POP POP JUMP JUMPDEST PUSH0 PUSH1 0x20 DUP3 DUP5 SUB SLT ISZERO PUSH3 0x7EE JUMPI PUSH3 0x7ED PUSH3 0x771 JUMP JUMPDEST JUMPDEST PUSH0 PUSH3 0x7FD DUP5 DUP3 DUP6 ADD PUSH3 0x7C0 JUMP JUMPDEST SWAP2 POP POP SWAP3 SWAP2 POP POP JUMP JUMPDEST PUSH0 DUP2 SWAP1 POP SWAP2 SWAP1 POP JUMP JUMPDEST PUSH0 PUSH3 0x82F PUSH3 0x829 PUSH3 0x823 DUP5 PUSH3 0x806 JUMP JUMPDEST PUSH3 0x715 JUMP JUMPDEST PUSH3 0x70C JUMP JUMPDEST SWAP1 POP SWAP2 SWAP1 POP JUMP JUMPDEST PUSH3 0x841 DUP2 PUSH3 0x80F JUMP JUMPDEST DUP3 MSTORE POP POP JUMP JUMPDEST PUSH0 PUSH1 0x20 DUP3 ADD SWAP1 POP PUSH3 0x85C PUSH0 DUP4 ADD DUP5 PUSH3 0x836 JUMP JUMPDEST SWAP3 SWAP2 POP POP JUMP JUMPDEST PUSH0 DUP2 SWAP1 POP SWAP2 SWAP1 POP JUMP JUMPDEST PUSH0 PUSH3 0x88B PUSH3 0x885 PUSH3 0x87F DUP5 PUSH3 0x862 JUMP JUMPDEST PUSH3 0x715 JUMP JUMPDEST PUSH3 0x70C JUMP JUMPDEST SWAP1 POP SWAP2 SWAP1 POP JUMP JUMPDEST PUSH3 0x89D DUP2 PUSH3 0x86B JUMP JUMPDEST DUP3 MSTORE POP POP JUMP JUMPDEST PUSH0 PUSH1 0x20 DUP3 ADD SWAP1 POP PUSH3 0x8B8 PUSH0 DUP4 ADD DUP5 PUSH3 0x892 JUMP JUMPDEST SWAP3 SWAP2 POP POP JUMP JUMPDEST PUSH0 DUP2 SWAP1 POP SWAP2 SWAP1 POP JUMP JUMPDEST PUSH0 PUSH3 0x8E7 PUSH3 0x8E1 PUSH3 0x8DB DUP5 PUSH3 0x8BE JUMP JUMPDEST PUSH3 0x715 JUMP JUMPDEST PUSH3 0x70C JUMP JUMPDEST SWAP1 POP SWAP2 SWAP1 POP JUMP JUMPDEST PUSH3 0x8F9 DUP2 PUSH3 0x8C7 JUMP JUMPDEST DUP3 MSTORE POP POP JUMP JUMPDEST PUSH0 PUSH1 0x20 DUP3 ADD SWAP1 POP PUSH3 0x914 PUSH0 DUP4 ADD DUP5 PUSH3 0x8EE JUMP JUMPDEST SWAP3 SWAP2 POP POP JUMP JUMPDEST PUSH0 DUP2 SWAP1 POP SWAP2 SWAP1 POP JUMP JUMPDEST PUSH0 PUSH3 0x943 PUSH3 0x93D PUSH3 0x937 DUP5 PUSH3 0x91A JUMP JUMPDEST PUSH3 0x715 JUMP JUMPDEST PUSH3 0x70C JUMP JUMPDEST SWAP1 POP SWAP2 SWAP1 POP JUMP JUMPDEST PUSH3 0x955 DUP2 PUSH3 0x923 JUMP JUMPDEST DUP3 MSTORE POP POP JUMP JUMPDEST PUSH0 PUSH1 0x20 DUP3 ADD SWAP1 POP PUSH3 0x970 PUSH0 DUP4 ADD DUP5 PUSH3 0x94A JUMP JUMPDEST SWAP3 SWAP2 POP POP JUMP JUMPDEST PUSH0 DUP2 SWAP1 POP SWAP2 SWAP1 POP JUMP JUMPDEST PUSH0 PUSH3 0x99F PUSH3 0x999 PUSH3 0x993 DUP5 PUSH3 0x976 JUMP JUMPDEST PUSH3 0x715 JUMP JUMPDEST PUSH3 0x70C JUMP JUMPDEST SWAP1 POP SWAP2 SWAP1 POP JUMP JUMPDEST PUSH3 0x9B1 DUP2 PUSH3 0x97F JUMP JUMPDEST DUP3 MSTORE POP POP JUMP JUMPDEST PUSH0 PUSH1 0x20 DUP3 ADD SWAP1 POP PUSH3 0x9CC PUSH0 DUP4 ADD DUP5 PUSH3 0x9A6 JUMP JUMPDEST SWAP3 SWAP2 POP POP JUMP JUMPDEST PUSH0 DUP2 SWAP1 POP SWAP2 SWAP1 POP JUMP JUMPDEST PUSH0 PUSH3 0x9FB PUSH3 0x9F5 PUSH3 0x9EF DUP5 PUSH3 0x9D2 JUMP JUMPDEST PUSH3 0x715 JUMP JUMPDEST PUSH3 0x70C JUMP JUMPDEST SWAP1 POP SWAP2 SWAP1 POP JUMP JUMPDEST PUSH3 0xA0D DUP2 PUSH3 0x9DB JUMP JUMPDEST DUP3 MSTORE POP POP JUMP JUMPDEST PUSH0 PUSH1 0x20 DUP3 ADD SWAP1 POP PUSH3 0xA28 PUSH0 DUP4 ADD DUP5 PUSH3 0xA02 JUMP JUMPDEST SWAP3 SWAP2 POP POP JUMP JUMPDEST PUSH3 0xA39 DUP2 PUSH3 0x794 JUMP JUMPDEST DUP3 MSTORE POP POP JUMP JUMPDEST PUSH0 PUSH1 0x20 DUP3 ADD SWAP1 POP PUSH3 0xA54 PUSH0 DUP4 ADD DUP5 PUSH3 0xA2E JUMP JUMPDEST SWAP3 SWAP2 POP POP JUMP JUMPDEST PUSH2 0x2EBE DUP1 PUSH3 0xA68 PUSH0 CODECOPY PUSH0 RETURN INVALID PUSH1 0x80 PUSH1 0x40 MSTORE CALLVALUE DUP1 ISZERO PUSH2 0xF JUMPI PUSH0 DUP1 REVERT JUMPDEST POP PUSH1 0x4 CALLDATASIZE LT PUSH2 0x171 JUMPI PUSH0 CALLDATALOAD PUSH1 0xE0 SHR DUP1 PUSH4 0xA9A29436 GT PUSH2 0xDC JUMPI DUP1 PUSH4 0xC1961CEA GT PUSH2 0x95 JUMPI DUP1 PUSH4 0xEE55F11E GT PUSH2 0x6F JUMPI DUP1 PUSH4 0xEE55F11E EQ PUSH2 0x37C JUMPI DUP1 PUSH4 0xF0004B14 EQ PUSH2 0x39A JUMPI DUP1 PUSH4 0xF2FDE38B EQ PUSH2 0x3A4 JUMPI DUP1 PUSH4 0xFD1AB0DF EQ PUSH2 0x3C0 JUMPI PUSH2 0x171 JUMP JUMPDEST DUP1 PUSH4 0xC1961CEA EQ PUSH2 0x338 JUMPI DUP1 PUSH4 0xD52F9986 EQ PUSH2 0x354 JUMPI DUP1 PUSH4 0xE3446174 EQ PUSH2 0x35E JUMPI PUSH2 0x171 JUMP JUMPDEST DUP1 PUSH4 0xA9A29436 EQ PUSH2 0x2AF JUMPI DUP1 PUSH4 0xB0C73513 EQ PUSH2 0x2B9 JUMPI DUP1 PUSH4 0xB25924C1 EQ PUSH2 0x2D5 JUMPI DUP1 PUSH4 0xB45C3969 EQ PUSH2 0x306 JUMPI DUP1 PUSH4 0xB5E422D4 EQ PUSH2 0x310 JUMPI DUP1 PUSH4 0xC115DE8B EQ PUSH2 0x32E JUMPI PUSH2 0x171 JUMP JUMPDEST DUP1 PUSH4 0x803BAA6D GT PUSH2 0x12E JUMPI DUP1 PUSH4 0x803BAA6D EQ PUSH2 0x1FE JUMPI DUP1 PUSH4 0x89813F84 EQ PUSH2 0x208 JUMPI DUP1 PUSH4 0x8DA5CB5B EQ PUSH2 0x224 JUMPI DUP1 PUSH4 0x8F023F85 EQ PUSH2 0x242 JUMPI DUP1 PUSH4 0x8F6021C3 EQ PUSH2 0x274 JUMPI DUP1 PUSH4 0xA1C904B4 EQ PUSH2 0x2A5 JUMPI PUSH2 0x171 JUMP JUMPDEST DUP1 PUSH4 0xE0864CB EQ PUSH2 0x175 JUMPI DUP1 PUSH4 0x1D108546 EQ PUSH2 0x191 JUMPI DUP1 PUSH4 0x2C8FA70D EQ PUSH2 0x19B JUMPI DUP1 PUSH4 0x40DEB070 EQ PUSH2 0x1A5 JUMPI DUP1 PUSH4 0x6CDF69F0 EQ PUSH2 0x1D5 JUMPI DUP1 PUSH4 0x715018A6 EQ PUSH2 0x1F4 JUMPI JUMPDEST PUSH0 DUP1 REVERT JUMPDEST PUSH2 0x18F PUSH1 0x4 DUP1 CALLDATASIZE SUB DUP2 ADD SWAP1 PUSH2 0x18A SWAP2 SWAP1 PUSH2 0x1E51 JUMP JUMPDEST PUSH2 0x3CA JUMP JUMPDEST STOP JUMPDEST PUSH2 0x199 PUSH2 0x5E7 JUMP JUMPDEST STOP JUMPDEST PUSH2 0x1A3 PUSH2 0x661 JUMP JUMPDEST STOP JUMPDEST PUSH2 0x1BF PUSH1 0x4 DUP1 CALLDATASIZE SUB DUP2 ADD SWAP1 PUSH2 0x1BA SWAP2 SWAP1 PUSH2 0x1E51 JUMP JUMPDEST PUSH2 0x7F0 JUMP JUMPDEST PUSH1 0x40 MLOAD PUSH2 0x1CC SWAP2 SWAP1 PUSH2 0x1F06 JUMP JUMPDEST PUSH1 0x40 MLOAD DUP1 SWAP2 SUB SWAP1 RETURN JUMPDEST PUSH2 0x1DD PUSH2 0x89B JUMP JUMPDEST PUSH1 0x40 MLOAD PUSH2 0x1EB SWAP3 SWAP2 SWAP1 PUSH2 0x1F35 JUMP JUMPDEST PUSH1 0x40 MLOAD DUP1 SWAP2 SUB SWAP1 RETURN JUMPDEST PUSH2 0x1FC PUSH2 0x932 JUMP JUMPDEST STOP JUMPDEST PUSH2 0x206 PUSH2 0x945 JUMP JUMPDEST STOP JUMPDEST PUSH2 0x222 PUSH1 0x4 DUP1 CALLDATASIZE SUB DUP2 ADD SWAP1 PUSH2 0x21D SWAP2 SWAP1 PUSH2 0x208F JUMP JUMPDEST PUSH2 0xA4D JUMP JUMPDEST STOP JUMPDEST PUSH2 0x22C PUSH2 0xB1F JUMP JUMPDEST PUSH1 0x40 MLOAD PUSH2 0x239 SWAP2 SWAP1 PUSH2 0x2144 JUMP JUMPDEST PUSH1 0x40 MLOAD DUP1 SWAP2 SUB SWAP1 RETURN JUMPDEST PUSH2 0x25C PUSH1 0x4 DUP1 CALLDATASIZE SUB DUP2 ADD SWAP1 PUSH2 0x257 SWAP2 SWAP1 PUSH2 0x1E51 JUMP JUMPDEST PUSH2 0xB46 JUMP JUMPDEST PUSH1 0x40 MLOAD PUSH2 0x26B SWAP4 SWAP3 SWAP2 SWAP1 PUSH2 0x215D JUMP JUMPDEST PUSH1 0x40 MLOAD DUP1 SWAP2 SUB SWAP1 RETURN JUMPDEST PUSH2 0x28E PUSH1 0x4 DUP1 CALLDATASIZE SUB DUP2 ADD SWAP1 PUSH2 0x289 SWAP2 SWAP1 PUSH2 0x1E51 JUMP JUMPDEST PUSH2 0xC87 JUMP JUMPDEST PUSH1 0x40 MLOAD PUSH2 0x29C SWAP3 SWAP2 SWAP1 PUSH2 0x21A0 JUMP JUMPDEST PUSH1 0x40 MLOAD DUP1 SWAP2 SUB SWAP1 RETURN JUMPDEST PUSH2 0x2AD PUSH2 0xE01 JUMP JUMPDEST STOP JUMPDEST PUSH2 0x2B7 PUSH2 0xF80 JUMP JUMPDEST STOP JUMPDEST PUSH2 0x2D3 PUSH1 0x4 DUP1 CALLDATASIZE SUB DUP2 ADD SWAP1 PUSH2 0x2CE SWAP2 SWAP1 PUSH2 0x21D5 JUMP JUMPDEST PUSH2 0x1088 JUMP JUMPDEST STOP JUMPDEST PUSH2 0x2EF PUSH1 0x4 DUP1 CALLDATASIZE SUB DUP2 ADD SWAP1 PUSH2 0x2EA SWAP2 SWAP1 PUSH2 0x1E51 JUMP JUMPDEST PUSH2 0x10C0 JUMP JUMPDEST PUSH1 0x40 MLOAD PUSH2 0x2FD SWAP3 SWAP2 SWAP1 PUSH2 0x2249 JUMP JUMPDEST PUSH1 0x40 MLOAD DUP1 SWAP2 SUB SWAP1 RETURN JUMPDEST PUSH2 0x30E PUSH2 0x1181 JUMP JUMPDEST STOP JUMPDEST PUSH2 0x318 PUSH2 0x1289 JUMP JUMPDEST PUSH1 0x40 MLOAD PUSH2 0x325 SWAP2 SWAP1 PUSH2 0x2277 JUMP JUMPDEST PUSH1 0x40 MLOAD DUP1 SWAP2 SUB SWAP1 RETURN JUMPDEST PUSH2 0x336 PUSH2 0x12FE JUMP JUMPDEST STOP JUMPDEST PUSH2 0x352 PUSH1 0x4 DUP1 CALLDATASIZE SUB DUP2 ADD SWAP1 PUSH2 0x34D SWAP2 SWAP1 PUSH2 0x22C6 JUMP JUMPDEST PUSH2 0x1406 JUMP JUMPDEST STOP JUMPDEST PUSH2 0x35C PUSH2 0x148B JUMP JUMPDEST STOP JUMPDEST PUSH2 0x366 PUSH2 0x1593 JUMP JUMPDEST PUSH1 0x40 MLOAD PUSH2 0x373 SWAP2 SWAP1 PUSH2 0x2277 JUMP JUMPDEST PUSH1 0x40 MLOAD DUP1 SWAP2 SUB SWAP1 RETURN JUMPDEST PUSH2 0x384 PUSH2 0x15CE JUMP JUMPDEST PUSH1 0x40 MLOAD PUSH2 0x391 SWAP2 SWAP1 PUSH2 0x2486 JUMP JUMPDEST PUSH1 0x40 MLOAD DUP1 SWAP2 SUB SWAP1 RETURN JUMPDEST PUSH2 0x3A2 PUSH2 0x1771 JUMP JUMPDEST STOP JUMPDEST PUSH2 0x3BE PUSH1 0x4 DUP1 CALLDATASIZE SUB DUP2 ADD SWAP1 PUSH2 0x3B9 SWAP2 SWAP1 PUSH2 0x24D0 JUMP JUMPDEST PUSH2 0x1995 JUMP JUMPDEST STOP JUMPDEST PUSH2 0x3C8 PUSH2 0x1A19 JUMP JUMPDEST STOP JUMPDEST PUSH1 0x6 PUSH1 0x1 ADD SLOAD TIMESTAMP LT ISZERO DUP1 ISZERO PUSH2 0x3F1 JUMPI POP PUSH1 0x1 SLOAD PUSH1 0x6 PUSH1 0x1 ADD SLOAD PUSH2 0x3ED SWAP2 SWAP1 PUSH2 0x2528 JUMP JUMPDEST TIMESTAMP GT ISZERO JUMPDEST PUSH2 0x3F9 JUMPI PUSH0 DUP1 REVERT JUMPDEST PUSH0 PUSH1 0x9 PUSH0 CALLER PUSH20 0xFFFFFFFFFFFFFFFFFFFFFFFFFFFFFFFFFFFFFFFF AND PUSH20 0xFFFFFFFFFFFFFFFFFFFFFFFFFFFFFFFFFFFFFFFF AND DUP2 MSTORE PUSH1 0x20 ADD SWAP1 DUP2 MSTORE PUSH1 0x20 ADD PUSH0 KECCAK256 SLOAD SWAP1 POP PUSH0 PUSH1 0x5 DUP3 DUP2 SLOAD DUP2 LT PUSH2 0x44F JUMPI PUSH2 0x44E PUSH2 0x255B JUMP JUMPDEST JUMPDEST SWAP1 PUSH0 MSTORE PUSH1 0x20 PUSH0 KECCAK256 SWAP1 PUSH1 0x2 MUL ADD PUSH1 0x1 ADD PUSH0 SWAP1 SLOAD SWAP1 PUSH2 0x100 EXP SWAP1 DIV PUSH1 0xFF AND PUSH2 0x4F1 JUMPI PUSH1 0x1 SWAP1 POP DUP3 PUSH1 0x8 PUSH0 CALLER PUSH20 0xFFFFFFFFFFFFFFFFFFFFFFFFFFFFFFFFFFFFFFFF AND PUSH20 0xFFFFFFFFFFFFFFFFFFFFFFFFFFFFFFFFFFFFFFFF AND DUP2 MSTORE PUSH1 0x20 ADD SWAP1 DUP2 MSTORE PUSH1 0x20 ADD PUSH0 KECCAK256 DUP2 SWAP1 SSTORE POP PUSH1 0x1 PUSH1 0x5 DUP4 DUP2 SLOAD DUP2 LT PUSH2 0x4CB JUMPI PUSH2 0x4CA PUSH2 0x255B JUMP JUMPDEST JUMPDEST SWAP1 PUSH0 MSTORE PUSH1 0x20 PUSH0 KECCAK256 SWAP1 PUSH1 0x2 MUL ADD PUSH1 0x1 ADD PUSH0 PUSH2 0x100 EXP DUP2 SLOAD DUP2 PUSH1 0xFF MUL NOT AND SWAP1 DUP4 ISZERO ISZERO MUL OR SWAP1 SSTORE POP JUMPDEST PUSH0 PUSH1 0x4 PUSH1 0x8 PUSH0 CALLER PUSH20 0xFFFFFFFFFFFFFFFFFFFFFFFFFFFFFFFFFFFFFFFF AND PUSH20 0xFFFFFFFFFFFFFFFFFFFFFFFFFFFFFFFFFFFFFFFF AND DUP2 MSTORE PUSH1 0x20 ADD SWAP1 DUP2 MSTORE PUSH1 0x20 ADD PUSH0 KECCAK256 SLOAD DUP2 SLOAD DUP2 LT PUSH2 0x543 JUMPI PUSH2 0x542 PUSH2 0x255B JUMP JUMPDEST JUMPDEST SWAP1 PUSH0 MSTORE PUSH1 0x20 PUSH0 KECCAK256 SWAP1 PUSH1 0x3 MUL ADD SWAP1 POP DUP2 DUP2 PUSH1 0x2 ADD SLOAD PUSH2 0x561 SWAP2 SWAP1 PUSH2 0x2528 JUMP JUMPDEST DUP2 PUSH1 0x2 ADD DUP2 SWAP1 SSTORE POP PUSH32 0xD5F7CB52613A2BACD6E90C181D02D8EB3D9236BDB28D47EDF16FE7C8FF2E39A3 PUSH1 0x8 PUSH0 CALLER PUSH20 0xFFFFFFFFFFFFFFFFFFFFFFFFFFFFFFFFFFFFFFFF AND PUSH20 0xFFFFFFFFFFFFFFFFFFFFFFFFFFFFFFFFFFFFFFFF AND DUP2 MSTORE PUSH1 0x20 ADD SWAP1 DUP2 MSTORE PUSH1 0x20 ADD PUSH0 KECCAK256 SLOAD DUP3 PUSH0 ADD PUSH1 0x40 MLOAD PUSH2 0x5D9 SWAP3 SWAP2 SWAP1 PUSH2 0x2678 JUMP JUMPDEST PUSH1 0x40 MLOAD DUP1 SWAP2 SUB SWAP1 LOG1 POP POP POP POP JUMP JUMPDEST PUSH20 0x0 PUSH4 0x39DF137F PUSH1 0x1 PUSH1 0x40 MLOAD DUP3 PUSH4 0xFFFFFFFF AND PUSH1 0xE0 SHL DUP2 MSTORE PUSH1 0x4 ADD PUSH2 0x61F SWAP2 SWAP1 PUSH2 0x270F JUMP JUMPDEST PUSH1 0x20 PUSH1 0x40 MLOAD DUP1 DUP4 SUB DUP2 DUP7 GAS DELEGATECALL ISZERO DUP1 ISZERO PUSH2 0x63A JUMPI RETURNDATASIZE PUSH0 DUP1 RETURNDATACOPY RETURNDATASIZE PUSH0 REVERT JUMPDEST POP POP POP POP PUSH1 0x40 MLOAD RETURNDATASIZE PUSH1 0x1F NOT PUSH1 0x1F DUP3 ADD AND DUP3 ADD DUP1 PUSH1 0x40 MSTORE POP DUP2 ADD SWAP1 PUSH2 0x65E SWAP2 SWAP1 PUSH2 0x2765 JUMP JUMPDEST POP JUMP JUMPDEST PUSH20 0x0 PUSH4 0x39DF137F PUSH1 0xA PUSH0 SWAP1 SLOAD SWAP1 PUSH2 0x100 EXP SWAP1 DIV PUSH20 0xFFFFFFFFFFFFFFFFFFFFFFFFFFFFFFFFFFFFFFFF AND PUSH20 0xFFFFFFFFFFFFFFFFFFFFFFFFFFFFFFFFFFFFFFFF AND CALLER PUSH20 0xFFFFFFFFFFFFFFFFFFFFFFFFFFFFFFFFFFFFFFFF AND EQ PUSH1 0x40 MLOAD DUP3 PUSH4 0xFFFFFFFF AND PUSH1 0xE0 SHL DUP2 MSTORE PUSH1 0x4 ADD PUSH2 0x6E7 SWAP2 SWAP1 PUSH2 0x27DA JUMP JUMPDEST PUSH1 0x20 PUSH1 0x40 MLOAD DUP1 DUP4 SUB DUP2 DUP7 GAS DELEGATECALL ISZERO DUP1 ISZERO PUSH2 0x702 JUMPI RETURNDATASIZE PUSH0 DUP1 RETURNDATACOPY RETURNDATASIZE PUSH0 REVERT JUMPDEST POP POP POP POP PUSH1 0x40 MLOAD RETURNDATASIZE PUSH1 0x1F NOT PUSH1 0x1F DUP3 ADD AND DUP3 ADD DUP1 PUSH1 0x40 MSTORE POP DUP2 ADD SWAP1 PUSH2 0x726 SWAP2 SWAP1 PUSH2 0x2765 JUMP JUMPDEST POP PUSH2 0x774 PUSH1 0x40 MLOAD DUP1 PUSH1 0x40 ADD PUSH1 0x40 MSTORE DUP1 PUSH1 0x13 DUP2 MSTORE PUSH1 0x20 ADD PUSH32 0x4A6F726E61646120646520707275656261203100000000000000000000000000 DUP2 MSTORE POP PUSH3 0x2A300 TIMESTAMP PUSH2 0x76F SWAP2 SWAP1 PUSH2 0x2528 JUMP JUMPDEST PUSH2 0x1088 JUMP JUMPDEST PUSH20 0x0 PUSH4 0xE8C2CB16 PUSH1 0x6 PUSH0 ADD PUSH1 0x40 MLOAD DUP3 PUSH4 0xFFFFFFFF AND PUSH1 0xE0 SHL DUP2 MSTORE PUSH1 0x4 ADD PUSH2 0x7AE SWAP2 SWAP1 PUSH2 0x2941 JUMP JUMPDEST PUSH1 0x20 PUSH1 0x40 MLOAD DUP1 DUP4 SUB DUP2 DUP7 GAS DELEGATECALL ISZERO DUP1 ISZERO PUSH2 0x7C9 JUMPI RETURNDATASIZE PUSH0 DUP1 RETURNDATACOPY RETURNDATASIZE PUSH0 REVERT JUMPDEST POP POP POP POP PUSH1 0x40 MLOAD RETURNDATASIZE PUSH1 0x1F NOT PUSH1 0x1F DUP3 ADD AND DUP3 ADD DUP1 PUSH1 0x40 MSTORE POP DUP2 ADD SWAP1 PUSH2 0x7ED SWAP2 SWAP1 PUSH2 0x2765 JUMP JUMPDEST POP JUMP JUMPDEST PUSH1 0x3 DUP2 DUP2 SLOAD DUP2 LT PUSH2 0x7FF JUMPI PUSH0 DUP1 REVERT JUMPDEST SWAP1 PUSH0 MSTORE PUSH1 0x20 PUSH0 KECCAK256 ADD PUSH0 SWAP2 POP SWAP1 POP DUP1 PUSH0 ADD DUP1 SLOAD PUSH2 0x81A SWAP1 PUSH2 0x25B5 JUMP JUMPDEST DUP1 PUSH1 0x1F ADD PUSH1 0x20 DUP1 SWAP2 DIV MUL PUSH1 0x20 ADD PUSH1 0x40 MLOAD SWAP1 DUP2 ADD PUSH1 0x40 MSTORE DUP1 SWAP3 SWAP2 SWAP1 DUP2 DUP2 MSTORE PUSH1 0x20 ADD DUP3 DUP1 SLOAD PUSH2 0x846 SWAP1 PUSH2 0x25B5 JUMP JUMPDEST DUP1 ISZERO PUSH2 0x891 JUMPI DUP1 PUSH1 0x1F LT PUSH2 0x868 JUMPI PUSH2 0x100 DUP1 DUP4 SLOAD DIV MUL DUP4 MSTORE SWAP2 PUSH1 0x20 ADD SWAP2 PUSH2 0x891 JUMP JUMPDEST DUP3 ADD SWAP2 SWAP1 PUSH0 MSTORE PUSH1 0x20 PUSH0 KECCAK256 SWAP1 JUMPDEST DUP2 SLOAD DUP2 MSTORE SWAP1 PUSH1 0x1 ADD SWAP1 PUSH1 0x20 ADD DUP1 DUP4 GT PUSH2 0x874 JUMPI DUP3 SWAP1 SUB PUSH1 0x1F AND DUP3 ADD SWAP2 JUMPDEST POP POP POP POP POP SWAP1 POP DUP2 JUMP JUMPDEST PUSH1 0x6 DUP1 PUSH0 ADD DUP1 SLOAD PUSH2 0x8AB SWAP1 PUSH2 0x25B5 JUMP JUMPDEST DUP1 PUSH1 0x1F ADD PUSH1 0x20 DUP1 SWAP2 DIV MUL PUSH1 0x20 ADD PUSH1 0x40 MLOAD SWAP1 DUP2 ADD PUSH1 0x40 MSTORE DUP1 SWAP3 SWAP2 SWAP1 DUP2 DUP2 MSTORE PUSH1 0x20 ADD DUP3 DUP1 SLOAD PUSH2 0x8D7 SWAP1 PUSH2 0x25B5 JUMP JUMPDEST DUP1 ISZERO PUSH2 0x922 JUMPI DUP1 PUSH1 0x1F LT PUSH2 0x8F9 JUMPI PUSH2 0x100 DUP1 DUP4 SLOAD DIV MUL DUP4 MSTORE SWAP2 PUSH1 0x20 ADD SWAP2 PUSH2 0x922 JUMP JUMPDEST DUP3 ADD SWAP2 SWAP1 PUSH0 MSTORE PUSH1 0x20 PUSH0 KECCAK256 SWAP1 JUMPDEST DUP2 SLOAD DUP2 MSTORE SWAP1 PUSH1 0x1 ADD SWAP1 PUSH1 0x20 ADD DUP1 DUP4 GT PUSH2 0x905 JUMPI DUP3 SWAP1 SUB PUSH1 0x1F AND DUP3 ADD SWAP2 JUMPDEST POP POP POP POP POP SWAP1 DUP1 PUSH1 0x1 ADD SLOAD SWAP1 POP DUP3 JUMP JUMPDEST PUSH2 0x93A PUSH2 0x1B20 JUMP JUMPDEST PUSH2 0x943 PUSH0 PUSH2 0x1BA7 JUMP JUMPDEST JUMP JUMPDEST PUSH20 0x0 PUSH4 0x39DF137F PUSH1 0xC PUSH0 SWAP1 SLOAD SWAP1 PUSH2 0x100 EXP SWAP1 DIV PUSH20 0xFFFFFFFFFFFFFFFFFFFFFFFFFFFFFFFFFFFFFFFF AND PUSH20 0xFFFFFFFFFFFFFFFFFFFFFFFFFFFFFFFFFFFFFFFF AND CALLER PUSH20 0xFFFFFFFFFFFFFFFFFFFFFFFFFFFFFFFFFFFFFFFF AND EQ PUSH1 0x40 MLOAD DUP3 PUSH4 0xFFFFFFFF AND PUSH1 0xE0 SHL DUP2 MSTORE PUSH1 0x4 ADD PUSH2 0x9CB SWAP2 SWAP1 PUSH2 0x29F7 JUMP JUMPDEST PUSH1 0x20 PUSH1 0x40 MLOAD DUP1 DUP4 SUB DUP2 DUP7 GAS DELEGATECALL ISZERO DUP1 ISZERO PUSH2 0x9E6 JUMPI RETURNDATASIZE PUSH0 DUP1 RETURNDATACOPY RETURNDATASIZE PUSH0 REVERT JUMPDEST POP POP POP POP PUSH1 0x40 MLOAD RETURNDATASIZE PUSH1 0x1F NOT PUSH1 0x1F DUP3 ADD AND DUP3 ADD DUP1 PUSH1 0x40 MSTORE POP DUP2 ADD SWAP1 PUSH2 0xA0A SWAP2 SWAP1 PUSH2 0x2765 JUMP JUMPDEST POP PUSH2 0xA4B PUSH1 0x40 MLOAD DUP1 PUSH1 0x40 ADD PUSH1 0x40 MSTORE DUP1 PUSH1 0x9 DUP2 MSTORE PUSH1 0x20 ADD PUSH32 0x566F74616E746520320000000000000000000000000000000000000000000000 DUP2 MSTORE POP PUSH1 0x1E PUSH2 0x1406 JUMP JUMPDEST JUMP JUMPDEST PUSH2 0xA55 PUSH2 0x1B20 JUMP JUMPDEST PUSH1 0x2 SLOAD PUSH1 0x6 PUSH1 0x1 ADD SLOAD PUSH2 0xA68 SWAP2 SWAP1 PUSH2 0x2A23 JUMP JUMPDEST TIMESTAMP GT ISZERO PUSH2 0xA73 JUMPI PUSH0 DUP1 REVERT JUMPDEST PUSH0 DUP1 JUMPDEST PUSH1 0x3 DUP1 SLOAD SWAP1 POP DUP2 LT ISZERO PUSH2 0xB05 JUMPI DUP4 PUSH1 0x40 MLOAD PUSH1 0x20 ADD PUSH2 0xA94 SWAP2 SWAP1 PUSH2 0x2A90 JUMP JUMPDEST PUSH1 0x40 MLOAD PUSH1 0x20 DUP2 DUP4 SUB SUB DUP2 MSTORE SWAP1 PUSH1 0x40 MSTORE DUP1 MLOAD SWAP1 PUSH1 0x20 ADD KECCAK256 PUSH1 0x3 DUP3 DUP2 SLOAD DUP2 LT PUSH2 0xABE JUMPI PUSH2 0xABD PUSH2 0x255B JUMP JUMPDEST JUMPDEST SWAP1 PUSH0 MSTORE PUSH1 0x20 PUSH0 KECCAK256 ADD PUSH0 ADD PUSH1 0x40 MLOAD PUSH1 0x20 ADD PUSH2 0xAD8 SWAP2 SWAP1 PUSH2 0x2B26 JUMP JUMPDEST PUSH1 0x40 MLOAD PUSH1 0x20 DUP2 DUP4 SUB SUB DUP2 MSTORE SWAP1 PUSH1 0x40 MSTORE DUP1 MLOAD SWAP1 PUSH1 0x20 ADD KECCAK256 SUB PUSH2 0xAF8 JUMPI PUSH1 0x1 SWAP2 POP JUMPDEST DUP1 DUP1 PUSH1 0x1 ADD SWAP2 POP POP PUSH2 0xA76 JUMP JUMPDEST POP PUSH2 0xB10 DUP4 DUP3 PUSH2 0x1C68 JUMP JUMPDEST PUSH2 0xB1A DUP4 DUP4 PUSH2 0x1CBF JUMP JUMPDEST POP POP POP JUMP JUMPDEST PUSH0 DUP1 PUSH0 SWAP1 SLOAD SWAP1 PUSH2 0x100 EXP SWAP1 DIV PUSH20 0xFFFFFFFFFFFFFFFFFFFFFFFFFFFFFFFFFFFFFFFF AND SWAP1 POP SWAP1 JUMP JUMPDEST PUSH1 0x4 DUP2 DUP2 SLOAD DUP2 LT PUSH2 0xB55 JUMPI PUSH0 DUP1 REVERT JUMPDEST SWAP1 PUSH0 MSTORE PUSH1 0x20 PUSH0 KECCAK256 SWAP1 PUSH1 0x3 MUL ADD PUSH0 SWAP2 POP SWAP1 POP DUP1 PUSH0 ADD DUP1 SLOAD PUSH2 0xB74 SWAP1 PUSH2 0x25B5 JUMP JUMPDEST DUP1 PUSH1 0x1F ADD PUSH1 0x20 DUP1 SWAP2 DIV MUL PUSH1 0x20 ADD PUSH1 0x40 MLOAD SWAP1 DUP2 ADD PUSH1 0x40 MSTORE DUP1 SWAP3 SWAP2 SWAP1 DUP2 DUP2 MSTORE PUSH1 0x20 ADD DUP3 DUP1 SLOAD PUSH2 0xBA0 SWAP1 PUSH2 0x25B5 JUMP JUMPDEST DUP1 ISZERO PUSH2 0xBEB JUMPI DUP1 PUSH1 0x1F LT PUSH2 0xBC2 JUMPI PUSH2 0x100 DUP1 DUP4 SLOAD DIV MUL DUP4 MSTORE SWAP2 PUSH1 0x20 ADD SWAP2 PUSH2 0xBEB JUMP JUMPDEST DUP3 ADD SWAP2 SWAP1 PUSH0 MSTORE PUSH1 0x20 PUSH0 KECCAK256 SWAP1 JUMPDEST DUP2 SLOAD DUP2 MSTORE SWAP1 PUSH1 0x1 ADD SWAP1 PUSH1 0x20 ADD DUP1 DUP4 GT PUSH2 0xBCE JUMPI DUP3 SWAP1 SUB PUSH1 0x1F AND DUP3 ADD SWAP2 JUMPDEST POP POP POP POP POP SWAP1 DUP1 PUSH1 0x1 ADD DUP1 SLOAD PUSH2 0xC00 SWAP1 PUSH2 0x25B5 JUMP JUMPDEST DUP1 PUSH1 0x1F ADD PUSH1 0x20 DUP1 SWAP2 DIV MUL PUSH1 0x20 ADD PUSH1 0x40 MLOAD SWAP1 DUP2 ADD PUSH1 0x40 MSTORE DUP1 SWAP3 SWAP2 SWAP1 DUP2 DUP2 MSTORE PUSH1 0x20 ADD DUP3 DUP1 SLOAD PUSH2 0xC2C SWAP1 PUSH2 0x25B5 JUMP JUMPDEST DUP1 ISZERO PUSH2 0xC77 JUMPI DUP1 PUSH1 0x1F LT PUSH2 0xC4E JUMPI PUSH2 0x100 DUP1 DUP4 SLOAD DIV MUL DUP4 MSTORE SWAP2 PUSH1 0x20 ADD SWAP2 PUSH2 0xC77 JUMP JUMPDEST DUP3 ADD SWAP2 SWAP1 PUSH0 MSTORE PUSH1 0x20 PUSH0 KECCAK256 SWAP1 JUMPDEST DUP2 SLOAD DUP2 MSTORE SWAP1 PUSH1 0x1 ADD SWAP1 PUSH1 0x20 ADD DUP1 DUP4 GT PUSH2 0xC5A JUMPI DUP3 SWAP1 SUB PUSH1 0x1F AND DUP3 ADD SWAP2 JUMPDEST POP POP POP POP POP SWAP1 DUP1 PUSH1 0x2 ADD SLOAD SWAP1 POP DUP4 JUMP JUMPDEST PUSH1 0x60 DUP1 PUSH1 0x6 PUSH1 0x1 ADD SLOAD TIMESTAMP LT ISZERO DUP1 ISZERO PUSH2 0xCB1 JUMPI POP PUSH1 0x1 SLOAD PUSH1 0x6 PUSH1 0x1 ADD SLOAD PUSH2 0xCAD SWAP2 SWAP1 PUSH2 0x2528 JUMP JUMPDEST TIMESTAMP GT ISZERO JUMPDEST PUSH2 0xCB9 JUMPI PUSH0 DUP1 REVERT JUMPDEST PUSH0 PUSH1 0x4 DUP5 DUP2 SLOAD DUP2 LT PUSH2 0xCCE JUMPI PUSH2 0xCCD PUSH2 0x255B JUMP JUMPDEST JUMPDEST SWAP1 PUSH0 MSTORE PUSH1 0x20 PUSH0 KECCAK256 SWAP1 PUSH1 0x3 MUL ADD SWAP1 POP DUP1 PUSH0 ADD DUP2 PUSH1 0x1 ADD DUP2 DUP1 SLOAD PUSH2 0xCEF SWAP1 PUSH2 0x25B5 JUMP JUMPDEST DUP1 PUSH1 0x1F ADD PUSH1 0x20 DUP1 SWAP2 DIV MUL PUSH1 0x20 ADD PUSH1 0x40 MLOAD SWAP1 DUP2 ADD PUSH1 0x40 MSTORE DUP1 SWAP3 SWAP2 SWAP1 DUP2 DUP2 MSTORE PUSH1 0x20 ADD DUP3 DUP1 SLOAD PUSH2 0xD1B SWAP1 PUSH2 0x25B5 JUMP JUMPDEST DUP1 ISZERO PUSH2 0xD66 JUMPI DUP1 PUSH1 0x1F LT PUSH2 0xD3D JUMPI PUSH2 0x100 DUP1 DUP4 SLOAD DIV MUL DUP4 MSTORE SWAP2 PUSH1 0x20 ADD SWAP2 PUSH2 0xD66 JUMP JUMPDEST DUP3 ADD SWAP2 SWAP1 PUSH0 MSTORE PUSH1 0x20 PUSH0 KECCAK256 SWAP1 JUMPDEST DUP2 SLOAD DUP2 MSTORE SWAP1 PUSH1 0x1 ADD SWAP1 PUSH1 0x20 ADD DUP1 DUP4 GT PUSH2 0xD49 JUMPI DUP3 SWAP1 SUB PUSH1 0x1F AND DUP3 ADD SWAP2 JUMPDEST POP POP POP POP POP SWAP2 POP DUP1 DUP1 SLOAD PUSH2 0xD79 SWAP1 PUSH2 0x25B5 JUMP JUMPDEST DUP1 PUSH1 0x1F ADD PUSH1 0x20 DUP1 SWAP2 DIV MUL PUSH1 0x20 ADD PUSH1 0x40 MLOAD SWAP1 DUP2 ADD PUSH1 0x40 MSTORE DUP1 SWAP3 SWAP2 SWAP1 DUP2 DUP2 MSTORE PUSH1 0x20 ADD DUP3 DUP1 SLOAD PUSH2 0xDA5 SWAP1 PUSH2 0x25B5 JUMP JUMPDEST DUP1 ISZERO PUSH2 0xDF0 JUMPI DUP1 PUSH1 0x1F LT PUSH2 0xDC7 JUMPI PUSH2 0x100 DUP1 DUP4 SLOAD DIV MUL DUP4 MSTORE SWAP2 PUSH1 0x20 ADD SWAP2 PUSH2 0xDF0 JUMP JUMPDEST DUP3 ADD SWAP2 SWAP1 PUSH0 MSTORE PUSH1 0x20 PUSH0 KECCAK256 SWAP1 JUMPDEST DUP2 SLOAD DUP2 MSTORE SWAP1 PUSH1 0x1 ADD SWAP1 PUSH1 0x20 ADD DUP1 DUP4 GT PUSH2 0xDD3 JUMPI DUP3 SWAP1 SUB PUSH1 0x1F AND DUP3 ADD SWAP2 JUMPDEST POP POP POP POP POP SWAP1 POP SWAP3 POP SWAP3 POP POP SWAP2 POP SWAP2 JUMP JUMPDEST PUSH20 0x0 PUSH4 0x39DF137F PUSH1 0xE PUSH0 SWAP1 SLOAD SWAP1 PUSH2 0x100 EXP SWAP1 DIV PUSH20 0xFFFFFFFFFFFFFFFFFFFFFFFFFFFFFFFFFFFFFFFF AND PUSH20 0xFFFFFFFFFFFFFFFFFFFFFFFFFFFFFFFFFFFFFFFF AND CALLER PUSH20 0xFFFFFFFFFFFFFFFFFFFFFFFFFFFFFFFFFFFFFFFF AND EQ PUSH1 0x40 MLOAD DUP3 PUSH4 0xFFFFFFFF AND PUSH1 0xE0 SHL DUP2 MSTORE PUSH1 0x4 ADD PUSH2 0xE87 SWAP2 SWAP1 PUSH2 0x29F7 JUMP JUMPDEST PUSH1 0x20 PUSH1 0x40 MLOAD DUP1 DUP4 SUB DUP2 DUP7 GAS DELEGATECALL ISZERO DUP1 ISZERO PUSH2 0xEA2 JUMPI RETURNDATASIZE PUSH0 DUP1 RETURNDATACOPY RETURNDATASIZE PUSH0 REVERT JUMPDEST POP POP POP POP PUSH1 0x40 MLOAD RETURNDATASIZE PUSH1 0x1F NOT PUSH1 0x1F DUP3 ADD AND DUP3 ADD DUP1 PUSH1 0x40 MSTORE POP DUP2 ADD SWAP1 PUSH2 0xEC6 SWAP2 SWAP1 PUSH2 0x2765 JUMP JUMPDEST POP PUSH20 0x0 PUSH4 0xABCD7960 PUSH1 0x9 PUSH0 CALLER PUSH20 0xFFFFFFFFFFFFFFFFFFFFFFFFFFFFFFFFFFFFFFFF AND PUSH20 0xFFFFFFFFFFFFFFFFFFFFFFFFFFFFFFFFFFFFFFFF AND DUP2 MSTORE PUSH1 0x20 ADD SWAP1 DUP2 MSTORE PUSH1 0x20 ADD PUSH0 KECCAK256 SLOAD PUSH1 0x2 PUSH1 0x40 MLOAD DUP4 PUSH4 0xFFFFFFFF AND PUSH1 0xE0 SHL DUP2 MSTORE PUSH1 0x4 ADD PUSH2 0xF3E SWAP3 SWAP2 SWAP1 PUSH2 0x2BFD JUMP JUMPDEST PUSH1 0x20 PUSH1 0x40 MLOAD DUP1 DUP4 SUB DUP2 DUP7 GAS DELEGATECALL ISZERO DUP1 ISZERO PUSH2 0xF59 JUMPI RETURNDATASIZE PUSH0 DUP1 RETURNDATACOPY RETURNDATASIZE PUSH0 REVERT JUMPDEST POP POP POP POP PUSH1 0x40 MLOAD RETURNDATASIZE PUSH1 0x1F NOT PUSH1 0x1F DUP3 ADD AND DUP3 ADD DUP1 PUSH1 0x40 MSTORE POP DUP2 ADD SWAP1 PUSH2 0xF7D SWAP2 SWAP1 PUSH2 0x2765 JUMP JUMPDEST POP JUMP JUMPDEST PUSH20 0x0 PUSH4 0x39DF137F PUSH1 0xD PUSH0 SWAP1 SLOAD SWAP1 PUSH2 0x100 EXP SWAP1 DIV PUSH20 0xFFFFFFFFFFFFFFFFFFFFFFFFFFFFFFFFFFFFFFFF AND PUSH20 0xFFFFFFFFFFFFFFFFFFFFFFFFFFFFFFFFFFFFFFFF AND CALLER PUSH20 0xFFFFFFFFFFFFFFFFFFFFFFFFFFFFFFFFFFFFFFFF AND EQ PUSH1 0x40 MLOAD DUP3 PUSH4 0xFFFFFFFF AND PUSH1 0xE0 SHL DUP2 MSTORE PUSH1 0x4 ADD PUSH2 0x1006 SWAP2 SWAP1 PUSH2 0x29F7 JUMP JUMPDEST PUSH1 0x20 PUSH1 0x40 MLOAD DUP1 DUP4 SUB DUP2 DUP7 GAS DELEGATECALL ISZERO DUP1 ISZERO PUSH2 0x1021 JUMPI RETURNDATASIZE PUSH0 DUP1 RETURNDATACOPY RETURNDATASIZE PUSH0 REVERT JUMPDEST POP POP POP POP PUSH1 0x40 MLOAD RETURNDATASIZE PUSH1 0x1F NOT PUSH1 0x1F DUP3 ADD AND DUP3 ADD DUP1 PUSH1 0x40 MSTORE POP DUP2 ADD SWAP1 PUSH2 0x1045 SWAP2 SWAP1 PUSH2 0x2765 JUMP JUMPDEST POP PUSH2 0x1086 PUSH1 0x40 MLOAD DUP1 PUSH1 0x40 ADD PUSH1 0x40 MSTORE DUP1 PUSH1 0x9 DUP2 MSTORE PUSH1 0x20 ADD PUSH32 0x566F74616E746520330000000000000000000000000000000000000000000000 DUP2 MSTORE POP PUSH1 0x37 PUSH2 0x1406 JUMP JUMPDEST JUMP JUMPDEST PUSH2 0x1090 PUSH2 0x1B20 JUMP JUMPDEST PUSH0 PUSH1 0x6 PUSH1 0x1 ADD SLOAD EQ PUSH2 0x10A0 JUMPI PUSH0 DUP1 REVERT JUMPDEST DUP2 PUSH1 0x6 PUSH0 ADD SWAP1 DUP2 PUSH2 0x10B1 SWAP2 SWAP1 PUSH2 0x2DB9 JUMP JUMPDEST POP DUP1 PUSH1 0x6 PUSH1 0x1 ADD DUP2 SWAP1 SSTORE POP POP POP JUMP JUMPDEST PUSH1 0x5 DUP2 DUP2 SLOAD DUP2 LT PUSH2 0x10CF JUMPI PUSH0 DUP1 REVERT JUMPDEST SWAP1 PUSH0 MSTORE PUSH1 0x20 PUSH0 KECCAK256 SWAP1 PUSH1 0x2 MUL ADD PUSH0 SWAP2 POP SWAP1 POP DUP1 PUSH0 ADD DUP1 SLOAD PUSH2 0x10EE SWAP1 PUSH2 0x25B5 JUMP JUMPDEST DUP1 PUSH1 0x1F ADD PUSH1 0x20 DUP1 SWAP2 DIV MUL PUSH1 0x20 ADD PUSH1 0x40 MLOAD SWAP1 DUP2 ADD PUSH1 0x40 MSTORE DUP1 SWAP3 SWAP2 SWAP1 DUP2 DUP2 MSTORE PUSH1 0x20 ADD DUP3 DUP1 SLOAD PUSH2 0x111A SWAP1 PUSH2 0x25B5 JUMP JUMPDEST DUP1 ISZERO PUSH2 0x1165 JUMPI DUP1 PUSH1 0x1F LT PUSH2 0x113C JUMPI PUSH2 0x100 DUP1 DUP4 SLOAD DIV MUL DUP4 MSTORE SWAP2 PUSH1 0x20 ADD SWAP2 PUSH2 0x1165 JUMP JUMPDEST DUP3 ADD SWAP2 SWAP1 PUSH0 MSTORE PUSH1 0x20 PUSH0 KECCAK256 SWAP1 JUMPDEST DUP2 SLOAD DUP2 MSTORE SWAP1 PUSH1 0x1 ADD SWAP1 PUSH1 0x20 ADD DUP1 DUP4 GT PUSH2 0x1148 JUMPI DUP3 SWAP1 SUB PUSH1 0x1F AND DUP3 ADD SWAP2 JUMPDEST POP POP POP POP POP SWAP1 DUP1 PUSH1 0x1 ADD PUSH0 SWAP1 SLOAD SWAP1 PUSH2 0x100 EXP SWAP1 DIV PUSH1 0xFF AND SWAP1 POP DUP3 JUMP JUMPDEST PUSH20 0x0 PUSH4 0x39DF137F PUSH1 0xF PUSH0 SWAP1 SLOAD SWAP1 PUSH2 0x100 EXP SWAP1 DIV PUSH20 0xFFFFFFFFFFFFFFFFFFFFFFFFFFFFFFFFFFFFFFFF AND PUSH20 0xFFFFFFFFFFFFFFFFFFFFFFFFFFFFFFFFFFFFFFFF AND CALLER PUSH20 0xFFFFFFFFFFFFFFFFFFFFFFFFFFFFFFFFFFFFFFFF AND EQ PUSH1 0x40 MLOAD DUP3 PUSH4 0xFFFFFFFF AND PUSH1 0xE0 SHL DUP2 MSTORE PUSH1 0x4 ADD PUSH2 0x1207 SWAP2 SWAP1 PUSH2 0x29F7 JUMP JUMPDEST PUSH1 0x20 PUSH1 0x40 MLOAD DUP1 DUP4 SUB DUP2 DUP7 GAS DELEGATECALL ISZERO DUP1 ISZERO PUSH2 0x1222 JUMPI RETURNDATASIZE PUSH0 DUP1 RETURNDATACOPY RETURNDATASIZE PUSH0 REVERT JUMPDEST POP POP POP POP PUSH1 0x40 MLOAD RETURNDATASIZE PUSH1 0x1F NOT PUSH1 0x1F DUP3 ADD AND DUP3 ADD DUP1 PUSH1 0x40 MSTORE POP DUP2 ADD SWAP1 PUSH2 0x1246 SWAP2 SWAP1 PUSH2 0x2765 JUMP JUMPDEST POP PUSH2 0x1287 PUSH1 0x40 MLOAD DUP1 PUSH1 0x40 ADD PUSH1 0x40 MSTORE DUP1 PUSH1 0x9 DUP2 MSTORE PUSH1 0x20 ADD PUSH32 0x566F74616E746520350000000000000000000000000000000000000000000000 DUP2 MSTORE POP PUSH1 0x1B PUSH2 0x1406 JUMP JUMPDEST JUMP JUMPDEST PUSH0 PUSH1 0x1 SLOAD PUSH1 0x6 PUSH1 0x1 ADD SLOAD PUSH2 0x129D SWAP2 SWAP1 PUSH2 0x2528 JUMP JUMPDEST TIMESTAMP LT ISZERO PUSH2 0x12A8 JUMPI PUSH0 DUP1 REVERT JUMPDEST PUSH0 DUP1 JUMPDEST PUSH1 0x4 DUP1 SLOAD SWAP1 POP DUP2 LT ISZERO PUSH2 0x12F6 JUMPI PUSH1 0x4 DUP2 DUP2 SLOAD DUP2 LT PUSH2 0x12CC JUMPI PUSH2 0x12CB PUSH2 0x255B JUMP JUMPDEST JUMPDEST SWAP1 PUSH0 MSTORE PUSH1 0x20 PUSH0 KECCAK256 SWAP1 PUSH1 0x3 MUL ADD PUSH1 0x2 ADD SLOAD DUP3 PUSH2 0x12E7 SWAP2 SWAP1 PUSH2 0x2528 JUMP JUMPDEST SWAP2 POP DUP1 DUP1 PUSH1 0x1 ADD SWAP2 POP POP PUSH2 0x12AB JUMP JUMPDEST POP DUP1 SWAP2 POP POP SWAP1 JUMP JUMPDEST PUSH20 0x0 PUSH4 0x39DF137F PUSH1 0xB PUSH0 SWAP1 SLOAD SWAP1 PUSH2 0x100 EXP SWAP1 DIV PUSH20 0xFFFFFFFFFFFFFFFFFFFFFFFFFFFFFFFFFFFFFFFF AND PUSH20 0xFFFFFFFFFFFFFFFFFFFFFFFFFFFFFFFFFFFFFFFF AND CALLER PUSH20 0xFFFFFFFFFFFFFFFFFFFFFFFFFFFFFFFFFFFFFFFF AND EQ PUSH1 0x40 MLOAD DUP3 PUSH4 0xFFFFFFFF AND PUSH1 0xE0 SHL DUP2 MSTORE PUSH1 0x4 ADD PUSH2 0x1384 SWAP2 SWAP1 PUSH2 0x29F7 JUMP JUMPDEST PUSH1 0x20 PUSH1 0x40 MLOAD DUP1 DUP4 SUB DUP2 DUP7 GAS DELEGATECALL ISZERO DUP1 ISZERO PUSH2 0x139F JUMPI RETURNDATASIZE PUSH0 DUP1 RETURNDATACOPY RETURNDATASIZE PUSH0 REVERT JUMPDEST POP POP POP POP PUSH1 0x40 MLOAD RETURNDATASIZE PUSH1 0x1F NOT PUSH1 0x1F DUP3 ADD AND DUP3 ADD DUP1 PUSH1 0x40 MSTORE POP DUP2 ADD SWAP1 PUSH2 0x13C3 SWAP2 SWAP1 PUSH2 0x2765 JUMP JUMPDEST POP PUSH2 0x1404 PUSH1 0x40 MLOAD DUP1 PUSH1 0x40 ADD PUSH1 0x40 MSTORE DUP1 PUSH1 0x9 DUP2 MSTORE PUSH1 0x20 ADD PUSH32 0x566F74616E746520310000000000000000000000000000000000000000000000 DUP2 MSTORE POP PUSH1 0x12 PUSH2 0x1406 JUMP JUMPDEST JUMP JUMPDEST DUP1 PUSH1 0x12 DUP2 PUSH1 0xFF AND LT ISZERO PUSH2 0x1417 JUMPI PUSH0 DUP1 REVERT JUMPDEST PUSH1 0x2 SLOAD PUSH1 0x6 PUSH1 0x1 ADD SLOAD PUSH2 0x142A SWAP2 SWAP1 PUSH2 0x2A23 JUMP JUMPDEST TIMESTAMP GT ISZERO PUSH2 0x1435 JUMPI PUSH0 DUP1 REVERT JUMPDEST PUSH0 PUSH1 0x9 PUSH0 CALLER PUSH20 0xFFFFFFFFFFFFFFFFFFFFFFFFFFFFFFFFFFFFFFFF AND PUSH20 0xFFFFFFFFFFFFFFFFFFFFFFFFFFFFFFFFFFFFFFFF AND DUP2 MSTORE PUSH1 0x20 ADD SWAP1 DUP2 MSTORE PUSH1 0x20 ADD PUSH0 KECCAK256 SLOAD EQ PUSH2 0x147D JUMPI PUSH0 DUP1 REVERT JUMPDEST PUSH2 0x1486 DUP4 PUSH2 0x1D3C JUMP JUMPDEST POP POP POP JUMP JUMPDEST PUSH20 0x0 PUSH4 0x39DF137F PUSH1 0xE PUSH0 SWAP1 SLOAD SWAP1 PUSH2 0x100 EXP SWAP1 DIV PUSH20 0xFFFFFFFFFFFFFFFFFFFFFFFFFFFFFFFFFFFFFFFF AND PUSH20 0xFFFFFFFFFFFFFFFFFFFFFFFFFFFFFFFFFFFFFFFF AND CALLER PUSH20 0xFFFFFFFFFFFFFFFFFFFFFFFFFFFFFFFFFFFFFFFF AND EQ PUSH1 0x40 MLOAD DUP3 PUSH4 0xFFFFFFFF AND PUSH1 0xE0 SHL DUP2 MSTORE PUSH1 0x4 ADD PUSH2 0x1511 SWAP2 SWAP1 PUSH2 0x29F7 JUMP JUMPDEST PUSH1 0x20 PUSH1 0x40 MLOAD DUP1 DUP4 SUB DUP2 DUP7 GAS DELEGATECALL ISZERO DUP1 ISZERO PUSH2 0x152C JUMPI RETURNDATASIZE PUSH0 DUP1 RETURNDATACOPY RETURNDATASIZE PUSH0 REVERT JUMPDEST POP POP POP POP PUSH1 0x40 MLOAD RETURNDATASIZE PUSH1 0x1F NOT PUSH1 0x1F DUP3 ADD AND DUP3 ADD DUP1 PUSH1 0x40 MSTORE POP DUP2 ADD SWAP1 PUSH2 0x1550 SWAP2 SWAP1 PUSH2 0x2765 JUMP JUMPDEST POP PUSH2 0x1591 PUSH1 0x40 MLOAD DUP1 PUSH1 0x40 ADD PUSH1 0x40 MSTORE DUP1 PUSH1 0x9 DUP2 MSTORE PUSH1 0x20 ADD PUSH32 0x566F74616E746520340000000000000000000000000000000000000000000000 DUP2 MSTORE POP PUSH1 0x46 PUSH2 0x1406 JUMP JUMPDEST JUMP JUMPDEST PUSH0 PUSH1 0x6 PUSH1 0x1 ADD SLOAD TIMESTAMP LT ISZERO DUP1 ISZERO PUSH2 0x15BB JUMPI POP PUSH1 0x1 SLOAD PUSH1 0x6 PUSH1 0x1 ADD SLOAD PUSH2 0x15B7 SWAP2 SWAP1 PUSH2 0x2528 JUMP JUMPDEST TIMESTAMP GT ISZERO JUMPDEST PUSH2 0x15C3 JUMPI PUSH0 DUP1 REVERT JUMPDEST PUSH1 0x4 DUP1 SLOAD SWAP1 POP SWAP1 POP SWAP1 JUMP JUMPDEST PUSH1 0x60 PUSH1 0x1 SLOAD PUSH1 0x6 PUSH1 0x1 ADD SLOAD PUSH2 0x15E3 SWAP2 SWAP1 PUSH2 0x2528 JUMP JUMPDEST TIMESTAMP LT ISZERO PUSH2 0x15EE JUMPI PUSH0 DUP1 REVERT JUMPDEST PUSH1 0x4 DUP1 SLOAD DUP1 PUSH1 0x20 MUL PUSH1 0x20 ADD PUSH1 0x40 MLOAD SWAP1 DUP2 ADD PUSH1 0x40 MSTORE DUP1 SWAP3 SWAP2 SWAP1 DUP2 DUP2 MSTORE PUSH1 0x20 ADD PUSH0 SWAP1 JUMPDEST DUP3 DUP3 LT ISZERO PUSH2 0x1768 JUMPI DUP4 DUP3 SWAP1 PUSH0 MSTORE PUSH1 0x20 PUSH0 KECCAK256 SWAP1 PUSH1 0x3 MUL ADD PUSH1 0x40 MLOAD DUP1 PUSH1 0x60 ADD PUSH1 0x40 MSTORE SWAP1 DUP2 PUSH0 DUP3 ADD DUP1 SLOAD PUSH2 0x163F SWAP1 PUSH2 0x25B5 JUMP JUMPDEST DUP1 PUSH1 0x1F ADD PUSH1 0x20 DUP1 SWAP2 DIV MUL PUSH1 0x20 ADD PUSH1 0x40 MLOAD SWAP1 DUP2 ADD PUSH1 0x40 MSTORE DUP1 SWAP3 SWAP2 SWAP1 DUP2 DUP2 MSTORE PUSH1 0x20 ADD DUP3 DUP1 SLOAD PUSH2 0x166B SWAP1 PUSH2 0x25B5 JUMP JUMPDEST DUP1 ISZERO PUSH2 0x16B6 JUMPI DUP1 PUSH1 0x1F LT PUSH2 0x168D JUMPI PUSH2 0x100 DUP1 DUP4 SLOAD DIV MUL DUP4 MSTORE SWAP2 PUSH1 0x20 ADD SWAP2 PUSH2 0x16B6 JUMP JUMPDEST DUP3 ADD SWAP2 SWAP1 PUSH0 MSTORE PUSH1 0x20 PUSH0 KECCAK256 SWAP1 JUMPDEST DUP2 SLOAD DUP2 MSTORE SWAP1 PUSH1 0x1 ADD SWAP1 PUSH1 0x20 ADD DUP1 DUP4 GT PUSH2 0x1699 JUMPI DUP3 SWAP1 SUB PUSH1 0x1F AND DUP3 ADD SWAP2 JUMPDEST POP POP POP POP POP DUP2 MSTORE PUSH1 0x20 ADD PUSH1 0x1 DUP3 ADD DUP1 SLOAD PUSH2 0x16CF SWAP1 PUSH2 0x25B5 JUMP JUMPDEST DUP1 PUSH1 0x1F ADD PUSH1 0x20 DUP1 SWAP2 DIV MUL PUSH1 0x20 ADD PUSH1 0x40 MLOAD SWAP1 DUP2 ADD PUSH1 0x40 MSTORE DUP1 SWAP3 SWAP2 SWAP1 DUP2 DUP2 MSTORE PUSH1 0x20 ADD DUP3 DUP1 SLOAD PUSH2 0x16FB SWAP1 PUSH2 0x25B5 JUMP JUMPDEST DUP1 ISZERO PUSH2 0x1746 JUMPI DUP1 PUSH1 0x1F LT PUSH2 0x171D JUMPI PUSH2 0x100 DUP1 DUP4 SLOAD DIV MUL DUP4 MSTORE SWAP2 PUSH1 0x20 ADD SWAP2 PUSH2 0x1746 JUMP JUMPDEST DUP3 ADD SWAP2 SWAP1 PUSH0 MSTORE PUSH1 0x20 PUSH0 KECCAK256 SWAP1 JUMPDEST DUP2 SLOAD DUP2 MSTORE SWAP1 PUSH1 0x1 ADD SWAP1 PUSH1 0x20 ADD DUP1 DUP4 GT PUSH2 0x1729 JUMPI DUP3 SWAP1 SUB PUSH1 0x1F AND DUP3 ADD SWAP2 JUMPDEST POP POP POP POP POP DUP2 MSTORE PUSH1 0x20 ADD PUSH1 0x2 DUP3 ADD SLOAD DUP2 MSTORE POP POP DUP2 MSTORE PUSH1 0x20 ADD SWAP1 PUSH1 0x1 ADD SWAP1 PUSH2 0x160F JUMP JUMPDEST POP POP POP POP SWAP1 POP SWAP1 JUMP JUMPDEST PUSH20 0x0 PUSH4 0x39DF137F PUSH1 0xA PUSH0 SWAP1 SLOAD SWAP1 PUSH2 0x100 EXP SWAP1 DIV PUSH20 0xFFFFFFFFFFFFFFFFFFFFFFFFFFFFFFFFFFFFFFFF AND PUSH20 0xFFFFFFFFFFFFFFFFFFFFFFFFFFFFFFFFFFFFFFFF AND CALLER PUSH20 0xFFFFFFFFFFFFFFFFFFFFFFFFFFFFFFFFFFFFFFFF AND EQ PUSH1 0x40 MLOAD DUP3 PUSH4 0xFFFFFFFF AND PUSH1 0xE0 SHL DUP2 MSTORE PUSH1 0x4 ADD PUSH2 0x17F7 SWAP2 SWAP1 PUSH2 0x27DA JUMP JUMPDEST PUSH1 0x20 PUSH1 0x40 MLOAD DUP1 DUP4 SUB DUP2 DUP7 GAS DELEGATECALL ISZERO DUP1 ISZERO PUSH2 0x1812 JUMPI RETURNDATASIZE PUSH0 DUP1 RETURNDATACOPY RETURNDATASIZE PUSH0 REVERT JUMPDEST POP POP POP POP PUSH1 0x40 MLOAD RETURNDATASIZE PUSH1 0x1F NOT PUSH1 0x1F DUP3 ADD AND DUP3 ADD DUP1 PUSH1 0x40 MSTORE POP DUP2 ADD SWAP1 PUSH2 0x1836 SWAP2 SWAP1 PUSH2 0x2765 JUMP JUMPDEST POP PUSH2 0x18AB PUSH1 0x40 MLOAD DUP1 PUSH1 0x40 ADD PUSH1 0x40 MSTORE DUP1 PUSH1 0x9 DUP2 MSTORE PUSH1 0x20 ADD PUSH32 0x5061727469646F20410000000000000000000000000000000000000000000000 DUP2 MSTORE POP PUSH1 0x40 MLOAD DUP1 PUSH1 0x40 ADD PUSH1 0x40 MSTORE DUP1 PUSH1 0xB DUP2 MSTORE PUSH1 0x20 ADD PUSH32 0x43616E64696461746F2031000000000000000000000000000000000000000000 DUP2 MSTORE POP PUSH2 0xA4D JUMP JUMPDEST PUSH2 0x191F PUSH1 0x40 MLOAD DUP1 PUSH1 0x40 ADD PUSH1 0x40 MSTORE DUP1 PUSH1 0x9 DUP2 MSTORE PUSH1 0x20 ADD PUSH32 0x5061727469646F20420000000000000000000000000000000000000000000000 DUP2 MSTORE POP PUSH1 0x40 MLOAD DUP1 PUSH1 0x40 ADD PUSH1 0x40 MSTORE DUP1 PUSH1 0xB DUP2 MSTORE PUSH1 0x20 ADD PUSH32 0x43616E64696461746F2032000000000000000000000000000000000000000000 DUP2 MSTORE POP PUSH2 0xA4D JUMP JUMPDEST PUSH2 0x1993 PUSH1 0x40 MLOAD DUP1 PUSH1 0x40 ADD PUSH1 0x40 MSTORE DUP1 PUSH1 0x9 DUP2 MSTORE PUSH1 0x20 ADD PUSH32 0x5061727469646F20430000000000000000000000000000000000000000000000 DUP2 MSTORE POP PUSH1 0x40 MLOAD DUP1 PUSH1 0x40 ADD PUSH1 0x40 MSTORE DUP1 PUSH1 0xB DUP2 MSTORE PUSH1 0x20 ADD PUSH32 0x43616E64696461746F2033000000000000000000000000000000000000000000 DUP2 MSTORE POP PUSH2 0xA4D JUMP JUMPDEST JUMP JUMPDEST PUSH2 0x199D PUSH2 0x1B20 JUMP JUMPDEST PUSH0 PUSH20 0xFFFFFFFFFFFFFFFFFFFFFFFFFFFFFFFFFFFFFFFF AND DUP2 PUSH20 0xFFFFFFFFFFFFFFFFFFFFFFFFFFFFFFFFFFFFFFFF AND SUB PUSH2 0x1A0D JUMPI PUSH0 PUSH1 0x40 MLOAD PUSH32 0x1E4FBDF700000000000000000000000000000000000000000000000000000000 DUP2 MSTORE PUSH1 0x4 ADD PUSH2 0x1A04 SWAP2 SWAP1 PUSH2 0x2144 JUMP JUMPDEST PUSH1 0x40 MLOAD DUP1 SWAP2 SUB SWAP1 REVERT JUMPDEST PUSH2 0x1A16 DUP2 PUSH2 0x1BA7 JUMP JUMPDEST POP JUMP JUMPDEST PUSH20 0x0 PUSH4 0x39DF137F PUSH1 0xA PUSH0 SWAP1 SLOAD SWAP1 PUSH2 0x100 EXP SWAP1 DIV PUSH20 0xFFFFFFFFFFFFFFFFFFFFFFFFFFFFFFFFFFFFFFFF AND PUSH20 0xFFFFFFFFFFFFFFFFFFFFFFFFFFFFFFFFFFFFFFFF AND CALLER PUSH20 0xFFFFFFFFFFFFFFFFFFFFFFFFFFFFFFFFFFFFFFFF AND EQ PUSH1 0x40 MLOAD DUP3 PUSH4 0xFFFFFFFF AND PUSH1 0xE0 SHL DUP2 MSTORE PUSH1 0x4 ADD PUSH2 0x1A9F SWAP2 SWAP1 PUSH2 0x27DA JUMP JUMPDEST PUSH1 0x20 PUSH1 0x40 MLOAD DUP1 DUP4 SUB DUP2 DUP7 GAS DELEGATECALL ISZERO DUP1 ISZERO PUSH2 0x1ABA JUMPI RETURNDATASIZE PUSH0 DUP1 RETURNDATACOPY RETURNDATASIZE PUSH0 REVERT JUMPDEST POP POP POP POP PUSH1 0x40 MLOAD RETURNDATASIZE PUSH1 0x1F NOT PUSH1 0x1F DUP3 ADD AND DUP3 ADD DUP1 PUSH1 0x40 MSTORE POP DUP2 ADD SWAP1 PUSH2 0x1ADE SWAP2 SWAP1 PUSH2 0x2765 JUMP JUMPDEST POP PUSH2 0x1B1E PUSH1 0x40 MLOAD DUP1 PUSH1 0x40 ADD PUSH1 0x40 MSTORE DUP1 PUSH1 0x13 DUP2 MSTORE PUSH1 0x20 ADD PUSH32 0x4A6F726E61646120646520707275656261203200000000000000000000000000 DUP2 MSTORE POP TIMESTAMP PUSH2 0x1088 JUMP JUMPDEST JUMP JUMPDEST PUSH2 0x1B28 PUSH2 0x1E06 JUMP JUMPDEST PUSH20 0xFFFFFFFFFFFFFFFFFFFFFFFFFFFFFFFFFFFFFFFF AND PUSH2 0x1B46 PUSH2 0xB1F JUMP JUMPDEST PUSH20 0xFFFFFFFFFFFFFFFFFFFFFFFFFFFFFFFFFFFFFFFF AND EQ PUSH2 0x1BA5 JUMPI PUSH2 0x1B69 PUSH2 0x1E06 JUMP JUMPDEST PUSH1 0x40 MLOAD PUSH32 0x118CDAA700000000000000000000000000000000000000000000000000000000 DUP2 MSTORE PUSH1 0x4 ADD PUSH2 0x1B9C SWAP2 SWAP1 PUSH2 0x2144 JUMP JUMPDEST PUSH1 0x40 MLOAD DUP1 SWAP2 SUB SWAP1 REVERT JUMPDEST JUMP JUMPDEST PUSH0 DUP1 PUSH0 SWAP1 SLOAD SWAP1 PUSH2 0x100 EXP SWAP1 DIV PUSH20 0xFFFFFFFFFFFFFFFFFFFFFFFFFFFFFFFFFFFFFFFF AND SWAP1 POP DUP2 PUSH0 DUP1 PUSH2 0x100 EXP DUP2 SLOAD DUP2 PUSH20 0xFFFFFFFFFFFFFFFFFFFFFFFFFFFFFFFFFFFFFFFF MUL NOT AND SWAP1 DUP4 PUSH20 0xFFFFFFFFFFFFFFFFFFFFFFFFFFFFFFFFFFFFFFFF AND MUL OR SWAP1 SSTORE POP DUP2 PUSH20 0xFFFFFFFFFFFFFFFFFFFFFFFFFFFFFFFFFFFFFFFF AND DUP2 PUSH20 0xFFFFFFFFFFFFFFFFFFFFFFFFFFFFFFFFFFFFFFFF AND PUSH32 0x8BE0079C531659141344CD1FD0A4F28419497F9722A3DAAFE3B4186F6B6457E0 PUSH1 0x40 MLOAD PUSH1 0x40 MLOAD DUP1 SWAP2 SUB SWAP1 LOG3 POP POP JUMP JUMPDEST DUP1 ISZERO PUSH2 0x1C72 JUMPI PUSH0 DUP1 REVERT JUMPDEST PUSH1 0x3 PUSH1 0x40 MLOAD DUP1 PUSH1 0x20 ADD PUSH1 0x40 MSTORE DUP1 DUP5 DUP2 MSTORE POP SWAP1 DUP1 PUSH1 0x1 DUP2 SLOAD ADD DUP1 DUP3 SSTORE DUP1 SWAP2 POP POP PUSH1 0x1 SWAP1 SUB SWAP1 PUSH0 MSTORE PUSH1 0x20 PUSH0 KECCAK256 ADD PUSH0 SWAP1 SWAP2 SWAP1 SWAP2 SWAP1 SWAP2 POP PUSH0 DUP3 ADD MLOAD DUP2 PUSH0 ADD SWAP1 DUP2 PUSH2 0x1CB8 SWAP2 SWAP1 PUSH2 0x2DB9 JUMP JUMPDEST POP POP POP POP POP JUMP JUMPDEST PUSH1 0x4 PUSH1 0x40 MLOAD DUP1 PUSH1 0x60 ADD PUSH1 0x40 MSTORE DUP1 DUP4 DUP2 MSTORE PUSH1 0x20 ADD DUP5 DUP2 MSTORE PUSH1 0x20 ADD PUSH0 DUP2 MSTORE POP SWAP1 DUP1 PUSH1 0x1 DUP2 SLOAD ADD DUP1 DUP3 SSTORE DUP1 SWAP2 POP POP PUSH1 0x1 SWAP1 SUB SWAP1 PUSH0 MSTORE PUSH1 0x20 PUSH0 KECCAK256 SWAP1 PUSH1 0x3 MUL ADD PUSH0 SWAP1 SWAP2 SWAP1 SWAP2 SWAP1 SWAP2 POP PUSH0 DUP3 ADD MLOAD DUP2 PUSH0 ADD SWAP1 DUP2 PUSH2 0x1D15 SWAP2 SWAP1 PUSH2 0x2DB9 JUMP JUMPDEST POP PUSH1 0x20 DUP3 ADD MLOAD DUP2 PUSH1 0x1 ADD SWAP1 DUP2 PUSH2 0x1D2B SWAP2 SWAP1 PUSH2 0x2DB9 JUMP JUMPDEST POP PUSH1 0x40 DUP3 ADD MLOAD DUP2 PUSH1 0x2 ADD SSTORE POP POP POP POP JUMP JUMPDEST PUSH1 0x5 PUSH1 0x40 MLOAD DUP1 PUSH1 0x40 ADD PUSH1 0x40 MSTORE DUP1 DUP4 DUP2 MSTORE PUSH1 0x20 ADD PUSH0 ISZERO ISZERO DUP2 MSTORE POP SWAP1 DUP1 PUSH1 0x1 DUP2 SLOAD ADD DUP1 DUP3 SSTORE DUP1 SWAP2 POP POP PUSH1 0x1 SWAP1 SUB SWAP1 PUSH0 MSTORE PUSH1 0x20 PUSH0 KECCAK256 SWAP1 PUSH1 0x2 MUL ADD PUSH0 SWAP1 SWAP2 SWAP1 SWAP2 SWAP1 SWAP2 POP PUSH0 DUP3 ADD MLOAD DUP2 PUSH0 ADD SWAP1 DUP2 PUSH2 0x1D8E SWAP2 SWAP1 PUSH2 0x2DB9 JUMP JUMPDEST POP PUSH1 0x20 DUP3 ADD MLOAD DUP2 PUSH1 0x1 ADD PUSH0 PUSH2 0x100 EXP DUP2 SLOAD DUP2 PUSH1 0xFF MUL NOT AND SWAP1 DUP4 ISZERO ISZERO MUL OR SWAP1 SSTORE POP POP POP PUSH1 0x1 PUSH1 0x5 DUP1 SLOAD SWAP1 POP PUSH2 0x1DC2 SWAP2 SWAP1 PUSH2 0x2A23 JUMP JUMPDEST PUSH1 0x9 PUSH0 CALLER PUSH20 0xFFFFFFFFFFFFFFFFFFFFFFFFFFFFFFFFFFFFFFFF AND PUSH20 0xFFFFFFFFFFFFFFFFFFFFFFFFFFFFFFFFFFFFFFFF AND DUP2 MSTORE PUSH1 0x20 ADD SWAP1 DUP2 MSTORE PUSH1 0x20 ADD PUSH0 KECCAK256 DUP2 SWAP1 SSTORE POP POP JUMP JUMPDEST PUSH0 CALLER SWAP1 POP SWAP1 JUMP JUMPDEST PUSH0 PUSH1 0x40 MLOAD SWAP1 POP SWAP1 JUMP JUMPDEST PUSH0 DUP1 REVERT JUMPDEST PUSH0 DUP1 REVERT JUMPDEST PUSH0 DUP2 SWAP1 POP SWAP2 SWAP1 POP JUMP JUMPDEST PUSH2 0x1E30 DUP2 PUSH2 0x1E1E JUMP JUMPDEST DUP2 EQ PUSH2 0x1E3A JUMPI PUSH0 DUP1 REVERT JUMPDEST POP JUMP JUMPDEST PUSH0 DUP2 CALLDATALOAD SWAP1 POP PUSH2 0x1E4B DUP2 PUSH2 0x1E27 JUMP JUMPDEST SWAP3 SWAP2 POP POP JUMP JUMPDEST PUSH0 PUSH1 0x20 DUP3 DUP5 SUB SLT ISZERO PUSH2 0x1E66 JUMPI PUSH2 0x1E65 PUSH2 0x1E16 JUMP JUMPDEST JUMPDEST PUSH0 PUSH2 0x1E73 DUP5 DUP3 DUP6 ADD PUSH2 0x1E3D JUMP JUMPDEST SWAP2 POP POP SWAP3 SWAP2 POP POP JUMP JUMPDEST PUSH0 DUP2 MLOAD SWAP1 POP SWAP2 SWAP1 POP JUMP JUMPDEST PUSH0 DUP3 DUP3 MSTORE PUSH1 0x20 DUP3 ADD SWAP1 POP SWAP3 SWAP2 POP POP JUMP JUMPDEST PUSH0 JUMPDEST DUP4 DUP2 LT ISZERO PUSH2 0x1EB3 JUMPI DUP1 DUP3 ADD MLOAD DUP2 DUP5 ADD MSTORE PUSH1 0x20 DUP2 ADD SWAP1 POP PUSH2 0x1E98 JUMP JUMPDEST PUSH0 DUP5 DUP5 ADD MSTORE POP POP POP POP JUMP JUMPDEST PUSH0 PUSH1 0x1F NOT PUSH1 0x1F DUP4 ADD AND SWAP1 POP SWAP2 SWAP1 POP JUMP JUMPDEST PUSH0 PUSH2 0x1ED8 DUP3 PUSH2 0x1E7C JUMP JUMPDEST PUSH2 0x1EE2 DUP2 DUP6 PUSH2 0x1E86 JUMP JUMPDEST SWAP4 POP PUSH2 0x1EF2 DUP2 DUP6 PUSH1 0x20 DUP7 ADD PUSH2 0x1E96 JUMP JUMPDEST PUSH2 0x1EFB DUP2 PUSH2 0x1EBE JUMP JUMPDEST DUP5 ADD SWAP2 POP POP SWAP3 SWAP2 POP POP JUMP JUMPDEST PUSH0 PUSH1 0x20 DUP3 ADD SWAP1 POP DUP2 DUP2 SUB PUSH0 DUP4 ADD MSTORE PUSH2 0x1F1E DUP2 DUP5 PUSH2 0x1ECE JUMP JUMPDEST SWAP1 POP SWAP3 SWAP2 POP POP JUMP JUMPDEST PUSH2 0x1F2F DUP2 PUSH2 0x1E1E JUMP JUMPDEST DUP3 MSTORE POP POP JUMP JUMPDEST PUSH0 PUSH1 0x40 DUP3 ADD SWAP1 POP DUP2 DUP2 SUB PUSH0 DUP4 ADD MSTORE PUSH2 0x1F4D DUP2 DUP6 PUSH2 0x1ECE JUMP JUMPDEST SWAP1 POP PUSH2 0x1F5C PUSH1 0x20 DUP4 ADD DUP5 PUSH2 0x1F26 JUMP JUMPDEST SWAP4 SWAP3 POP POP POP JUMP JUMPDEST PUSH0 DUP1 REVERT JUMPDEST PUSH0 DUP1 REVERT JUMPDEST PUSH32 0x4E487B7100000000000000000000000000000000000000000000000000000000 PUSH0 MSTORE PUSH1 0x41 PUSH1 0x4 MSTORE PUSH1 0x24 PUSH0 REVERT JUMPDEST PUSH2 0x1FA1 DUP3 PUSH2 0x1EBE JUMP JUMPDEST DUP2 ADD DUP2 DUP2 LT PUSH8 0xFFFFFFFFFFFFFFFF DUP3 GT OR ISZERO PUSH2 0x1FC0 JUMPI PUSH2 0x1FBF PUSH2 0x1F6B JUMP JUMPDEST JUMPDEST DUP1 PUSH1 0x40 MSTORE POP POP POP JUMP JUMPDEST PUSH0 PUSH2 0x1FD2 PUSH2 0x1E0D JUMP JUMPDEST SWAP1 POP PUSH2 0x1FDE DUP3 DUP3 PUSH2 0x1F98 JUMP JUMPDEST SWAP2 SWAP1 POP JUMP JUMPDEST PUSH0 PUSH8 0xFFFFFFFFFFFFFFFF DUP3 GT ISZERO PUSH2 0x1FFD JUMPI PUSH2 0x1FFC PUSH2 0x1F6B JUMP JUMPDEST JUMPDEST PUSH2 0x2006 DUP3 PUSH2 0x1EBE JUMP JUMPDEST SWAP1 POP PUSH1 0x20 DUP2 ADD SWAP1 POP SWAP2 SWAP1 POP JUMP JUMPDEST DUP3 DUP2 DUP4 CALLDATACOPY PUSH0 DUP4 DUP4 ADD MSTORE POP POP POP JUMP JUMPDEST PUSH0 PUSH2 0x2033 PUSH2 0x202E DUP5 PUSH2 0x1FE3 JUMP JUMPDEST PUSH2 0x1FC9 JUMP JUMPDEST SWAP1 POP DUP3 DUP2 MSTORE PUSH1 0x20 DUP2 ADD DUP5 DUP5 DUP5 ADD GT ISZERO PUSH2 0x204F JUMPI PUSH2 0x204E PUSH2 0x1F67 JUMP JUMPDEST JUMPDEST PUSH2 0x205A DUP5 DUP3 DUP6 PUSH2 0x2013 JUMP JUMPDEST POP SWAP4 SWAP3 POP POP POP JUMP JUMPDEST PUSH0 DUP3 PUSH1 0x1F DUP4 ADD SLT PUSH2 0x2076 JUMPI PUSH2 0x2075 PUSH2 0x1F63 JUMP JUMPDEST JUMPDEST DUP2 CALLDATALOAD PUSH2 0x2086 DUP5 DUP3 PUSH1 0x20 DUP7 ADD PUSH2 0x2021 JUMP JUMPDEST SWAP2 POP POP SWAP3 SWAP2 POP POP JUMP JUMPDEST PUSH0 DUP1 PUSH1 0x40 DUP4 DUP6 SUB SLT ISZERO PUSH2 0x20A5 JUMPI PUSH2 0x20A4 PUSH2 0x1E16 JUMP JUMPDEST JUMPDEST PUSH0 DUP4 ADD CALLDATALOAD PUSH8 0xFFFFFFFFFFFFFFFF DUP2 GT ISZERO PUSH2 0x20C2 JUMPI PUSH2 0x20C1 PUSH2 0x1E1A JUMP JUMPDEST JUMPDEST PUSH2 0x20CE DUP6 DUP3 DUP7 ADD PUSH2 0x2062 JUMP JUMPDEST SWAP3 POP POP PUSH1 0x20 DUP4 ADD CALLDATALOAD PUSH8 0xFFFFFFFFFFFFFFFF DUP2 GT ISZERO PUSH2 0x20EF JUMPI PUSH2 0x20EE PUSH2 0x1E1A JUMP JUMPDEST JUMPDEST PUSH2 0x20FB DUP6 DUP3 DUP7 ADD PUSH2 0x2062 JUMP JUMPDEST SWAP2 POP POP SWAP3 POP SWAP3 SWAP1 POP JUMP JUMPDEST PUSH0 PUSH20 0xFFFFFFFFFFFFFFFFFFFFFFFFFFFFFFFFFFFFFFFF DUP3 AND SWAP1 POP SWAP2 SWAP1 POP JUMP JUMPDEST PUSH0 PUSH2 0x212E DUP3 PUSH2 0x2105 JUMP JUMPDEST SWAP1 POP SWAP2 SWAP1 POP JUMP JUMPDEST PUSH2 0x213E DUP2 PUSH2 0x2124 JUMP JUMPDEST DUP3 MSTORE POP POP JUMP JUMPDEST PUSH0 PUSH1 0x20 DUP3 ADD SWAP1 POP PUSH2 0x2157 PUSH0 DUP4 ADD DUP5 PUSH2 0x2135 JUMP JUMPDEST SWAP3 SWAP2 POP POP JUMP JUMPDEST PUSH0 PUSH1 0x60 DUP3 ADD SWAP1 POP DUP2 DUP2 SUB PUSH0 DUP4 ADD MSTORE PUSH2 0x2175 DUP2 DUP7 PUSH2 0x1ECE JUMP JUMPDEST SWAP1 POP DUP2 DUP2 SUB PUSH1 0x20 DUP4 ADD MSTORE PUSH2 0x2189 DUP2 DUP6 PUSH2 0x1ECE JUMP JUMPDEST SWAP1 POP PUSH2 0x2198 PUSH1 0x40 DUP4 ADD DUP5 PUSH2 0x1F26 JUMP JUMPDEST SWAP5 SWAP4 POP POP POP POP JUMP JUMPDEST PUSH0 PUSH1 0x40 DUP3 ADD SWAP1 POP DUP2 DUP2 SUB PUSH0 DUP4 ADD MSTORE PUSH2 0x21B8 DUP2 DUP6 PUSH2 0x1ECE JUMP JUMPDEST SWAP1 POP DUP2 DUP2 SUB PUSH1 0x20 DUP4 ADD MSTORE PUSH2 0x21CC DUP2 DUP5 PUSH2 0x1ECE JUMP JUMPDEST SWAP1 POP SWAP4 SWAP3 POP POP POP JUMP JUMPDEST PUSH0 DUP1 PUSH1 0x40 DUP4 DUP6 SUB SLT ISZERO PUSH2 0x21EB JUMPI PUSH2 0x21EA PUSH2 0x1E16 JUMP JUMPDEST JUMPDEST PUSH0 DUP4 ADD CALLDATALOAD PUSH8 0xFFFFFFFFFFFFFFFF DUP2 GT ISZERO PUSH2 0x2208 JUMPI PUSH2 0x2207 PUSH2 0x1E1A JUMP JUMPDEST JUMPDEST PUSH2 0x2214 DUP6 DUP3 DUP7 ADD PUSH2 0x2062 JUMP JUMPDEST SWAP3 POP POP PUSH1 0x20 PUSH2 0x2225 DUP6 DUP3 DUP7 ADD PUSH2 0x1E3D JUMP JUMPDEST SWAP2 POP POP SWAP3 POP SWAP3 SWAP1 POP JUMP JUMPDEST PUSH0 DUP2 ISZERO ISZERO SWAP1 POP SWAP2 SWAP1 POP JUMP JUMPDEST PUSH2 0x2243 DUP2 PUSH2 0x222F JUMP JUMPDEST DUP3 MSTORE POP POP JUMP JUMPDEST PUSH0 PUSH1 0x40 DUP3 ADD SWAP1 POP DUP2 DUP2 SUB PUSH0 DUP4 ADD MSTORE PUSH2 0x2261 DUP2 DUP6 PUSH2 0x1ECE JUMP JUMPDEST SWAP1 POP PUSH2 0x2270 PUSH1 0x20 DUP4 ADD DUP5 PUSH2 0x223A JUMP JUMPDEST SWAP4 SWAP3 POP POP POP JUMP JUMPDEST PUSH0 PUSH1 0x20 DUP3 ADD SWAP1 POP PUSH2 0x228A PUSH0 DUP4 ADD DUP5 PUSH2 0x1F26 JUMP JUMPDEST SWAP3 SWAP2 POP POP JUMP JUMPDEST PUSH0 PUSH1 0xFF DUP3 AND SWAP1 POP SWAP2 SWAP1 POP JUMP JUMPDEST PUSH2 0x22A5 DUP2 PUSH2 0x2290 JUMP JUMPDEST DUP2 EQ PUSH2 0x22AF JUMPI PUSH0 DUP1 REVERT JUMPDEST POP JUMP JUMPDEST PUSH0 DUP2 CALLDATALOAD SWAP1 POP PUSH2 0x22C0 DUP2 PUSH2 0x229C JUMP JUMPDEST SWAP3 SWAP2 POP POP JUMP JUMPDEST PUSH0 DUP1 PUSH1 0x40 DUP4 DUP6 SUB SLT ISZERO PUSH2 0x22DC JUMPI PUSH2 0x22DB PUSH2 0x1E16 JUMP JUMPDEST JUMPDEST PUSH0 DUP4 ADD CALLDATALOAD PUSH8 0xFFFFFFFFFFFFFFFF DUP2 GT ISZERO PUSH2 0x22F9 JUMPI PUSH2 0x22F8 PUSH2 0x1E1A JUMP JUMPDEST JUMPDEST PUSH2 0x2305 DUP6 DUP3 DUP7 ADD PUSH2 0x2062 JUMP JUMPDEST SWAP3 POP POP PUSH1 0x20 PUSH2 0x2316 DUP6 DUP3 DUP7 ADD PUSH2 0x22B2 JUMP JUMPDEST SWAP2 POP POP SWAP3 POP SWAP3 SWAP1 POP JUMP JUMPDEST PUSH0 DUP2 MLOAD SWAP1 POP SWAP2 SWAP1 POP JUMP JUMPDEST PUSH0 DUP3 DUP3 MSTORE PUSH1 0x20 DUP3 ADD SWAP1 POP SWAP3 SWAP2 POP POP JUMP JUMPDEST PUSH0 DUP2 SWAP1 POP PUSH1 0x20 DUP3 ADD SWAP1 POP SWAP2 SWAP1 POP JUMP JUMPDEST PUSH0 DUP3 DUP3 MSTORE PUSH1 0x20 DUP3 ADD SWAP1 POP SWAP3 SWAP2 POP POP JUMP JUMPDEST PUSH0 PUSH2 0x2363 DUP3 PUSH2 0x1E7C JUMP JUMPDEST PUSH2 0x236D DUP2 DUP6 PUSH2 0x2349 JUMP JUMPDEST SWAP4 POP PUSH2 0x237D DUP2 DUP6 PUSH1 0x20 DUP7 ADD PUSH2 0x1E96 JUMP JUMPDEST PUSH2 0x2386 DUP2 PUSH2 0x1EBE JUMP JUMPDEST DUP5 ADD SWAP2 POP POP SWAP3 SWAP2 POP POP JUMP JUMPDEST PUSH2 0x239A DUP2 PUSH2 0x1E1E JUMP JUMPDEST DUP3 MSTORE POP POP JUMP JUMPDEST PUSH0 PUSH1 0x60 DUP4 ADD PUSH0 DUP4 ADD MLOAD DUP5 DUP3 SUB PUSH0 DUP7 ADD MSTORE PUSH2 0x23BA DUP3 DUP3 PUSH2 0x2359 JUMP JUMPDEST SWAP2 POP POP PUSH1 0x20 DUP4 ADD MLOAD DUP5 DUP3 SUB PUSH1 0x20 DUP7 ADD MSTORE PUSH2 0x23D4 DUP3 DUP3 PUSH2 0x2359 JUMP JUMPDEST SWAP2 POP POP PUSH1 0x40 DUP4 ADD MLOAD PUSH2 0x23E9 PUSH1 0x40 DUP7 ADD DUP3 PUSH2 0x2391 JUMP JUMPDEST POP DUP1 SWAP2 POP POP SWAP3 SWAP2 POP POP JUMP JUMPDEST PUSH0 PUSH2 0x23FF DUP4 DUP4 PUSH2 0x23A0 JUMP JUMPDEST SWAP1 POP SWAP3 SWAP2 POP POP JUMP JUMPDEST PUSH0 PUSH1 0x20 DUP3 ADD SWAP1 POP SWAP2 SWAP1 POP JUMP JUMPDEST PUSH0 PUSH2 0x241D DUP3 PUSH2 0x2320 JUMP JUMPDEST PUSH2 0x2427 DUP2 DUP6 PUSH2 0x232A JUMP JUMPDEST SWAP4 POP DUP4 PUSH1 0x20 DUP3 MUL DUP6 ADD PUSH2 0x2439 DUP6 PUSH2 0x233A JUMP JUMPDEST DUP1 PUSH0 JUMPDEST DUP6 DUP2 LT ISZERO PUSH2 0x2474 JUMPI DUP5 DUP5 SUB DUP10 MSTORE DUP2 MLOAD PUSH2 0x2455 DUP6 DUP3 PUSH2 0x23F4 JUMP JUMPDEST SWAP5 POP PUSH2 0x2460 DUP4 PUSH2 0x2407 JUMP JUMPDEST SWAP3 POP PUSH1 0x20 DUP11 ADD SWAP10 POP POP PUSH1 0x1 DUP2 ADD SWAP1 POP PUSH2 0x243C JUMP JUMPDEST POP DUP3 SWAP8 POP DUP8 SWAP6 POP POP POP POP POP POP SWAP3 SWAP2 POP POP JUMP JUMPDEST PUSH0 PUSH1 0x20 DUP3 ADD SWAP1 POP DUP2 DUP2 SUB PUSH0 DUP4 ADD MSTORE PUSH2 0x249E DUP2 DUP5 PUSH2 0x2413 JUMP JUMPDEST SWAP1 POP SWAP3 SWAP2 POP POP JUMP JUMPDEST PUSH2 0x24AF DUP2 PUSH2 0x2124 JUMP JUMPDEST DUP2 EQ PUSH2 0x24B9 JUMPI PUSH0 DUP1 REVERT JUMPDEST POP JUMP JUMPDEST PUSH0 DUP2 CALLDATALOAD SWAP1 POP PUSH2 0x24CA DUP2 PUSH2 0x24A6 JUMP JUMPDEST SWAP3 SWAP2 POP POP JUMP JUMPDEST PUSH0 PUSH1 0x20 DUP3 DUP5 SUB SLT ISZERO PUSH2 0x24E5 JUMPI PUSH2 0x24E4 PUSH2 0x1E16 JUMP JUMPDEST JUMPDEST PUSH0 PUSH2 0x24F2 DUP5 DUP3 DUP6 ADD PUSH2 0x24BC JUMP JUMPDEST SWAP2 POP POP SWAP3 SWAP2 POP POP JUMP JUMPDEST PUSH32 0x4E487B7100000000000000000000000000000000000000000000000000000000 PUSH0 MSTORE PUSH1 0x11 PUSH1 0x4 MSTORE PUSH1 0x24 PUSH0 REVERT JUMPDEST PUSH0 PUSH2 0x2532 DUP3 PUSH2 0x1E1E JUMP JUMPDEST SWAP2 POP PUSH2 0x253D DUP4 PUSH2 0x1E1E JUMP JUMPDEST SWAP3 POP DUP3 DUP3 ADD SWAP1 POP DUP1 DUP3 GT ISZERO PUSH2 0x2555 JUMPI PUSH2 0x2554 PUSH2 0x24FB JUMP JUMPDEST JUMPDEST SWAP3 SWAP2 POP POP JUMP JUMPDEST PUSH32 0x4E487B7100000000000000000000000000000000000000000000000000000000 PUSH0 MSTORE PUSH1 0x32 PUSH1 0x4 MSTORE PUSH1 0x24 PUSH0 REVERT JUMPDEST PUSH32 0x4E487B7100000000000000000000000000000000000000000000000000000000 PUSH0 MSTORE PUSH1 0x22 PUSH1 0x4 MSTORE PUSH1 0x24 PUSH0 REVERT JUMPDEST PUSH0 PUSH1 0x2 DUP3 DIV SWAP1 POP PUSH1 0x1 DUP3 AND DUP1 PUSH2 0x25CC JUMPI PUSH1 0x7F DUP3 AND SWAP2 POP JUMPDEST PUSH1 0x20 DUP3 LT DUP2 SUB PUSH2 0x25DF JUMPI PUSH2 0x25DE PUSH2 0x2588 JUMP JUMPDEST JUMPDEST POP SWAP2 SWAP1 POP JUMP JUMPDEST PUSH0 DUP2 SWAP1 POP DUP2 PUSH0 MSTORE PUSH1 0x20 PUSH0 KECCAK256 SWAP1 POP SWAP2 SWAP1 POP JUMP JUMPDEST PUSH0 DUP2 SLOAD PUSH2 0x2603 DUP2 PUSH2 0x25B5 JUMP JUMPDEST PUSH2 0x260D DUP2 DUP7 PUSH2 0x1E86 JUMP JUMPDEST SWAP5 POP PUSH1 0x1 DUP3 AND PUSH0 DUP2 EQ PUSH2 0x2627 JUMPI PUSH1 0x1 DUP2 EQ PUSH2 0x263D JUMPI PUSH2 0x266F JUMP JUMPDEST PUSH1 0xFF NOT DUP4 AND DUP7 MSTORE DUP2 ISZERO ISZERO PUSH1 0x20 MUL DUP7 ADD SWAP4 POP PUSH2 0x266F JUMP JUMPDEST PUSH2 0x2646 DUP6 PUSH2 0x25E5 JUMP JUMPDEST PUSH0 JUMPDEST DUP4 DUP2 LT ISZERO PUSH2 0x2667 JUMPI DUP2 SLOAD DUP2 DUP10 ADD MSTORE PUSH1 0x1 DUP3 ADD SWAP2 POP PUSH1 0x20 DUP2 ADD SWAP1 POP PUSH2 0x2648 JUMP JUMPDEST DUP1 DUP9 ADD SWAP6 POP POP POP JUMPDEST POP POP POP SWAP3 SWAP2 POP POP JUMP JUMPDEST PUSH0 PUSH1 0x40 DUP3 ADD SWAP1 POP PUSH2 0x268B PUSH0 DUP4 ADD DUP6 PUSH2 0x1F26 JUMP JUMPDEST DUP2 DUP2 SUB PUSH1 0x20 DUP4 ADD MSTORE PUSH2 0x269D DUP2 DUP5 PUSH2 0x25F7 JUMP JUMPDEST SWAP1 POP SWAP4 SWAP3 POP POP POP JUMP JUMPDEST PUSH2 0x26AF DUP2 PUSH2 0x222F JUMP JUMPDEST DUP3 MSTORE POP POP JUMP JUMPDEST PUSH0 DUP3 DUP3 MSTORE PUSH1 0x20 DUP3 ADD SWAP1 POP SWAP3 SWAP2 POP POP JUMP JUMPDEST PUSH32 0x4572726F722E0000000000000000000000000000000000000000000000000000 PUSH0 DUP3 ADD MSTORE POP JUMP JUMPDEST PUSH0 PUSH2 0x26F9 PUSH1 0x6 DUP4 PUSH2 0x26B5 JUMP JUMPDEST SWAP2 POP PUSH2 0x2704 DUP3 PUSH2 0x26C5 JUMP JUMPDEST PUSH1 0x20 DUP3 ADD SWAP1 POP SWAP2 SWAP1 POP JUMP JUMPDEST PUSH0 PUSH1 0x40 DUP3 ADD SWAP1 POP PUSH2 0x2722 PUSH0 DUP4 ADD DUP5 PUSH2 0x26A6 JUMP JUMPDEST DUP2 DUP2 SUB PUSH1 0x20 DUP4 ADD MSTORE PUSH2 0x2733 DUP2 PUSH2 0x26ED JUMP JUMPDEST SWAP1 POP SWAP3 SWAP2 POP POP JUMP JUMPDEST PUSH2 0x2744 DUP2 PUSH2 0x222F JUMP JUMPDEST DUP2 EQ PUSH2 0x274E JUMPI PUSH0 DUP1 REVERT JUMPDEST POP JUMP JUMPDEST PUSH0 DUP2 MLOAD SWAP1 POP PUSH2 0x275F DUP2 PUSH2 0x273B JUMP JUMPDEST SWAP3 SWAP2 POP POP JUMP JUMPDEST PUSH0 PUSH1 0x20 DUP3 DUP5 SUB SLT ISZERO PUSH2 0x277A JUMPI PUSH2 0x2779 PUSH2 0x1E16 JUMP JUMPDEST JUMPDEST PUSH0 PUSH2 0x2787 DUP5 DUP3 DUP6 ADD PUSH2 0x2751 JUMP JUMPDEST SWAP2 POP POP SWAP3 SWAP2 POP POP JUMP JUMPDEST PUSH32 0x4375656E7461206E6F207469656E65207065726D69736F20276F776E6572272E PUSH0 DUP3 ADD MSTORE POP JUMP JUMPDEST PUSH0 PUSH2 0x27C4 PUSH1 0x20 DUP4 PUSH2 0x26B5 JUMP JUMPDEST SWAP2 POP PUSH2 0x27CF DUP3 PUSH2 0x2790 JUMP JUMPDEST PUSH1 0x20 DUP3 ADD SWAP1 POP SWAP2 SWAP1 POP JUMP JUMPDEST PUSH0 PUSH1 0x40 DUP3 ADD SWAP1 POP PUSH2 0x27ED PUSH0 DUP4 ADD DUP5 PUSH2 0x26A6 JUMP JUMPDEST DUP2 DUP2 SUB PUSH1 0x20 DUP4 ADD MSTORE PUSH2 0x27FE DUP2 PUSH2 0x27B8 JUMP JUMPDEST SWAP1 POP SWAP3 SWAP2 POP POP JUMP JUMPDEST PUSH0 DUP2 SLOAD PUSH2 0x2812 DUP2 PUSH2 0x25B5 JUMP JUMPDEST PUSH2 0x281C DUP2 DUP7 PUSH2 0x26B5 JUMP JUMPDEST SWAP5 POP PUSH1 0x1 DUP3 AND PUSH0 DUP2 EQ PUSH2 0x2836 JUMPI PUSH1 0x1 DUP2 EQ PUSH2 0x284C JUMPI PUSH2 0x287E JUMP JUMPDEST PUSH1 0xFF NOT DUP4 AND DUP7 MSTORE DUP2 ISZERO ISZERO PUSH1 0x20 MUL DUP7 ADD SWAP4 POP PUSH2 0x287E JUMP JUMPDEST PUSH2 0x2855 DUP6 PUSH2 0x25E5 JUMP JUMPDEST PUSH0 JUMPDEST DUP4 DUP2 LT ISZERO PUSH2 0x2876 JUMPI DUP2 SLOAD DUP2 DUP10 ADD MSTORE PUSH1 0x1 DUP3 ADD SWAP2 POP PUSH1 0x20 DUP2 ADD SWAP1 POP PUSH2 0x2857 JUMP JUMPDEST DUP1 DUP9 ADD SWAP6 POP POP POP JUMPDEST POP POP POP SWAP3 SWAP2 POP POP JUMP JUMPDEST PUSH32 0x4A6F726E61646120646520707275656261203100000000000000000000000000 PUSH0 DUP3 ADD MSTORE POP JUMP JUMPDEST PUSH0 PUSH2 0x28BB PUSH1 0x13 DUP4 PUSH2 0x26B5 JUMP JUMPDEST SWAP2 POP PUSH2 0x28C6 DUP3 PUSH2 0x2887 JUMP JUMPDEST PUSH1 0x20 DUP3 ADD SWAP1 POP SWAP2 SWAP1 POP JUMP JUMPDEST PUSH32 0x4A6F726E616461206E6F207469656E6520656C206E6F6D627265206573706572 PUSH0 DUP3 ADD MSTORE PUSH32 0x61646F2E00000000000000000000000000000000000000000000000000000000 PUSH1 0x20 DUP3 ADD MSTORE POP JUMP JUMPDEST PUSH0 PUSH2 0x292B PUSH1 0x24 DUP4 PUSH2 0x26B5 JUMP JUMPDEST SWAP2 POP PUSH2 0x2936 DUP3 PUSH2 0x28D1 JUMP JUMPDEST PUSH1 0x40 DUP3 ADD SWAP1 POP SWAP2 SWAP1 POP JUMP JUMPDEST PUSH0 PUSH1 0x60 DUP3 ADD SWAP1 POP DUP2 DUP2 SUB PUSH0 DUP4 ADD MSTORE PUSH2 0x2959 DUP2 DUP5 PUSH2 0x2806 JUMP JUMPDEST SWAP1 POP DUP2 DUP2 SUB PUSH1 0x20 DUP4 ADD MSTORE PUSH2 0x296C DUP2 PUSH2 0x28AF JUMP JUMPDEST SWAP1 POP DUP2 DUP2 SUB PUSH1 0x40 DUP4 ADD MSTORE PUSH2 0x297F DUP2 PUSH2 0x291F JUMP JUMPDEST SWAP1 POP SWAP3 SWAP2 POP POP JUMP JUMPDEST PUSH32 0x4375656E7461206E6F20636F72726573706F6E646520616C20766F74616E7465 PUSH0 DUP3 ADD MSTORE PUSH32 0x206465736561646F2E0000000000000000000000000000000000000000000000 PUSH1 0x20 DUP3 ADD MSTORE POP JUMP JUMPDEST PUSH0 PUSH2 0x29E1 PUSH1 0x29 DUP4 PUSH2 0x26B5 JUMP JUMPDEST SWAP2 POP PUSH2 0x29EC DUP3 PUSH2 0x2987 JUMP JUMPDEST PUSH1 0x40 DUP3 ADD SWAP1 POP SWAP2 SWAP1 POP JUMP JUMPDEST PUSH0 PUSH1 0x40 DUP3 ADD SWAP1 POP PUSH2 0x2A0A PUSH0 DUP4 ADD DUP5 PUSH2 0x26A6 JUMP JUMPDEST DUP2 DUP2 SUB PUSH1 0x20 DUP4 ADD MSTORE PUSH2 0x2A1B DUP2 PUSH2 0x29D5 JUMP JUMPDEST SWAP1 POP SWAP3 SWAP2 POP POP JUMP JUMPDEST PUSH0 PUSH2 0x2A2D DUP3 PUSH2 0x1E1E JUMP JUMPDEST SWAP2 POP PUSH2 0x2A38 DUP4 PUSH2 0x1E1E JUMP JUMPDEST SWAP3 POP DUP3 DUP3 SUB SWAP1 POP DUP2 DUP2 GT ISZERO PUSH2 0x2A50 JUMPI PUSH2 0x2A4F PUSH2 0x24FB JUMP JUMPDEST JUMPDEST SWAP3 SWAP2 POP POP JUMP JUMPDEST PUSH0 DUP2 SWAP1 POP SWAP3 SWAP2 POP POP JUMP JUMPDEST PUSH0 PUSH2 0x2A6A DUP3 PUSH2 0x1E7C JUMP JUMPDEST PUSH2 0x2A74 DUP2 DUP6 PUSH2 0x2A56 JUMP JUMPDEST SWAP4 POP PUSH2 0x2A84 DUP2 DUP6 PUSH1 0x20 DUP7 ADD PUSH2 0x1E96 JUMP JUMPDEST DUP1 DUP5 ADD SWAP2 POP POP SWAP3 SWAP2 POP POP JUMP JUMPDEST PUSH0 PUSH2 0x2A9B DUP3 DUP5 PUSH2 0x2A60 JUMP JUMPDEST SWAP2 POP DUP2 SWAP1 POP SWAP3 SWAP2 POP POP JUMP JUMPDEST PUSH0 DUP2 SLOAD PUSH2 0x2AB2 DUP2 PUSH2 0x25B5 JUMP JUMPDEST PUSH2 0x2ABC DUP2 DUP7 PUSH2 0x2A56 JUMP JUMPDEST SWAP5 POP PUSH1 0x1 DUP3 AND PUSH0 DUP2 EQ PUSH2 0x2AD6 JUMPI PUSH1 0x1 DUP2 EQ PUSH2 0x2AEB JUMPI PUSH2 0x2B1D JUMP JUMPDEST PUSH1 0xFF NOT DUP4 AND DUP7 MSTORE DUP2 ISZERO ISZERO DUP3 MUL DUP7 ADD SWAP4 POP PUSH2 0x2B1D JUMP JUMPDEST PUSH2 0x2AF4 DUP6 PUSH2 0x25E5 JUMP JUMPDEST PUSH0 JUMPDEST DUP4 DUP2 LT ISZERO PUSH2 0x2B15 JUMPI DUP2 SLOAD DUP2 DUP10 ADD MSTORE PUSH1 0x1 DUP3 ADD SWAP2 POP PUSH1 0x20 DUP2 ADD SWAP1 POP PUSH2 0x2AF6 JUMP JUMPDEST DUP4 DUP9 ADD SWAP6 POP POP POP JUMPDEST POP POP POP SWAP3 SWAP2 POP POP JUMP JUMPDEST PUSH0 PUSH2 0x2B31 DUP3 DUP5 PUSH2 0x2AA6 JUMP JUMPDEST SWAP2 POP DUP2 SWAP1 POP SWAP3 SWAP2 POP POP JUMP JUMPDEST PUSH2 0x2B45 DUP2 PUSH2 0x1E1E JUMP JUMPDEST DUP3 MSTORE POP POP JUMP JUMPDEST PUSH0 DUP2 SWAP1 POP SWAP2 SWAP1 POP JUMP JUMPDEST PUSH0 DUP2 SWAP1 POP SWAP2 SWAP1 POP JUMP JUMPDEST PUSH0 PUSH2 0x2B77 PUSH2 0x2B72 PUSH2 0x2B6D DUP5 PUSH2 0x2B4B JUMP JUMPDEST PUSH2 0x2B54 JUMP JUMPDEST PUSH2 0x1E1E JUMP JUMPDEST SWAP1 POP SWAP2 SWAP1 POP JUMP JUMPDEST PUSH2 0x2B87 DUP2 PUSH2 0x2B5D JUMP JUMPDEST DUP3 MSTORE POP POP JUMP JUMPDEST PUSH32 0x417369676E6163696F6E20646520766F74616E7465206E6F20636F7272657370 PUSH0 DUP3 ADD MSTORE PUSH32 0x6F6E64652E000000000000000000000000000000000000000000000000000000 PUSH1 0x20 DUP3 ADD MSTORE POP JUMP JUMPDEST PUSH0 PUSH2 0x2BE7 PUSH1 0x25 DUP4 PUSH2 0x26B5 JUMP JUMPDEST SWAP2 POP PUSH2 0x2BF2 DUP3 PUSH2 0x2B8D JUMP JUMPDEST PUSH1 0x40 DUP3 ADD SWAP1 POP SWAP2 SWAP1 POP JUMP JUMPDEST PUSH0 PUSH1 0x60 DUP3 ADD SWAP1 POP PUSH2 0x2C10 PUSH0 DUP4 ADD DUP6 PUSH2 0x2B3C JUMP JUMPDEST PUSH2 0x2C1D PUSH1 0x20 DUP4 ADD DUP5 PUSH2 0x2B7E JUMP JUMPDEST DUP2 DUP2 SUB PUSH1 0x40 DUP4 ADD MSTORE PUSH2 0x2C2E DUP2 PUSH2 0x2BDB JUMP JUMPDEST SWAP1 POP SWAP4 SWAP3 POP POP POP JUMP JUMPDEST PUSH0 PUSH1 0x20 PUSH1 0x1F DUP4 ADD DIV SWAP1 POP SWAP2 SWAP1 POP JUMP JUMPDEST PUSH0 DUP3 DUP3 SHL SWAP1 POP SWAP3 SWAP2 POP POP JUMP JUMPDEST PUSH0 PUSH1 0x8 DUP4 MUL PUSH2 0x2C81 PUSH32 0xFFFFFFFFFFFFFFFFFFFFFFFFFFFFFFFFFFFFFFFFFFFFFFFFFFFFFFFFFFFFFFFF DUP3 PUSH2 0x2C46 JUMP JUMPDEST PUSH2 0x2C8B DUP7 DUP4 PUSH2 0x2C46 JUMP JUMPDEST SWAP6 POP DUP1 NOT DUP5 AND SWAP4 POP DUP1 DUP7 AND DUP5 OR SWAP3 POP POP POP SWAP4 SWAP3 POP POP POP JUMP JUMPDEST PUSH0 PUSH2 0x2CBD PUSH2 0x2CB8 PUSH2 0x2CB3 DUP5 PUSH2 0x1E1E JUMP JUMPDEST PUSH2 0x2B54 JUMP JUMPDEST PUSH2 0x1E1E JUMP JUMPDEST SWAP1 POP SWAP2 SWAP1 POP JUMP JUMPDEST PUSH0 DUP2 SWAP1 POP SWAP2 SWAP1 POP JUMP JUMPDEST PUSH2 0x2CD6 DUP4 PUSH2 0x2CA3 JUMP JUMPDEST PUSH2 0x2CEA PUSH2 0x2CE2 DUP3 PUSH2 0x2CC4 JUMP JUMPDEST DUP5 DUP5 SLOAD PUSH2 0x2C52 JUMP JUMPDEST DUP3 SSTORE POP POP POP POP JUMP JUMPDEST PUSH0 SWAP1 JUMP JUMPDEST PUSH2 0x2CFE PUSH2 0x2CF2 JUMP JUMPDEST PUSH2 0x2D09 DUP2 DUP5 DUP5 PUSH2 0x2CCD JUMP JUMPDEST POP POP POP JUMP JUMPDEST JUMPDEST DUP2 DUP2 LT ISZERO PUSH2 0x2D2C JUMPI PUSH2 0x2D21 PUSH0 DUP3 PUSH2 0x2CF6 JUMP JUMPDEST PUSH1 0x1 DUP2 ADD SWAP1 POP PUSH2 0x2D0F JUMP JUMPDEST POP POP JUMP JUMPDEST PUSH1 0x1F DUP3 GT ISZERO PUSH2 0x2D71 JUMPI PUSH2 0x2D42 DUP2 PUSH2 0x25E5 JUMP JUMPDEST PUSH2 0x2D4B DUP5 PUSH2 0x2C37 JUMP JUMPDEST DUP2 ADD PUSH1 0x20 DUP6 LT ISZERO PUSH2 0x2D5A JUMPI DUP2 SWAP1 POP JUMPDEST PUSH2 0x2D6E PUSH2 0x2D66 DUP6 PUSH2 0x2C37 JUMP JUMPDEST DUP4 ADD DUP3 PUSH2 0x2D0E JUMP JUMPDEST POP POP JUMPDEST POP POP POP JUMP JUMPDEST PUSH0 DUP3 DUP3 SHR SWAP1 POP SWAP3 SWAP2 POP POP JUMP JUMPDEST PUSH0 PUSH2 0x2D91 PUSH0 NOT DUP5 PUSH1 0x8 MUL PUSH2 0x2D76 JUMP JUMPDEST NOT DUP1 DUP4 AND SWAP2 POP POP SWAP3 SWAP2 POP POP JUMP JUMPDEST PUSH0 PUSH2 0x2DA9 DUP4 DUP4 PUSH2 0x2D82 JUMP JUMPDEST SWAP2 POP DUP3 PUSH1 0x2 MUL DUP3 OR SWAP1 POP SWAP3 SWAP2 POP POP JUMP JUMPDEST PUSH2 0x2DC2 DUP3 PUSH2 0x1E7C JUMP JUMPDEST PUSH8 0xFFFFFFFFFFFFFFFF DUP2 GT ISZERO PUSH2 0x2DDB JUMPI PUSH2 0x2DDA PUSH2 0x1F6B JUMP JUMPDEST JUMPDEST PUSH2 0x2DE5 DUP3 SLOAD PUSH2 0x25B5 JUMP JUMPDEST PUSH2 0x2DF0 DUP3 DUP3 DUP6 PUSH2 0x2D30 JUMP JUMPDEST PUSH0 PUSH1 0x20 SWAP1 POP PUSH1 0x1F DUP4 GT PUSH1 0x1 DUP2 EQ PUSH2 0x2E21 JUMPI PUSH0 DUP5 ISZERO PUSH2 0x2E0F JUMPI DUP3 DUP8 ADD MLOAD SWAP1 POP JUMPDEST PUSH2 0x2E19 DUP6 DUP3 PUSH2 0x2D9E JUMP JUMPDEST DUP7 SSTORE POP PUSH2 0x2E80 JUMP JUMPDEST PUSH1 0x1F NOT DUP5 AND PUSH2 0x2E2F DUP7 PUSH2 0x25E5 JUMP JUMPDEST PUSH0 JUMPDEST DUP3 DUP2 LT ISZERO PUSH2 0x2E56 JUMPI DUP5 DUP10 ADD MLOAD DUP3 SSTORE PUSH1 0x1 DUP3 ADD SWAP2 POP PUSH1 0x20 DUP6 ADD SWAP5 POP PUSH1 0x20 DUP2 ADD SWAP1 POP PUSH2 0x2E31 JUMP JUMPDEST DUP7 DUP4 LT ISZERO PUSH2 0x2E73 JUMPI DUP5 DUP10 ADD MLOAD PUSH2 0x2E6F PUSH1 0x1F DUP10 AND DUP3 PUSH2 0x2D82 JUMP JUMPDEST DUP4 SSTORE POP JUMPDEST PUSH1 0x1 PUSH1 0x2 DUP9 MUL ADD DUP9 SSTORE POP POP POP JUMPDEST POP POP POP POP POP POP JUMP INVALID LOG2 PUSH5 0x6970667358 0x22 SLT KECCAK256 DUP11 0xEF DUP9 PUSH13 0xA9BD1295967B825E8F5E736B7 SWAP6 0xE8 PUSH25 0xAD66734234A148270659A1F964736F6C634300081600330000 "
		},
		"gasEstimates": {
			"creation": {
				"codeDepositCost": "2393200",
				"executionCost": "infinite",
				"totalCost": "infinite"
			},
			"external": {
				"candidatos(uint256)": "infinite",
				"crearJornada(string,uint256)": "infinite",
				"enviarVoto(uint256)": "infinite",
				"finPruebas()": "infinite",
				"inscribirCandidato(string,string)": "infinite",
				"inscribirParticipante(string,uint8)": "infinite",
				"jornadaVotacion()": "infinite",
				"owner()": "2582",
				"participantes(uint256)": "infinite",
				"partidos(uint256)": "infinite",
				"probarAsignacionParticipante()": "infinite",
				"probarCreacionCandidatos()": "infinite",
				"probarCreacionJornada()": "infinite",
				"probarCreacionNuevaJornada()": "infinite",
				"probarCreacionParticipante1()": "infinite",
				"probarCreacionParticipante2()": "infinite",
				"probarCreacionParticipante3()": "infinite",
				"probarCreacionParticipante4()": "infinite",
				"probarCreacionParticipante5()": "infinite",
				"renounceOwnership()": "infinite",
				"transferOwnership(address)": "infinite",
				"verCandidato(uint256)": "infinite",
				"verNumeroCandidatos()": "infinite",
				"verResultadoVotaciones()": "infinite",
				"verTotalVotos()": "infinite"
			}
		},
		"methodIdentifiers": {
			"candidatos(uint256)": "8f023f85",
			"crearJornada(string,uint256)": "b0c73513",
			"enviarVoto(uint256)": "0e0864cb",
			"finPruebas()": "1d108546",
			"inscribirCandidato(string,string)": "89813f84",
			"inscribirParticipante(string,uint8)": "c1961cea",
			"jornadaVotacion()": "6cdf69f0",
			"owner()": "8da5cb5b",
			"participantes(uint256)": "b25924c1",
			"partidos(uint256)": "40deb070",
			"probarAsignacionParticipante()": "a1c904b4",
			"probarCreacionCandidatos()": "f0004b14",
			"probarCreacionJornada()": "2c8fa70d",
			"probarCreacionNuevaJornada()": "fd1ab0df",
			"probarCreacionParticipante1()": "c115de8b",
			"probarCreacionParticipante2()": "803baa6d",
			"probarCreacionParticipante3()": "a9a29436",
			"probarCreacionParticipante4()": "d52f9986",
			"probarCreacionParticipante5()": "b45c3969",
			"renounceOwnership()": "715018a6",
			"transferOwnership(address)": "f2fde38b",
			"verCandidato(uint256)": "8f6021c3",
			"verNumeroCandidatos()": "e3446174",
			"verResultadoVotaciones()": "ee55f11e",
			"verTotalVotos()": "b5e422d4"
		}
	},
	"abi": [
		{
			"inputs": [
				{
					"internalType": "address",
					"name": "owner",
					"type": "address"
				}
			],
			"name": "OwnableInvalidOwner",
			"type": "error"
		},
		{
			"inputs": [
				{
					"internalType": "address",
					"name": "account",
					"type": "address"
				}
			],
			"name": "OwnableUnauthorizedAccount",
			"type": "error"
		},
		{
			"anonymous": false,
			"inputs": [
				{
					"indexed": true,
					"internalType": "address",
					"name": "previousOwner",
					"type": "address"
				},
				{
					"indexed": true,
					"internalType": "address",
					"name": "newOwner",
					"type": "address"
				}
			],
			"name": "OwnershipTransferred",
			"type": "event"
		},
		{
			"anonymous": false,
			"inputs": [
				{
					"indexed": false,
					"internalType": "uint256",
					"name": "idCandidato",
					"type": "uint256"
				},
				{
					"indexed": false,
					"internalType": "string",
					"name": "nombreCandidato",
					"type": "string"
				}
			],
			"name": "VotoRegistrado",
			"type": "event"
		},
		{
			"inputs": [
				{
					"internalType": "uint256",
					"name": "",
					"type": "uint256"
				}
			],
			"name": "candidatos",
			"outputs": [
				{
					"internalType": "string",
					"name": "nombre",
					"type": "string"
				},
				{
					"internalType": "string",
					"name": "partido",
					"type": "string"
				},
				{
					"internalType": "uint256",
					"name": "votos",
					"type": "uint256"
				}
			],
			"stateMutability": "view",
			"type": "function"
		},
		{
			"inputs": [
				{
					"internalType": "string",
					"name": "_nombre",
					"type": "string"
				},
				{
					"internalType": "uint256",
					"name": "_fechaHoraInicio",
					"type": "uint256"
				}
			],
			"name": "crearJornada",
			"outputs": [],
			"stateMutability": "nonpayable",
			"type": "function"
		},
		{
			"inputs": [
				{
					"internalType": "uint256",
					"name": "_idCandidato",
					"type": "uint256"
				}
			],
			"name": "enviarVoto",
			"outputs": [],
			"stateMutability": "nonpayable",
			"type": "function"
		},
		{
			"inputs": [],
			"name": "finPruebas",
			"outputs": [],
			"stateMutability": "nonpayable",
			"type": "function"
		},
		{
			"inputs": [
				{
					"internalType": "string",
					"name": "_partido",
					"type": "string"
				},
				{
					"internalType": "string",
					"name": "_nombre",
					"type": "string"
				}
			],
			"name": "inscribirCandidato",
			"outputs": [],
			"stateMutability": "nonpayable",
			"type": "function"
		},
		{
			"inputs": [
				{
					"internalType": "string",
					"name": "_nombre",
					"type": "string"
				},
				{
					"internalType": "uint8",
					"name": "_edad",
					"type": "uint8"
				}
			],
			"name": "inscribirParticipante",
			"outputs": [],
			"stateMutability": "nonpayable",
			"type": "function"
		},
		{
			"inputs": [],
			"name": "jornadaVotacion",
			"outputs": [
				{
					"internalType": "string",
					"name": "nombre",
					"type": "string"
				},
				{
					"internalType": "uint256",
					"name": "fechaHoraInicio",
					"type": "uint256"
				}
			],
			"stateMutability": "view",
			"type": "function"
		},
		{
			"inputs": [],
			"name": "owner",
			"outputs": [
				{
					"internalType": "address",
					"name": "",
					"type": "address"
				}
			],
			"stateMutability": "view",
			"type": "function"
		},
		{
			"inputs": [
				{
					"internalType": "uint256",
					"name": "",
					"type": "uint256"
				}
			],
			"name": "participantes",
			"outputs": [
				{
					"internalType": "string",
					"name": "nombre",
					"type": "string"
				},
				{
					"internalType": "bool",
					"name": "haVotado",
					"type": "bool"
				}
			],
			"stateMutability": "view",
			"type": "function"
		},
		{
			"inputs": [
				{
					"internalType": "uint256",
					"name": "",
					"type": "uint256"
				}
			],
			"name": "partidos",
			"outputs": [
				{
					"internalType": "string",
					"name": "nombre",
					"type": "string"
				}
			],
			"stateMutability": "view",
			"type": "function"
		},
		{
			"inputs": [],
			"name": "probarAsignacionParticipante",
			"outputs": [],
			"stateMutability": "nonpayable",
			"type": "function"
		},
		{
			"inputs": [],
			"name": "probarCreacionCandidatos",
			"outputs": [],
			"stateMutability": "nonpayable",
			"type": "function"
		},
		{
			"inputs": [],
			"name": "probarCreacionJornada",
			"outputs": [],
			"stateMutability": "nonpayable",
			"type": "function"
		},
		{
			"inputs": [],
			"name": "probarCreacionNuevaJornada",
			"outputs": [],
			"stateMutability": "nonpayable",
			"type": "function"
		},
		{
			"inputs": [],
			"name": "probarCreacionParticipante1",
			"outputs": [],
			"stateMutability": "nonpayable",
			"type": "function"
		},
		{
			"inputs": [],
			"name": "probarCreacionParticipante2",
			"outputs": [],
			"stateMutability": "nonpayable",
			"type": "function"
		},
		{
			"inputs": [],
			"name": "probarCreacionParticipante3",
			"outputs": [],
			"stateMutability": "nonpayable",
			"type": "function"
		},
		{
			"inputs": [],
			"name": "probarCreacionParticipante4",
			"outputs": [],
			"stateMutability": "nonpayable",
			"type": "function"
		},
		{
			"inputs": [],
			"name": "probarCreacionParticipante5",
			"outputs": [],
			"stateMutability": "nonpayable",
			"type": "function"
		},
		{
			"inputs": [],
			"name": "renounceOwnership",
			"outputs": [],
			"stateMutability": "nonpayable",
			"type": "function"
		},
		{
			"inputs": [
				{
					"internalType": "address",
					"name": "newOwner",
					"type": "address"
				}
			],
			"name": "transferOwnership",
			"outputs": [],
			"stateMutability": "nonpayable",
			"type": "function"
		},
		{
			"inputs": [
				{
					"internalType": "uint256",
					"name": "_idCandidato",
					"type": "uint256"
				}
			],
			"name": "verCandidato",
			"outputs": [
				{
					"internalType": "string",
					"name": "",
					"type": "string"
				},
				{
					"internalType": "string",
					"name": "",
					"type": "string"
				}
			],
			"stateMutability": "view",
			"type": "function"
		},
		{
			"inputs": [],
			"name": "verNumeroCandidatos",
			"outputs": [
				{
					"internalType": "uint256",
					"name": "",
					"type": "uint256"
				}
			],
			"stateMutability": "view",
			"type": "function"
		},
		{
			"inputs": [],
			"name": "verResultadoVotaciones",
			"outputs": [
				{
					"components": [
						{
							"internalType": "string",
							"name": "nombre",
							"type": "string"
						},
						{
							"internalType": "string",
							"name": "partido",
							"type": "string"
						},
						{
							"internalType": "uint256",
							"name": "votos",
							"type": "uint256"
						}
					],
					"internalType": "struct Urna.Candidato[]",
					"name": "",
					"type": "tuple[]"
				}
			],
			"stateMutability": "view",
			"type": "function"
		},
		{
			"inputs": [],
			"name": "verTotalVotos",
			"outputs": [
				{
					"internalType": "uint256",
					"name": "",
					"type": "uint256"
				}
			],
			"stateMutability": "view",
			"type": "function"
		}
	]
}