{
	"contracts/Urna.sol": {
		"Urna": {
			"abi": [
				{
					"inputs": [
						{
							"internalType": "address",
							"name": "initialOwner",
							"type": "address"
						}
					],
					"stateMutability": "nonpayable",
					"type": "constructor"
				},
				{
					"inputs": [
						{
							"internalType": "address",
							"name": "owner",
							"type": "address"
						}
					],
					"name": "OwnableInvalidOwner",
					"type": "error"
				},
				{
					"inputs": [
						{
							"internalType": "address",
							"name": "account",
							"type": "address"
						}
					],
					"name": "OwnableUnauthorizedAccount",
					"type": "error"
				},
				{
					"anonymous": false,
					"inputs": [
						{
							"indexed": true,
							"internalType": "address",
							"name": "previousOwner",
							"type": "address"
						},
						{
							"indexed": true,
							"internalType": "address",
							"name": "newOwner",
							"type": "address"
						}
					],
					"name": "OwnershipTransferred",
					"type": "event"
				},
				{
					"anonymous": false,
					"inputs": [
						{
							"indexed": false,
							"internalType": "uint256",
							"name": "idCandidato",
							"type": "uint256"
						},
						{
							"indexed": false,
							"internalType": "string",
							"name": "nombreCandidato",
							"type": "string"
						}
					],
					"name": "VotoRegistrado",
					"type": "event"
				},
				{
					"inputs": [
						{
							"internalType": "uint256",
							"name": "",
							"type": "uint256"
						}
					],
					"name": "candidatos",
					"outputs": [
						{
							"internalType": "string",
							"name": "nombre",
							"type": "string"
						},
						{
							"internalType": "string",
							"name": "partido",
							"type": "string"
						},
						{
							"internalType": "uint256",
							"name": "votos",
							"type": "uint256"
						}
					],
					"stateMutability": "view",
					"type": "function"
				},
				{
					"inputs": [
						{
							"internalType": "string",
							"name": "_nombre",
							"type": "string"
						},
						{
							"internalType": "uint256",
							"name": "_fechaHoraInicio",
							"type": "uint256"
						}
					],
					"name": "crearJornada",
					"outputs": [],
					"stateMutability": "nonpayable",
					"type": "function"
				},
				{
					"inputs": [
						{
							"internalType": "uint256",
							"name": "_idCandidato",
							"type": "uint256"
						}
					],
					"name": "enviarVoto",
					"outputs": [],
					"stateMutability": "nonpayable",
					"type": "function"
				},
				{
					"inputs": [
						{
							"internalType": "string",
							"name": "_partido",
							"type": "string"
						},
						{
							"internalType": "string",
							"name": "_nombre",
							"type": "string"
						}
					],
					"name": "inscribirCandidato",
					"outputs": [],
					"stateMutability": "nonpayable",
					"type": "function"
				},
				{
					"inputs": [
						{
							"internalType": "string",
							"name": "_nombre",
							"type": "string"
						},
						{
							"internalType": "uint8",
							"name": "_edad",
							"type": "uint8"
						}
					],
					"name": "inscribirParticipante",
					"outputs": [],
					"stateMutability": "nonpayable",
					"type": "function"
				},
				{
					"inputs": [],
					"name": "jornadaVotacion",
					"outputs": [
						{
							"internalType": "string",
							"name": "nombre",
							"type": "string"
						},
						{
							"internalType": "uint256",
							"name": "fechaHoraInicio",
							"type": "uint256"
						}
					],
					"stateMutability": "view",
					"type": "function"
				},
				{
					"inputs": [],
					"name": "owner",
					"outputs": [
						{
							"internalType": "address",
							"name": "",
							"type": "address"
						}
					],
					"stateMutability": "view",
					"type": "function"
				},
				{
					"inputs": [
						{
							"internalType": "uint256",
							"name": "",
							"type": "uint256"
						}
					],
					"name": "participantes",
					"outputs": [
						{
							"internalType": "string",
							"name": "nombre",
							"type": "string"
						},
						{
							"internalType": "bool",
							"name": "haVotado",
							"type": "bool"
						}
					],
					"stateMutability": "view",
					"type": "function"
				},
				{
					"inputs": [],
					"name": "renounceOwnership",
					"outputs": [],
					"stateMutability": "nonpayable",
					"type": "function"
				},
				{
					"inputs": [
						{
							"internalType": "address",
							"name": "newOwner",
							"type": "address"
						}
					],
					"name": "transferOwnership",
					"outputs": [],
					"stateMutability": "nonpayable",
					"type": "function"
				},
				{
					"inputs": [
						{
							"internalType": "uint256",
							"name": "_idCandidato",
							"type": "uint256"
						}
					],
					"name": "verCandidato",
					"outputs": [
						{
							"internalType": "string",
							"name": "",
							"type": "string"
						},
						{
							"internalType": "string",
							"name": "",
							"type": "string"
						}
					],
					"stateMutability": "view",
					"type": "function"
				},
				{
					"inputs": [],
					"name": "verNumeroCandidatos",
					"outputs": [
						{
							"internalType": "uint256",
							"name": "",
							"type": "uint256"
						}
					],
					"stateMutability": "view",
					"type": "function"
				},
				{
					"inputs": [],
					"name": "verResultadoVotaciones",
					"outputs": [
						{
							"components": [
								{
									"internalType": "string",
									"name": "nombre",
									"type": "string"
								},
								{
									"internalType": "string",
									"name": "partido",
									"type": "string"
								},
								{
									"internalType": "uint256",
									"name": "votos",
									"type": "uint256"
								}
							],
							"internalType": "struct Urna.Candidato[]",
							"name": "",
							"type": "tuple[]"
						}
					],
					"stateMutability": "view",
					"type": "function"
				},
				{
					"inputs": [],
					"name": "verTotalVotos",
					"outputs": [
						{
							"internalType": "uint256",
							"name": "",
							"type": "uint256"
						}
					],
					"stateMutability": "view",
					"type": "function"
				}
			],
			"devdoc": {
				"custom:dev-run-script": "./contracts/Urna.sol",
				"details": "Implementación de un contrato inteligente para urna de votaciones",
				"errors": {
					"OwnableInvalidOwner(address)": [
						{
							"details": "The owner is not a valid owner account. (eg. `address(0)`)"
						}
					],
					"OwnableUnauthorizedAccount(address)": [
						{
							"details": "The caller account is not authorized to perform an operation."
						}
					]
				},
				"kind": "dev",
				"methods": {
					"owner()": {
						"details": "Returns the address of the current owner."
					},
					"renounceOwnership()": {
						"details": "Leaves the contract without owner. It will not be possible to call `onlyOwner` functions. Can only be called by the current owner. NOTE: Renouncing ownership will leave the contract without an owner, thereby disabling any functionality that is only available to the owner."
					},
					"transferOwnership(address)": {
						"details": "Transfers ownership of the contract to a new account (`newOwner`). Can only be called by the current owner."
					}
				},
				"title": "Urna",
				"version": 1
			},
			"evm": {
				"assembly": "    /* \"contracts/Urna.sol\":264:4235  contract Urna is Ownable {... */\n  mstore(0x40, 0x80)\n    /* \"contracts/Urna.sol\":460:467  8 hours */\n  0x7080\n    /* \"contracts/Urna.sol\":437:467  uint duracionJornada = 8 hours */\n  0x01\n  sstore\n    /* \"contracts/Urna.sol\":501:507  1 days */\n  0x015180\n    /* \"contracts/Urna.sol\":474:507  uint limiteInscripciones = 1 days */\n  0x02\n  sstore\n    /* \"contracts/Urna.sol\":296:354  constructor(address initialOwner) Ownable(initialOwner) {} */\n  callvalue\n  dup1\n  iszero\n  tag_1\n  jumpi\n  0x00\n  dup1\n  revert\ntag_1:\n  pop\n  mload(0x40)\n  sub(codesize, bytecodeSize)\n  dup1\n  bytecodeSize\n  dup4\n  codecopy\n  dup2\n  dup2\n  add\n  0x40\n  mstore\n  dup2\n  add\n  swap1\n  tag_2\n  swap2\n  swap1\n  tag_3\n  jump\t// in\ntag_2:\n    /* \"contracts/Urna.sol\":338:350  initialOwner */\n  dup1\n    /* \"OpenZeppelin-Ownable/access/Ownable.sol\":2555:2556  0 */\n  0x00\n    /* \"OpenZeppelin-Ownable/access/Ownable.sol\":2531:2557  initialOwner == address(0) */\n  0xffffffffffffffffffffffffffffffffffffffff\n  and\n    /* \"OpenZeppelin-Ownable/access/Ownable.sol\":2531:2543  initialOwner */\n  dup2\n    /* \"OpenZeppelin-Ownable/access/Ownable.sol\":2531:2557  initialOwner == address(0) */\n  0xffffffffffffffffffffffffffffffffffffffff\n  and\n  sub\n    /* \"OpenZeppelin-Ownable/access/Ownable.sol\":2527:2622  if (initialOwner == address(0)) {... */\n  tag_7\n  jumpi\n    /* \"OpenZeppelin-Ownable/access/Ownable.sol\":2608:2609  0 */\n  0x00\n    /* \"OpenZeppelin-Ownable/access/Ownable.sol\":2580:2611  OwnableInvalidOwner(address(0)) */\n  mload(0x40)\n  0x1e4fbdf700000000000000000000000000000000000000000000000000000000\n  dup2\n  mstore\n  0x04\n  add\n  tag_8\n  swap2\n  swap1\n  tag_9\n  jump\t// in\ntag_8:\n  mload(0x40)\n  dup1\n  swap2\n  sub\n  swap1\n  revert\n    /* \"OpenZeppelin-Ownable/access/Ownable.sol\":2527:2622  if (initialOwner == address(0)) {... */\ntag_7:\n    /* \"OpenZeppelin-Ownable/access/Ownable.sol\":2631:2663  _transferOwnership(initialOwner) */\n  tag_10\n    /* \"OpenZeppelin-Ownable/access/Ownable.sol\":2650:2662  initialOwner */\n  dup2\n    /* \"OpenZeppelin-Ownable/access/Ownable.sol\":2631:2649  _transferOwnership */\n  shl(0x20, tag_11)\n    /* \"OpenZeppelin-Ownable/access/Ownable.sol\":2631:2663  _transferOwnership(initialOwner) */\n  0x20\n  shr\n  jump\t// in\ntag_10:\n    /* \"OpenZeppelin-Ownable/access/Ownable.sol\":2483:2670  constructor(address initialOwner) {... */\n  pop\n    /* \"contracts/Urna.sol\":296:354  constructor(address initialOwner) Ownable(initialOwner) {} */\n  pop\n    /* \"contracts/Urna.sol\":264:4235  contract Urna is Ownable {... */\n  jump(tag_13)\n    /* \"OpenZeppelin-Ownable/access/Ownable.sol\":4170:4357  function _transferOwnership(address newOwner) internal virtual {... */\ntag_11:\n    /* \"OpenZeppelin-Ownable/access/Ownable.sol\":4243:4259  address oldOwner */\n  0x00\n    /* \"OpenZeppelin-Ownable/access/Ownable.sol\":4262:4268  _owner */\n  dup1\n  0x00\n  swap1\n  sload\n  swap1\n  0x0100\n  exp\n  swap1\n  div\n  0xffffffffffffffffffffffffffffffffffffffff\n  and\n    /* \"OpenZeppelin-Ownable/access/Ownable.sol\":4243:4268  address oldOwner = _owner */\n  swap1\n  pop\n    /* \"OpenZeppelin-Ownable/access/Ownable.sol\":4287:4295  newOwner */\n  dup2\n    /* \"OpenZeppelin-Ownable/access/Ownable.sol\":4278:4284  _owner */\n  0x00\n  dup1\n    /* \"OpenZeppelin-Ownable/access/Ownable.sol\":4278:4295  _owner = newOwner */\n  0x0100\n  exp\n  dup2\n  sload\n  dup2\n  0xffffffffffffffffffffffffffffffffffffffff\n  mul\n  not\n  and\n  swap1\n  dup4\n  0xffffffffffffffffffffffffffffffffffffffff\n  and\n  mul\n  or\n  swap1\n  sstore\n  pop\n    /* \"OpenZeppelin-Ownable/access/Ownable.sol\":4341:4349  newOwner */\n  dup2\n    /* \"OpenZeppelin-Ownable/access/Ownable.sol\":4310:4350  OwnershipTransferred(oldOwner, newOwner) */\n  0xffffffffffffffffffffffffffffffffffffffff\n  and\n    /* \"OpenZeppelin-Ownable/access/Ownable.sol\":4331:4339  oldOwner */\n  dup2\n    /* \"OpenZeppelin-Ownable/access/Ownable.sol\":4310:4350  OwnershipTransferred(oldOwner, newOwner) */\n  0xffffffffffffffffffffffffffffffffffffffff\n  and\n  0x8be0079c531659141344cd1fd0a4f28419497f9722a3daafe3b4186f6b6457e0\n  mload(0x40)\n  mload(0x40)\n  dup1\n  swap2\n  sub\n  swap1\n  log3\n    /* \"OpenZeppelin-Ownable/access/Ownable.sol\":4233:4357  {... */\n  pop\n    /* \"OpenZeppelin-Ownable/access/Ownable.sol\":4170:4357  function _transferOwnership(address newOwner) internal virtual {... */\n  pop\n  jump\t// out\n    /* \"#utility.yul\":88:205   */\ntag_16:\n    /* \"#utility.yul\":197:198   */\n  0x00\n    /* \"#utility.yul\":194:195   */\n  dup1\n    /* \"#utility.yul\":187:199   */\n  revert\n    /* \"#utility.yul\":334:460   */\ntag_18:\n    /* \"#utility.yul\":371:378   */\n  0x00\n    /* \"#utility.yul\":411:453   */\n  0xffffffffffffffffffffffffffffffffffffffff\n    /* \"#utility.yul\":404:409   */\n  dup3\n    /* \"#utility.yul\":400:454   */\n  and\n    /* \"#utility.yul\":389:454   */\n  swap1\n  pop\n    /* \"#utility.yul\":334:460   */\n  swap2\n  swap1\n  pop\n  jump\t// out\n    /* \"#utility.yul\":466:562   */\ntag_19:\n    /* \"#utility.yul\":503:510   */\n  0x00\n    /* \"#utility.yul\":532:556   */\n  tag_29\n    /* \"#utility.yul\":550:555   */\n  dup3\n    /* \"#utility.yul\":532:556   */\n  tag_18\n  jump\t// in\ntag_29:\n    /* \"#utility.yul\":521:556   */\n  swap1\n  pop\n    /* \"#utility.yul\":466:562   */\n  swap2\n  swap1\n  pop\n  jump\t// out\n    /* \"#utility.yul\":568:690   */\ntag_20:\n    /* \"#utility.yul\":641:665   */\n  tag_31\n    /* \"#utility.yul\":659:664   */\n  dup2\n    /* \"#utility.yul\":641:665   */\n  tag_19\n  jump\t// in\ntag_31:\n    /* \"#utility.yul\":634:639   */\n  dup2\n    /* \"#utility.yul\":631:666   */\n  eq\n    /* \"#utility.yul\":621:684   */\n  tag_32\n  jumpi\n    /* \"#utility.yul\":680:681   */\n  0x00\n    /* \"#utility.yul\":677:678   */\n  dup1\n    /* \"#utility.yul\":670:682   */\n  revert\n    /* \"#utility.yul\":621:684   */\ntag_32:\n    /* \"#utility.yul\":568:690   */\n  pop\n  jump\t// out\n    /* \"#utility.yul\":696:839   */\ntag_21:\n    /* \"#utility.yul\":753:758   */\n  0x00\n    /* \"#utility.yul\":784:790   */\n  dup2\n    /* \"#utility.yul\":778:791   */\n  mload\n    /* \"#utility.yul\":769:791   */\n  swap1\n  pop\n    /* \"#utility.yul\":800:833   */\n  tag_34\n    /* \"#utility.yul\":827:832   */\n  dup2\n    /* \"#utility.yul\":800:833   */\n  tag_20\n  jump\t// in\ntag_34:\n    /* \"#utility.yul\":696:839   */\n  swap3\n  swap2\n  pop\n  pop\n  jump\t// out\n    /* \"#utility.yul\":845:1196   */\ntag_3:\n    /* \"#utility.yul\":915:921   */\n  0x00\n    /* \"#utility.yul\":964:966   */\n  0x20\n    /* \"#utility.yul\":952:961   */\n  dup3\n    /* \"#utility.yul\":943:950   */\n  dup5\n    /* \"#utility.yul\":939:962   */\n  sub\n    /* \"#utility.yul\":935:967   */\n  slt\n    /* \"#utility.yul\":932:1051   */\n  iszero\n  tag_36\n  jumpi\n    /* \"#utility.yul\":970:1049   */\n  tag_37\n  tag_16\n  jump\t// in\ntag_37:\n    /* \"#utility.yul\":932:1051   */\ntag_36:\n    /* \"#utility.yul\":1090:1091   */\n  0x00\n    /* \"#utility.yul\":1115:1179   */\n  tag_38\n    /* \"#utility.yul\":1171:1178   */\n  dup5\n    /* \"#utility.yul\":1162:1168   */\n  dup3\n    /* \"#utility.yul\":1151:1160   */\n  dup6\n    /* \"#utility.yul\":1147:1169   */\n  add\n    /* \"#utility.yul\":1115:1179   */\n  tag_21\n  jump\t// in\ntag_38:\n    /* \"#utility.yul\":1105:1179   */\n  swap2\n  pop\n    /* \"#utility.yul\":1061:1189   */\n  pop\n    /* \"#utility.yul\":845:1196   */\n  swap3\n  swap2\n  pop\n  pop\n  jump\t// out\n    /* \"#utility.yul\":1202:1320   */\ntag_22:\n    /* \"#utility.yul\":1289:1313   */\n  tag_40\n    /* \"#utility.yul\":1307:1312   */\n  dup2\n    /* \"#utility.yul\":1289:1313   */\n  tag_19\n  jump\t// in\ntag_40:\n    /* \"#utility.yul\":1284:1287   */\n  dup3\n    /* \"#utility.yul\":1277:1314   */\n  mstore\n    /* \"#utility.yul\":1202:1320   */\n  pop\n  pop\n  jump\t// out\n    /* \"#utility.yul\":1326:1548   */\ntag_9:\n    /* \"#utility.yul\":1419:1423   */\n  0x00\n    /* \"#utility.yul\":1457:1459   */\n  0x20\n    /* \"#utility.yul\":1446:1455   */\n  dup3\n    /* \"#utility.yul\":1442:1460   */\n  add\n    /* \"#utility.yul\":1434:1460   */\n  swap1\n  pop\n    /* \"#utility.yul\":1470:1541   */\n  tag_42\n    /* \"#utility.yul\":1538:1539   */\n  0x00\n    /* \"#utility.yul\":1527:1536   */\n  dup4\n    /* \"#utility.yul\":1523:1540   */\n  add\n    /* \"#utility.yul\":1514:1520   */\n  dup5\n    /* \"#utility.yul\":1470:1541   */\n  tag_22\n  jump\t// in\ntag_42:\n    /* \"#utility.yul\":1326:1548   */\n  swap3\n  swap2\n  pop\n  pop\n  jump\t// out\n    /* \"contracts/Urna.sol\":264:4235  contract Urna is Ownable {... */\ntag_13:\n  dataSize(sub_0)\n  dup1\n  dataOffset(sub_0)\n  0x00\n  codecopy\n  0x00\n  return\nstop\n\nsub_0: assembly {\n        /* \"contracts/Urna.sol\":264:4235  contract Urna is Ownable {... */\n      mstore(0x40, 0x80)\n      callvalue\n      dup1\n      iszero\n      tag_1\n      jumpi\n      0x00\n      dup1\n      revert\n    tag_1:\n      pop\n      jumpi(tag_2, lt(calldatasize, 0x04))\n      shr(0xe0, calldataload(0x00))\n      dup1\n      0xb0c73513\n      gt\n      tag_17\n      jumpi\n      dup1\n      0xc1961cea\n      gt\n      tag_18\n      jumpi\n      dup1\n      0xc1961cea\n      eq\n      tag_13\n      jumpi\n      dup1\n      0xe3446174\n      eq\n      tag_14\n      jumpi\n      dup1\n      0xee55f11e\n      eq\n      tag_15\n      jumpi\n      dup1\n      0xf2fde38b\n      eq\n      tag_16\n      jumpi\n      jump(tag_2)\n    tag_18:\n      dup1\n      0xb0c73513\n      eq\n      tag_10\n      jumpi\n      dup1\n      0xb25924c1\n      eq\n      tag_11\n      jumpi\n      dup1\n      0xb5e422d4\n      eq\n      tag_12\n      jumpi\n      jump(tag_2)\n    tag_17:\n      dup1\n      0x89813f84\n      gt\n      tag_19\n      jumpi\n      dup1\n      0x89813f84\n      eq\n      tag_6\n      jumpi\n      dup1\n      0x8da5cb5b\n      eq\n      tag_7\n      jumpi\n      dup1\n      0x8f023f85\n      eq\n      tag_8\n      jumpi\n      dup1\n      0x8f6021c3\n      eq\n      tag_9\n      jumpi\n      jump(tag_2)\n    tag_19:\n      dup1\n      0x0e0864cb\n      eq\n      tag_3\n      jumpi\n      dup1\n      0x6cdf69f0\n      eq\n      tag_4\n      jumpi\n      dup1\n      0x715018a6\n      eq\n      tag_5\n      jumpi\n    tag_2:\n      0x00\n      dup1\n      revert\n        /* \"contracts/Urna.sol\":3220:3832  function enviarVoto(uint _idCandidato) public duranteJornada {... */\n    tag_3:\n      tag_20\n      0x04\n      dup1\n      calldatasize\n      sub\n      dup2\n      add\n      swap1\n      tag_21\n      swap2\n      swap1\n      tag_22\n      jump\t// in\n    tag_21:\n      tag_23\n      jump\t// in\n    tag_20:\n      stop\n        /* \"contracts/Urna.sol\":870:900  Jornada public jornadaVotacion */\n    tag_4:\n      tag_24\n      tag_25\n      jump\t// in\n    tag_24:\n      mload(0x40)\n      tag_26\n      swap3\n      swap2\n      swap1\n      tag_27\n      jump\t// in\n    tag_26:\n      mload(0x40)\n      dup1\n      swap2\n      sub\n      swap1\n      return\n        /* \"OpenZeppelin-Ownable/access/Ownable.sol\":3551:3652  function renounceOwnership() public virtual onlyOwner {... */\n    tag_5:\n      tag_28\n      tag_29\n      jump\t// in\n    tag_28:\n      stop\n        /* \"contracts/Urna.sol\":2594:2819  function inscribirCandidato(string memory _partido, string memory _nombre) public onlyOwner dentroDePlazoInscripciones {... */\n    tag_6:\n      tag_30\n      0x04\n      dup1\n      calldatasize\n      sub\n      dup2\n      add\n      swap1\n      tag_31\n      swap2\n      swap1\n      tag_32\n      jump\t// in\n    tag_31:\n      tag_33\n      jump\t// in\n    tag_30:\n      stop\n        /* \"OpenZeppelin-Ownable/access/Ownable.sol\":2896:2981  function owner() public view virtual returns (address) {... */\n    tag_7:\n      tag_34\n      tag_35\n      jump\t// in\n    tag_34:\n      mload(0x40)\n      tag_36\n      swap2\n      swap1\n      tag_37\n      jump\t// in\n    tag_36:\n      mload(0x40)\n      dup1\n      swap2\n      sub\n      swap1\n      return\n        /* \"contracts/Urna.sol\":792:821  Candidato[] public candidatos */\n    tag_8:\n      tag_38\n      0x04\n      dup1\n      calldatasize\n      sub\n      dup2\n      add\n      swap1\n      tag_39\n      swap2\n      swap1\n      tag_22\n      jump\t// in\n    tag_39:\n      tag_40\n      jump\t// in\n    tag_38:\n      mload(0x40)\n      tag_41\n      swap4\n      swap3\n      swap2\n      swap1\n      tag_42\n      jump\t// in\n    tag_41:\n      mload(0x40)\n      dup1\n      swap2\n      sub\n      swap1\n      return\n        /* \"contracts/Urna.sol\":2952:3212  function verCandidato(uint _idCandidato) external view duranteJornada returns(string memory, string memory) {... */\n    tag_9:\n      tag_43\n      0x04\n      dup1\n      calldatasize\n      sub\n      dup2\n      add\n      swap1\n      tag_44\n      swap2\n      swap1\n      tag_22\n      jump\t// in\n    tag_44:\n      tag_45\n      jump\t// in\n    tag_43:\n      mload(0x40)\n      tag_46\n      swap3\n      swap2\n      swap1\n      tag_47\n      jump\t// in\n    tag_46:\n      mload(0x40)\n      dup1\n      swap2\n      sub\n      swap1\n      return\n        /* \"contracts/Urna.sol\":1657:1913  function crearJornada(string memory _nombre, uint256 _fechaHoraInicio) public onlyOwner {... */\n    tag_10:\n      tag_48\n      0x04\n      dup1\n      calldatasize\n      sub\n      dup2\n      add\n      swap1\n      tag_49\n      swap2\n      swap1\n      tag_50\n      jump\t// in\n    tag_49:\n      tag_51\n      jump\t// in\n    tag_48:\n      stop\n        /* \"contracts/Urna.sol\":828:863  Participante[] public participantes */\n    tag_11:\n      tag_52\n      0x04\n      dup1\n      calldatasize\n      sub\n      dup2\n      add\n      swap1\n      tag_53\n      swap2\n      swap1\n      tag_22\n      jump\t// in\n    tag_53:\n      tag_54\n      jump\t// in\n    tag_52:\n      mload(0x40)\n      tag_55\n      swap3\n      swap2\n      swap1\n      tag_56\n      jump\t// in\n    tag_55:\n      mload(0x40)\n      dup1\n      swap2\n      sub\n      swap1\n      return\n        /* \"contracts/Urna.sol\":3840:4095  function verTotalVotos() external view despuesDeJornada returns(uint) {... */\n    tag_12:\n      tag_57\n      tag_58\n      jump\t// in\n    tag_57:\n      mload(0x40)\n      tag_59\n      swap2\n      swap1\n      tag_60\n      jump\t// in\n    tag_59:\n      mload(0x40)\n      dup1\n      swap2\n      sub\n      swap1\n      return\n        /* \"contracts/Urna.sol\":2135:2363  function inscribirParticipante(string memory _nombre, uint8 _edad) public mayorDeEdad(_edad) dentroDePlazoInscripciones {... */\n    tag_13:\n      tag_61\n      0x04\n      dup1\n      calldatasize\n      sub\n      dup2\n      add\n      swap1\n      tag_62\n      swap2\n      swap1\n      tag_63\n      jump\t// in\n    tag_62:\n      tag_64\n      jump\t// in\n    tag_61:\n      stop\n        /* \"contracts/Urna.sol\":2827:2944  function verNumeroCandidatos() external view duranteJornada returns(uint) {... */\n    tag_14:\n      tag_65\n      tag_66\n      jump\t// in\n    tag_65:\n      mload(0x40)\n      tag_67\n      swap2\n      swap1\n      tag_60\n      jump\t// in\n    tag_67:\n      mload(0x40)\n      dup1\n      swap2\n      sub\n      swap1\n      return\n        /* \"contracts/Urna.sol\":4103:4232  function verResultadoVotaciones() external view despuesDeJornada returns(Candidato[] memory) {... */\n    tag_15:\n      tag_68\n      tag_69\n      jump\t// in\n    tag_68:\n      mload(0x40)\n      tag_70\n      swap2\n      swap1\n      tag_71\n      jump\t// in\n    tag_70:\n      mload(0x40)\n      dup1\n      swap2\n      sub\n      swap1\n      return\n        /* \"OpenZeppelin-Ownable/access/Ownable.sol\":3801:4016  function transferOwnership(address newOwner) public virtual onlyOwner {... */\n    tag_16:\n      tag_72\n      0x04\n      dup1\n      calldatasize\n      sub\n      dup2\n      add\n      swap1\n      tag_73\n      swap2\n      swap1\n      tag_74\n      jump\t// in\n    tag_73:\n      tag_75\n      jump\t// in\n    tag_72:\n      stop\n        /* \"contracts/Urna.sol\":3220:3832  function enviarVoto(uint _idCandidato) public duranteJornada {... */\n    tag_23:\n        /* \"contracts/Urna.sol\":1376:1391  jornadaVotacion */\n      0x05\n        /* \"contracts/Urna.sol\":1376:1407  jornadaVotacion.fechaHoraInicio */\n      0x01\n      add\n      sload\n        /* \"contracts/Urna.sol\":1357:1372  block.timestamp */\n      timestamp\n        /* \"contracts/Urna.sol\":1357:1407  block.timestamp >= jornadaVotacion.fechaHoraInicio */\n      lt\n      iszero\n        /* \"contracts/Urna.sol\":1356:1484  (block.timestamp >= jornadaVotacion.fechaHoraInicio) && (block.timestamp <= (jornadaVotacion.fechaHoraInicio + duracionJornada)) */\n      dup1\n      iszero\n      tag_77\n      jumpi\n      pop\n        /* \"contracts/Urna.sol\":1467:1482  duracionJornada */\n      sload(0x01)\n        /* \"contracts/Urna.sol\":1433:1448  jornadaVotacion */\n      0x05\n        /* \"contracts/Urna.sol\":1433:1464  jornadaVotacion.fechaHoraInicio */\n      0x01\n      add\n      sload\n        /* \"contracts/Urna.sol\":1433:1482  jornadaVotacion.fechaHoraInicio + duracionJornada */\n      tag_78\n      swap2\n      swap1\n      tag_79\n      jump\t// in\n    tag_78:\n        /* \"contracts/Urna.sol\":1413:1428  block.timestamp */\n      timestamp\n        /* \"contracts/Urna.sol\":1413:1483  block.timestamp <= (jornadaVotacion.fechaHoraInicio + duracionJornada) */\n      gt\n      iszero\n        /* \"contracts/Urna.sol\":1356:1484  (block.timestamp >= jornadaVotacion.fechaHoraInicio) && (block.timestamp <= (jornadaVotacion.fechaHoraInicio + duracionJornada)) */\n    tag_77:\n        /* \"contracts/Urna.sol\":1348:1485  require((block.timestamp >= jornadaVotacion.fechaHoraInicio) && (block.timestamp <= (jornadaVotacion.fechaHoraInicio + duracionJornada))) */\n      tag_80\n      jumpi\n      0x00\n      dup1\n      revert\n    tag_80:\n        /* \"contracts/Urna.sol\":3292:3311  uint idParticipante */\n      0x00\n        /* \"contracts/Urna.sol\":3314:3337  inscripcionParticipante */\n      0x08\n        /* \"contracts/Urna.sol\":3314:3349  inscripcionParticipante[msg.sender] */\n      0x00\n        /* \"contracts/Urna.sol\":3338:3348  msg.sender */\n      caller\n        /* \"contracts/Urna.sol\":3314:3349  inscripcionParticipante[msg.sender] */\n      0xffffffffffffffffffffffffffffffffffffffff\n      and\n      0xffffffffffffffffffffffffffffffffffffffff\n      and\n      dup2\n      mstore\n      0x20\n      add\n      swap1\n      dup2\n      mstore\n      0x20\n      add\n      0x00\n      keccak256\n      sload\n        /* \"contracts/Urna.sol\":3292:3349  uint idParticipante = inscripcionParticipante[msg.sender] */\n      swap1\n      pop\n        /* \"contracts/Urna.sol\":3360:3374  uint nuevoVoto */\n      0x00\n        /* \"contracts/Urna.sol\":3396:3409  participantes */\n      0x04\n        /* \"contracts/Urna.sol\":3410:3424  idParticipante */\n      dup3\n        /* \"contracts/Urna.sol\":3396:3425  participantes[idParticipante] */\n      dup2\n      sload\n      dup2\n      lt\n      tag_82\n      jumpi\n      tag_83\n      tag_84\n      jump\t// in\n    tag_83:\n    tag_82:\n      swap1\n      0x00\n      mstore\n      keccak256(0x00, 0x20)\n      swap1\n      0x02\n      mul\n      add\n        /* \"contracts/Urna.sol\":3396:3434  participantes[idParticipante].haVotado */\n      0x01\n      add\n      0x00\n      swap1\n      sload\n      swap1\n      0x0100\n      exp\n      swap1\n      div\n      0xff\n      and\n        /* \"contracts/Urna.sol\":3391:3592  if (!participantes[idParticipante].haVotado) {... */\n      tag_86\n      jumpi\n        /* \"contracts/Urna.sol\":3463:3464  1 */\n      0x01\n        /* \"contracts/Urna.sol\":3451:3464  nuevoVoto = 1 */\n      swap1\n      pop\n        /* \"contracts/Urna.sol\":3508:3520  _idCandidato */\n      dup3\n        /* \"contracts/Urna.sol\":3479:3493  votoACandidato */\n      0x07\n        /* \"contracts/Urna.sol\":3479:3505  votoACandidato[msg.sender] */\n      0x00\n        /* \"contracts/Urna.sol\":3494:3504  msg.sender */\n      caller\n        /* \"contracts/Urna.sol\":3479:3505  votoACandidato[msg.sender] */\n      0xffffffffffffffffffffffffffffffffffffffff\n      and\n      0xffffffffffffffffffffffffffffffffffffffff\n      and\n      dup2\n      mstore\n      0x20\n      add\n      swap1\n      dup2\n      mstore\n      0x20\n      add\n      0x00\n      keccak256\n        /* \"contracts/Urna.sol\":3479:3520  votoACandidato[msg.sender] = _idCandidato */\n      dup2\n      swap1\n      sstore\n      pop\n        /* \"contracts/Urna.sol\":3576:3580  true */\n      0x01\n        /* \"contracts/Urna.sol\":3535:3548  participantes */\n      0x04\n        /* \"contracts/Urna.sol\":3549:3563  idParticipante */\n      dup4\n        /* \"contracts/Urna.sol\":3535:3564  participantes[idParticipante] */\n      dup2\n      sload\n      dup2\n      lt\n      tag_87\n      jumpi\n      tag_88\n      tag_84\n      jump\t// in\n    tag_88:\n    tag_87:\n      swap1\n      0x00\n      mstore\n      keccak256(0x00, 0x20)\n      swap1\n      0x02\n      mul\n      add\n        /* \"contracts/Urna.sol\":3535:3573  participantes[idParticipante].haVotado */\n      0x01\n      add\n      0x00\n        /* \"contracts/Urna.sol\":3535:3580  participantes[idParticipante].haVotado = true */\n      0x0100\n      exp\n      dup2\n      sload\n      dup2\n      0xff\n      mul\n      not\n      and\n      swap1\n      dup4\n      iszero\n      iszero\n      mul\n      or\n      swap1\n      sstore\n      pop\n        /* \"contracts/Urna.sol\":3391:3592  if (!participantes[idParticipante].haVotado) {... */\n    tag_86:\n        /* \"contracts/Urna.sol\":3604:3635  Candidato storage candidatoVoto */\n      0x00\n        /* \"contracts/Urna.sol\":3638:3648  candidatos */\n      0x03\n        /* \"contracts/Urna.sol\":3650:3664  votoACandidato */\n      0x07\n        /* \"contracts/Urna.sol\":3650:3676  votoACandidato[msg.sender] */\n      0x00\n        /* \"contracts/Urna.sol\":3665:3675  msg.sender */\n      caller\n        /* \"contracts/Urna.sol\":3650:3676  votoACandidato[msg.sender] */\n      0xffffffffffffffffffffffffffffffffffffffff\n      and\n      0xffffffffffffffffffffffffffffffffffffffff\n      and\n      dup2\n      mstore\n      0x20\n      add\n      swap1\n      dup2\n      mstore\n      0x20\n      add\n      0x00\n      keccak256\n      sload\n        /* \"contracts/Urna.sol\":3638:3678  candidatos[ votoACandidato[msg.sender] ] */\n      dup2\n      sload\n      dup2\n      lt\n      tag_90\n      jumpi\n      tag_91\n      tag_84\n      jump\t// in\n    tag_91:\n    tag_90:\n      swap1\n      0x00\n      mstore\n      keccak256(0x00, 0x20)\n      swap1\n      0x03\n      mul\n      add\n        /* \"contracts/Urna.sol\":3604:3678  Candidato storage candidatoVoto = candidatos[ votoACandidato[msg.sender] ] */\n      swap1\n      pop\n        /* \"contracts/Urna.sol\":3733:3742  nuevoVoto */\n      dup2\n        /* \"contracts/Urna.sol\":3711:3724  candidatoVoto */\n      dup2\n        /* \"contracts/Urna.sol\":3711:3730  candidatoVoto.votos */\n      0x02\n      add\n      sload\n        /* \"contracts/Urna.sol\":3711:3742  candidatoVoto.votos + nuevoVoto */\n      tag_93\n      swap2\n      swap1\n      tag_79\n      jump\t// in\n    tag_93:\n        /* \"contracts/Urna.sol\":3689:3702  candidatoVoto */\n      dup2\n        /* \"contracts/Urna.sol\":3689:3708  candidatoVoto.votos */\n      0x02\n      add\n        /* \"contracts/Urna.sol\":3689:3742  candidatoVoto.votos = candidatoVoto.votos + nuevoVoto */\n      dup2\n      swap1\n      sstore\n      pop\n        /* \"contracts/Urna.sol\":3760:3824  VotoRegistrado(votoACandidato[msg.sender], candidatoVoto.nombre) */\n      0xd5f7cb52613a2bacd6e90c181d02d8eb3d9236bdb28d47edf16fe7c8ff2e39a3\n        /* \"contracts/Urna.sol\":3775:3789  votoACandidato */\n      0x07\n        /* \"contracts/Urna.sol\":3775:3801  votoACandidato[msg.sender] */\n      0x00\n        /* \"contracts/Urna.sol\":3790:3800  msg.sender */\n      caller\n        /* \"contracts/Urna.sol\":3775:3801  votoACandidato[msg.sender] */\n      0xffffffffffffffffffffffffffffffffffffffff\n      and\n      0xffffffffffffffffffffffffffffffffffffffff\n      and\n      dup2\n      mstore\n      0x20\n      add\n      swap1\n      dup2\n      mstore\n      0x20\n      add\n      0x00\n      keccak256\n      sload\n        /* \"contracts/Urna.sol\":3803:3816  candidatoVoto */\n      dup3\n        /* \"contracts/Urna.sol\":3803:3823  candidatoVoto.nombre */\n      0x00\n      add\n        /* \"contracts/Urna.sol\":3760:3824  VotoRegistrado(votoACandidato[msg.sender], candidatoVoto.nombre) */\n      mload(0x40)\n      tag_94\n      swap3\n      swap2\n      swap1\n      tag_95\n      jump\t// in\n    tag_94:\n      mload(0x40)\n      dup1\n      swap2\n      sub\n      swap1\n      log1\n        /* \"contracts/Urna.sol\":3281:3832  {... */\n      pop\n      pop\n      pop\n        /* \"contracts/Urna.sol\":3220:3832  function enviarVoto(uint _idCandidato) public duranteJornada {... */\n      pop\n      jump\t// out\n        /* \"contracts/Urna.sol\":870:900  Jornada public jornadaVotacion */\n    tag_25:\n      0x05\n      dup1\n      0x00\n      add\n      dup1\n      sload\n      tag_96\n      swap1\n      tag_97\n      jump\t// in\n    tag_96:\n      dup1\n      0x1f\n      add\n      0x20\n      dup1\n      swap2\n      div\n      mul\n      0x20\n      add\n      mload(0x40)\n      swap1\n      dup2\n      add\n      0x40\n      mstore\n      dup1\n      swap3\n      swap2\n      swap1\n      dup2\n      dup2\n      mstore\n      0x20\n      add\n      dup3\n      dup1\n      sload\n      tag_98\n      swap1\n      tag_97\n      jump\t// in\n    tag_98:\n      dup1\n      iszero\n      tag_99\n      jumpi\n      dup1\n      0x1f\n      lt\n      tag_100\n      jumpi\n      0x0100\n      dup1\n      dup4\n      sload\n      div\n      mul\n      dup4\n      mstore\n      swap2\n      0x20\n      add\n      swap2\n      jump(tag_99)\n    tag_100:\n      dup3\n      add\n      swap2\n      swap1\n      0x00\n      mstore\n      keccak256(0x00, 0x20)\n      swap1\n    tag_101:\n      dup2\n      sload\n      dup2\n      mstore\n      swap1\n      0x01\n      add\n      swap1\n      0x20\n      add\n      dup1\n      dup4\n      gt\n      tag_101\n      jumpi\n      dup3\n      swap1\n      sub\n      0x1f\n      and\n      dup3\n      add\n      swap2\n    tag_99:\n      pop\n      pop\n      pop\n      pop\n      pop\n      swap1\n      dup1\n      0x01\n      add\n      sload\n      swap1\n      pop\n      dup3\n      jump\t// out\n        /* \"OpenZeppelin-Ownable/access/Ownable.sol\":3551:3652  function renounceOwnership() public virtual onlyOwner {... */\n    tag_29:\n        /* \"OpenZeppelin-Ownable/access/Ownable.sol\":2789:2802  _checkOwner() */\n      tag_103\n        /* \"OpenZeppelin-Ownable/access/Ownable.sol\":2789:2800  _checkOwner */\n      tag_104\n        /* \"OpenZeppelin-Ownable/access/Ownable.sol\":2789:2802  _checkOwner() */\n      jump\t// in\n    tag_103:\n        /* \"OpenZeppelin-Ownable/access/Ownable.sol\":3615:3645  _transferOwnership(address(0)) */\n      tag_106\n        /* \"OpenZeppelin-Ownable/access/Ownable.sol\":3642:3643  0 */\n      0x00\n        /* \"OpenZeppelin-Ownable/access/Ownable.sol\":3615:3633  _transferOwnership */\n      tag_107\n        /* \"OpenZeppelin-Ownable/access/Ownable.sol\":3615:3645  _transferOwnership(address(0)) */\n      jump\t// in\n    tag_106:\n        /* \"OpenZeppelin-Ownable/access/Ownable.sol\":3551:3652  function renounceOwnership() public virtual onlyOwner {... */\n      jump\t// out\n        /* \"contracts/Urna.sol\":2594:2819  function inscribirCandidato(string memory _partido, string memory _nombre) public onlyOwner dentroDePlazoInscripciones {... */\n    tag_33:\n        /* \"OpenZeppelin-Ownable/access/Ownable.sol\":2789:2802  _checkOwner() */\n      tag_109\n        /* \"OpenZeppelin-Ownable/access/Ownable.sol\":2789:2800  _checkOwner */\n      tag_104\n        /* \"OpenZeppelin-Ownable/access/Ownable.sol\":2789:2802  _checkOwner() */\n      jump\t// in\n    tag_109:\n        /* \"contracts/Urna.sol\":1264:1283  limiteInscripciones */\n      sload(0x02)\n        /* \"contracts/Urna.sol\":1230:1245  jornadaVotacion */\n      0x05\n        /* \"contracts/Urna.sol\":1230:1261  jornadaVotacion.fechaHoraInicio */\n      0x01\n      add\n      sload\n        /* \"contracts/Urna.sol\":1230:1283  jornadaVotacion.fechaHoraInicio - limiteInscripciones */\n      tag_111\n      swap2\n      swap1\n      tag_112\n      jump\t// in\n    tag_111:\n        /* \"contracts/Urna.sol\":1210:1225  block.timestamp */\n      timestamp\n        /* \"contracts/Urna.sol\":1210:1284  block.timestamp <= (jornadaVotacion.fechaHoraInicio - limiteInscripciones) */\n      gt\n      iszero\n        /* \"contracts/Urna.sol\":1202:1285  require(block.timestamp <= (jornadaVotacion.fechaHoraInicio - limiteInscripciones)) */\n      tag_113\n      jumpi\n      0x00\n      dup1\n      revert\n    tag_113:\n        /* \"contracts/Urna.sol\":2762:2763  0 */\n      0x00\n        /* \"contracts/Urna.sol\":2732:2748  candidatoPartido */\n      0x09\n        /* \"contracts/Urna.sol\":2749:2757  _partido */\n      dup4\n        /* \"contracts/Urna.sol\":2732:2758  candidatoPartido[_partido] */\n      mload(0x40)\n      tag_115\n      swap2\n      swap1\n      tag_116\n      jump\t// in\n    tag_115:\n      swap1\n      dup2\n      mstore\n      0x20\n      add\n      mload(0x40)\n      dup1\n      swap2\n      sub\n      swap1\n      keccak256\n      sload\n        /* \"contracts/Urna.sol\":2732:2763  candidatoPartido[_partido] == 0 */\n      eq\n        /* \"contracts/Urna.sol\":2724:2764  require(candidatoPartido[_partido] == 0) */\n      tag_117\n      jumpi\n      0x00\n      dup1\n      revert\n    tag_117:\n        /* \"contracts/Urna.sol\":2777:2811  _crearCandidato(_partido, _nombre) */\n      tag_118\n        /* \"contracts/Urna.sol\":2793:2801  _partido */\n      dup3\n        /* \"contracts/Urna.sol\":2803:2810  _nombre */\n      dup3\n        /* \"contracts/Urna.sol\":2777:2792  _crearCandidato */\n      tag_119\n        /* \"contracts/Urna.sol\":2777:2811  _crearCandidato(_partido, _nombre) */\n      jump\t// in\n    tag_118:\n        /* \"contracts/Urna.sol\":2594:2819  function inscribirCandidato(string memory _partido, string memory _nombre) public onlyOwner dentroDePlazoInscripciones {... */\n      pop\n      pop\n      jump\t// out\n        /* \"OpenZeppelin-Ownable/access/Ownable.sol\":2896:2981  function owner() public view virtual returns (address) {... */\n    tag_35:\n        /* \"OpenZeppelin-Ownable/access/Ownable.sol\":2942:2949  address */\n      0x00\n        /* \"OpenZeppelin-Ownable/access/Ownable.sol\":2968:2974  _owner */\n      dup1\n      0x00\n      swap1\n      sload\n      swap1\n      0x0100\n      exp\n      swap1\n      div\n      0xffffffffffffffffffffffffffffffffffffffff\n      and\n        /* \"OpenZeppelin-Ownable/access/Ownable.sol\":2961:2974  return _owner */\n      swap1\n      pop\n        /* \"OpenZeppelin-Ownable/access/Ownable.sol\":2896:2981  function owner() public view virtual returns (address) {... */\n      swap1\n      jump\t// out\n        /* \"contracts/Urna.sol\":792:821  Candidato[] public candidatos */\n    tag_40:\n      0x03\n      dup2\n      dup2\n      sload\n      dup2\n      lt\n      tag_121\n      jumpi\n      0x00\n      dup1\n      revert\n    tag_121:\n      swap1\n      0x00\n      mstore\n      keccak256(0x00, 0x20)\n      swap1\n      0x03\n      mul\n      add\n      0x00\n      swap2\n      pop\n      swap1\n      pop\n      dup1\n      0x00\n      add\n      dup1\n      sload\n      tag_123\n      swap1\n      tag_97\n      jump\t// in\n    tag_123:\n      dup1\n      0x1f\n      add\n      0x20\n      dup1\n      swap2\n      div\n      mul\n      0x20\n      add\n      mload(0x40)\n      swap1\n      dup2\n      add\n      0x40\n      mstore\n      dup1\n      swap3\n      swap2\n      swap1\n      dup2\n      dup2\n      mstore\n      0x20\n      add\n      dup3\n      dup1\n      sload\n      tag_124\n      swap1\n      tag_97\n      jump\t// in\n    tag_124:\n      dup1\n      iszero\n      tag_125\n      jumpi\n      dup1\n      0x1f\n      lt\n      tag_126\n      jumpi\n      0x0100\n      dup1\n      dup4\n      sload\n      div\n      mul\n      dup4\n      mstore\n      swap2\n      0x20\n      add\n      swap2\n      jump(tag_125)\n    tag_126:\n      dup3\n      add\n      swap2\n      swap1\n      0x00\n      mstore\n      keccak256(0x00, 0x20)\n      swap1\n    tag_127:\n      dup2\n      sload\n      dup2\n      mstore\n      swap1\n      0x01\n      add\n      swap1\n      0x20\n      add\n      dup1\n      dup4\n      gt\n      tag_127\n      jumpi\n      dup3\n      swap1\n      sub\n      0x1f\n      and\n      dup3\n      add\n      swap2\n    tag_125:\n      pop\n      pop\n      pop\n      pop\n      pop\n      swap1\n      dup1\n      0x01\n      add\n      dup1\n      sload\n      tag_128\n      swap1\n      tag_97\n      jump\t// in\n    tag_128:\n      dup1\n      0x1f\n      add\n      0x20\n      dup1\n      swap2\n      div\n      mul\n      0x20\n      add\n      mload(0x40)\n      swap1\n      dup2\n      add\n      0x40\n      mstore\n      dup1\n      swap3\n      swap2\n      swap1\n      dup2\n      dup2\n      mstore\n      0x20\n      add\n      dup3\n      dup1\n      sload\n      tag_129\n      swap1\n      tag_97\n      jump\t// in\n    tag_129:\n      dup1\n      iszero\n      tag_130\n      jumpi\n      dup1\n      0x1f\n      lt\n      tag_131\n      jumpi\n      0x0100\n      dup1\n      dup4\n      sload\n      div\n      mul\n      dup4\n      mstore\n      swap2\n      0x20\n      add\n      swap2\n      jump(tag_130)\n    tag_131:\n      dup3\n      add\n      swap2\n      swap1\n      0x00\n      mstore\n      keccak256(0x00, 0x20)\n      swap1\n    tag_132:\n      dup2\n      sload\n      dup2\n      mstore\n      swap1\n      0x01\n      add\n      swap1\n      0x20\n      add\n      dup1\n      dup4\n      gt\n      tag_132\n      jumpi\n      dup3\n      swap1\n      sub\n      0x1f\n      and\n      dup3\n      add\n      swap2\n    tag_130:\n      pop\n      pop\n      pop\n      pop\n      pop\n      swap1\n      dup1\n      0x02\n      add\n      sload\n      swap1\n      pop\n      dup4\n      jump\t// out\n        /* \"contracts/Urna.sol\":2952:3212  function verCandidato(uint _idCandidato) external view duranteJornada returns(string memory, string memory) {... */\n    tag_45:\n        /* \"contracts/Urna.sol\":3030:3043  string memory */\n      0x60\n        /* \"contracts/Urna.sol\":3045:3058  string memory */\n      dup1\n        /* \"contracts/Urna.sol\":1376:1391  jornadaVotacion */\n      0x05\n        /* \"contracts/Urna.sol\":1376:1407  jornadaVotacion.fechaHoraInicio */\n      0x01\n      add\n      sload\n        /* \"contracts/Urna.sol\":1357:1372  block.timestamp */\n      timestamp\n        /* \"contracts/Urna.sol\":1357:1407  block.timestamp >= jornadaVotacion.fechaHoraInicio */\n      lt\n      iszero\n        /* \"contracts/Urna.sol\":1356:1484  (block.timestamp >= jornadaVotacion.fechaHoraInicio) && (block.timestamp <= (jornadaVotacion.fechaHoraInicio + duracionJornada)) */\n      dup1\n      iszero\n      tag_134\n      jumpi\n      pop\n        /* \"contracts/Urna.sol\":1467:1482  duracionJornada */\n      sload(0x01)\n        /* \"contracts/Urna.sol\":1433:1448  jornadaVotacion */\n      0x05\n        /* \"contracts/Urna.sol\":1433:1464  jornadaVotacion.fechaHoraInicio */\n      0x01\n      add\n      sload\n        /* \"contracts/Urna.sol\":1433:1482  jornadaVotacion.fechaHoraInicio + duracionJornada */\n      tag_135\n      swap2\n      swap1\n      tag_79\n      jump\t// in\n    tag_135:\n        /* \"contracts/Urna.sol\":1413:1428  block.timestamp */\n      timestamp\n        /* \"contracts/Urna.sol\":1413:1483  block.timestamp <= (jornadaVotacion.fechaHoraInicio + duracionJornada) */\n      gt\n      iszero\n        /* \"contracts/Urna.sol\":1356:1484  (block.timestamp >= jornadaVotacion.fechaHoraInicio) && (block.timestamp <= (jornadaVotacion.fechaHoraInicio + duracionJornada)) */\n    tag_134:\n        /* \"contracts/Urna.sol\":1348:1485  require((block.timestamp >= jornadaVotacion.fechaHoraInicio) && (block.timestamp <= (jornadaVotacion.fechaHoraInicio + duracionJornada))) */\n      tag_136\n      jumpi\n      0x00\n      dup1\n      revert\n    tag_136:\n        /* \"contracts/Urna.sol\":3071:3106  Candidato storage candidatoConsulta */\n      0x00\n        /* \"contracts/Urna.sol\":3109:3119  candidatos */\n      0x03\n        /* \"contracts/Urna.sol\":3120:3132  _idCandidato */\n      dup5\n        /* \"contracts/Urna.sol\":3109:3133  candidatos[_idCandidato] */\n      dup2\n      sload\n      dup2\n      lt\n      tag_138\n      jumpi\n      tag_139\n      tag_84\n      jump\t// in\n    tag_139:\n    tag_138:\n      swap1\n      0x00\n      mstore\n      keccak256(0x00, 0x20)\n      swap1\n      0x03\n      mul\n      add\n        /* \"contracts/Urna.sol\":3071:3133  Candidato storage candidatoConsulta = candidatos[_idCandidato] */\n      swap1\n      pop\n        /* \"contracts/Urna.sol\":3152:3169  candidatoConsulta */\n      dup1\n        /* \"contracts/Urna.sol\":3152:3176  candidatoConsulta.nombre */\n      0x00\n      add\n        /* \"contracts/Urna.sol\":3178:3195  candidatoConsulta */\n      dup2\n        /* \"contracts/Urna.sol\":3178:3203  candidatoConsulta.partido */\n      0x01\n      add\n        /* \"contracts/Urna.sol\":3144:3204  return (candidatoConsulta.nombre, candidatoConsulta.partido) */\n      dup2\n      dup1\n      sload\n      tag_141\n      swap1\n      tag_97\n      jump\t// in\n    tag_141:\n      dup1\n      0x1f\n      add\n      0x20\n      dup1\n      swap2\n      div\n      mul\n      0x20\n      add\n      mload(0x40)\n      swap1\n      dup2\n      add\n      0x40\n      mstore\n      dup1\n      swap3\n      swap2\n      swap1\n      dup2\n      dup2\n      mstore\n      0x20\n      add\n      dup3\n      dup1\n      sload\n      tag_142\n      swap1\n      tag_97\n      jump\t// in\n    tag_142:\n      dup1\n      iszero\n      tag_143\n      jumpi\n      dup1\n      0x1f\n      lt\n      tag_144\n      jumpi\n      0x0100\n      dup1\n      dup4\n      sload\n      div\n      mul\n      dup4\n      mstore\n      swap2\n      0x20\n      add\n      swap2\n      jump(tag_143)\n    tag_144:\n      dup3\n      add\n      swap2\n      swap1\n      0x00\n      mstore\n      keccak256(0x00, 0x20)\n      swap1\n    tag_145:\n      dup2\n      sload\n      dup2\n      mstore\n      swap1\n      0x01\n      add\n      swap1\n      0x20\n      add\n      dup1\n      dup4\n      gt\n      tag_145\n      jumpi\n      dup3\n      swap1\n      sub\n      0x1f\n      and\n      dup3\n      add\n      swap2\n    tag_143:\n      pop\n      pop\n      pop\n      pop\n      pop\n      swap2\n      pop\n      dup1\n      dup1\n      sload\n      tag_146\n      swap1\n      tag_97\n      jump\t// in\n    tag_146:\n      dup1\n      0x1f\n      add\n      0x20\n      dup1\n      swap2\n      div\n      mul\n      0x20\n      add\n      mload(0x40)\n      swap1\n      dup2\n      add\n      0x40\n      mstore\n      dup1\n      swap3\n      swap2\n      swap1\n      dup2\n      dup2\n      mstore\n      0x20\n      add\n      dup3\n      dup1\n      sload\n      tag_147\n      swap1\n      tag_97\n      jump\t// in\n    tag_147:\n      dup1\n      iszero\n      tag_148\n      jumpi\n      dup1\n      0x1f\n      lt\n      tag_149\n      jumpi\n      0x0100\n      dup1\n      dup4\n      sload\n      div\n      mul\n      dup4\n      mstore\n      swap2\n      0x20\n      add\n      swap2\n      jump(tag_148)\n    tag_149:\n      dup3\n      add\n      swap2\n      swap1\n      0x00\n      mstore\n      keccak256(0x00, 0x20)\n      swap1\n    tag_150:\n      dup2\n      sload\n      dup2\n      mstore\n      swap1\n      0x01\n      add\n      swap1\n      0x20\n      add\n      dup1\n      dup4\n      gt\n      tag_150\n      jumpi\n      dup3\n      swap1\n      sub\n      0x1f\n      and\n      dup3\n      add\n      swap2\n    tag_148:\n      pop\n      pop\n      pop\n      pop\n      pop\n      swap1\n      pop\n      swap3\n      pop\n      swap3\n      pop\n      pop\n        /* \"contracts/Urna.sol\":2952:3212  function verCandidato(uint _idCandidato) external view duranteJornada returns(string memory, string memory) {... */\n      swap2\n      pop\n      swap2\n      jump\t// out\n        /* \"contracts/Urna.sol\":1657:1913  function crearJornada(string memory _nombre, uint256 _fechaHoraInicio) public onlyOwner {... */\n    tag_51:\n        /* \"OpenZeppelin-Ownable/access/Ownable.sol\":2789:2802  _checkOwner() */\n      tag_152\n        /* \"OpenZeppelin-Ownable/access/Ownable.sol\":2789:2800  _checkOwner */\n      tag_104\n        /* \"OpenZeppelin-Ownable/access/Ownable.sol\":2789:2802  _checkOwner() */\n      jump\t// in\n    tag_152:\n        /* \"contracts/Urna.sol\":1799:1800  0 */\n      0x00\n        /* \"contracts/Urna.sol\":1764:1779  jornadaVotacion */\n      0x05\n        /* \"contracts/Urna.sol\":1764:1795  jornadaVotacion.fechaHoraInicio */\n      0x01\n      add\n      sload\n        /* \"contracts/Urna.sol\":1764:1800  jornadaVotacion.fechaHoraInicio == 0 */\n      eq\n        /* \"contracts/Urna.sol\":1756:1801  require(jornadaVotacion.fechaHoraInicio == 0) */\n      tag_154\n      jumpi\n      0x00\n      dup1\n      revert\n    tag_154:\n        /* \"contracts/Urna.sol\":1837:1844  _nombre */\n      dup2\n        /* \"contracts/Urna.sol\":1812:1827  jornadaVotacion */\n      0x05\n        /* \"contracts/Urna.sol\":1812:1834  jornadaVotacion.nombre */\n      0x00\n      add\n        /* \"contracts/Urna.sol\":1812:1844  jornadaVotacion.nombre = _nombre */\n      swap1\n      dup2\n      tag_155\n      swap2\n      swap1\n      tag_156\n      jump\t// in\n    tag_155:\n      pop\n        /* \"contracts/Urna.sol\":1889:1905  _fechaHoraInicio */\n      dup1\n        /* \"contracts/Urna.sol\":1855:1870  jornadaVotacion */\n      0x05\n        /* \"contracts/Urna.sol\":1855:1886  jornadaVotacion.fechaHoraInicio */\n      0x01\n      add\n        /* \"contracts/Urna.sol\":1855:1905  jornadaVotacion.fechaHoraInicio = _fechaHoraInicio */\n      dup2\n      swap1\n      sstore\n      pop\n        /* \"contracts/Urna.sol\":1657:1913  function crearJornada(string memory _nombre, uint256 _fechaHoraInicio) public onlyOwner {... */\n      pop\n      pop\n      jump\t// out\n        /* \"contracts/Urna.sol\":828:863  Participante[] public participantes */\n    tag_54:\n      0x04\n      dup2\n      dup2\n      sload\n      dup2\n      lt\n      tag_157\n      jumpi\n      0x00\n      dup1\n      revert\n    tag_157:\n      swap1\n      0x00\n      mstore\n      keccak256(0x00, 0x20)\n      swap1\n      0x02\n      mul\n      add\n      0x00\n      swap2\n      pop\n      swap1\n      pop\n      dup1\n      0x00\n      add\n      dup1\n      sload\n      tag_159\n      swap1\n      tag_97\n      jump\t// in\n    tag_159:\n      dup1\n      0x1f\n      add\n      0x20\n      dup1\n      swap2\n      div\n      mul\n      0x20\n      add\n      mload(0x40)\n      swap1\n      dup2\n      add\n      0x40\n      mstore\n      dup1\n      swap3\n      swap2\n      swap1\n      dup2\n      dup2\n      mstore\n      0x20\n      add\n      dup3\n      dup1\n      sload\n      tag_160\n      swap1\n      tag_97\n      jump\t// in\n    tag_160:\n      dup1\n      iszero\n      tag_161\n      jumpi\n      dup1\n      0x1f\n      lt\n      tag_162\n      jumpi\n      0x0100\n      dup1\n      dup4\n      sload\n      div\n      mul\n      dup4\n      mstore\n      swap2\n      0x20\n      add\n      swap2\n      jump(tag_161)\n    tag_162:\n      dup3\n      add\n      swap2\n      swap1\n      0x00\n      mstore\n      keccak256(0x00, 0x20)\n      swap1\n    tag_163:\n      dup2\n      sload\n      dup2\n      mstore\n      swap1\n      0x01\n      add\n      swap1\n      0x20\n      add\n      dup1\n      dup4\n      gt\n      tag_163\n      jumpi\n      dup3\n      swap1\n      sub\n      0x1f\n      and\n      dup3\n      add\n      swap2\n    tag_161:\n      pop\n      pop\n      pop\n      pop\n      pop\n      swap1\n      dup1\n      0x01\n      add\n      0x00\n      swap1\n      sload\n      swap1\n      0x0100\n      exp\n      swap1\n      div\n      0xff\n      and\n      swap1\n      pop\n      dup3\n      jump\t// out\n        /* \"contracts/Urna.sol\":3840:4095  function verTotalVotos() external view despuesDeJornada returns(uint) {... */\n    tag_58:\n        /* \"contracts/Urna.sol\":3904:3908  uint */\n      0x00\n        /* \"contracts/Urna.sol\":1612:1627  duracionJornada */\n      sload(0x01)\n        /* \"contracts/Urna.sol\":1578:1593  jornadaVotacion */\n      0x05\n        /* \"contracts/Urna.sol\":1578:1609  jornadaVotacion.fechaHoraInicio */\n      0x01\n      add\n      sload\n        /* \"contracts/Urna.sol\":1578:1627  jornadaVotacion.fechaHoraInicio + duracionJornada */\n      tag_165\n      swap2\n      swap1\n      tag_79\n      jump\t// in\n    tag_165:\n        /* \"contracts/Urna.sol\":1558:1573  block.timestamp */\n      timestamp\n        /* \"contracts/Urna.sol\":1558:1628  block.timestamp >= (jornadaVotacion.fechaHoraInicio + duracionJornada) */\n      lt\n      iszero\n        /* \"contracts/Urna.sol\":1550:1629  require(block.timestamp >= (jornadaVotacion.fechaHoraInicio + duracionJornada)) */\n      tag_166\n      jumpi\n      0x00\n      dup1\n      revert\n    tag_166:\n        /* \"contracts/Urna.sol\":3921:3933  uint counter */\n      0x00\n        /* \"contracts/Urna.sol\":3955:3961  uint i */\n      dup1\n        /* \"contracts/Urna.sol\":3950:4061  for (uint i = 0; i < candidatos.length; i++) {... */\n    tag_168:\n        /* \"contracts/Urna.sol\":3971:3981  candidatos */\n      0x03\n        /* \"contracts/Urna.sol\":3971:3988  candidatos.length */\n      dup1\n      sload\n      swap1\n      pop\n        /* \"contracts/Urna.sol\":3967:3968  i */\n      dup2\n        /* \"contracts/Urna.sol\":3967:3988  i < candidatos.length */\n      lt\n        /* \"contracts/Urna.sol\":3950:4061  for (uint i = 0; i < candidatos.length; i++) {... */\n      iszero\n      tag_169\n      jumpi\n        /* \"contracts/Urna.sol\":4030:4040  candidatos */\n      0x03\n        /* \"contracts/Urna.sol\":4041:4042  i */\n      dup2\n        /* \"contracts/Urna.sol\":4030:4043  candidatos[i] */\n      dup2\n      sload\n      dup2\n      lt\n      tag_171\n      jumpi\n      tag_172\n      tag_84\n      jump\t// in\n    tag_172:\n    tag_171:\n      swap1\n      0x00\n      mstore\n      keccak256(0x00, 0x20)\n      swap1\n      0x03\n      mul\n      add\n        /* \"contracts/Urna.sol\":4030:4049  candidatos[i].votos */\n      0x02\n      add\n      sload\n        /* \"contracts/Urna.sol\":4020:4027  counter */\n      dup3\n        /* \"contracts/Urna.sol\":4020:4049  counter + candidatos[i].votos */\n      tag_174\n      swap2\n      swap1\n      tag_79\n      jump\t// in\n    tag_174:\n        /* \"contracts/Urna.sol\":4010:4049  counter = counter + candidatos[i].votos */\n      swap2\n      pop\n        /* \"contracts/Urna.sol\":3990:3993  i++ */\n      dup1\n      dup1\n      0x01\n      add\n      swap2\n      pop\n      pop\n        /* \"contracts/Urna.sol\":3950:4061  for (uint i = 0; i < candidatos.length; i++) {... */\n      jump(tag_168)\n    tag_169:\n      pop\n        /* \"contracts/Urna.sol\":4080:4087  counter */\n      dup1\n        /* \"contracts/Urna.sol\":4073:4087  return counter */\n      swap2\n      pop\n      pop\n        /* \"contracts/Urna.sol\":3840:4095  function verTotalVotos() external view despuesDeJornada returns(uint) {... */\n      swap1\n      jump\t// out\n        /* \"contracts/Urna.sol\":2135:2363  function inscribirParticipante(string memory _nombre, uint8 _edad) public mayorDeEdad(_edad) dentroDePlazoInscripciones {... */\n    tag_64:\n        /* \"contracts/Urna.sol\":2221:2226  _edad */\n      dup1\n        /* \"contracts/Urna.sol\":1124:1126  18 */\n      0x12\n        /* \"contracts/Urna.sol\":1115:1120  _edad */\n      dup2\n        /* \"contracts/Urna.sol\":1115:1126  _edad >= 18 */\n      0xff\n      and\n      lt\n      iszero\n        /* \"contracts/Urna.sol\":1107:1127  require(_edad >= 18) */\n      tag_176\n      jumpi\n      0x00\n      dup1\n      revert\n    tag_176:\n        /* \"contracts/Urna.sol\":1264:1283  limiteInscripciones */\n      sload(0x02)\n        /* \"contracts/Urna.sol\":1230:1245  jornadaVotacion */\n      0x05\n        /* \"contracts/Urna.sol\":1230:1261  jornadaVotacion.fechaHoraInicio */\n      0x01\n      add\n      sload\n        /* \"contracts/Urna.sol\":1230:1283  jornadaVotacion.fechaHoraInicio - limiteInscripciones */\n      tag_178\n      swap2\n      swap1\n      tag_112\n      jump\t// in\n    tag_178:\n        /* \"contracts/Urna.sol\":1210:1225  block.timestamp */\n      timestamp\n        /* \"contracts/Urna.sol\":1210:1284  block.timestamp <= (jornadaVotacion.fechaHoraInicio - limiteInscripciones) */\n      gt\n      iszero\n        /* \"contracts/Urna.sol\":1202:1285  require(block.timestamp <= (jornadaVotacion.fechaHoraInicio - limiteInscripciones)) */\n      tag_179\n      jumpi\n      0x00\n      dup1\n      revert\n    tag_179:\n        /* \"contracts/Urna.sol\":2313:2314  0 */\n      0x00\n        /* \"contracts/Urna.sol\":2274:2297  inscripcionParticipante */\n      0x08\n        /* \"contracts/Urna.sol\":2274:2309  inscripcionParticipante[msg.sender] */\n      0x00\n        /* \"contracts/Urna.sol\":2298:2308  msg.sender */\n      caller\n        /* \"contracts/Urna.sol\":2274:2309  inscripcionParticipante[msg.sender] */\n      0xffffffffffffffffffffffffffffffffffffffff\n      and\n      0xffffffffffffffffffffffffffffffffffffffff\n      and\n      dup2\n      mstore\n      0x20\n      add\n      swap1\n      dup2\n      mstore\n      0x20\n      add\n      0x00\n      keccak256\n      sload\n        /* \"contracts/Urna.sol\":2274:2314  inscripcionParticipante[msg.sender] == 0 */\n      eq\n        /* \"contracts/Urna.sol\":2266:2315  require(inscripcionParticipante[msg.sender] == 0) */\n      tag_181\n      jumpi\n      0x00\n      dup1\n      revert\n    tag_181:\n        /* \"contracts/Urna.sol\":2328:2355  _crearParticipante(_nombre) */\n      tag_182\n        /* \"contracts/Urna.sol\":2347:2354  _nombre */\n      dup4\n        /* \"contracts/Urna.sol\":2328:2346  _crearParticipante */\n      tag_183\n        /* \"contracts/Urna.sol\":2328:2355  _crearParticipante(_nombre) */\n      jump\t// in\n    tag_182:\n        /* \"contracts/Urna.sol\":2135:2363  function inscribirParticipante(string memory _nombre, uint8 _edad) public mayorDeEdad(_edad) dentroDePlazoInscripciones {... */\n      pop\n      pop\n      pop\n      jump\t// out\n        /* \"contracts/Urna.sol\":2827:2944  function verNumeroCandidatos() external view duranteJornada returns(uint) {... */\n    tag_66:\n        /* \"contracts/Urna.sol\":2895:2899  uint */\n      0x00\n        /* \"contracts/Urna.sol\":1376:1391  jornadaVotacion */\n      0x05\n        /* \"contracts/Urna.sol\":1376:1407  jornadaVotacion.fechaHoraInicio */\n      0x01\n      add\n      sload\n        /* \"contracts/Urna.sol\":1357:1372  block.timestamp */\n      timestamp\n        /* \"contracts/Urna.sol\":1357:1407  block.timestamp >= jornadaVotacion.fechaHoraInicio */\n      lt\n      iszero\n        /* \"contracts/Urna.sol\":1356:1484  (block.timestamp >= jornadaVotacion.fechaHoraInicio) && (block.timestamp <= (jornadaVotacion.fechaHoraInicio + duracionJornada)) */\n      dup1\n      iszero\n      tag_185\n      jumpi\n      pop\n        /* \"contracts/Urna.sol\":1467:1482  duracionJornada */\n      sload(0x01)\n        /* \"contracts/Urna.sol\":1433:1448  jornadaVotacion */\n      0x05\n        /* \"contracts/Urna.sol\":1433:1464  jornadaVotacion.fechaHoraInicio */\n      0x01\n      add\n      sload\n        /* \"contracts/Urna.sol\":1433:1482  jornadaVotacion.fechaHoraInicio + duracionJornada */\n      tag_186\n      swap2\n      swap1\n      tag_79\n      jump\t// in\n    tag_186:\n        /* \"contracts/Urna.sol\":1413:1428  block.timestamp */\n      timestamp\n        /* \"contracts/Urna.sol\":1413:1483  block.timestamp <= (jornadaVotacion.fechaHoraInicio + duracionJornada) */\n      gt\n      iszero\n        /* \"contracts/Urna.sol\":1356:1484  (block.timestamp >= jornadaVotacion.fechaHoraInicio) && (block.timestamp <= (jornadaVotacion.fechaHoraInicio + duracionJornada)) */\n    tag_185:\n        /* \"contracts/Urna.sol\":1348:1485  require((block.timestamp >= jornadaVotacion.fechaHoraInicio) && (block.timestamp <= (jornadaVotacion.fechaHoraInicio + duracionJornada))) */\n      tag_187\n      jumpi\n      0x00\n      dup1\n      revert\n    tag_187:\n        /* \"contracts/Urna.sol\":2919:2929  candidatos */\n      0x03\n        /* \"contracts/Urna.sol\":2919:2936  candidatos.length */\n      dup1\n      sload\n      swap1\n      pop\n        /* \"contracts/Urna.sol\":2912:2936  return candidatos.length */\n      swap1\n      pop\n        /* \"contracts/Urna.sol\":2827:2944  function verNumeroCandidatos() external view duranteJornada returns(uint) {... */\n      swap1\n      jump\t// out\n        /* \"contracts/Urna.sol\":4103:4232  function verResultadoVotaciones() external view despuesDeJornada returns(Candidato[] memory) {... */\n    tag_69:\n        /* \"contracts/Urna.sol\":4176:4194  Candidato[] memory */\n      0x60\n        /* \"contracts/Urna.sol\":1612:1627  duracionJornada */\n      sload(0x01)\n        /* \"contracts/Urna.sol\":1578:1593  jornadaVotacion */\n      0x05\n        /* \"contracts/Urna.sol\":1578:1609  jornadaVotacion.fechaHoraInicio */\n      0x01\n      add\n      sload\n        /* \"contracts/Urna.sol\":1578:1627  jornadaVotacion.fechaHoraInicio + duracionJornada */\n      tag_190\n      swap2\n      swap1\n      tag_79\n      jump\t// in\n    tag_190:\n        /* \"contracts/Urna.sol\":1558:1573  block.timestamp */\n      timestamp\n        /* \"contracts/Urna.sol\":1558:1628  block.timestamp >= (jornadaVotacion.fechaHoraInicio + duracionJornada) */\n      lt\n      iszero\n        /* \"contracts/Urna.sol\":1550:1629  require(block.timestamp >= (jornadaVotacion.fechaHoraInicio + duracionJornada)) */\n      tag_191\n      jumpi\n      0x00\n      dup1\n      revert\n    tag_191:\n        /* \"contracts/Urna.sol\":4214:4224  candidatos */\n      0x03\n        /* \"contracts/Urna.sol\":4207:4224  return candidatos */\n      dup1\n      sload\n      dup1\n      0x20\n      mul\n      0x20\n      add\n      mload(0x40)\n      swap1\n      dup2\n      add\n      0x40\n      mstore\n      dup1\n      swap3\n      swap2\n      swap1\n      dup2\n      dup2\n      mstore\n      0x20\n      add\n      0x00\n      swap1\n    tag_193:\n      dup3\n      dup3\n      lt\n      iszero\n      tag_194\n      jumpi\n      dup4\n      dup3\n      swap1\n      0x00\n      mstore\n      keccak256(0x00, 0x20)\n      swap1\n      0x03\n      mul\n      add\n      mload(0x40)\n      dup1\n      0x60\n      add\n      0x40\n      mstore\n      swap1\n      dup2\n      0x00\n      dup3\n      add\n      dup1\n      sload\n      tag_196\n      swap1\n      tag_97\n      jump\t// in\n    tag_196:\n      dup1\n      0x1f\n      add\n      0x20\n      dup1\n      swap2\n      div\n      mul\n      0x20\n      add\n      mload(0x40)\n      swap1\n      dup2\n      add\n      0x40\n      mstore\n      dup1\n      swap3\n      swap2\n      swap1\n      dup2\n      dup2\n      mstore\n      0x20\n      add\n      dup3\n      dup1\n      sload\n      tag_197\n      swap1\n      tag_97\n      jump\t// in\n    tag_197:\n      dup1\n      iszero\n      tag_198\n      jumpi\n      dup1\n      0x1f\n      lt\n      tag_199\n      jumpi\n      0x0100\n      dup1\n      dup4\n      sload\n      div\n      mul\n      dup4\n      mstore\n      swap2\n      0x20\n      add\n      swap2\n      jump(tag_198)\n    tag_199:\n      dup3\n      add\n      swap2\n      swap1\n      0x00\n      mstore\n      keccak256(0x00, 0x20)\n      swap1\n    tag_200:\n      dup2\n      sload\n      dup2\n      mstore\n      swap1\n      0x01\n      add\n      swap1\n      0x20\n      add\n      dup1\n      dup4\n      gt\n      tag_200\n      jumpi\n      dup3\n      swap1\n      sub\n      0x1f\n      and\n      dup3\n      add\n      swap2\n    tag_198:\n      pop\n      pop\n      pop\n      pop\n      pop\n      dup2\n      mstore\n      0x20\n      add\n      0x01\n      dup3\n      add\n      dup1\n      sload\n      tag_201\n      swap1\n      tag_97\n      jump\t// in\n    tag_201:\n      dup1\n      0x1f\n      add\n      0x20\n      dup1\n      swap2\n      div\n      mul\n      0x20\n      add\n      mload(0x40)\n      swap1\n      dup2\n      add\n      0x40\n      mstore\n      dup1\n      swap3\n      swap2\n      swap1\n      dup2\n      dup2\n      mstore\n      0x20\n      add\n      dup3\n      dup1\n      sload\n      tag_202\n      swap1\n      tag_97\n      jump\t// in\n    tag_202:\n      dup1\n      iszero\n      tag_203\n      jumpi\n      dup1\n      0x1f\n      lt\n      tag_204\n      jumpi\n      0x0100\n      dup1\n      dup4\n      sload\n      div\n      mul\n      dup4\n      mstore\n      swap2\n      0x20\n      add\n      swap2\n      jump(tag_203)\n    tag_204:\n      dup3\n      add\n      swap2\n      swap1\n      0x00\n      mstore\n      keccak256(0x00, 0x20)\n      swap1\n    tag_205:\n      dup2\n      sload\n      dup2\n      mstore\n      swap1\n      0x01\n      add\n      swap1\n      0x20\n      add\n      dup1\n      dup4\n      gt\n      tag_205\n      jumpi\n      dup3\n      swap1\n      sub\n      0x1f\n      and\n      dup3\n      add\n      swap2\n    tag_203:\n      pop\n      pop\n      pop\n      pop\n      pop\n      dup2\n      mstore\n      0x20\n      add\n      0x02\n      dup3\n      add\n      sload\n      dup2\n      mstore\n      pop\n      pop\n      dup2\n      mstore\n      0x20\n      add\n      swap1\n      0x01\n      add\n      swap1\n      jump(tag_193)\n    tag_194:\n      pop\n      pop\n      pop\n      pop\n      swap1\n      pop\n        /* \"contracts/Urna.sol\":4103:4232  function verResultadoVotaciones() external view despuesDeJornada returns(Candidato[] memory) {... */\n      swap1\n      jump\t// out\n        /* \"OpenZeppelin-Ownable/access/Ownable.sol\":3801:4016  function transferOwnership(address newOwner) public virtual onlyOwner {... */\n    tag_75:\n        /* \"OpenZeppelin-Ownable/access/Ownable.sol\":2789:2802  _checkOwner() */\n      tag_207\n        /* \"OpenZeppelin-Ownable/access/Ownable.sol\":2789:2800  _checkOwner */\n      tag_104\n        /* \"OpenZeppelin-Ownable/access/Ownable.sol\":2789:2802  _checkOwner() */\n      jump\t// in\n    tag_207:\n        /* \"OpenZeppelin-Ownable/access/Ownable.sol\":3905:3906  0 */\n      0x00\n        /* \"OpenZeppelin-Ownable/access/Ownable.sol\":3885:3907  newOwner == address(0) */\n      0xffffffffffffffffffffffffffffffffffffffff\n      and\n        /* \"OpenZeppelin-Ownable/access/Ownable.sol\":3885:3893  newOwner */\n      dup2\n        /* \"OpenZeppelin-Ownable/access/Ownable.sol\":3885:3907  newOwner == address(0) */\n      0xffffffffffffffffffffffffffffffffffffffff\n      and\n      sub\n        /* \"OpenZeppelin-Ownable/access/Ownable.sol\":3881:3972  if (newOwner == address(0)) {... */\n      tag_209\n      jumpi\n        /* \"OpenZeppelin-Ownable/access/Ownable.sol\":3958:3959  0 */\n      0x00\n        /* \"OpenZeppelin-Ownable/access/Ownable.sol\":3930:3961  OwnableInvalidOwner(address(0)) */\n      mload(0x40)\n      0x1e4fbdf700000000000000000000000000000000000000000000000000000000\n      dup2\n      mstore\n      0x04\n      add\n      tag_210\n      swap2\n      swap1\n      tag_37\n      jump\t// in\n    tag_210:\n      mload(0x40)\n      dup1\n      swap2\n      sub\n      swap1\n      revert\n        /* \"OpenZeppelin-Ownable/access/Ownable.sol\":3881:3972  if (newOwner == address(0)) {... */\n    tag_209:\n        /* \"OpenZeppelin-Ownable/access/Ownable.sol\":3981:4009  _transferOwnership(newOwner) */\n      tag_211\n        /* \"OpenZeppelin-Ownable/access/Ownable.sol\":4000:4008  newOwner */\n      dup2\n        /* \"OpenZeppelin-Ownable/access/Ownable.sol\":3981:3999  _transferOwnership */\n      tag_107\n        /* \"OpenZeppelin-Ownable/access/Ownable.sol\":3981:4009  _transferOwnership(newOwner) */\n      jump\t// in\n    tag_211:\n        /* \"OpenZeppelin-Ownable/access/Ownable.sol\":3801:4016  function transferOwnership(address newOwner) public virtual onlyOwner {... */\n      pop\n      jump\t// out\n        /* \"OpenZeppelin-Ownable/access/Ownable.sol\":3054:3216  function _checkOwner() internal view virtual {... */\n    tag_104:\n        /* \"OpenZeppelin-Ownable/access/Ownable.sol\":3124:3136  _msgSender() */\n      tag_213\n        /* \"OpenZeppelin-Ownable/access/Ownable.sol\":3124:3134  _msgSender */\n      tag_214\n        /* \"OpenZeppelin-Ownable/access/Ownable.sol\":3124:3136  _msgSender() */\n      jump\t// in\n    tag_213:\n        /* \"OpenZeppelin-Ownable/access/Ownable.sol\":3113:3136  owner() != _msgSender() */\n      0xffffffffffffffffffffffffffffffffffffffff\n      and\n        /* \"OpenZeppelin-Ownable/access/Ownable.sol\":3113:3120  owner() */\n      tag_215\n        /* \"OpenZeppelin-Ownable/access/Ownable.sol\":3113:3118  owner */\n      tag_35\n        /* \"OpenZeppelin-Ownable/access/Ownable.sol\":3113:3120  owner() */\n      jump\t// in\n    tag_215:\n        /* \"OpenZeppelin-Ownable/access/Ownable.sol\":3113:3136  owner() != _msgSender() */\n      0xffffffffffffffffffffffffffffffffffffffff\n      and\n      eq\n        /* \"OpenZeppelin-Ownable/access/Ownable.sol\":3109:3210  if (owner() != _msgSender()) {... */\n      tag_216\n      jumpi\n        /* \"OpenZeppelin-Ownable/access/Ownable.sol\":3186:3198  _msgSender() */\n      tag_217\n        /* \"OpenZeppelin-Ownable/access/Ownable.sol\":3186:3196  _msgSender */\n      tag_214\n        /* \"OpenZeppelin-Ownable/access/Ownable.sol\":3186:3198  _msgSender() */\n      jump\t// in\n    tag_217:\n        /* \"OpenZeppelin-Ownable/access/Ownable.sol\":3159:3199  OwnableUnauthorizedAccount(_msgSender()) */\n      mload(0x40)\n      0x118cdaa700000000000000000000000000000000000000000000000000000000\n      dup2\n      mstore\n      0x04\n      add\n      tag_218\n      swap2\n      swap1\n      tag_37\n      jump\t// in\n    tag_218:\n      mload(0x40)\n      dup1\n      swap2\n      sub\n      swap1\n      revert\n        /* \"OpenZeppelin-Ownable/access/Ownable.sol\":3109:3210  if (owner() != _msgSender()) {... */\n    tag_216:\n        /* \"OpenZeppelin-Ownable/access/Ownable.sol\":3054:3216  function _checkOwner() internal view virtual {... */\n      jump\t// out\n        /* \"OpenZeppelin-Ownable/access/Ownable.sol\":4170:4357  function _transferOwnership(address newOwner) internal virtual {... */\n    tag_107:\n        /* \"OpenZeppelin-Ownable/access/Ownable.sol\":4243:4259  address oldOwner */\n      0x00\n        /* \"OpenZeppelin-Ownable/access/Ownable.sol\":4262:4268  _owner */\n      dup1\n      0x00\n      swap1\n      sload\n      swap1\n      0x0100\n      exp\n      swap1\n      div\n      0xffffffffffffffffffffffffffffffffffffffff\n      and\n        /* \"OpenZeppelin-Ownable/access/Ownable.sol\":4243:4268  address oldOwner = _owner */\n      swap1\n      pop\n        /* \"OpenZeppelin-Ownable/access/Ownable.sol\":4287:4295  newOwner */\n      dup2\n        /* \"OpenZeppelin-Ownable/access/Ownable.sol\":4278:4284  _owner */\n      0x00\n      dup1\n        /* \"OpenZeppelin-Ownable/access/Ownable.sol\":4278:4295  _owner = newOwner */\n      0x0100\n      exp\n      dup2\n      sload\n      dup2\n      0xffffffffffffffffffffffffffffffffffffffff\n      mul\n      not\n      and\n      swap1\n      dup4\n      0xffffffffffffffffffffffffffffffffffffffff\n      and\n      mul\n      or\n      swap1\n      sstore\n      pop\n        /* \"OpenZeppelin-Ownable/access/Ownable.sol\":4341:4349  newOwner */\n      dup2\n        /* \"OpenZeppelin-Ownable/access/Ownable.sol\":4310:4350  OwnershipTransferred(oldOwner, newOwner) */\n      0xffffffffffffffffffffffffffffffffffffffff\n      and\n        /* \"OpenZeppelin-Ownable/access/Ownable.sol\":4331:4339  oldOwner */\n      dup2\n        /* \"OpenZeppelin-Ownable/access/Ownable.sol\":4310:4350  OwnershipTransferred(oldOwner, newOwner) */\n      0xffffffffffffffffffffffffffffffffffffffff\n      and\n      0x8be0079c531659141344cd1fd0a4f28419497f9722a3daafe3b4186f6b6457e0\n      mload(0x40)\n      mload(0x40)\n      dup1\n      swap2\n      sub\n      swap1\n      log3\n        /* \"OpenZeppelin-Ownable/access/Ownable.sol\":4233:4357  {... */\n      pop\n        /* \"OpenZeppelin-Ownable/access/Ownable.sol\":4170:4357  function _transferOwnership(address newOwner) internal virtual {... */\n      pop\n      jump\t// out\n        /* \"contracts/Urna.sol\":2371:2586  function _crearCandidato(string memory _partido, string memory _nombre) internal {... */\n    tag_119:\n        /* \"contracts/Urna.sol\":2463:2473  candidatos */\n      0x03\n        /* \"contracts/Urna.sol\":2479:2510  Candidato(_nombre, _partido, 0) */\n      mload(0x40)\n      dup1\n      0x60\n      add\n      0x40\n      mstore\n      dup1\n        /* \"contracts/Urna.sol\":2489:2496  _nombre */\n      dup4\n        /* \"contracts/Urna.sol\":2479:2510  Candidato(_nombre, _partido, 0) */\n      dup2\n      mstore\n      0x20\n      add\n        /* \"contracts/Urna.sol\":2498:2506  _partido */\n      dup5\n        /* \"contracts/Urna.sol\":2479:2510  Candidato(_nombre, _partido, 0) */\n      dup2\n      mstore\n      0x20\n      add\n        /* \"contracts/Urna.sol\":2508:2509  0 */\n      0x00\n        /* \"contracts/Urna.sol\":2479:2510  Candidato(_nombre, _partido, 0) */\n      dup2\n      mstore\n      pop\n        /* \"contracts/Urna.sol\":2463:2511  candidatos.push(Candidato(_nombre, _partido, 0)) */\n      swap1\n      dup1\n      0x01\n      dup2\n      sload\n      add\n      dup1\n      dup3\n      sstore\n      dup1\n      swap2\n      pop\n      pop\n      0x01\n      swap1\n      sub\n      swap1\n      0x00\n      mstore\n      keccak256(0x00, 0x20)\n      swap1\n      0x03\n      mul\n      add\n      0x00\n      swap1\n      swap2\n      swap1\n      swap2\n      swap1\n      swap2\n      pop\n      0x00\n      dup3\n      add\n      mload\n      dup2\n      0x00\n      add\n      swap1\n      dup2\n      tag_222\n      swap2\n      swap1\n      tag_156\n      jump\t// in\n    tag_222:\n      pop\n      0x20\n      dup3\n      add\n      mload\n      dup2\n      0x01\n      add\n      swap1\n      dup2\n      tag_223\n      swap2\n      swap1\n      tag_156\n      jump\t// in\n    tag_223:\n      pop\n      0x40\n      dup3\n      add\n      mload\n      dup2\n      0x02\n      add\n      sstore\n      pop\n      pop\n        /* \"contracts/Urna.sol\":2576:2577  1 */\n      0x01\n        /* \"contracts/Urna.sol\":2556:2566  candidatos */\n      0x03\n        /* \"contracts/Urna.sol\":2556:2573  candidatos.length */\n      dup1\n      sload\n      swap1\n      pop\n        /* \"contracts/Urna.sol\":2556:2577  candidatos.length - 1 */\n      tag_224\n      swap2\n      swap1\n      tag_112\n      jump\t// in\n    tag_224:\n        /* \"contracts/Urna.sol\":2522:2538  candidatoPartido */\n      0x09\n        /* \"contracts/Urna.sol\":2539:2547  _partido */\n      dup4\n        /* \"contracts/Urna.sol\":2522:2548  candidatoPartido[_partido] */\n      mload(0x40)\n      tag_225\n      swap2\n      swap1\n      tag_116\n      jump\t// in\n    tag_225:\n      swap1\n      dup2\n      mstore\n      0x20\n      add\n      mload(0x40)\n      dup1\n      swap2\n      sub\n      swap1\n      keccak256\n        /* \"contracts/Urna.sol\":2522:2578  candidatoPartido[_partido] = uint(candidatos.length - 1) */\n      dup2\n      swap1\n      sstore\n      pop\n        /* \"contracts/Urna.sol\":2371:2586  function _crearCandidato(string memory _partido, string memory _nombre) internal {... */\n      pop\n      pop\n      jump\t// out\n        /* \"contracts/Urna.sol\":1921:2127  function _crearParticipante(string memory _nombre) internal {... */\n    tag_183:\n        /* \"contracts/Urna.sol\":1992:2005  participantes */\n      0x04\n        /* \"contracts/Urna.sol\":2011:2039  Participante(_nombre, false) */\n      mload(0x40)\n      dup1\n      0x40\n      add\n      0x40\n      mstore\n      dup1\n        /* \"contracts/Urna.sol\":2024:2031  _nombre */\n      dup4\n        /* \"contracts/Urna.sol\":2011:2039  Participante(_nombre, false) */\n      dup2\n      mstore\n      0x20\n      add\n        /* \"contracts/Urna.sol\":2033:2038  false */\n      0x00\n        /* \"contracts/Urna.sol\":2011:2039  Participante(_nombre, false) */\n      iszero\n      iszero\n      dup2\n      mstore\n      pop\n        /* \"contracts/Urna.sol\":1992:2040  participantes.push(Participante(_nombre, false)) */\n      swap1\n      dup1\n      0x01\n      dup2\n      sload\n      add\n      dup1\n      dup3\n      sstore\n      dup1\n      swap2\n      pop\n      pop\n      0x01\n      swap1\n      sub\n      swap1\n      0x00\n      mstore\n      keccak256(0x00, 0x20)\n      swap1\n      0x02\n      mul\n      add\n      0x00\n      swap1\n      swap2\n      swap1\n      swap2\n      swap1\n      swap2\n      pop\n      0x00\n      dup3\n      add\n      mload\n      dup2\n      0x00\n      add\n      swap1\n      dup2\n      tag_228\n      swap2\n      swap1\n      tag_156\n      jump\t// in\n    tag_228:\n      pop\n      0x20\n      dup3\n      add\n      mload\n      dup2\n      0x01\n      add\n      exp(0x0100, 0x00)\n      dup2\n      sload\n      dup2\n      0xff\n      mul\n      not\n      and\n      swap1\n      dup4\n      iszero\n      iszero\n      mul\n      or\n      swap1\n      sstore\n      pop\n      pop\n      pop\n        /* \"contracts/Urna.sol\":2117:2118  1 */\n      0x01\n        /* \"contracts/Urna.sol\":2094:2107  participantes */\n      0x04\n        /* \"contracts/Urna.sol\":2094:2114  participantes.length */\n      dup1\n      sload\n      swap1\n      pop\n        /* \"contracts/Urna.sol\":2094:2118  participantes.length - 1 */\n      tag_229\n      swap2\n      swap1\n      tag_112\n      jump\t// in\n    tag_229:\n        /* \"contracts/Urna.sol\":2051:2074  inscripcionParticipante */\n      0x08\n        /* \"contracts/Urna.sol\":2051:2086  inscripcionParticipante[msg.sender] */\n      0x00\n        /* \"contracts/Urna.sol\":2075:2085  msg.sender */\n      caller\n        /* \"contracts/Urna.sol\":2051:2086  inscripcionParticipante[msg.sender] */\n      0xffffffffffffffffffffffffffffffffffffffff\n      and\n      0xffffffffffffffffffffffffffffffffffffffff\n      and\n      dup2\n      mstore\n      0x20\n      add\n      swap1\n      dup2\n      mstore\n      0x20\n      add\n      0x00\n      keccak256\n        /* \"contracts/Urna.sol\":2051:2119  inscripcionParticipante[msg.sender] = uint(participantes.length - 1) */\n      dup2\n      swap1\n      sstore\n      pop\n        /* \"contracts/Urna.sol\":1921:2127  function _crearParticipante(string memory _nombre) internal {... */\n      pop\n      jump\t// out\n        /* \"OpenZeppelin-Ownable/utils/Context.sol\":1899:1995  function _msgSender() internal view virtual returns (address) {... */\n    tag_214:\n        /* \"OpenZeppelin-Ownable/utils/Context.sol\":1952:1959  address */\n      0x00\n        /* \"OpenZeppelin-Ownable/utils/Context.sol\":1978:1988  msg.sender */\n      caller\n        /* \"OpenZeppelin-Ownable/utils/Context.sol\":1971:1988  return msg.sender */\n      swap1\n      pop\n        /* \"OpenZeppelin-Ownable/utils/Context.sol\":1899:1995  function _msgSender() internal view virtual returns (address) {... */\n      swap1\n      jump\t// out\n        /* \"#utility.yul\":7:82   */\n    tag_231:\n        /* \"#utility.yul\":40:46   */\n      0x00\n        /* \"#utility.yul\":73:75   */\n      0x40\n        /* \"#utility.yul\":67:76   */\n      mload\n        /* \"#utility.yul\":57:76   */\n      swap1\n      pop\n        /* \"#utility.yul\":7:82   */\n      swap1\n      jump\t// out\n        /* \"#utility.yul\":88:205   */\n    tag_232:\n        /* \"#utility.yul\":197:198   */\n      0x00\n        /* \"#utility.yul\":194:195   */\n      dup1\n        /* \"#utility.yul\":187:199   */\n      revert\n        /* \"#utility.yul\":211:328   */\n    tag_233:\n        /* \"#utility.yul\":320:321   */\n      0x00\n        /* \"#utility.yul\":317:318   */\n      dup1\n        /* \"#utility.yul\":310:322   */\n      revert\n        /* \"#utility.yul\":334:411   */\n    tag_234:\n        /* \"#utility.yul\":371:378   */\n      0x00\n        /* \"#utility.yul\":400:405   */\n      dup2\n        /* \"#utility.yul\":389:405   */\n      swap1\n      pop\n        /* \"#utility.yul\":334:411   */\n      swap2\n      swap1\n      pop\n      jump\t// out\n        /* \"#utility.yul\":417:539   */\n    tag_235:\n        /* \"#utility.yul\":490:514   */\n      tag_298\n        /* \"#utility.yul\":508:513   */\n      dup2\n        /* \"#utility.yul\":490:514   */\n      tag_234\n      jump\t// in\n    tag_298:\n        /* \"#utility.yul\":483:488   */\n      dup2\n        /* \"#utility.yul\":480:515   */\n      eq\n        /* \"#utility.yul\":470:533   */\n      tag_299\n      jumpi\n        /* \"#utility.yul\":529:530   */\n      0x00\n        /* \"#utility.yul\":526:527   */\n      dup1\n        /* \"#utility.yul\":519:531   */\n      revert\n        /* \"#utility.yul\":470:533   */\n    tag_299:\n        /* \"#utility.yul\":417:539   */\n      pop\n      jump\t// out\n        /* \"#utility.yul\":545:684   */\n    tag_236:\n        /* \"#utility.yul\":591:596   */\n      0x00\n        /* \"#utility.yul\":629:635   */\n      dup2\n        /* \"#utility.yul\":616:636   */\n      calldataload\n        /* \"#utility.yul\":607:636   */\n      swap1\n      pop\n        /* \"#utility.yul\":645:678   */\n      tag_301\n        /* \"#utility.yul\":672:677   */\n      dup2\n        /* \"#utility.yul\":645:678   */\n      tag_235\n      jump\t// in\n    tag_301:\n        /* \"#utility.yul\":545:684   */\n      swap3\n      swap2\n      pop\n      pop\n      jump\t// out\n        /* \"#utility.yul\":690:1019   */\n    tag_22:\n        /* \"#utility.yul\":749:755   */\n      0x00\n        /* \"#utility.yul\":798:800   */\n      0x20\n        /* \"#utility.yul\":786:795   */\n      dup3\n        /* \"#utility.yul\":777:784   */\n      dup5\n        /* \"#utility.yul\":773:796   */\n      sub\n        /* \"#utility.yul\":769:801   */\n      slt\n        /* \"#utility.yul\":766:885   */\n      iszero\n      tag_303\n      jumpi\n        /* \"#utility.yul\":804:883   */\n      tag_304\n      tag_232\n      jump\t// in\n    tag_304:\n        /* \"#utility.yul\":766:885   */\n    tag_303:\n        /* \"#utility.yul\":924:925   */\n      0x00\n        /* \"#utility.yul\":949:1002   */\n      tag_305\n        /* \"#utility.yul\":994:1001   */\n      dup5\n        /* \"#utility.yul\":985:991   */\n      dup3\n        /* \"#utility.yul\":974:983   */\n      dup6\n        /* \"#utility.yul\":970:992   */\n      add\n        /* \"#utility.yul\":949:1002   */\n      tag_236\n      jump\t// in\n    tag_305:\n        /* \"#utility.yul\":939:1002   */\n      swap2\n      pop\n        /* \"#utility.yul\":895:1012   */\n      pop\n        /* \"#utility.yul\":690:1019   */\n      swap3\n      swap2\n      pop\n      pop\n      jump\t// out\n        /* \"#utility.yul\":1025:1124   */\n    tag_237:\n        /* \"#utility.yul\":1077:1083   */\n      0x00\n        /* \"#utility.yul\":1111:1116   */\n      dup2\n        /* \"#utility.yul\":1105:1117   */\n      mload\n        /* \"#utility.yul\":1095:1117   */\n      swap1\n      pop\n        /* \"#utility.yul\":1025:1124   */\n      swap2\n      swap1\n      pop\n      jump\t// out\n        /* \"#utility.yul\":1130:1299   */\n    tag_238:\n        /* \"#utility.yul\":1214:1225   */\n      0x00\n        /* \"#utility.yul\":1248:1254   */\n      dup3\n        /* \"#utility.yul\":1243:1246   */\n      dup3\n        /* \"#utility.yul\":1236:1255   */\n      mstore\n        /* \"#utility.yul\":1288:1292   */\n      0x20\n        /* \"#utility.yul\":1283:1286   */\n      dup3\n        /* \"#utility.yul\":1279:1293   */\n      add\n        /* \"#utility.yul\":1264:1293   */\n      swap1\n      pop\n        /* \"#utility.yul\":1130:1299   */\n      swap3\n      swap2\n      pop\n      pop\n      jump\t// out\n        /* \"#utility.yul\":1305:1551   */\n    tag_239:\n        /* \"#utility.yul\":1386:1387   */\n      0x00\n        /* \"#utility.yul\":1396:1509   */\n    tag_309:\n        /* \"#utility.yul\":1410:1416   */\n      dup4\n        /* \"#utility.yul\":1407:1408   */\n      dup2\n        /* \"#utility.yul\":1404:1417   */\n      lt\n        /* \"#utility.yul\":1396:1509   */\n      iszero\n      tag_311\n      jumpi\n        /* \"#utility.yul\":1495:1496   */\n      dup1\n        /* \"#utility.yul\":1490:1493   */\n      dup3\n        /* \"#utility.yul\":1486:1497   */\n      add\n        /* \"#utility.yul\":1480:1498   */\n      mload\n        /* \"#utility.yul\":1476:1477   */\n      dup2\n        /* \"#utility.yul\":1471:1474   */\n      dup5\n        /* \"#utility.yul\":1467:1478   */\n      add\n        /* \"#utility.yul\":1460:1499   */\n      mstore\n        /* \"#utility.yul\":1432:1434   */\n      0x20\n        /* \"#utility.yul\":1429:1430   */\n      dup2\n        /* \"#utility.yul\":1425:1435   */\n      add\n        /* \"#utility.yul\":1420:1435   */\n      swap1\n      pop\n        /* \"#utility.yul\":1396:1509   */\n      jump(tag_309)\n    tag_311:\n        /* \"#utility.yul\":1543:1544   */\n      0x00\n        /* \"#utility.yul\":1534:1540   */\n      dup5\n        /* \"#utility.yul\":1529:1532   */\n      dup5\n        /* \"#utility.yul\":1525:1541   */\n      add\n        /* \"#utility.yul\":1518:1545   */\n      mstore\n        /* \"#utility.yul\":1367:1551   */\n      pop\n        /* \"#utility.yul\":1305:1551   */\n      pop\n      pop\n      pop\n      jump\t// out\n        /* \"#utility.yul\":1557:1659   */\n    tag_240:\n        /* \"#utility.yul\":1598:1604   */\n      0x00\n        /* \"#utility.yul\":1649:1651   */\n      0x1f\n        /* \"#utility.yul\":1645:1652   */\n      not\n        /* \"#utility.yul\":1640:1642   */\n      0x1f\n        /* \"#utility.yul\":1633:1638   */\n      dup4\n        /* \"#utility.yul\":1629:1643   */\n      add\n        /* \"#utility.yul\":1625:1653   */\n      and\n        /* \"#utility.yul\":1615:1653   */\n      swap1\n      pop\n        /* \"#utility.yul\":1557:1659   */\n      swap2\n      swap1\n      pop\n      jump\t// out\n        /* \"#utility.yul\":1665:2042   */\n    tag_241:\n        /* \"#utility.yul\":1753:1756   */\n      0x00\n        /* \"#utility.yul\":1781:1820   */\n      tag_314\n        /* \"#utility.yul\":1814:1819   */\n      dup3\n        /* \"#utility.yul\":1781:1820   */\n      tag_237\n      jump\t// in\n    tag_314:\n        /* \"#utility.yul\":1836:1907   */\n      tag_315\n        /* \"#utility.yul\":1900:1906   */\n      dup2\n        /* \"#utility.yul\":1895:1898   */\n      dup6\n        /* \"#utility.yul\":1836:1907   */\n      tag_238\n      jump\t// in\n    tag_315:\n        /* \"#utility.yul\":1829:1907   */\n      swap4\n      pop\n        /* \"#utility.yul\":1916:1981   */\n      tag_316\n        /* \"#utility.yul\":1974:1980   */\n      dup2\n        /* \"#utility.yul\":1969:1972   */\n      dup6\n        /* \"#utility.yul\":1962:1966   */\n      0x20\n        /* \"#utility.yul\":1955:1960   */\n      dup7\n        /* \"#utility.yul\":1951:1967   */\n      add\n        /* \"#utility.yul\":1916:1981   */\n      tag_239\n      jump\t// in\n    tag_316:\n        /* \"#utility.yul\":2006:2035   */\n      tag_317\n        /* \"#utility.yul\":2028:2034   */\n      dup2\n        /* \"#utility.yul\":2006:2035   */\n      tag_240\n      jump\t// in\n    tag_317:\n        /* \"#utility.yul\":2001:2004   */\n      dup5\n        /* \"#utility.yul\":1997:2036   */\n      add\n        /* \"#utility.yul\":1990:2036   */\n      swap2\n      pop\n        /* \"#utility.yul\":1757:2042   */\n      pop\n        /* \"#utility.yul\":1665:2042   */\n      swap3\n      swap2\n      pop\n      pop\n      jump\t// out\n        /* \"#utility.yul\":2048:2166   */\n    tag_242:\n        /* \"#utility.yul\":2135:2159   */\n      tag_319\n        /* \"#utility.yul\":2153:2158   */\n      dup2\n        /* \"#utility.yul\":2135:2159   */\n      tag_234\n      jump\t// in\n    tag_319:\n        /* \"#utility.yul\":2130:2133   */\n      dup3\n        /* \"#utility.yul\":2123:2160   */\n      mstore\n        /* \"#utility.yul\":2048:2166   */\n      pop\n      pop\n      jump\t// out\n        /* \"#utility.yul\":2172:2595   */\n    tag_27:\n        /* \"#utility.yul\":2313:2317   */\n      0x00\n        /* \"#utility.yul\":2351:2353   */\n      0x40\n        /* \"#utility.yul\":2340:2349   */\n      dup3\n        /* \"#utility.yul\":2336:2354   */\n      add\n        /* \"#utility.yul\":2328:2354   */\n      swap1\n      pop\n        /* \"#utility.yul\":2400:2409   */\n      dup2\n        /* \"#utility.yul\":2394:2398   */\n      dup2\n        /* \"#utility.yul\":2390:2410   */\n      sub\n        /* \"#utility.yul\":2386:2387   */\n      0x00\n        /* \"#utility.yul\":2375:2384   */\n      dup4\n        /* \"#utility.yul\":2371:2388   */\n      add\n        /* \"#utility.yul\":2364:2411   */\n      mstore\n        /* \"#utility.yul\":2428:2506   */\n      tag_321\n        /* \"#utility.yul\":2501:2505   */\n      dup2\n        /* \"#utility.yul\":2492:2498   */\n      dup6\n        /* \"#utility.yul\":2428:2506   */\n      tag_241\n      jump\t// in\n    tag_321:\n        /* \"#utility.yul\":2420:2506   */\n      swap1\n      pop\n        /* \"#utility.yul\":2516:2588   */\n      tag_322\n        /* \"#utility.yul\":2584:2586   */\n      0x20\n        /* \"#utility.yul\":2573:2582   */\n      dup4\n        /* \"#utility.yul\":2569:2587   */\n      add\n        /* \"#utility.yul\":2560:2566   */\n      dup5\n        /* \"#utility.yul\":2516:2588   */\n      tag_242\n      jump\t// in\n    tag_322:\n        /* \"#utility.yul\":2172:2595   */\n      swap4\n      swap3\n      pop\n      pop\n      pop\n      jump\t// out\n        /* \"#utility.yul\":2601:2718   */\n    tag_243:\n        /* \"#utility.yul\":2710:2711   */\n      0x00\n        /* \"#utility.yul\":2707:2708   */\n      dup1\n        /* \"#utility.yul\":2700:2712   */\n      revert\n        /* \"#utility.yul\":2724:2841   */\n    tag_244:\n        /* \"#utility.yul\":2833:2834   */\n      0x00\n        /* \"#utility.yul\":2830:2831   */\n      dup1\n        /* \"#utility.yul\":2823:2835   */\n      revert\n        /* \"#utility.yul\":2847:3027   */\n    tag_245:\n        /* \"#utility.yul\":2895:2972   */\n      0x4e487b7100000000000000000000000000000000000000000000000000000000\n        /* \"#utility.yul\":2892:2893   */\n      0x00\n        /* \"#utility.yul\":2885:2973   */\n      mstore\n        /* \"#utility.yul\":2992:2996   */\n      0x41\n        /* \"#utility.yul\":2989:2990   */\n      0x04\n        /* \"#utility.yul\":2982:2997   */\n      mstore\n        /* \"#utility.yul\":3016:3020   */\n      0x24\n        /* \"#utility.yul\":3013:3014   */\n      0x00\n        /* \"#utility.yul\":3006:3021   */\n      revert\n        /* \"#utility.yul\":3033:3314   */\n    tag_246:\n        /* \"#utility.yul\":3116:3143   */\n      tag_327\n        /* \"#utility.yul\":3138:3142   */\n      dup3\n        /* \"#utility.yul\":3116:3143   */\n      tag_240\n      jump\t// in\n    tag_327:\n        /* \"#utility.yul\":3108:3114   */\n      dup2\n        /* \"#utility.yul\":3104:3144   */\n      add\n        /* \"#utility.yul\":3246:3252   */\n      dup2\n        /* \"#utility.yul\":3234:3244   */\n      dup2\n        /* \"#utility.yul\":3231:3253   */\n      lt\n        /* \"#utility.yul\":3210:3228   */\n      0xffffffffffffffff\n        /* \"#utility.yul\":3198:3208   */\n      dup3\n        /* \"#utility.yul\":3195:3229   */\n      gt\n        /* \"#utility.yul\":3192:3254   */\n      or\n        /* \"#utility.yul\":3189:3277   */\n      iszero\n      tag_328\n      jumpi\n        /* \"#utility.yul\":3257:3275   */\n      tag_329\n      tag_245\n      jump\t// in\n    tag_329:\n        /* \"#utility.yul\":3189:3277   */\n    tag_328:\n        /* \"#utility.yul\":3297:3307   */\n      dup1\n        /* \"#utility.yul\":3293:3295   */\n      0x40\n        /* \"#utility.yul\":3286:3308   */\n      mstore\n        /* \"#utility.yul\":3076:3314   */\n      pop\n        /* \"#utility.yul\":3033:3314   */\n      pop\n      pop\n      jump\t// out\n        /* \"#utility.yul\":3320:3449   */\n    tag_247:\n        /* \"#utility.yul\":3354:3360   */\n      0x00\n        /* \"#utility.yul\":3381:3401   */\n      tag_331\n      tag_231\n      jump\t// in\n    tag_331:\n        /* \"#utility.yul\":3371:3401   */\n      swap1\n      pop\n        /* \"#utility.yul\":3410:3443   */\n      tag_332\n        /* \"#utility.yul\":3438:3442   */\n      dup3\n        /* \"#utility.yul\":3430:3436   */\n      dup3\n        /* \"#utility.yul\":3410:3443   */\n      tag_246\n      jump\t// in\n    tag_332:\n        /* \"#utility.yul\":3320:3449   */\n      swap2\n      swap1\n      pop\n      jump\t// out\n        /* \"#utility.yul\":3455:3763   */\n    tag_248:\n        /* \"#utility.yul\":3517:3521   */\n      0x00\n        /* \"#utility.yul\":3607:3625   */\n      0xffffffffffffffff\n        /* \"#utility.yul\":3599:3605   */\n      dup3\n        /* \"#utility.yul\":3596:3626   */\n      gt\n        /* \"#utility.yul\":3593:3649   */\n      iszero\n      tag_334\n      jumpi\n        /* \"#utility.yul\":3629:3647   */\n      tag_335\n      tag_245\n      jump\t// in\n    tag_335:\n        /* \"#utility.yul\":3593:3649   */\n    tag_334:\n        /* \"#utility.yul\":3667:3696   */\n      tag_336\n        /* \"#utility.yul\":3689:3695   */\n      dup3\n        /* \"#utility.yul\":3667:3696   */\n      tag_240\n      jump\t// in\n    tag_336:\n        /* \"#utility.yul\":3659:3696   */\n      swap1\n      pop\n        /* \"#utility.yul\":3751:3755   */\n      0x20\n        /* \"#utility.yul\":3745:3749   */\n      dup2\n        /* \"#utility.yul\":3741:3756   */\n      add\n        /* \"#utility.yul\":3733:3756   */\n      swap1\n      pop\n        /* \"#utility.yul\":3455:3763   */\n      swap2\n      swap1\n      pop\n      jump\t// out\n        /* \"#utility.yul\":3769:3915   */\n    tag_249:\n        /* \"#utility.yul\":3866:3872   */\n      dup3\n        /* \"#utility.yul\":3861:3864   */\n      dup2\n        /* \"#utility.yul\":3856:3859   */\n      dup4\n        /* \"#utility.yul\":3843:3873   */\n      calldatacopy\n        /* \"#utility.yul\":3907:3908   */\n      0x00\n        /* \"#utility.yul\":3898:3904   */\n      dup4\n        /* \"#utility.yul\":3893:3896   */\n      dup4\n        /* \"#utility.yul\":3889:3905   */\n      add\n        /* \"#utility.yul\":3882:3909   */\n      mstore\n        /* \"#utility.yul\":3769:3915   */\n      pop\n      pop\n      pop\n      jump\t// out\n        /* \"#utility.yul\":3921:4346   */\n    tag_250:\n        /* \"#utility.yul\":3999:4004   */\n      0x00\n        /* \"#utility.yul\":4024:4090   */\n      tag_339\n        /* \"#utility.yul\":4040:4089   */\n      tag_340\n        /* \"#utility.yul\":4082:4088   */\n      dup5\n        /* \"#utility.yul\":4040:4089   */\n      tag_248\n      jump\t// in\n    tag_340:\n        /* \"#utility.yul\":4024:4090   */\n      tag_247\n      jump\t// in\n    tag_339:\n        /* \"#utility.yul\":4015:4090   */\n      swap1\n      pop\n        /* \"#utility.yul\":4113:4119   */\n      dup3\n        /* \"#utility.yul\":4106:4111   */\n      dup2\n        /* \"#utility.yul\":4099:4120   */\n      mstore\n        /* \"#utility.yul\":4151:4155   */\n      0x20\n        /* \"#utility.yul\":4144:4149   */\n      dup2\n        /* \"#utility.yul\":4140:4156   */\n      add\n        /* \"#utility.yul\":4189:4192   */\n      dup5\n        /* \"#utility.yul\":4180:4186   */\n      dup5\n        /* \"#utility.yul\":4175:4178   */\n      dup5\n        /* \"#utility.yul\":4171:4187   */\n      add\n        /* \"#utility.yul\":4168:4193   */\n      gt\n        /* \"#utility.yul\":4165:4277   */\n      iszero\n      tag_341\n      jumpi\n        /* \"#utility.yul\":4196:4275   */\n      tag_342\n      tag_244\n      jump\t// in\n    tag_342:\n        /* \"#utility.yul\":4165:4277   */\n    tag_341:\n        /* \"#utility.yul\":4286:4340   */\n      tag_343\n        /* \"#utility.yul\":4333:4339   */\n      dup5\n        /* \"#utility.yul\":4328:4331   */\n      dup3\n        /* \"#utility.yul\":4323:4326   */\n      dup6\n        /* \"#utility.yul\":4286:4340   */\n      tag_249\n      jump\t// in\n    tag_343:\n        /* \"#utility.yul\":4005:4346   */\n      pop\n        /* \"#utility.yul\":3921:4346   */\n      swap4\n      swap3\n      pop\n      pop\n      pop\n      jump\t// out\n        /* \"#utility.yul\":4366:4706   */\n    tag_251:\n        /* \"#utility.yul\":4422:4427   */\n      0x00\n        /* \"#utility.yul\":4471:4474   */\n      dup3\n        /* \"#utility.yul\":4464:4468   */\n      0x1f\n        /* \"#utility.yul\":4456:4462   */\n      dup4\n        /* \"#utility.yul\":4452:4469   */\n      add\n        /* \"#utility.yul\":4448:4475   */\n      slt\n        /* \"#utility.yul\":4438:4560   */\n      tag_345\n      jumpi\n        /* \"#utility.yul\":4479:4558   */\n      tag_346\n      tag_243\n      jump\t// in\n    tag_346:\n        /* \"#utility.yul\":4438:4560   */\n    tag_345:\n        /* \"#utility.yul\":4596:4602   */\n      dup2\n        /* \"#utility.yul\":4583:4603   */\n      calldataload\n        /* \"#utility.yul\":4621:4700   */\n      tag_347\n        /* \"#utility.yul\":4696:4699   */\n      dup5\n        /* \"#utility.yul\":4688:4694   */\n      dup3\n        /* \"#utility.yul\":4681:4685   */\n      0x20\n        /* \"#utility.yul\":4673:4679   */\n      dup7\n        /* \"#utility.yul\":4669:4686   */\n      add\n        /* \"#utility.yul\":4621:4700   */\n      tag_250\n      jump\t// in\n    tag_347:\n        /* \"#utility.yul\":4612:4700   */\n      swap2\n      pop\n        /* \"#utility.yul\":4428:4706   */\n      pop\n        /* \"#utility.yul\":4366:4706   */\n      swap3\n      swap2\n      pop\n      pop\n      jump\t// out\n        /* \"#utility.yul\":4712:5546   */\n    tag_32:\n        /* \"#utility.yul\":4800:4806   */\n      0x00\n        /* \"#utility.yul\":4808:4814   */\n      dup1\n        /* \"#utility.yul\":4857:4859   */\n      0x40\n        /* \"#utility.yul\":4845:4854   */\n      dup4\n        /* \"#utility.yul\":4836:4843   */\n      dup6\n        /* \"#utility.yul\":4832:4855   */\n      sub\n        /* \"#utility.yul\":4828:4860   */\n      slt\n        /* \"#utility.yul\":4825:4944   */\n      iszero\n      tag_349\n      jumpi\n        /* \"#utility.yul\":4863:4942   */\n      tag_350\n      tag_232\n      jump\t// in\n    tag_350:\n        /* \"#utility.yul\":4825:4944   */\n    tag_349:\n        /* \"#utility.yul\":5011:5012   */\n      0x00\n        /* \"#utility.yul\":5000:5009   */\n      dup4\n        /* \"#utility.yul\":4996:5013   */\n      add\n        /* \"#utility.yul\":4983:5014   */\n      calldataload\n        /* \"#utility.yul\":5041:5059   */\n      0xffffffffffffffff\n        /* \"#utility.yul\":5033:5039   */\n      dup2\n        /* \"#utility.yul\":5030:5060   */\n      gt\n        /* \"#utility.yul\":5027:5144   */\n      iszero\n      tag_351\n      jumpi\n        /* \"#utility.yul\":5063:5142   */\n      tag_352\n      tag_233\n      jump\t// in\n    tag_352:\n        /* \"#utility.yul\":5027:5144   */\n    tag_351:\n        /* \"#utility.yul\":5168:5231   */\n      tag_353\n        /* \"#utility.yul\":5223:5230   */\n      dup6\n        /* \"#utility.yul\":5214:5220   */\n      dup3\n        /* \"#utility.yul\":5203:5212   */\n      dup7\n        /* \"#utility.yul\":5199:5221   */\n      add\n        /* \"#utility.yul\":5168:5231   */\n      tag_251\n      jump\t// in\n    tag_353:\n        /* \"#utility.yul\":5158:5231   */\n      swap3\n      pop\n        /* \"#utility.yul\":4954:5241   */\n      pop\n        /* \"#utility.yul\":5308:5310   */\n      0x20\n        /* \"#utility.yul\":5297:5306   */\n      dup4\n        /* \"#utility.yul\":5293:5311   */\n      add\n        /* \"#utility.yul\":5280:5312   */\n      calldataload\n        /* \"#utility.yul\":5339:5357   */\n      0xffffffffffffffff\n        /* \"#utility.yul\":5331:5337   */\n      dup2\n        /* \"#utility.yul\":5328:5358   */\n      gt\n        /* \"#utility.yul\":5325:5442   */\n      iszero\n      tag_354\n      jumpi\n        /* \"#utility.yul\":5361:5440   */\n      tag_355\n      tag_233\n      jump\t// in\n    tag_355:\n        /* \"#utility.yul\":5325:5442   */\n    tag_354:\n        /* \"#utility.yul\":5466:5529   */\n      tag_356\n        /* \"#utility.yul\":5521:5528   */\n      dup6\n        /* \"#utility.yul\":5512:5518   */\n      dup3\n        /* \"#utility.yul\":5501:5510   */\n      dup7\n        /* \"#utility.yul\":5497:5519   */\n      add\n        /* \"#utility.yul\":5466:5529   */\n      tag_251\n      jump\t// in\n    tag_356:\n        /* \"#utility.yul\":5456:5529   */\n      swap2\n      pop\n        /* \"#utility.yul\":5251:5539   */\n      pop\n        /* \"#utility.yul\":4712:5546   */\n      swap3\n      pop\n      swap3\n      swap1\n      pop\n      jump\t// out\n        /* \"#utility.yul\":5552:5678   */\n    tag_252:\n        /* \"#utility.yul\":5589:5596   */\n      0x00\n        /* \"#utility.yul\":5629:5671   */\n      0xffffffffffffffffffffffffffffffffffffffff\n        /* \"#utility.yul\":5622:5627   */\n      dup3\n        /* \"#utility.yul\":5618:5672   */\n      and\n        /* \"#utility.yul\":5607:5672   */\n      swap1\n      pop\n        /* \"#utility.yul\":5552:5678   */\n      swap2\n      swap1\n      pop\n      jump\t// out\n        /* \"#utility.yul\":5684:5780   */\n    tag_253:\n        /* \"#utility.yul\":5721:5728   */\n      0x00\n        /* \"#utility.yul\":5750:5774   */\n      tag_359\n        /* \"#utility.yul\":5768:5773   */\n      dup3\n        /* \"#utility.yul\":5750:5774   */\n      tag_252\n      jump\t// in\n    tag_359:\n        /* \"#utility.yul\":5739:5774   */\n      swap1\n      pop\n        /* \"#utility.yul\":5684:5780   */\n      swap2\n      swap1\n      pop\n      jump\t// out\n        /* \"#utility.yul\":5786:5904   */\n    tag_254:\n        /* \"#utility.yul\":5873:5897   */\n      tag_361\n        /* \"#utility.yul\":5891:5896   */\n      dup2\n        /* \"#utility.yul\":5873:5897   */\n      tag_253\n      jump\t// in\n    tag_361:\n        /* \"#utility.yul\":5868:5871   */\n      dup3\n        /* \"#utility.yul\":5861:5898   */\n      mstore\n        /* \"#utility.yul\":5786:5904   */\n      pop\n      pop\n      jump\t// out\n        /* \"#utility.yul\":5910:6132   */\n    tag_37:\n        /* \"#utility.yul\":6003:6007   */\n      0x00\n        /* \"#utility.yul\":6041:6043   */\n      0x20\n        /* \"#utility.yul\":6030:6039   */\n      dup3\n        /* \"#utility.yul\":6026:6044   */\n      add\n        /* \"#utility.yul\":6018:6044   */\n      swap1\n      pop\n        /* \"#utility.yul\":6054:6125   */\n      tag_363\n        /* \"#utility.yul\":6122:6123   */\n      0x00\n        /* \"#utility.yul\":6111:6120   */\n      dup4\n        /* \"#utility.yul\":6107:6124   */\n      add\n        /* \"#utility.yul\":6098:6104   */\n      dup5\n        /* \"#utility.yul\":6054:6125   */\n      tag_254\n      jump\t// in\n    tag_363:\n        /* \"#utility.yul\":5910:6132   */\n      swap3\n      swap2\n      pop\n      pop\n      jump\t// out\n        /* \"#utility.yul\":6138:6762   */\n    tag_42:\n        /* \"#utility.yul\":6327:6331   */\n      0x00\n        /* \"#utility.yul\":6365:6367   */\n      0x60\n        /* \"#utility.yul\":6354:6363   */\n      dup3\n        /* \"#utility.yul\":6350:6368   */\n      add\n        /* \"#utility.yul\":6342:6368   */\n      swap1\n      pop\n        /* \"#utility.yul\":6414:6423   */\n      dup2\n        /* \"#utility.yul\":6408:6412   */\n      dup2\n        /* \"#utility.yul\":6404:6424   */\n      sub\n        /* \"#utility.yul\":6400:6401   */\n      0x00\n        /* \"#utility.yul\":6389:6398   */\n      dup4\n        /* \"#utility.yul\":6385:6402   */\n      add\n        /* \"#utility.yul\":6378:6425   */\n      mstore\n        /* \"#utility.yul\":6442:6520   */\n      tag_365\n        /* \"#utility.yul\":6515:6519   */\n      dup2\n        /* \"#utility.yul\":6506:6512   */\n      dup7\n        /* \"#utility.yul\":6442:6520   */\n      tag_241\n      jump\t// in\n    tag_365:\n        /* \"#utility.yul\":6434:6520   */\n      swap1\n      pop\n        /* \"#utility.yul\":6567:6576   */\n      dup2\n        /* \"#utility.yul\":6561:6565   */\n      dup2\n        /* \"#utility.yul\":6557:6577   */\n      sub\n        /* \"#utility.yul\":6552:6554   */\n      0x20\n        /* \"#utility.yul\":6541:6550   */\n      dup4\n        /* \"#utility.yul\":6537:6555   */\n      add\n        /* \"#utility.yul\":6530:6578   */\n      mstore\n        /* \"#utility.yul\":6595:6673   */\n      tag_366\n        /* \"#utility.yul\":6668:6672   */\n      dup2\n        /* \"#utility.yul\":6659:6665   */\n      dup6\n        /* \"#utility.yul\":6595:6673   */\n      tag_241\n      jump\t// in\n    tag_366:\n        /* \"#utility.yul\":6587:6673   */\n      swap1\n      pop\n        /* \"#utility.yul\":6683:6755   */\n      tag_367\n        /* \"#utility.yul\":6751:6753   */\n      0x40\n        /* \"#utility.yul\":6740:6749   */\n      dup4\n        /* \"#utility.yul\":6736:6754   */\n      add\n        /* \"#utility.yul\":6727:6733   */\n      dup5\n        /* \"#utility.yul\":6683:6755   */\n      tag_242\n      jump\t// in\n    tag_367:\n        /* \"#utility.yul\":6138:6762   */\n      swap5\n      swap4\n      pop\n      pop\n      pop\n      pop\n      jump\t// out\n        /* \"#utility.yul\":6768:7282   */\n    tag_47:\n        /* \"#utility.yul\":6929:6933   */\n      0x00\n        /* \"#utility.yul\":6967:6969   */\n      0x40\n        /* \"#utility.yul\":6956:6965   */\n      dup3\n        /* \"#utility.yul\":6952:6970   */\n      add\n        /* \"#utility.yul\":6944:6970   */\n      swap1\n      pop\n        /* \"#utility.yul\":7016:7025   */\n      dup2\n        /* \"#utility.yul\":7010:7014   */\n      dup2\n        /* \"#utility.yul\":7006:7026   */\n      sub\n        /* \"#utility.yul\":7002:7003   */\n      0x00\n        /* \"#utility.yul\":6991:7000   */\n      dup4\n        /* \"#utility.yul\":6987:7004   */\n      add\n        /* \"#utility.yul\":6980:7027   */\n      mstore\n        /* \"#utility.yul\":7044:7122   */\n      tag_369\n        /* \"#utility.yul\":7117:7121   */\n      dup2\n        /* \"#utility.yul\":7108:7114   */\n      dup6\n        /* \"#utility.yul\":7044:7122   */\n      tag_241\n      jump\t// in\n    tag_369:\n        /* \"#utility.yul\":7036:7122   */\n      swap1\n      pop\n        /* \"#utility.yul\":7169:7178   */\n      dup2\n        /* \"#utility.yul\":7163:7167   */\n      dup2\n        /* \"#utility.yul\":7159:7179   */\n      sub\n        /* \"#utility.yul\":7154:7156   */\n      0x20\n        /* \"#utility.yul\":7143:7152   */\n      dup4\n        /* \"#utility.yul\":7139:7157   */\n      add\n        /* \"#utility.yul\":7132:7180   */\n      mstore\n        /* \"#utility.yul\":7197:7275   */\n      tag_370\n        /* \"#utility.yul\":7270:7274   */\n      dup2\n        /* \"#utility.yul\":7261:7267   */\n      dup5\n        /* \"#utility.yul\":7197:7275   */\n      tag_241\n      jump\t// in\n    tag_370:\n        /* \"#utility.yul\":7189:7275   */\n      swap1\n      pop\n        /* \"#utility.yul\":6768:7282   */\n      swap4\n      swap3\n      pop\n      pop\n      pop\n      jump\t// out\n        /* \"#utility.yul\":7288:7942   */\n    tag_50:\n        /* \"#utility.yul\":7366:7372   */\n      0x00\n        /* \"#utility.yul\":7374:7380   */\n      dup1\n        /* \"#utility.yul\":7423:7425   */\n      0x40\n        /* \"#utility.yul\":7411:7420   */\n      dup4\n        /* \"#utility.yul\":7402:7409   */\n      dup6\n        /* \"#utility.yul\":7398:7421   */\n      sub\n        /* \"#utility.yul\":7394:7426   */\n      slt\n        /* \"#utility.yul\":7391:7510   */\n      iszero\n      tag_372\n      jumpi\n        /* \"#utility.yul\":7429:7508   */\n      tag_373\n      tag_232\n      jump\t// in\n    tag_373:\n        /* \"#utility.yul\":7391:7510   */\n    tag_372:\n        /* \"#utility.yul\":7577:7578   */\n      0x00\n        /* \"#utility.yul\":7566:7575   */\n      dup4\n        /* \"#utility.yul\":7562:7579   */\n      add\n        /* \"#utility.yul\":7549:7580   */\n      calldataload\n        /* \"#utility.yul\":7607:7625   */\n      0xffffffffffffffff\n        /* \"#utility.yul\":7599:7605   */\n      dup2\n        /* \"#utility.yul\":7596:7626   */\n      gt\n        /* \"#utility.yul\":7593:7710   */\n      iszero\n      tag_374\n      jumpi\n        /* \"#utility.yul\":7629:7708   */\n      tag_375\n      tag_233\n      jump\t// in\n    tag_375:\n        /* \"#utility.yul\":7593:7710   */\n    tag_374:\n        /* \"#utility.yul\":7734:7797   */\n      tag_376\n        /* \"#utility.yul\":7789:7796   */\n      dup6\n        /* \"#utility.yul\":7780:7786   */\n      dup3\n        /* \"#utility.yul\":7769:7778   */\n      dup7\n        /* \"#utility.yul\":7765:7787   */\n      add\n        /* \"#utility.yul\":7734:7797   */\n      tag_251\n      jump\t// in\n    tag_376:\n        /* \"#utility.yul\":7724:7797   */\n      swap3\n      pop\n        /* \"#utility.yul\":7520:7807   */\n      pop\n        /* \"#utility.yul\":7846:7848   */\n      0x20\n        /* \"#utility.yul\":7872:7925   */\n      tag_377\n        /* \"#utility.yul\":7917:7924   */\n      dup6\n        /* \"#utility.yul\":7908:7914   */\n      dup3\n        /* \"#utility.yul\":7897:7906   */\n      dup7\n        /* \"#utility.yul\":7893:7915   */\n      add\n        /* \"#utility.yul\":7872:7925   */\n      tag_236\n      jump\t// in\n    tag_377:\n        /* \"#utility.yul\":7862:7925   */\n      swap2\n      pop\n        /* \"#utility.yul\":7817:7935   */\n      pop\n        /* \"#utility.yul\":7288:7942   */\n      swap3\n      pop\n      swap3\n      swap1\n      pop\n      jump\t// out\n        /* \"#utility.yul\":7948:8038   */\n    tag_255:\n        /* \"#utility.yul\":7982:7989   */\n      0x00\n        /* \"#utility.yul\":8025:8030   */\n      dup2\n        /* \"#utility.yul\":8018:8031   */\n      iszero\n        /* \"#utility.yul\":8011:8032   */\n      iszero\n        /* \"#utility.yul\":8000:8032   */\n      swap1\n      pop\n        /* \"#utility.yul\":7948:8038   */\n      swap2\n      swap1\n      pop\n      jump\t// out\n        /* \"#utility.yul\":8044:8153   */\n    tag_256:\n        /* \"#utility.yul\":8125:8146   */\n      tag_380\n        /* \"#utility.yul\":8140:8145   */\n      dup2\n        /* \"#utility.yul\":8125:8146   */\n      tag_255\n      jump\t// in\n    tag_380:\n        /* \"#utility.yul\":8120:8123   */\n      dup3\n        /* \"#utility.yul\":8113:8147   */\n      mstore\n        /* \"#utility.yul\":8044:8153   */\n      pop\n      pop\n      jump\t// out\n        /* \"#utility.yul\":8159:8570   */\n    tag_56:\n        /* \"#utility.yul\":8294:8298   */\n      0x00\n        /* \"#utility.yul\":8332:8334   */\n      0x40\n        /* \"#utility.yul\":8321:8330   */\n      dup3\n        /* \"#utility.yul\":8317:8335   */\n      add\n        /* \"#utility.yul\":8309:8335   */\n      swap1\n      pop\n        /* \"#utility.yul\":8381:8390   */\n      dup2\n        /* \"#utility.yul\":8375:8379   */\n      dup2\n        /* \"#utility.yul\":8371:8391   */\n      sub\n        /* \"#utility.yul\":8367:8368   */\n      0x00\n        /* \"#utility.yul\":8356:8365   */\n      dup4\n        /* \"#utility.yul\":8352:8369   */\n      add\n        /* \"#utility.yul\":8345:8392   */\n      mstore\n        /* \"#utility.yul\":8409:8487   */\n      tag_382\n        /* \"#utility.yul\":8482:8486   */\n      dup2\n        /* \"#utility.yul\":8473:8479   */\n      dup6\n        /* \"#utility.yul\":8409:8487   */\n      tag_241\n      jump\t// in\n    tag_382:\n        /* \"#utility.yul\":8401:8487   */\n      swap1\n      pop\n        /* \"#utility.yul\":8497:8563   */\n      tag_383\n        /* \"#utility.yul\":8559:8561   */\n      0x20\n        /* \"#utility.yul\":8548:8557   */\n      dup4\n        /* \"#utility.yul\":8544:8562   */\n      add\n        /* \"#utility.yul\":8535:8541   */\n      dup5\n        /* \"#utility.yul\":8497:8563   */\n      tag_256\n      jump\t// in\n    tag_383:\n        /* \"#utility.yul\":8159:8570   */\n      swap4\n      swap3\n      pop\n      pop\n      pop\n      jump\t// out\n        /* \"#utility.yul\":8576:8798   */\n    tag_60:\n        /* \"#utility.yul\":8669:8673   */\n      0x00\n        /* \"#utility.yul\":8707:8709   */\n      0x20\n        /* \"#utility.yul\":8696:8705   */\n      dup3\n        /* \"#utility.yul\":8692:8710   */\n      add\n        /* \"#utility.yul\":8684:8710   */\n      swap1\n      pop\n        /* \"#utility.yul\":8720:8791   */\n      tag_385\n        /* \"#utility.yul\":8788:8789   */\n      0x00\n        /* \"#utility.yul\":8777:8786   */\n      dup4\n        /* \"#utility.yul\":8773:8790   */\n      add\n        /* \"#utility.yul\":8764:8770   */\n      dup5\n        /* \"#utility.yul\":8720:8791   */\n      tag_242\n      jump\t// in\n    tag_385:\n        /* \"#utility.yul\":8576:8798   */\n      swap3\n      swap2\n      pop\n      pop\n      jump\t// out\n        /* \"#utility.yul\":8804:8890   */\n    tag_257:\n        /* \"#utility.yul\":8839:8846   */\n      0x00\n        /* \"#utility.yul\":8879:8883   */\n      0xff\n        /* \"#utility.yul\":8872:8877   */\n      dup3\n        /* \"#utility.yul\":8868:8884   */\n      and\n        /* \"#utility.yul\":8857:8884   */\n      swap1\n      pop\n        /* \"#utility.yul\":8804:8890   */\n      swap2\n      swap1\n      pop\n      jump\t// out\n        /* \"#utility.yul\":8896:9014   */\n    tag_258:\n        /* \"#utility.yul\":8967:8989   */\n      tag_388\n        /* \"#utility.yul\":8983:8988   */\n      dup2\n        /* \"#utility.yul\":8967:8989   */\n      tag_257\n      jump\t// in\n    tag_388:\n        /* \"#utility.yul\":8960:8965   */\n      dup2\n        /* \"#utility.yul\":8957:8990   */\n      eq\n        /* \"#utility.yul\":8947:9008   */\n      tag_389\n      jumpi\n        /* \"#utility.yul\":9004:9005   */\n      0x00\n        /* \"#utility.yul\":9001:9002   */\n      dup1\n        /* \"#utility.yul\":8994:9006   */\n      revert\n        /* \"#utility.yul\":8947:9008   */\n    tag_389:\n        /* \"#utility.yul\":8896:9014   */\n      pop\n      jump\t// out\n        /* \"#utility.yul\":9020:9155   */\n    tag_259:\n        /* \"#utility.yul\":9064:9069   */\n      0x00\n        /* \"#utility.yul\":9102:9108   */\n      dup2\n        /* \"#utility.yul\":9089:9109   */\n      calldataload\n        /* \"#utility.yul\":9080:9109   */\n      swap1\n      pop\n        /* \"#utility.yul\":9118:9149   */\n      tag_391\n        /* \"#utility.yul\":9143:9148   */\n      dup2\n        /* \"#utility.yul\":9118:9149   */\n      tag_258\n      jump\t// in\n    tag_391:\n        /* \"#utility.yul\":9020:9155   */\n      swap3\n      swap2\n      pop\n      pop\n      jump\t// out\n        /* \"#utility.yul\":9161:9811   */\n    tag_63:\n        /* \"#utility.yul\":9237:9243   */\n      0x00\n        /* \"#utility.yul\":9245:9251   */\n      dup1\n        /* \"#utility.yul\":9294:9296   */\n      0x40\n        /* \"#utility.yul\":9282:9291   */\n      dup4\n        /* \"#utility.yul\":9273:9280   */\n      dup6\n        /* \"#utility.yul\":9269:9292   */\n      sub\n        /* \"#utility.yul\":9265:9297   */\n      slt\n        /* \"#utility.yul\":9262:9381   */\n      iszero\n      tag_393\n      jumpi\n        /* \"#utility.yul\":9300:9379   */\n      tag_394\n      tag_232\n      jump\t// in\n    tag_394:\n        /* \"#utility.yul\":9262:9381   */\n    tag_393:\n        /* \"#utility.yul\":9448:9449   */\n      0x00\n        /* \"#utility.yul\":9437:9446   */\n      dup4\n        /* \"#utility.yul\":9433:9450   */\n      add\n        /* \"#utility.yul\":9420:9451   */\n      calldataload\n        /* \"#utility.yul\":9478:9496   */\n      0xffffffffffffffff\n        /* \"#utility.yul\":9470:9476   */\n      dup2\n        /* \"#utility.yul\":9467:9497   */\n      gt\n        /* \"#utility.yul\":9464:9581   */\n      iszero\n      tag_395\n      jumpi\n        /* \"#utility.yul\":9500:9579   */\n      tag_396\n      tag_233\n      jump\t// in\n    tag_396:\n        /* \"#utility.yul\":9464:9581   */\n    tag_395:\n        /* \"#utility.yul\":9605:9668   */\n      tag_397\n        /* \"#utility.yul\":9660:9667   */\n      dup6\n        /* \"#utility.yul\":9651:9657   */\n      dup3\n        /* \"#utility.yul\":9640:9649   */\n      dup7\n        /* \"#utility.yul\":9636:9658   */\n      add\n        /* \"#utility.yul\":9605:9668   */\n      tag_251\n      jump\t// in\n    tag_397:\n        /* \"#utility.yul\":9595:9668   */\n      swap3\n      pop\n        /* \"#utility.yul\":9391:9678   */\n      pop\n        /* \"#utility.yul\":9717:9719   */\n      0x20\n        /* \"#utility.yul\":9743:9794   */\n      tag_398\n        /* \"#utility.yul\":9786:9793   */\n      dup6\n        /* \"#utility.yul\":9777:9783   */\n      dup3\n        /* \"#utility.yul\":9766:9775   */\n      dup7\n        /* \"#utility.yul\":9762:9784   */\n      add\n        /* \"#utility.yul\":9743:9794   */\n      tag_259\n      jump\t// in\n    tag_398:\n        /* \"#utility.yul\":9733:9794   */\n      swap2\n      pop\n        /* \"#utility.yul\":9688:9804   */\n      pop\n        /* \"#utility.yul\":9161:9811   */\n      swap3\n      pop\n      swap3\n      swap1\n      pop\n      jump\t// out\n        /* \"#utility.yul\":9817:9957   */\n    tag_260:\n        /* \"#utility.yul\":9910:9916   */\n      0x00\n        /* \"#utility.yul\":9944:9949   */\n      dup2\n        /* \"#utility.yul\":9938:9950   */\n      mload\n        /* \"#utility.yul\":9928:9950   */\n      swap1\n      pop\n        /* \"#utility.yul\":9817:9957   */\n      swap2\n      swap1\n      pop\n      jump\t// out\n        /* \"#utility.yul\":9963:10173   */\n    tag_261:\n        /* \"#utility.yul\":10088:10099   */\n      0x00\n        /* \"#utility.yul\":10122:10128   */\n      dup3\n        /* \"#utility.yul\":10117:10120   */\n      dup3\n        /* \"#utility.yul\":10110:10129   */\n      mstore\n        /* \"#utility.yul\":10162:10166   */\n      0x20\n        /* \"#utility.yul\":10157:10160   */\n      dup3\n        /* \"#utility.yul\":10153:10167   */\n      add\n        /* \"#utility.yul\":10138:10167   */\n      swap1\n      pop\n        /* \"#utility.yul\":9963:10173   */\n      swap3\n      swap2\n      pop\n      pop\n      jump\t// out\n        /* \"#utility.yul\":10179:10337   */\n    tag_262:\n        /* \"#utility.yul\":10272:10276   */\n      0x00\n        /* \"#utility.yul\":10295:10298   */\n      dup2\n        /* \"#utility.yul\":10287:10298   */\n      swap1\n      pop\n        /* \"#utility.yul\":10325:10329   */\n      0x20\n        /* \"#utility.yul\":10320:10323   */\n      dup3\n        /* \"#utility.yul\":10316:10330   */\n      add\n        /* \"#utility.yul\":10308:10330   */\n      swap1\n      pop\n        /* \"#utility.yul\":10179:10337   */\n      swap2\n      swap1\n      pop\n      jump\t// out\n        /* \"#utility.yul\":10343:10502   */\n    tag_263:\n        /* \"#utility.yul\":10417:10428   */\n      0x00\n        /* \"#utility.yul\":10451:10457   */\n      dup3\n        /* \"#utility.yul\":10446:10449   */\n      dup3\n        /* \"#utility.yul\":10439:10458   */\n      mstore\n        /* \"#utility.yul\":10491:10495   */\n      0x20\n        /* \"#utility.yul\":10486:10489   */\n      dup3\n        /* \"#utility.yul\":10482:10496   */\n      add\n        /* \"#utility.yul\":10467:10496   */\n      swap1\n      pop\n        /* \"#utility.yul\":10343:10502   */\n      swap3\n      swap2\n      pop\n      pop\n      jump\t// out\n        /* \"#utility.yul\":10508:10865   */\n    tag_264:\n        /* \"#utility.yul\":10586:10589   */\n      0x00\n        /* \"#utility.yul\":10614:10653   */\n      tag_404\n        /* \"#utility.yul\":10647:10652   */\n      dup3\n        /* \"#utility.yul\":10614:10653   */\n      tag_237\n      jump\t// in\n    tag_404:\n        /* \"#utility.yul\":10669:10730   */\n      tag_405\n        /* \"#utility.yul\":10723:10729   */\n      dup2\n        /* \"#utility.yul\":10718:10721   */\n      dup6\n        /* \"#utility.yul\":10669:10730   */\n      tag_263\n      jump\t// in\n    tag_405:\n        /* \"#utility.yul\":10662:10730   */\n      swap4\n      pop\n        /* \"#utility.yul\":10739:10804   */\n      tag_406\n        /* \"#utility.yul\":10797:10803   */\n      dup2\n        /* \"#utility.yul\":10792:10795   */\n      dup6\n        /* \"#utility.yul\":10785:10789   */\n      0x20\n        /* \"#utility.yul\":10778:10783   */\n      dup7\n        /* \"#utility.yul\":10774:10790   */\n      add\n        /* \"#utility.yul\":10739:10804   */\n      tag_239\n      jump\t// in\n    tag_406:\n        /* \"#utility.yul\":10829:10858   */\n      tag_407\n        /* \"#utility.yul\":10851:10857   */\n      dup2\n        /* \"#utility.yul\":10829:10858   */\n      tag_240\n      jump\t// in\n    tag_407:\n        /* \"#utility.yul\":10824:10827   */\n      dup5\n        /* \"#utility.yul\":10820:10859   */\n      add\n        /* \"#utility.yul\":10813:10859   */\n      swap2\n      pop\n        /* \"#utility.yul\":10590:10865   */\n      pop\n        /* \"#utility.yul\":10508:10865   */\n      swap3\n      swap2\n      pop\n      pop\n      jump\t// out\n        /* \"#utility.yul\":10871:10979   */\n    tag_265:\n        /* \"#utility.yul\":10948:10972   */\n      tag_409\n        /* \"#utility.yul\":10966:10971   */\n      dup2\n        /* \"#utility.yul\":10948:10972   */\n      tag_234\n      jump\t// in\n    tag_409:\n        /* \"#utility.yul\":10943:10946   */\n      dup3\n        /* \"#utility.yul\":10936:10973   */\n      mstore\n        /* \"#utility.yul\":10871:10979   */\n      pop\n      pop\n      jump\t// out\n        /* \"#utility.yul\":11039:11888   */\n    tag_266:\n        /* \"#utility.yul\":11150:11153   */\n      0x00\n        /* \"#utility.yul\":11186:11190   */\n      0x60\n        /* \"#utility.yul\":11181:11184   */\n      dup4\n        /* \"#utility.yul\":11177:11191   */\n      add\n        /* \"#utility.yul\":11275:11279   */\n      0x00\n        /* \"#utility.yul\":11268:11273   */\n      dup4\n        /* \"#utility.yul\":11264:11280   */\n      add\n        /* \"#utility.yul\":11258:11281   */\n      mload\n        /* \"#utility.yul\":11328:11331   */\n      dup5\n        /* \"#utility.yul\":11322:11326   */\n      dup3\n        /* \"#utility.yul\":11318:11332   */\n      sub\n        /* \"#utility.yul\":11311:11315   */\n      0x00\n        /* \"#utility.yul\":11306:11309   */\n      dup7\n        /* \"#utility.yul\":11302:11316   */\n      add\n        /* \"#utility.yul\":11295:11333   */\n      mstore\n        /* \"#utility.yul\":11354:11427   */\n      tag_411\n        /* \"#utility.yul\":11422:11426   */\n      dup3\n        /* \"#utility.yul\":11408:11420   */\n      dup3\n        /* \"#utility.yul\":11354:11427   */\n      tag_264\n      jump\t// in\n    tag_411:\n        /* \"#utility.yul\":11346:11427   */\n      swap2\n      pop\n        /* \"#utility.yul\":11201:11438   */\n      pop\n        /* \"#utility.yul\":11523:11527   */\n      0x20\n        /* \"#utility.yul\":11516:11521   */\n      dup4\n        /* \"#utility.yul\":11512:11528   */\n      add\n        /* \"#utility.yul\":11506:11529   */\n      mload\n        /* \"#utility.yul\":11576:11579   */\n      dup5\n        /* \"#utility.yul\":11570:11574   */\n      dup3\n        /* \"#utility.yul\":11566:11580   */\n      sub\n        /* \"#utility.yul\":11559:11563   */\n      0x20\n        /* \"#utility.yul\":11554:11557   */\n      dup7\n        /* \"#utility.yul\":11550:11564   */\n      add\n        /* \"#utility.yul\":11543:11581   */\n      mstore\n        /* \"#utility.yul\":11602:11675   */\n      tag_412\n        /* \"#utility.yul\":11670:11674   */\n      dup3\n        /* \"#utility.yul\":11656:11668   */\n      dup3\n        /* \"#utility.yul\":11602:11675   */\n      tag_264\n      jump\t// in\n    tag_412:\n        /* \"#utility.yul\":11594:11675   */\n      swap2\n      pop\n        /* \"#utility.yul\":11448:11686   */\n      pop\n        /* \"#utility.yul\":11769:11773   */\n      0x40\n        /* \"#utility.yul\":11762:11767   */\n      dup4\n        /* \"#utility.yul\":11758:11774   */\n      add\n        /* \"#utility.yul\":11752:11775   */\n      mload\n        /* \"#utility.yul\":11788:11851   */\n      tag_413\n        /* \"#utility.yul\":11845:11849   */\n      0x40\n        /* \"#utility.yul\":11840:11843   */\n      dup7\n        /* \"#utility.yul\":11836:11850   */\n      add\n        /* \"#utility.yul\":11822:11834   */\n      dup3\n        /* \"#utility.yul\":11788:11851   */\n      tag_265\n      jump\t// in\n    tag_413:\n        /* \"#utility.yul\":11696:11861   */\n      pop\n        /* \"#utility.yul\":11878:11882   */\n      dup1\n        /* \"#utility.yul\":11871:11882   */\n      swap2\n      pop\n        /* \"#utility.yul\":11155:11888   */\n      pop\n        /* \"#utility.yul\":11039:11888   */\n      swap3\n      swap2\n      pop\n      pop\n      jump\t// out\n        /* \"#utility.yul\":11894:12154   */\n    tag_267:\n        /* \"#utility.yul\":12015:12025   */\n      0x00\n        /* \"#utility.yul\":12050:12148   */\n      tag_415\n        /* \"#utility.yul\":12144:12147   */\n      dup4\n        /* \"#utility.yul\":12136:12142   */\n      dup4\n        /* \"#utility.yul\":12050:12148   */\n      tag_266\n      jump\t// in\n    tag_415:\n        /* \"#utility.yul\":12036:12148   */\n      swap1\n      pop\n        /* \"#utility.yul\":11894:12154   */\n      swap3\n      swap2\n      pop\n      pop\n      jump\t// out\n        /* \"#utility.yul\":12160:12299   */\n    tag_268:\n        /* \"#utility.yul\":12256:12260   */\n      0x00\n        /* \"#utility.yul\":12288:12292   */\n      0x20\n        /* \"#utility.yul\":12283:12286   */\n      dup3\n        /* \"#utility.yul\":12279:12293   */\n      add\n        /* \"#utility.yul\":12271:12293   */\n      swap1\n      pop\n        /* \"#utility.yul\":12160:12299   */\n      swap2\n      swap1\n      pop\n      jump\t// out\n        /* \"#utility.yul\":12363:13482   */\n    tag_269:\n        /* \"#utility.yul\":12534:12537   */\n      0x00\n        /* \"#utility.yul\":12563:12643   */\n      tag_418\n        /* \"#utility.yul\":12637:12642   */\n      dup3\n        /* \"#utility.yul\":12563:12643   */\n      tag_260\n      jump\t// in\n    tag_418:\n        /* \"#utility.yul\":12659:12771   */\n      tag_419\n        /* \"#utility.yul\":12764:12770   */\n      dup2\n        /* \"#utility.yul\":12759:12762   */\n      dup6\n        /* \"#utility.yul\":12659:12771   */\n      tag_261\n      jump\t// in\n    tag_419:\n        /* \"#utility.yul\":12652:12771   */\n      swap4\n      pop\n        /* \"#utility.yul\":12797:12800   */\n      dup4\n        /* \"#utility.yul\":12842:12846   */\n      0x20\n        /* \"#utility.yul\":12834:12840   */\n      dup3\n        /* \"#utility.yul\":12830:12847   */\n      mul\n        /* \"#utility.yul\":12825:12828   */\n      dup6\n        /* \"#utility.yul\":12821:12848   */\n      add\n        /* \"#utility.yul\":12872:12954   */\n      tag_420\n        /* \"#utility.yul\":12948:12953   */\n      dup6\n        /* \"#utility.yul\":12872:12954   */\n      tag_262\n      jump\t// in\n    tag_420:\n        /* \"#utility.yul\":12977:12984   */\n      dup1\n        /* \"#utility.yul\":13008:13009   */\n      0x00\n        /* \"#utility.yul\":12993:13437   */\n    tag_421:\n        /* \"#utility.yul\":13018:13024   */\n      dup6\n        /* \"#utility.yul\":13015:13016   */\n      dup2\n        /* \"#utility.yul\":13012:13025   */\n      lt\n        /* \"#utility.yul\":12993:13437   */\n      iszero\n      tag_423\n      jumpi\n        /* \"#utility.yul\":13089:13098   */\n      dup5\n        /* \"#utility.yul\":13083:13087   */\n      dup5\n        /* \"#utility.yul\":13079:13099   */\n      sub\n        /* \"#utility.yul\":13074:13077   */\n      dup10\n        /* \"#utility.yul\":13067:13100   */\n      mstore\n        /* \"#utility.yul\":13140:13146   */\n      dup2\n        /* \"#utility.yul\":13134:13147   */\n      mload\n        /* \"#utility.yul\":13168:13284   */\n      tag_424\n        /* \"#utility.yul\":13279:13283   */\n      dup6\n        /* \"#utility.yul\":13264:13277   */\n      dup3\n        /* \"#utility.yul\":13168:13284   */\n      tag_267\n      jump\t// in\n    tag_424:\n        /* \"#utility.yul\":13160:13284   */\n      swap5\n      pop\n        /* \"#utility.yul\":13307:13393   */\n      tag_425\n        /* \"#utility.yul\":13386:13392   */\n      dup4\n        /* \"#utility.yul\":13307:13393   */\n      tag_268\n      jump\t// in\n    tag_425:\n        /* \"#utility.yul\":13297:13393   */\n      swap3\n      pop\n        /* \"#utility.yul\":13422:13426   */\n      0x20\n        /* \"#utility.yul\":13417:13420   */\n      dup11\n        /* \"#utility.yul\":13413:13427   */\n      add\n        /* \"#utility.yul\":13406:13427   */\n      swap10\n      pop\n        /* \"#utility.yul\":13053:13437   */\n      pop\n        /* \"#utility.yul\":13040:13041   */\n      0x01\n        /* \"#utility.yul\":13037:13038   */\n      dup2\n        /* \"#utility.yul\":13033:13042   */\n      add\n        /* \"#utility.yul\":13028:13042   */\n      swap1\n      pop\n        /* \"#utility.yul\":12993:13437   */\n      jump(tag_421)\n    tag_423:\n        /* \"#utility.yul\":12997:13011   */\n      pop\n        /* \"#utility.yul\":13453:13457   */\n      dup3\n        /* \"#utility.yul\":13446:13457   */\n      swap8\n      pop\n        /* \"#utility.yul\":13473:13476   */\n      dup8\n        /* \"#utility.yul\":13466:13476   */\n      swap6\n      pop\n        /* \"#utility.yul\":12539:13482   */\n      pop\n      pop\n      pop\n      pop\n      pop\n        /* \"#utility.yul\":12363:13482   */\n      swap3\n      swap2\n      pop\n      pop\n      jump\t// out\n        /* \"#utility.yul\":13488:13965   */\n    tag_71:\n        /* \"#utility.yul\":13683:13687   */\n      0x00\n        /* \"#utility.yul\":13721:13723   */\n      0x20\n        /* \"#utility.yul\":13710:13719   */\n      dup3\n        /* \"#utility.yul\":13706:13724   */\n      add\n        /* \"#utility.yul\":13698:13724   */\n      swap1\n      pop\n        /* \"#utility.yul\":13770:13779   */\n      dup2\n        /* \"#utility.yul\":13764:13768   */\n      dup2\n        /* \"#utility.yul\":13760:13780   */\n      sub\n        /* \"#utility.yul\":13756:13757   */\n      0x00\n        /* \"#utility.yul\":13745:13754   */\n      dup4\n        /* \"#utility.yul\":13741:13758   */\n      add\n        /* \"#utility.yul\":13734:13781   */\n      mstore\n        /* \"#utility.yul\":13798:13958   */\n      tag_427\n        /* \"#utility.yul\":13953:13957   */\n      dup2\n        /* \"#utility.yul\":13944:13950   */\n      dup5\n        /* \"#utility.yul\":13798:13958   */\n      tag_269\n      jump\t// in\n    tag_427:\n        /* \"#utility.yul\":13790:13958   */\n      swap1\n      pop\n        /* \"#utility.yul\":13488:13965   */\n      swap3\n      swap2\n      pop\n      pop\n      jump\t// out\n        /* \"#utility.yul\":13971:14093   */\n    tag_270:\n        /* \"#utility.yul\":14044:14068   */\n      tag_429\n        /* \"#utility.yul\":14062:14067   */\n      dup2\n        /* \"#utility.yul\":14044:14068   */\n      tag_253\n      jump\t// in\n    tag_429:\n        /* \"#utility.yul\":14037:14042   */\n      dup2\n        /* \"#utility.yul\":14034:14069   */\n      eq\n        /* \"#utility.yul\":14024:14087   */\n      tag_430\n      jumpi\n        /* \"#utility.yul\":14083:14084   */\n      0x00\n        /* \"#utility.yul\":14080:14081   */\n      dup1\n        /* \"#utility.yul\":14073:14085   */\n      revert\n        /* \"#utility.yul\":14024:14087   */\n    tag_430:\n        /* \"#utility.yul\":13971:14093   */\n      pop\n      jump\t// out\n        /* \"#utility.yul\":14099:14238   */\n    tag_271:\n        /* \"#utility.yul\":14145:14150   */\n      0x00\n        /* \"#utility.yul\":14183:14189   */\n      dup2\n        /* \"#utility.yul\":14170:14190   */\n      calldataload\n        /* \"#utility.yul\":14161:14190   */\n      swap1\n      pop\n        /* \"#utility.yul\":14199:14232   */\n      tag_432\n        /* \"#utility.yul\":14226:14231   */\n      dup2\n        /* \"#utility.yul\":14199:14232   */\n      tag_270\n      jump\t// in\n    tag_432:\n        /* \"#utility.yul\":14099:14238   */\n      swap3\n      swap2\n      pop\n      pop\n      jump\t// out\n        /* \"#utility.yul\":14244:14573   */\n    tag_74:\n        /* \"#utility.yul\":14303:14309   */\n      0x00\n        /* \"#utility.yul\":14352:14354   */\n      0x20\n        /* \"#utility.yul\":14340:14349   */\n      dup3\n        /* \"#utility.yul\":14331:14338   */\n      dup5\n        /* \"#utility.yul\":14327:14350   */\n      sub\n        /* \"#utility.yul\":14323:14355   */\n      slt\n        /* \"#utility.yul\":14320:14439   */\n      iszero\n      tag_434\n      jumpi\n        /* \"#utility.yul\":14358:14437   */\n      tag_435\n      tag_232\n      jump\t// in\n    tag_435:\n        /* \"#utility.yul\":14320:14439   */\n    tag_434:\n        /* \"#utility.yul\":14478:14479   */\n      0x00\n        /* \"#utility.yul\":14503:14556   */\n      tag_436\n        /* \"#utility.yul\":14548:14555   */\n      dup5\n        /* \"#utility.yul\":14539:14545   */\n      dup3\n        /* \"#utility.yul\":14528:14537   */\n      dup6\n        /* \"#utility.yul\":14524:14546   */\n      add\n        /* \"#utility.yul\":14503:14556   */\n      tag_271\n      jump\t// in\n    tag_436:\n        /* \"#utility.yul\":14493:14556   */\n      swap2\n      pop\n        /* \"#utility.yul\":14449:14566   */\n      pop\n        /* \"#utility.yul\":14244:14573   */\n      swap3\n      swap2\n      pop\n      pop\n      jump\t// out\n        /* \"#utility.yul\":14579:14759   */\n    tag_272:\n        /* \"#utility.yul\":14627:14704   */\n      0x4e487b7100000000000000000000000000000000000000000000000000000000\n        /* \"#utility.yul\":14624:14625   */\n      0x00\n        /* \"#utility.yul\":14617:14705   */\n      mstore\n        /* \"#utility.yul\":14724:14728   */\n      0x11\n        /* \"#utility.yul\":14721:14722   */\n      0x04\n        /* \"#utility.yul\":14714:14729   */\n      mstore\n        /* \"#utility.yul\":14748:14752   */\n      0x24\n        /* \"#utility.yul\":14745:14746   */\n      0x00\n        /* \"#utility.yul\":14738:14753   */\n      revert\n        /* \"#utility.yul\":14765:14956   */\n    tag_79:\n        /* \"#utility.yul\":14805:14808   */\n      0x00\n        /* \"#utility.yul\":14824:14844   */\n      tag_439\n        /* \"#utility.yul\":14842:14843   */\n      dup3\n        /* \"#utility.yul\":14824:14844   */\n      tag_234\n      jump\t// in\n    tag_439:\n        /* \"#utility.yul\":14819:14844   */\n      swap2\n      pop\n        /* \"#utility.yul\":14858:14878   */\n      tag_440\n        /* \"#utility.yul\":14876:14877   */\n      dup4\n        /* \"#utility.yul\":14858:14878   */\n      tag_234\n      jump\t// in\n    tag_440:\n        /* \"#utility.yul\":14853:14878   */\n      swap3\n      pop\n        /* \"#utility.yul\":14901:14902   */\n      dup3\n        /* \"#utility.yul\":14898:14899   */\n      dup3\n        /* \"#utility.yul\":14894:14903   */\n      add\n        /* \"#utility.yul\":14887:14903   */\n      swap1\n      pop\n        /* \"#utility.yul\":14922:14925   */\n      dup1\n        /* \"#utility.yul\":14919:14920   */\n      dup3\n        /* \"#utility.yul\":14916:14926   */\n      gt\n        /* \"#utility.yul\":14913:14949   */\n      iszero\n      tag_441\n      jumpi\n        /* \"#utility.yul\":14929:14947   */\n      tag_442\n      tag_272\n      jump\t// in\n    tag_442:\n        /* \"#utility.yul\":14913:14949   */\n    tag_441:\n        /* \"#utility.yul\":14765:14956   */\n      swap3\n      swap2\n      pop\n      pop\n      jump\t// out\n        /* \"#utility.yul\":14962:15142   */\n    tag_84:\n        /* \"#utility.yul\":15010:15087   */\n      0x4e487b7100000000000000000000000000000000000000000000000000000000\n        /* \"#utility.yul\":15007:15008   */\n      0x00\n        /* \"#utility.yul\":15000:15088   */\n      mstore\n        /* \"#utility.yul\":15107:15111   */\n      0x32\n        /* \"#utility.yul\":15104:15105   */\n      0x04\n        /* \"#utility.yul\":15097:15112   */\n      mstore\n        /* \"#utility.yul\":15131:15135   */\n      0x24\n        /* \"#utility.yul\":15128:15129   */\n      0x00\n        /* \"#utility.yul\":15121:15136   */\n      revert\n        /* \"#utility.yul\":15148:15328   */\n    tag_273:\n        /* \"#utility.yul\":15196:15273   */\n      0x4e487b7100000000000000000000000000000000000000000000000000000000\n        /* \"#utility.yul\":15193:15194   */\n      0x00\n        /* \"#utility.yul\":15186:15274   */\n      mstore\n        /* \"#utility.yul\":15293:15297   */\n      0x22\n        /* \"#utility.yul\":15290:15291   */\n      0x04\n        /* \"#utility.yul\":15283:15298   */\n      mstore\n        /* \"#utility.yul\":15317:15321   */\n      0x24\n        /* \"#utility.yul\":15314:15315   */\n      0x00\n        /* \"#utility.yul\":15307:15322   */\n      revert\n        /* \"#utility.yul\":15334:15654   */\n    tag_97:\n        /* \"#utility.yul\":15378:15384   */\n      0x00\n        /* \"#utility.yul\":15415:15416   */\n      0x02\n        /* \"#utility.yul\":15409:15413   */\n      dup3\n        /* \"#utility.yul\":15405:15417   */\n      div\n        /* \"#utility.yul\":15395:15417   */\n      swap1\n      pop\n        /* \"#utility.yul\":15462:15463   */\n      0x01\n        /* \"#utility.yul\":15456:15460   */\n      dup3\n        /* \"#utility.yul\":15452:15464   */\n      and\n        /* \"#utility.yul\":15483:15501   */\n      dup1\n        /* \"#utility.yul\":15473:15554   */\n      tag_446\n      jumpi\n        /* \"#utility.yul\":15539:15543   */\n      0x7f\n        /* \"#utility.yul\":15531:15537   */\n      dup3\n        /* \"#utility.yul\":15527:15544   */\n      and\n        /* \"#utility.yul\":15517:15544   */\n      swap2\n      pop\n        /* \"#utility.yul\":15473:15554   */\n    tag_446:\n        /* \"#utility.yul\":15601:15603   */\n      0x20\n        /* \"#utility.yul\":15593:15599   */\n      dup3\n        /* \"#utility.yul\":15590:15604   */\n      lt\n        /* \"#utility.yul\":15570:15588   */\n      dup2\n        /* \"#utility.yul\":15567:15605   */\n      sub\n        /* \"#utility.yul\":15564:15648   */\n      tag_447\n      jumpi\n        /* \"#utility.yul\":15620:15638   */\n      tag_448\n      tag_273\n      jump\t// in\n    tag_448:\n        /* \"#utility.yul\":15564:15648   */\n    tag_447:\n        /* \"#utility.yul\":15385:15654   */\n      pop\n        /* \"#utility.yul\":15334:15654   */\n      swap2\n      swap1\n      pop\n      jump\t// out\n        /* \"#utility.yul\":15660:15801   */\n    tag_274:\n        /* \"#utility.yul\":15709:15713   */\n      0x00\n        /* \"#utility.yul\":15732:15735   */\n      dup2\n        /* \"#utility.yul\":15724:15735   */\n      swap1\n      pop\n        /* \"#utility.yul\":15755:15758   */\n      dup2\n        /* \"#utility.yul\":15752:15753   */\n      0x00\n        /* \"#utility.yul\":15745:15759   */\n      mstore\n        /* \"#utility.yul\":15789:15793   */\n      0x20\n        /* \"#utility.yul\":15786:15787   */\n      0x00\n        /* \"#utility.yul\":15776:15794   */\n      keccak256\n        /* \"#utility.yul\":15768:15794   */\n      swap1\n      pop\n        /* \"#utility.yul\":15660:15801   */\n      swap2\n      swap1\n      pop\n      jump\t// out\n        /* \"#utility.yul\":15831:16662   */\n    tag_275:\n        /* \"#utility.yul\":15916:15919   */\n      0x00\n        /* \"#utility.yul\":15953:15958   */\n      dup2\n        /* \"#utility.yul\":15947:15959   */\n      sload\n        /* \"#utility.yul\":15982:16018   */\n      tag_451\n        /* \"#utility.yul\":16008:16017   */\n      dup2\n        /* \"#utility.yul\":15982:16018   */\n      tag_97\n      jump\t// in\n    tag_451:\n        /* \"#utility.yul\":16034:16105   */\n      tag_452\n        /* \"#utility.yul\":16098:16104   */\n      dup2\n        /* \"#utility.yul\":16093:16096   */\n      dup7\n        /* \"#utility.yul\":16034:16105   */\n      tag_238\n      jump\t// in\n    tag_452:\n        /* \"#utility.yul\":16027:16105   */\n      swap5\n      pop\n        /* \"#utility.yul\":16136:16137   */\n      0x01\n        /* \"#utility.yul\":16125:16134   */\n      dup3\n        /* \"#utility.yul\":16121:16138   */\n      and\n        /* \"#utility.yul\":16152:16153   */\n      0x00\n        /* \"#utility.yul\":16147:16311   */\n      dup2\n      eq\n      tag_454\n      jumpi\n        /* \"#utility.yul\":16325:16326   */\n      0x01\n        /* \"#utility.yul\":16320:16656   */\n      dup2\n      eq\n      tag_455\n      jumpi\n        /* \"#utility.yul\":16114:16656   */\n      jump(tag_453)\n        /* \"#utility.yul\":16147:16311   */\n    tag_454:\n        /* \"#utility.yul\":16231:16235   */\n      0xff\n        /* \"#utility.yul\":16227:16236   */\n      not\n        /* \"#utility.yul\":16216:16225   */\n      dup4\n        /* \"#utility.yul\":16212:16237   */\n      and\n        /* \"#utility.yul\":16207:16210   */\n      dup7\n        /* \"#utility.yul\":16200:16238   */\n      mstore\n        /* \"#utility.yul\":16291:16297   */\n      dup2\n        /* \"#utility.yul\":16284:16298   */\n      iszero\n        /* \"#utility.yul\":16277:16299   */\n      iszero\n        /* \"#utility.yul\":16271:16275   */\n      0x20\n        /* \"#utility.yul\":16267:16300   */\n      mul\n        /* \"#utility.yul\":16262:16265   */\n      dup7\n        /* \"#utility.yul\":16258:16301   */\n      add\n        /* \"#utility.yul\":16251:16301   */\n      swap4\n      pop\n        /* \"#utility.yul\":16147:16311   */\n      jump(tag_453)\n        /* \"#utility.yul\":16320:16656   */\n    tag_455:\n        /* \"#utility.yul\":16387:16425   */\n      tag_456\n        /* \"#utility.yul\":16419:16424   */\n      dup6\n        /* \"#utility.yul\":16387:16425   */\n      tag_274\n      jump\t// in\n    tag_456:\n        /* \"#utility.yul\":16447:16448   */\n      0x00\n        /* \"#utility.yul\":16461:16615   */\n    tag_457:\n        /* \"#utility.yul\":16475:16481   */\n      dup4\n        /* \"#utility.yul\":16472:16473   */\n      dup2\n        /* \"#utility.yul\":16469:16482   */\n      lt\n        /* \"#utility.yul\":16461:16615   */\n      iszero\n      tag_459\n      jumpi\n        /* \"#utility.yul\":16549:16556   */\n      dup2\n        /* \"#utility.yul\":16543:16557   */\n      sload\n        /* \"#utility.yul\":16539:16540   */\n      dup2\n        /* \"#utility.yul\":16534:16537   */\n      dup10\n        /* \"#utility.yul\":16530:16541   */\n      add\n        /* \"#utility.yul\":16523:16558   */\n      mstore\n        /* \"#utility.yul\":16599:16600   */\n      0x01\n        /* \"#utility.yul\":16590:16597   */\n      dup3\n        /* \"#utility.yul\":16586:16601   */\n      add\n        /* \"#utility.yul\":16575:16601   */\n      swap2\n      pop\n        /* \"#utility.yul\":16497:16501   */\n      0x20\n        /* \"#utility.yul\":16494:16495   */\n      dup2\n        /* \"#utility.yul\":16490:16502   */\n      add\n        /* \"#utility.yul\":16485:16502   */\n      swap1\n      pop\n        /* \"#utility.yul\":16461:16615   */\n      jump(tag_457)\n    tag_459:\n        /* \"#utility.yul\":16644:16645   */\n      dup1\n        /* \"#utility.yul\":16639:16642   */\n      dup9\n        /* \"#utility.yul\":16635:16646   */\n      add\n        /* \"#utility.yul\":16628:16646   */\n      swap6\n      pop\n        /* \"#utility.yul\":16327:16656   */\n      pop\n      pop\n        /* \"#utility.yul\":16114:16656   */\n    tag_453:\n      pop\n        /* \"#utility.yul\":15920:16662   */\n      pop\n      pop\n        /* \"#utility.yul\":15831:16662   */\n      swap3\n      swap2\n      pop\n      pop\n      jump\t// out\n        /* \"#utility.yul\":16668:17085   */\n    tag_95:\n        /* \"#utility.yul\":16806:16810   */\n      0x00\n        /* \"#utility.yul\":16844:16846   */\n      0x40\n        /* \"#utility.yul\":16833:16842   */\n      dup3\n        /* \"#utility.yul\":16829:16847   */\n      add\n        /* \"#utility.yul\":16821:16847   */\n      swap1\n      pop\n        /* \"#utility.yul\":16857:16928   */\n      tag_461\n        /* \"#utility.yul\":16925:16926   */\n      0x00\n        /* \"#utility.yul\":16914:16923   */\n      dup4\n        /* \"#utility.yul\":16910:16927   */\n      add\n        /* \"#utility.yul\":16901:16907   */\n      dup6\n        /* \"#utility.yul\":16857:16928   */\n      tag_242\n      jump\t// in\n    tag_461:\n        /* \"#utility.yul\":16975:16984   */\n      dup2\n        /* \"#utility.yul\":16969:16973   */\n      dup2\n        /* \"#utility.yul\":16965:16985   */\n      sub\n        /* \"#utility.yul\":16960:16962   */\n      0x20\n        /* \"#utility.yul\":16949:16958   */\n      dup4\n        /* \"#utility.yul\":16945:16963   */\n      add\n        /* \"#utility.yul\":16938:16986   */\n      mstore\n        /* \"#utility.yul\":17003:17078   */\n      tag_462\n        /* \"#utility.yul\":17073:17077   */\n      dup2\n        /* \"#utility.yul\":17064:17070   */\n      dup5\n        /* \"#utility.yul\":17003:17078   */\n      tag_275\n      jump\t// in\n    tag_462:\n        /* \"#utility.yul\":16995:17078   */\n      swap1\n      pop\n        /* \"#utility.yul\":16668:17085   */\n      swap4\n      swap3\n      pop\n      pop\n      pop\n      jump\t// out\n        /* \"#utility.yul\":17091:17285   */\n    tag_112:\n        /* \"#utility.yul\":17131:17135   */\n      0x00\n        /* \"#utility.yul\":17151:17171   */\n      tag_464\n        /* \"#utility.yul\":17169:17170   */\n      dup3\n        /* \"#utility.yul\":17151:17171   */\n      tag_234\n      jump\t// in\n    tag_464:\n        /* \"#utility.yul\":17146:17171   */\n      swap2\n      pop\n        /* \"#utility.yul\":17185:17205   */\n      tag_465\n        /* \"#utility.yul\":17203:17204   */\n      dup4\n        /* \"#utility.yul\":17185:17205   */\n      tag_234\n      jump\t// in\n    tag_465:\n        /* \"#utility.yul\":17180:17205   */\n      swap3\n      pop\n        /* \"#utility.yul\":17229:17230   */\n      dup3\n        /* \"#utility.yul\":17226:17227   */\n      dup3\n        /* \"#utility.yul\":17222:17231   */\n      sub\n        /* \"#utility.yul\":17214:17231   */\n      swap1\n      pop\n        /* \"#utility.yul\":17253:17254   */\n      dup2\n        /* \"#utility.yul\":17247:17251   */\n      dup2\n        /* \"#utility.yul\":17244:17255   */\n      gt\n        /* \"#utility.yul\":17241:17278   */\n      iszero\n      tag_466\n      jumpi\n        /* \"#utility.yul\":17258:17276   */\n      tag_467\n      tag_272\n      jump\t// in\n    tag_467:\n        /* \"#utility.yul\":17241:17278   */\n    tag_466:\n        /* \"#utility.yul\":17091:17285   */\n      swap3\n      swap2\n      pop\n      pop\n      jump\t// out\n        /* \"#utility.yul\":17291:17439   */\n    tag_276:\n        /* \"#utility.yul\":17393:17404   */\n      0x00\n        /* \"#utility.yul\":17430:17433   */\n      dup2\n        /* \"#utility.yul\":17415:17433   */\n      swap1\n      pop\n        /* \"#utility.yul\":17291:17439   */\n      swap3\n      swap2\n      pop\n      pop\n      jump\t// out\n        /* \"#utility.yul\":17445:17835   */\n    tag_277:\n        /* \"#utility.yul\":17551:17554   */\n      0x00\n        /* \"#utility.yul\":17579:17618   */\n      tag_470\n        /* \"#utility.yul\":17612:17617   */\n      dup3\n        /* \"#utility.yul\":17579:17618   */\n      tag_237\n      jump\t// in\n    tag_470:\n        /* \"#utility.yul\":17634:17723   */\n      tag_471\n        /* \"#utility.yul\":17716:17722   */\n      dup2\n        /* \"#utility.yul\":17711:17714   */\n      dup6\n        /* \"#utility.yul\":17634:17723   */\n      tag_276\n      jump\t// in\n    tag_471:\n        /* \"#utility.yul\":17627:17723   */\n      swap4\n      pop\n        /* \"#utility.yul\":17732:17797   */\n      tag_472\n        /* \"#utility.yul\":17790:17796   */\n      dup2\n        /* \"#utility.yul\":17785:17788   */\n      dup6\n        /* \"#utility.yul\":17778:17782   */\n      0x20\n        /* \"#utility.yul\":17771:17776   */\n      dup7\n        /* \"#utility.yul\":17767:17783   */\n      add\n        /* \"#utility.yul\":17732:17797   */\n      tag_239\n      jump\t// in\n    tag_472:\n        /* \"#utility.yul\":17822:17828   */\n      dup1\n        /* \"#utility.yul\":17817:17820   */\n      dup5\n        /* \"#utility.yul\":17813:17829   */\n      add\n        /* \"#utility.yul\":17806:17829   */\n      swap2\n      pop\n        /* \"#utility.yul\":17555:17835   */\n      pop\n        /* \"#utility.yul\":17445:17835   */\n      swap3\n      swap2\n      pop\n      pop\n      jump\t// out\n        /* \"#utility.yul\":17841:18116   */\n    tag_116:\n        /* \"#utility.yul\":17973:17976   */\n      0x00\n        /* \"#utility.yul\":17995:18090   */\n      tag_474\n        /* \"#utility.yul\":18086:18089   */\n      dup3\n        /* \"#utility.yul\":18077:18083   */\n      dup5\n        /* \"#utility.yul\":17995:18090   */\n      tag_277\n      jump\t// in\n    tag_474:\n        /* \"#utility.yul\":17988:18090   */\n      swap2\n      pop\n        /* \"#utility.yul\":18107:18110   */\n      dup2\n        /* \"#utility.yul\":18100:18110   */\n      swap1\n      pop\n        /* \"#utility.yul\":17841:18116   */\n      swap3\n      swap2\n      pop\n      pop\n      jump\t// out\n        /* \"#utility.yul\":18122:18215   */\n    tag_278:\n        /* \"#utility.yul\":18159:18165   */\n      0x00\n        /* \"#utility.yul\":18206:18208   */\n      0x20\n        /* \"#utility.yul\":18201:18203   */\n      0x1f\n        /* \"#utility.yul\":18194:18199   */\n      dup4\n        /* \"#utility.yul\":18190:18204   */\n      add\n        /* \"#utility.yul\":18186:18209   */\n      div\n        /* \"#utility.yul\":18176:18209   */\n      swap1\n      pop\n        /* \"#utility.yul\":18122:18215   */\n      swap2\n      swap1\n      pop\n      jump\t// out\n        /* \"#utility.yul\":18221:18328   */\n    tag_279:\n        /* \"#utility.yul\":18265:18273   */\n      0x00\n        /* \"#utility.yul\":18315:18320   */\n      dup3\n        /* \"#utility.yul\":18309:18313   */\n      dup3\n        /* \"#utility.yul\":18305:18321   */\n      shl\n        /* \"#utility.yul\":18284:18321   */\n      swap1\n      pop\n        /* \"#utility.yul\":18221:18328   */\n      swap3\n      swap2\n      pop\n      pop\n      jump\t// out\n        /* \"#utility.yul\":18334:18727   */\n    tag_280:\n        /* \"#utility.yul\":18403:18409   */\n      0x00\n        /* \"#utility.yul\":18453:18454   */\n      0x08\n        /* \"#utility.yul\":18441:18451   */\n      dup4\n        /* \"#utility.yul\":18437:18455   */\n      mul\n        /* \"#utility.yul\":18476:18573   */\n      tag_478\n        /* \"#utility.yul\":18506:18572   */\n      0xffffffffffffffffffffffffffffffffffffffffffffffffffffffffffffffff\n        /* \"#utility.yul\":18495:18504   */\n      dup3\n        /* \"#utility.yul\":18476:18573   */\n      tag_279\n      jump\t// in\n    tag_478:\n        /* \"#utility.yul\":18594:18633   */\n      tag_479\n        /* \"#utility.yul\":18624:18632   */\n      dup7\n        /* \"#utility.yul\":18613:18622   */\n      dup4\n        /* \"#utility.yul\":18594:18633   */\n      tag_279\n      jump\t// in\n    tag_479:\n        /* \"#utility.yul\":18582:18633   */\n      swap6\n      pop\n        /* \"#utility.yul\":18666:18670   */\n      dup1\n        /* \"#utility.yul\":18662:18671   */\n      not\n        /* \"#utility.yul\":18655:18660   */\n      dup5\n        /* \"#utility.yul\":18651:18672   */\n      and\n        /* \"#utility.yul\":18642:18672   */\n      swap4\n      pop\n        /* \"#utility.yul\":18715:18719   */\n      dup1\n        /* \"#utility.yul\":18705:18713   */\n      dup7\n        /* \"#utility.yul\":18701:18720   */\n      and\n        /* \"#utility.yul\":18694:18699   */\n      dup5\n        /* \"#utility.yul\":18691:18721   */\n      or\n        /* \"#utility.yul\":18681:18721   */\n      swap3\n      pop\n        /* \"#utility.yul\":18410:18727   */\n      pop\n      pop\n        /* \"#utility.yul\":18334:18727   */\n      swap4\n      swap3\n      pop\n      pop\n      pop\n      jump\t// out\n        /* \"#utility.yul\":18733:18793   */\n    tag_281:\n        /* \"#utility.yul\":18761:18764   */\n      0x00\n        /* \"#utility.yul\":18782:18787   */\n      dup2\n        /* \"#utility.yul\":18775:18787   */\n      swap1\n      pop\n        /* \"#utility.yul\":18733:18793   */\n      swap2\n      swap1\n      pop\n      jump\t// out\n        /* \"#utility.yul\":18799:18941   */\n    tag_282:\n        /* \"#utility.yul\":18849:18858   */\n      0x00\n        /* \"#utility.yul\":18882:18935   */\n      tag_482\n        /* \"#utility.yul\":18900:18934   */\n      tag_483\n        /* \"#utility.yul\":18909:18933   */\n      tag_484\n        /* \"#utility.yul\":18927:18932   */\n      dup5\n        /* \"#utility.yul\":18909:18933   */\n      tag_234\n      jump\t// in\n    tag_484:\n        /* \"#utility.yul\":18900:18934   */\n      tag_281\n      jump\t// in\n    tag_483:\n        /* \"#utility.yul\":18882:18935   */\n      tag_234\n      jump\t// in\n    tag_482:\n        /* \"#utility.yul\":18869:18935   */\n      swap1\n      pop\n        /* \"#utility.yul\":18799:18941   */\n      swap2\n      swap1\n      pop\n      jump\t// out\n        /* \"#utility.yul\":18947:19022   */\n    tag_283:\n        /* \"#utility.yul\":18990:18993   */\n      0x00\n        /* \"#utility.yul\":19011:19016   */\n      dup2\n        /* \"#utility.yul\":19004:19016   */\n      swap1\n      pop\n        /* \"#utility.yul\":18947:19022   */\n      swap2\n      swap1\n      pop\n      jump\t// out\n        /* \"#utility.yul\":19028:19297   */\n    tag_284:\n        /* \"#utility.yul\":19138:19177   */\n      tag_487\n        /* \"#utility.yul\":19169:19176   */\n      dup4\n        /* \"#utility.yul\":19138:19177   */\n      tag_282\n      jump\t// in\n    tag_487:\n        /* \"#utility.yul\":19199:19290   */\n      tag_488\n        /* \"#utility.yul\":19248:19289   */\n      tag_489\n        /* \"#utility.yul\":19272:19288   */\n      dup3\n        /* \"#utility.yul\":19248:19289   */\n      tag_283\n      jump\t// in\n    tag_489:\n        /* \"#utility.yul\":19240:19246   */\n      dup5\n        /* \"#utility.yul\":19233:19237   */\n      dup5\n        /* \"#utility.yul\":19227:19238   */\n      sload\n        /* \"#utility.yul\":19199:19290   */\n      tag_280\n      jump\t// in\n    tag_488:\n        /* \"#utility.yul\":19193:19197   */\n      dup3\n        /* \"#utility.yul\":19186:19291   */\n      sstore\n        /* \"#utility.yul\":19104:19297   */\n      pop\n        /* \"#utility.yul\":19028:19297   */\n      pop\n      pop\n      pop\n      jump\t// out\n        /* \"#utility.yul\":19303:19376   */\n    tag_285:\n        /* \"#utility.yul\":19348:19351   */\n      0x00\n        /* \"#utility.yul\":19303:19376   */\n      swap1\n      jump\t// out\n        /* \"#utility.yul\":19382:19571   */\n    tag_286:\n        /* \"#utility.yul\":19459:19491   */\n      tag_492\n      tag_285\n      jump\t// in\n    tag_492:\n        /* \"#utility.yul\":19500:19565   */\n      tag_493\n        /* \"#utility.yul\":19558:19564   */\n      dup2\n        /* \"#utility.yul\":19550:19556   */\n      dup5\n        /* \"#utility.yul\":19544:19548   */\n      dup5\n        /* \"#utility.yul\":19500:19565   */\n      tag_284\n      jump\t// in\n    tag_493:\n        /* \"#utility.yul\":19435:19571   */\n      pop\n        /* \"#utility.yul\":19382:19571   */\n      pop\n      pop\n      jump\t// out\n        /* \"#utility.yul\":19577:19763   */\n    tag_287:\n        /* \"#utility.yul\":19637:19757   */\n    tag_495:\n        /* \"#utility.yul\":19654:19657   */\n      dup2\n        /* \"#utility.yul\":19647:19652   */\n      dup2\n        /* \"#utility.yul\":19644:19658   */\n      lt\n        /* \"#utility.yul\":19637:19757   */\n      iszero\n      tag_497\n      jumpi\n        /* \"#utility.yul\":19708:19747   */\n      tag_498\n        /* \"#utility.yul\":19745:19746   */\n      0x00\n        /* \"#utility.yul\":19738:19743   */\n      dup3\n        /* \"#utility.yul\":19708:19747   */\n      tag_286\n      jump\t// in\n    tag_498:\n        /* \"#utility.yul\":19681:19682   */\n      0x01\n        /* \"#utility.yul\":19674:19679   */\n      dup2\n        /* \"#utility.yul\":19670:19683   */\n      add\n        /* \"#utility.yul\":19661:19683   */\n      swap1\n      pop\n        /* \"#utility.yul\":19637:19757   */\n      jump(tag_495)\n    tag_497:\n        /* \"#utility.yul\":19577:19763   */\n      pop\n      pop\n      jump\t// out\n        /* \"#utility.yul\":19769:20312   */\n    tag_288:\n        /* \"#utility.yul\":19870:19872   */\n      0x1f\n        /* \"#utility.yul\":19865:19868   */\n      dup3\n        /* \"#utility.yul\":19862:19873   */\n      gt\n        /* \"#utility.yul\":19859:20305   */\n      iszero\n      tag_500\n      jumpi\n        /* \"#utility.yul\":19904:19942   */\n      tag_501\n        /* \"#utility.yul\":19936:19941   */\n      dup2\n        /* \"#utility.yul\":19904:19942   */\n      tag_274\n      jump\t// in\n    tag_501:\n        /* \"#utility.yul\":19988:20017   */\n      tag_502\n        /* \"#utility.yul\":20006:20016   */\n      dup5\n        /* \"#utility.yul\":19988:20017   */\n      tag_278\n      jump\t// in\n    tag_502:\n        /* \"#utility.yul\":19978:19986   */\n      dup2\n        /* \"#utility.yul\":19974:20018   */\n      add\n        /* \"#utility.yul\":20171:20173   */\n      0x20\n        /* \"#utility.yul\":20159:20169   */\n      dup6\n        /* \"#utility.yul\":20156:20174   */\n      lt\n        /* \"#utility.yul\":20153:20202   */\n      iszero\n      tag_503\n      jumpi\n        /* \"#utility.yul\":20192:20200   */\n      dup2\n        /* \"#utility.yul\":20177:20200   */\n      swap1\n      pop\n        /* \"#utility.yul\":20153:20202   */\n    tag_503:\n        /* \"#utility.yul\":20215:20295   */\n      tag_504\n        /* \"#utility.yul\":20271:20293   */\n      tag_505\n        /* \"#utility.yul\":20289:20292   */\n      dup6\n        /* \"#utility.yul\":20271:20293   */\n      tag_278\n      jump\t// in\n    tag_505:\n        /* \"#utility.yul\":20261:20269   */\n      dup4\n        /* \"#utility.yul\":20257:20294   */\n      add\n        /* \"#utility.yul\":20244:20255   */\n      dup3\n        /* \"#utility.yul\":20215:20295   */\n      tag_287\n      jump\t// in\n    tag_504:\n        /* \"#utility.yul\":19874:20305   */\n      pop\n      pop\n        /* \"#utility.yul\":19859:20305   */\n    tag_500:\n        /* \"#utility.yul\":19769:20312   */\n      pop\n      pop\n      pop\n      jump\t// out\n        /* \"#utility.yul\":20318:20435   */\n    tag_289:\n        /* \"#utility.yul\":20372:20380   */\n      0x00\n        /* \"#utility.yul\":20422:20427   */\n      dup3\n        /* \"#utility.yul\":20416:20420   */\n      dup3\n        /* \"#utility.yul\":20412:20428   */\n      shr\n        /* \"#utility.yul\":20391:20428   */\n      swap1\n      pop\n        /* \"#utility.yul\":20318:20435   */\n      swap3\n      swap2\n      pop\n      pop\n      jump\t// out\n        /* \"#utility.yul\":20441:20610   */\n    tag_290:\n        /* \"#utility.yul\":20485:20491   */\n      0x00\n        /* \"#utility.yul\":20518:20569   */\n      tag_508\n        /* \"#utility.yul\":20566:20567   */\n      0x00\n        /* \"#utility.yul\":20562:20568   */\n      not\n        /* \"#utility.yul\":20554:20559   */\n      dup5\n        /* \"#utility.yul\":20551:20552   */\n      0x08\n        /* \"#utility.yul\":20547:20560   */\n      mul\n        /* \"#utility.yul\":20518:20569   */\n      tag_289\n      jump\t// in\n    tag_508:\n        /* \"#utility.yul\":20514:20570   */\n      not\n        /* \"#utility.yul\":20599:20603   */\n      dup1\n        /* \"#utility.yul\":20593:20597   */\n      dup4\n        /* \"#utility.yul\":20589:20604   */\n      and\n        /* \"#utility.yul\":20579:20604   */\n      swap2\n      pop\n        /* \"#utility.yul\":20492:20610   */\n      pop\n        /* \"#utility.yul\":20441:20610   */\n      swap3\n      swap2\n      pop\n      pop\n      jump\t// out\n        /* \"#utility.yul\":20615:20910   */\n    tag_291:\n        /* \"#utility.yul\":20691:20695   */\n      0x00\n        /* \"#utility.yul\":20837:20866   */\n      tag_510\n        /* \"#utility.yul\":20862:20865   */\n      dup4\n        /* \"#utility.yul\":20856:20860   */\n      dup4\n        /* \"#utility.yul\":20837:20866   */\n      tag_290\n      jump\t// in\n    tag_510:\n        /* \"#utility.yul\":20829:20866   */\n      swap2\n      pop\n        /* \"#utility.yul\":20899:20902   */\n      dup3\n        /* \"#utility.yul\":20896:20897   */\n      0x02\n        /* \"#utility.yul\":20892:20903   */\n      mul\n        /* \"#utility.yul\":20886:20890   */\n      dup3\n        /* \"#utility.yul\":20883:20904   */\n      or\n        /* \"#utility.yul\":20875:20904   */\n      swap1\n      pop\n        /* \"#utility.yul\":20615:20910   */\n      swap3\n      swap2\n      pop\n      pop\n      jump\t// out\n        /* \"#utility.yul\":20915:22310   */\n    tag_156:\n        /* \"#utility.yul\":21032:21069   */\n      tag_512\n        /* \"#utility.yul\":21065:21068   */\n      dup3\n        /* \"#utility.yul\":21032:21069   */\n      tag_237\n      jump\t// in\n    tag_512:\n        /* \"#utility.yul\":21134:21152   */\n      0xffffffffffffffff\n        /* \"#utility.yul\":21126:21132   */\n      dup2\n        /* \"#utility.yul\":21123:21153   */\n      gt\n        /* \"#utility.yul\":21120:21176   */\n      iszero\n      tag_513\n      jumpi\n        /* \"#utility.yul\":21156:21174   */\n      tag_514\n      tag_245\n      jump\t// in\n    tag_514:\n        /* \"#utility.yul\":21120:21176   */\n    tag_513:\n        /* \"#utility.yul\":21200:21238   */\n      tag_515\n        /* \"#utility.yul\":21232:21236   */\n      dup3\n        /* \"#utility.yul\":21226:21237   */\n      sload\n        /* \"#utility.yul\":21200:21238   */\n      tag_97\n      jump\t// in\n    tag_515:\n        /* \"#utility.yul\":21285:21352   */\n      tag_516\n        /* \"#utility.yul\":21345:21351   */\n      dup3\n        /* \"#utility.yul\":21337:21343   */\n      dup3\n        /* \"#utility.yul\":21331:21335   */\n      dup6\n        /* \"#utility.yul\":21285:21352   */\n      tag_288\n      jump\t// in\n    tag_516:\n        /* \"#utility.yul\":21379:21380   */\n      0x00\n        /* \"#utility.yul\":21403:21407   */\n      0x20\n        /* \"#utility.yul\":21390:21407   */\n      swap1\n      pop\n        /* \"#utility.yul\":21435:21437   */\n      0x1f\n        /* \"#utility.yul\":21427:21433   */\n      dup4\n        /* \"#utility.yul\":21424:21438   */\n      gt\n        /* \"#utility.yul\":21452:21453   */\n      0x01\n        /* \"#utility.yul\":21447:22065   */\n      dup2\n      eq\n      tag_518\n      jumpi\n        /* \"#utility.yul\":22109:22110   */\n      0x00\n        /* \"#utility.yul\":22126:22132   */\n      dup5\n        /* \"#utility.yul\":22123:22200   */\n      iszero\n      tag_519\n      jumpi\n        /* \"#utility.yul\":22175:22184   */\n      dup3\n        /* \"#utility.yul\":22170:22173   */\n      dup8\n        /* \"#utility.yul\":22166:22185   */\n      add\n        /* \"#utility.yul\":22160:22186   */\n      mload\n        /* \"#utility.yul\":22151:22186   */\n      swap1\n      pop\n        /* \"#utility.yul\":22123:22200   */\n    tag_519:\n        /* \"#utility.yul\":22226:22293   */\n      tag_520\n        /* \"#utility.yul\":22286:22292   */\n      dup6\n        /* \"#utility.yul\":22279:22284   */\n      dup3\n        /* \"#utility.yul\":22226:22293   */\n      tag_291\n      jump\t// in\n    tag_520:\n        /* \"#utility.yul\":22220:22224   */\n      dup7\n        /* \"#utility.yul\":22213:22294   */\n      sstore\n        /* \"#utility.yul\":22082:22304   */\n      pop\n        /* \"#utility.yul\":21417:22304   */\n      jump(tag_517)\n        /* \"#utility.yul\":21447:22065   */\n    tag_518:\n        /* \"#utility.yul\":21499:21503   */\n      0x1f\n        /* \"#utility.yul\":21495:21504   */\n      not\n        /* \"#utility.yul\":21487:21493   */\n      dup5\n        /* \"#utility.yul\":21483:21505   */\n      and\n        /* \"#utility.yul\":21533:21570   */\n      tag_521\n        /* \"#utility.yul\":21565:21569   */\n      dup7\n        /* \"#utility.yul\":21533:21570   */\n      tag_274\n      jump\t// in\n    tag_521:\n        /* \"#utility.yul\":21592:21593   */\n      0x00\n        /* \"#utility.yul\":21606:21814   */\n    tag_522:\n        /* \"#utility.yul\":21620:21627   */\n      dup3\n        /* \"#utility.yul\":21617:21618   */\n      dup2\n        /* \"#utility.yul\":21614:21628   */\n      lt\n        /* \"#utility.yul\":21606:21814   */\n      iszero\n      tag_524\n      jumpi\n        /* \"#utility.yul\":21699:21708   */\n      dup5\n        /* \"#utility.yul\":21694:21697   */\n      dup10\n        /* \"#utility.yul\":21690:21709   */\n      add\n        /* \"#utility.yul\":21684:21710   */\n      mload\n        /* \"#utility.yul\":21676:21682   */\n      dup3\n        /* \"#utility.yul\":21669:21711   */\n      sstore\n        /* \"#utility.yul\":21750:21751   */\n      0x01\n        /* \"#utility.yul\":21742:21748   */\n      dup3\n        /* \"#utility.yul\":21738:21752   */\n      add\n        /* \"#utility.yul\":21728:21752   */\n      swap2\n      pop\n        /* \"#utility.yul\":21797:21799   */\n      0x20\n        /* \"#utility.yul\":21786:21795   */\n      dup6\n        /* \"#utility.yul\":21782:21800   */\n      add\n        /* \"#utility.yul\":21769:21800   */\n      swap5\n      pop\n        /* \"#utility.yul\":21643:21647   */\n      0x20\n        /* \"#utility.yul\":21640:21641   */\n      dup2\n        /* \"#utility.yul\":21636:21648   */\n      add\n        /* \"#utility.yul\":21631:21648   */\n      swap1\n      pop\n        /* \"#utility.yul\":21606:21814   */\n      jump(tag_522)\n    tag_524:\n        /* \"#utility.yul\":21842:21848   */\n      dup7\n        /* \"#utility.yul\":21833:21840   */\n      dup4\n        /* \"#utility.yul\":21830:21849   */\n      lt\n        /* \"#utility.yul\":21827:22006   */\n      iszero\n      tag_525\n      jumpi\n        /* \"#utility.yul\":21900:21909   */\n      dup5\n        /* \"#utility.yul\":21895:21898   */\n      dup10\n        /* \"#utility.yul\":21891:21910   */\n      add\n        /* \"#utility.yul\":21885:21911   */\n      mload\n        /* \"#utility.yul\":21943:21991   */\n      tag_526\n        /* \"#utility.yul\":21985:21989   */\n      0x1f\n        /* \"#utility.yul\":21977:21983   */\n      dup10\n        /* \"#utility.yul\":21973:21990   */\n      and\n        /* \"#utility.yul\":21962:21971   */\n      dup3\n        /* \"#utility.yul\":21943:21991   */\n      tag_290\n      jump\t// in\n    tag_526:\n        /* \"#utility.yul\":21935:21941   */\n      dup4\n        /* \"#utility.yul\":21928:21992   */\n      sstore\n        /* \"#utility.yul\":21850:22006   */\n      pop\n        /* \"#utility.yul\":21827:22006   */\n    tag_525:\n        /* \"#utility.yul\":22052:22053   */\n      0x01\n        /* \"#utility.yul\":22048:22049   */\n      0x02\n        /* \"#utility.yul\":22040:22046   */\n      dup9\n        /* \"#utility.yul\":22036:22050   */\n      mul\n        /* \"#utility.yul\":22032:22054   */\n      add\n        /* \"#utility.yul\":22026:22030   */\n      dup9\n        /* \"#utility.yul\":22019:22055   */\n      sstore\n        /* \"#utility.yul\":21454:22065   */\n      pop\n      pop\n      pop\n        /* \"#utility.yul\":21417:22304   */\n    tag_517:\n      pop\n        /* \"#utility.yul\":21007:22310   */\n      pop\n      pop\n      pop\n        /* \"#utility.yul\":20915:22310   */\n      pop\n      pop\n      jump\t// out\n\n    auxdata: 0xa26469706673582212200adb639994fb88214b31fdc446361520ba0d2a0a8f080b39ad41b73b018c31d864736f6c63430008160033\n}\n",
				"bytecode": {
					"linkReferences": {},
					"object": "6080604052617080600155620151806002553480156200001d575f80fd5b5060405162001dbe38038062001dbe8339818101604052810190620000439190620001f6565b805f73ffffffffffffffffffffffffffffffffffffffff168173ffffffffffffffffffffffffffffffffffffffff1603620000b7575f6040517f1e4fbdf7000000000000000000000000000000000000000000000000000000008152600401620000ae919062000237565b60405180910390fd5b620000c881620000d060201b60201c565b505062000252565b5f805f9054906101000a900473ffffffffffffffffffffffffffffffffffffffff169050815f806101000a81548173ffffffffffffffffffffffffffffffffffffffff021916908373ffffffffffffffffffffffffffffffffffffffff1602179055508173ffffffffffffffffffffffffffffffffffffffff168173ffffffffffffffffffffffffffffffffffffffff167f8be0079c531659141344cd1fd0a4f28419497f9722a3daafe3b4186f6b6457e060405160405180910390a35050565b5f80fd5b5f73ffffffffffffffffffffffffffffffffffffffff82169050919050565b5f620001c08262000195565b9050919050565b620001d281620001b4565b8114620001dd575f80fd5b50565b5f81519050620001f081620001c7565b92915050565b5f602082840312156200020e576200020d62000191565b5b5f6200021d84828501620001e0565b91505092915050565b6200023181620001b4565b82525050565b5f6020820190506200024c5f83018462000226565b92915050565b611b5e80620002605f395ff3fe608060405234801561000f575f80fd5b50600436106100e8575f3560e01c8063b0c735131161008a578063c1961cea11610064578063c1961cea14610239578063e344617414610255578063ee55f11e14610273578063f2fde38b14610291576100e8565b8063b0c73513146101ce578063b25924c1146101ea578063b5e422d41461021b576100e8565b806389813f84116100c657806389813f84146101315780638da5cb5b1461014d5780638f023f851461016b5780638f6021c31461019d576100e8565b80630e0864cb146100ec5780636cdf69f014610108578063715018a614610127575b5f80fd5b61010660048036038101906101019190611016565b6102ad565b005b6101106104ca565b60405161011e9291906110da565b60405180910390f35b61012f610561565b005b61014b60048036038101906101469190611234565b610574565b005b6101556105d1565b60405161016291906112e9565b60405180910390f35b61018560048036038101906101809190611016565b6105f8565b60405161019493929190611302565b60405180910390f35b6101b760048036038101906101b29190611016565b610739565b6040516101c5929190611345565b60405180910390f35b6101e860048036038101906101e3919061137a565b6108b3565b005b61020460048036038101906101ff9190611016565b6108eb565b6040516102129291906113ee565b60405180910390f35b6102236109ac565b604051610230919061141c565b60405180910390f35b610253600480360381019061024e919061146b565b610a21565b005b61025d610aa6565b60405161026a919061141c565b60405180910390f35b61027b610ae1565b604051610288919061162b565b60405180910390f35b6102ab60048036038101906102a69190611675565b610c84565b005b60056001015442101580156102d457506001546005600101546102d091906116cd565b4211155b6102dc575f80fd5b5f60085f3373ffffffffffffffffffffffffffffffffffffffff1673ffffffffffffffffffffffffffffffffffffffff1681526020019081526020015f205490505f6004828154811061033257610331611700565b5b905f5260205f2090600202016001015f9054906101000a900460ff166103d457600190508260075f3373ffffffffffffffffffffffffffffffffffffffff1673ffffffffffffffffffffffffffffffffffffffff1681526020019081526020015f20819055506001600483815481106103ae576103ad611700565b5b905f5260205f2090600202016001015f6101000a81548160ff0219169083151502179055505b5f600360075f3373ffffffffffffffffffffffffffffffffffffffff1673ffffffffffffffffffffffffffffffffffffffff1681526020019081526020015f20548154811061042657610425611700565b5b905f5260205f209060030201905081816002015461044491906116cd565b81600201819055507fd5f7cb52613a2bacd6e90c181d02d8eb3d9236bdb28d47edf16fe7c8ff2e39a360075f3373ffffffffffffffffffffffffffffffffffffffff1673ffffffffffffffffffffffffffffffffffffffff1681526020019081526020015f2054825f016040516104bc92919061181d565b60405180910390a150505050565b6005805f0180546104da9061175a565b80601f01602080910402602001604051908101604052809291908181526020018280546105069061175a565b80156105515780601f1061052857610100808354040283529160200191610551565b820191905f5260205f20905b81548152906001019060200180831161053457829003601f168201915b5050505050908060010154905082565b610569610d08565b6105725f610d8f565b565b61057c610d08565b60025460056001015461058f919061184b565b42111561059a575f80fd5b5f6009836040516105ab91906118b8565b908152602001604051809103902054146105c3575f80fd5b6105cd8282610e50565b5050565b5f805f9054906101000a900473ffffffffffffffffffffffffffffffffffffffff16905090565b60038181548110610607575f80fd5b905f5260205f2090600302015f91509050805f0180546106269061175a565b80601f01602080910402602001604051908101604052809291908181526020018280546106529061175a565b801561069d5780601f106106745761010080835404028352916020019161069d565b820191905f5260205f20905b81548152906001019060200180831161068057829003601f168201915b5050505050908060010180546106b29061175a565b80601f01602080910402602001604051908101604052809291908181526020018280546106de9061175a565b80156107295780601f1061070057610100808354040283529160200191610729565b820191905f5260205f20905b81548152906001019060200180831161070c57829003601f168201915b5050505050908060020154905083565b6060806005600101544210158015610763575060015460056001015461075f91906116cd565b4211155b61076b575f80fd5b5f600384815481106107805761077f611700565b5b905f5260205f2090600302019050805f01816001018180546107a19061175a565b80601f01602080910402602001604051908101604052809291908181526020018280546107cd9061175a565b80156108185780601f106107ef57610100808354040283529160200191610818565b820191905f5260205f20905b8154815290600101906020018083116107fb57829003601f168201915b5050505050915080805461082b9061175a565b80601f01602080910402602001604051908101604052809291908181526020018280546108579061175a565b80156108a25780601f10610879576101008083540402835291602001916108a2565b820191905f5260205f20905b81548152906001019060200180831161088557829003601f168201915b505050505090509250925050915091565b6108bb610d08565b5f600560010154146108cb575f80fd5b8160055f0190816108dc9190611a59565b50806005600101819055505050565b600481815481106108fa575f80fd5b905f5260205f2090600202015f91509050805f0180546109199061175a565b80601f01602080910402602001604051908101604052809291908181526020018280546109459061175a565b80156109905780601f1061096757610100808354040283529160200191610990565b820191905f5260205f20905b81548152906001019060200180831161097357829003601f168201915b505050505090806001015f9054906101000a900460ff16905082565b5f6001546005600101546109c091906116cd565b4210156109cb575f80fd5b5f805b600380549050811015610a1957600381815481106109ef576109ee611700565b5b905f5260205f2090600302016002015482610a0a91906116cd565b915080806001019150506109ce565b508091505090565b8060128160ff161015610a32575f80fd5b600254600560010154610a45919061184b565b421115610a50575f80fd5b5f60085f3373ffffffffffffffffffffffffffffffffffffffff1673ffffffffffffffffffffffffffffffffffffffff1681526020019081526020015f205414610a98575f80fd5b610aa183610f01565b505050565b5f6005600101544210158015610ace5750600154600560010154610aca91906116cd565b4211155b610ad6575f80fd5b600380549050905090565b6060600154600560010154610af691906116cd565b421015610b01575f80fd5b6003805480602002602001604051908101604052809291908181526020015f905b82821015610c7b578382905f5260205f2090600302016040518060600160405290815f82018054610b529061175a565b80601f0160208091040260200160405190810160405280929190818152602001828054610b7e9061175a565b8015610bc95780601f10610ba057610100808354040283529160200191610bc9565b820191905f5260205f20905b815481529060010190602001808311610bac57829003601f168201915b50505050508152602001600182018054610be29061175a565b80601f0160208091040260200160405190810160405280929190818152602001828054610c0e9061175a565b8015610c595780601f10610c3057610100808354040283529160200191610c59565b820191905f5260205f20905b815481529060010190602001808311610c3c57829003601f168201915b5050505050815260200160028201548152505081526020019060010190610b22565b50505050905090565b610c8c610d08565b5f73ffffffffffffffffffffffffffffffffffffffff168173ffffffffffffffffffffffffffffffffffffffff1603610cfc575f6040517f1e4fbdf7000000000000000000000000000000000000000000000000000000008152600401610cf391906112e9565b60405180910390fd5b610d0581610d8f565b50565b610d10610fcb565b73ffffffffffffffffffffffffffffffffffffffff16610d2e6105d1565b73ffffffffffffffffffffffffffffffffffffffff1614610d8d57610d51610fcb565b6040517f118cdaa7000000000000000000000000000000000000000000000000000000008152600401610d8491906112e9565b60405180910390fd5b565b5f805f9054906101000a900473ffffffffffffffffffffffffffffffffffffffff169050815f806101000a81548173ffffffffffffffffffffffffffffffffffffffff021916908373ffffffffffffffffffffffffffffffffffffffff1602179055508173ffffffffffffffffffffffffffffffffffffffff168173ffffffffffffffffffffffffffffffffffffffff167f8be0079c531659141344cd1fd0a4f28419497f9722a3daafe3b4186f6b6457e060405160405180910390a35050565b600360405180606001604052808381526020018481526020015f815250908060018154018082558091505060019003905f5260205f2090600302015f909190919091505f820151815f019081610ea69190611a59565b506020820151816001019081610ebc9190611a59565b506040820151816002015550506001600380549050610edb919061184b565b600983604051610eeb91906118b8565b9081526020016040518091039020819055505050565b600460405180604001604052808381526020015f1515815250908060018154018082558091505060019003905f5260205f2090600202015f909190919091505f820151815f019081610f539190611a59565b506020820151816001015f6101000a81548160ff02191690831515021790555050506001600480549050610f87919061184b565b60085f3373ffffffffffffffffffffffffffffffffffffffff1673ffffffffffffffffffffffffffffffffffffffff1681526020019081526020015f208190555050565b5f33905090565b5f604051905090565b5f80fd5b5f80fd5b5f819050919050565b610ff581610fe3565b8114610fff575f80fd5b50565b5f8135905061101081610fec565b92915050565b5f6020828403121561102b5761102a610fdb565b5b5f61103884828501611002565b91505092915050565b5f81519050919050565b5f82825260208201905092915050565b5f5b8381101561107857808201518184015260208101905061105d565b5f8484015250505050565b5f601f19601f8301169050919050565b5f61109d82611041565b6110a7818561104b565b93506110b781856020860161105b565b6110c081611083565b840191505092915050565b6110d481610fe3565b82525050565b5f6040820190508181035f8301526110f28185611093565b905061110160208301846110cb565b9392505050565b5f80fd5b5f80fd5b7f4e487b71000000000000000000000000000000000000000000000000000000005f52604160045260245ffd5b61114682611083565b810181811067ffffffffffffffff8211171561116557611164611110565b5b80604052505050565b5f611177610fd2565b9050611183828261113d565b919050565b5f67ffffffffffffffff8211156111a2576111a1611110565b5b6111ab82611083565b9050602081019050919050565b828183375f83830152505050565b5f6111d86111d384611188565b61116e565b9050828152602081018484840111156111f4576111f361110c565b5b6111ff8482856111b8565b509392505050565b5f82601f83011261121b5761121a611108565b5b813561122b8482602086016111c6565b91505092915050565b5f806040838503121561124a57611249610fdb565b5b5f83013567ffffffffffffffff81111561126757611266610fdf565b5b61127385828601611207565b925050602083013567ffffffffffffffff81111561129457611293610fdf565b5b6112a085828601611207565b9150509250929050565b5f73ffffffffffffffffffffffffffffffffffffffff82169050919050565b5f6112d3826112aa565b9050919050565b6112e3816112c9565b82525050565b5f6020820190506112fc5f8301846112da565b92915050565b5f6060820190508181035f83015261131a8186611093565b9050818103602083015261132e8185611093565b905061133d60408301846110cb565b949350505050565b5f6040820190508181035f83015261135d8185611093565b905081810360208301526113718184611093565b90509392505050565b5f80604083850312156113905761138f610fdb565b5b5f83013567ffffffffffffffff8111156113ad576113ac610fdf565b5b6113b985828601611207565b92505060206113ca85828601611002565b9150509250929050565b5f8115159050919050565b6113e8816113d4565b82525050565b5f6040820190508181035f8301526114068185611093565b905061141560208301846113df565b9392505050565b5f60208201905061142f5f8301846110cb565b92915050565b5f60ff82169050919050565b61144a81611435565b8114611454575f80fd5b50565b5f8135905061146581611441565b92915050565b5f806040838503121561148157611480610fdb565b5b5f83013567ffffffffffffffff81111561149e5761149d610fdf565b5b6114aa85828601611207565b92505060206114bb85828601611457565b9150509250929050565b5f81519050919050565b5f82825260208201905092915050565b5f819050602082019050919050565b5f82825260208201905092915050565b5f61150882611041565b61151281856114ee565b935061152281856020860161105b565b61152b81611083565b840191505092915050565b61153f81610fe3565b82525050565b5f606083015f8301518482035f86015261155f82826114fe565b9150506020830151848203602086015261157982826114fe565b915050604083015161158e6040860182611536565b508091505092915050565b5f6115a48383611545565b905092915050565b5f602082019050919050565b5f6115c2826114c5565b6115cc81856114cf565b9350836020820285016115de856114df565b805f5b8581101561161957848403895281516115fa8582611599565b9450611605836115ac565b925060208a019950506001810190506115e1565b50829750879550505050505092915050565b5f6020820190508181035f83015261164381846115b8565b905092915050565b611654816112c9565b811461165e575f80fd5b50565b5f8135905061166f8161164b565b92915050565b5f6020828403121561168a57611689610fdb565b5b5f61169784828501611661565b91505092915050565b7f4e487b71000000000000000000000000000000000000000000000000000000005f52601160045260245ffd5b5f6116d782610fe3565b91506116e283610fe3565b92508282019050808211156116fa576116f96116a0565b5b92915050565b7f4e487b71000000000000000000000000000000000000000000000000000000005f52603260045260245ffd5b7f4e487b71000000000000000000000000000000000000000000000000000000005f52602260045260245ffd5b5f600282049050600182168061177157607f821691505b6020821081036117845761178361172d565b5b50919050565b5f819050815f5260205f209050919050565b5f81546117a88161175a565b6117b2818661104b565b9450600182165f81146117cc57600181146117e257611814565b60ff198316865281151560200286019350611814565b6117eb8561178a565b5f5b8381101561180c578154818901526001820191506020810190506117ed565b808801955050505b50505092915050565b5f6040820190506118305f8301856110cb565b8181036020830152611842818461179c565b90509392505050565b5f61185582610fe3565b915061186083610fe3565b9250828203905081811115611878576118776116a0565b5b92915050565b5f81905092915050565b5f61189282611041565b61189c818561187e565b93506118ac81856020860161105b565b80840191505092915050565b5f6118c38284611888565b915081905092915050565b5f6020601f8301049050919050565b5f82821b905092915050565b5f600883026119187fffffffffffffffffffffffffffffffffffffffffffffffffffffffffffffffff826118dd565b61192286836118dd565b95508019841693508086168417925050509392505050565b5f819050919050565b5f61195d61195861195384610fe3565b61193a565b610fe3565b9050919050565b5f819050919050565b61197683611943565b61198a61198282611964565b8484546118e9565b825550505050565b5f90565b61199e611992565b6119a981848461196d565b505050565b5b818110156119cc576119c15f82611996565b6001810190506119af565b5050565b601f821115611a11576119e28161178a565b6119eb846118ce565b810160208510156119fa578190505b611a0e611a06856118ce565b8301826119ae565b50505b505050565b5f82821c905092915050565b5f611a315f1984600802611a16565b1980831691505092915050565b5f611a498383611a22565b9150826002028217905092915050565b611a6282611041565b67ffffffffffffffff811115611a7b57611a7a611110565b5b611a85825461175a565b611a908282856119d0565b5f60209050601f831160018114611ac1575f8415611aaf578287015190505b611ab98582611a3e565b865550611b20565b601f198416611acf8661178a565b5f5b82811015611af657848901518255600182019150602085019450602081019050611ad1565b86831015611b135784890151611b0f601f891682611a22565b8355505b6001600288020188555050505b50505050505056fea26469706673582212200adb639994fb88214b31fdc446361520ba0d2a0a8f080b39ad41b73b018c31d864736f6c63430008160033",
					"opcodes": "PUSH1 0x80 PUSH1 0x40 MSTORE PUSH2 0x7080 PUSH1 0x1 SSTORE PUSH3 0x15180 PUSH1 0x2 SSTORE CALLVALUE DUP1 ISZERO PUSH3 0x1D JUMPI PUSH0 DUP1 REVERT JUMPDEST POP PUSH1 0x40 MLOAD PUSH3 0x1DBE CODESIZE SUB DUP1 PUSH3 0x1DBE DUP4 CODECOPY DUP2 DUP2 ADD PUSH1 0x40 MSTORE DUP2 ADD SWAP1 PUSH3 0x43 SWAP2 SWAP1 PUSH3 0x1F6 JUMP JUMPDEST DUP1 PUSH0 PUSH20 0xFFFFFFFFFFFFFFFFFFFFFFFFFFFFFFFFFFFFFFFF AND DUP2 PUSH20 0xFFFFFFFFFFFFFFFFFFFFFFFFFFFFFFFFFFFFFFFF AND SUB PUSH3 0xB7 JUMPI PUSH0 PUSH1 0x40 MLOAD PUSH32 0x1E4FBDF700000000000000000000000000000000000000000000000000000000 DUP2 MSTORE PUSH1 0x4 ADD PUSH3 0xAE SWAP2 SWAP1 PUSH3 0x237 JUMP JUMPDEST PUSH1 0x40 MLOAD DUP1 SWAP2 SUB SWAP1 REVERT JUMPDEST PUSH3 0xC8 DUP2 PUSH3 0xD0 PUSH1 0x20 SHL PUSH1 0x20 SHR JUMP JUMPDEST POP POP PUSH3 0x252 JUMP JUMPDEST PUSH0 DUP1 PUSH0 SWAP1 SLOAD SWAP1 PUSH2 0x100 EXP SWAP1 DIV PUSH20 0xFFFFFFFFFFFFFFFFFFFFFFFFFFFFFFFFFFFFFFFF AND SWAP1 POP DUP2 PUSH0 DUP1 PUSH2 0x100 EXP DUP2 SLOAD DUP2 PUSH20 0xFFFFFFFFFFFFFFFFFFFFFFFFFFFFFFFFFFFFFFFF MUL NOT AND SWAP1 DUP4 PUSH20 0xFFFFFFFFFFFFFFFFFFFFFFFFFFFFFFFFFFFFFFFF AND MUL OR SWAP1 SSTORE POP DUP2 PUSH20 0xFFFFFFFFFFFFFFFFFFFFFFFFFFFFFFFFFFFFFFFF AND DUP2 PUSH20 0xFFFFFFFFFFFFFFFFFFFFFFFFFFFFFFFFFFFFFFFF AND PUSH32 0x8BE0079C531659141344CD1FD0A4F28419497F9722A3DAAFE3B4186F6B6457E0 PUSH1 0x40 MLOAD PUSH1 0x40 MLOAD DUP1 SWAP2 SUB SWAP1 LOG3 POP POP JUMP JUMPDEST PUSH0 DUP1 REVERT JUMPDEST PUSH0 PUSH20 0xFFFFFFFFFFFFFFFFFFFFFFFFFFFFFFFFFFFFFFFF DUP3 AND SWAP1 POP SWAP2 SWAP1 POP JUMP JUMPDEST PUSH0 PUSH3 0x1C0 DUP3 PUSH3 0x195 JUMP JUMPDEST SWAP1 POP SWAP2 SWAP1 POP JUMP JUMPDEST PUSH3 0x1D2 DUP2 PUSH3 0x1B4 JUMP JUMPDEST DUP2 EQ PUSH3 0x1DD JUMPI PUSH0 DUP1 REVERT JUMPDEST POP JUMP JUMPDEST PUSH0 DUP2 MLOAD SWAP1 POP PUSH3 0x1F0 DUP2 PUSH3 0x1C7 JUMP JUMPDEST SWAP3 SWAP2 POP POP JUMP JUMPDEST PUSH0 PUSH1 0x20 DUP3 DUP5 SUB SLT ISZERO PUSH3 0x20E JUMPI PUSH3 0x20D PUSH3 0x191 JUMP JUMPDEST JUMPDEST PUSH0 PUSH3 0x21D DUP5 DUP3 DUP6 ADD PUSH3 0x1E0 JUMP JUMPDEST SWAP2 POP POP SWAP3 SWAP2 POP POP JUMP JUMPDEST PUSH3 0x231 DUP2 PUSH3 0x1B4 JUMP JUMPDEST DUP3 MSTORE POP POP JUMP JUMPDEST PUSH0 PUSH1 0x20 DUP3 ADD SWAP1 POP PUSH3 0x24C PUSH0 DUP4 ADD DUP5 PUSH3 0x226 JUMP JUMPDEST SWAP3 SWAP2 POP POP JUMP JUMPDEST PUSH2 0x1B5E DUP1 PUSH3 0x260 PUSH0 CODECOPY PUSH0 RETURN INVALID PUSH1 0x80 PUSH1 0x40 MSTORE CALLVALUE DUP1 ISZERO PUSH2 0xF JUMPI PUSH0 DUP1 REVERT JUMPDEST POP PUSH1 0x4 CALLDATASIZE LT PUSH2 0xE8 JUMPI PUSH0 CALLDATALOAD PUSH1 0xE0 SHR DUP1 PUSH4 0xB0C73513 GT PUSH2 0x8A JUMPI DUP1 PUSH4 0xC1961CEA GT PUSH2 0x64 JUMPI DUP1 PUSH4 0xC1961CEA EQ PUSH2 0x239 JUMPI DUP1 PUSH4 0xE3446174 EQ PUSH2 0x255 JUMPI DUP1 PUSH4 0xEE55F11E EQ PUSH2 0x273 JUMPI DUP1 PUSH4 0xF2FDE38B EQ PUSH2 0x291 JUMPI PUSH2 0xE8 JUMP JUMPDEST DUP1 PUSH4 0xB0C73513 EQ PUSH2 0x1CE JUMPI DUP1 PUSH4 0xB25924C1 EQ PUSH2 0x1EA JUMPI DUP1 PUSH4 0xB5E422D4 EQ PUSH2 0x21B JUMPI PUSH2 0xE8 JUMP JUMPDEST DUP1 PUSH4 0x89813F84 GT PUSH2 0xC6 JUMPI DUP1 PUSH4 0x89813F84 EQ PUSH2 0x131 JUMPI DUP1 PUSH4 0x8DA5CB5B EQ PUSH2 0x14D JUMPI DUP1 PUSH4 0x8F023F85 EQ PUSH2 0x16B JUMPI DUP1 PUSH4 0x8F6021C3 EQ PUSH2 0x19D JUMPI PUSH2 0xE8 JUMP JUMPDEST DUP1 PUSH4 0xE0864CB EQ PUSH2 0xEC JUMPI DUP1 PUSH4 0x6CDF69F0 EQ PUSH2 0x108 JUMPI DUP1 PUSH4 0x715018A6 EQ PUSH2 0x127 JUMPI JUMPDEST PUSH0 DUP1 REVERT JUMPDEST PUSH2 0x106 PUSH1 0x4 DUP1 CALLDATASIZE SUB DUP2 ADD SWAP1 PUSH2 0x101 SWAP2 SWAP1 PUSH2 0x1016 JUMP JUMPDEST PUSH2 0x2AD JUMP JUMPDEST STOP JUMPDEST PUSH2 0x110 PUSH2 0x4CA JUMP JUMPDEST PUSH1 0x40 MLOAD PUSH2 0x11E SWAP3 SWAP2 SWAP1 PUSH2 0x10DA JUMP JUMPDEST PUSH1 0x40 MLOAD DUP1 SWAP2 SUB SWAP1 RETURN JUMPDEST PUSH2 0x12F PUSH2 0x561 JUMP JUMPDEST STOP JUMPDEST PUSH2 0x14B PUSH1 0x4 DUP1 CALLDATASIZE SUB DUP2 ADD SWAP1 PUSH2 0x146 SWAP2 SWAP1 PUSH2 0x1234 JUMP JUMPDEST PUSH2 0x574 JUMP JUMPDEST STOP JUMPDEST PUSH2 0x155 PUSH2 0x5D1 JUMP JUMPDEST PUSH1 0x40 MLOAD PUSH2 0x162 SWAP2 SWAP1 PUSH2 0x12E9 JUMP JUMPDEST PUSH1 0x40 MLOAD DUP1 SWAP2 SUB SWAP1 RETURN JUMPDEST PUSH2 0x185 PUSH1 0x4 DUP1 CALLDATASIZE SUB DUP2 ADD SWAP1 PUSH2 0x180 SWAP2 SWAP1 PUSH2 0x1016 JUMP JUMPDEST PUSH2 0x5F8 JUMP JUMPDEST PUSH1 0x40 MLOAD PUSH2 0x194 SWAP4 SWAP3 SWAP2 SWAP1 PUSH2 0x1302 JUMP JUMPDEST PUSH1 0x40 MLOAD DUP1 SWAP2 SUB SWAP1 RETURN JUMPDEST PUSH2 0x1B7 PUSH1 0x4 DUP1 CALLDATASIZE SUB DUP2 ADD SWAP1 PUSH2 0x1B2 SWAP2 SWAP1 PUSH2 0x1016 JUMP JUMPDEST PUSH2 0x739 JUMP JUMPDEST PUSH1 0x40 MLOAD PUSH2 0x1C5 SWAP3 SWAP2 SWAP1 PUSH2 0x1345 JUMP JUMPDEST PUSH1 0x40 MLOAD DUP1 SWAP2 SUB SWAP1 RETURN JUMPDEST PUSH2 0x1E8 PUSH1 0x4 DUP1 CALLDATASIZE SUB DUP2 ADD SWAP1 PUSH2 0x1E3 SWAP2 SWAP1 PUSH2 0x137A JUMP JUMPDEST PUSH2 0x8B3 JUMP JUMPDEST STOP JUMPDEST PUSH2 0x204 PUSH1 0x4 DUP1 CALLDATASIZE SUB DUP2 ADD SWAP1 PUSH2 0x1FF SWAP2 SWAP1 PUSH2 0x1016 JUMP JUMPDEST PUSH2 0x8EB JUMP JUMPDEST PUSH1 0x40 MLOAD PUSH2 0x212 SWAP3 SWAP2 SWAP1 PUSH2 0x13EE JUMP JUMPDEST PUSH1 0x40 MLOAD DUP1 SWAP2 SUB SWAP1 RETURN JUMPDEST PUSH2 0x223 PUSH2 0x9AC JUMP JUMPDEST PUSH1 0x40 MLOAD PUSH2 0x230 SWAP2 SWAP1 PUSH2 0x141C JUMP JUMPDEST PUSH1 0x40 MLOAD DUP1 SWAP2 SUB SWAP1 RETURN JUMPDEST PUSH2 0x253 PUSH1 0x4 DUP1 CALLDATASIZE SUB DUP2 ADD SWAP1 PUSH2 0x24E SWAP2 SWAP1 PUSH2 0x146B JUMP JUMPDEST PUSH2 0xA21 JUMP JUMPDEST STOP JUMPDEST PUSH2 0x25D PUSH2 0xAA6 JUMP JUMPDEST PUSH1 0x40 MLOAD PUSH2 0x26A SWAP2 SWAP1 PUSH2 0x141C JUMP JUMPDEST PUSH1 0x40 MLOAD DUP1 SWAP2 SUB SWAP1 RETURN JUMPDEST PUSH2 0x27B PUSH2 0xAE1 JUMP JUMPDEST PUSH1 0x40 MLOAD PUSH2 0x288 SWAP2 SWAP1 PUSH2 0x162B JUMP JUMPDEST PUSH1 0x40 MLOAD DUP1 SWAP2 SUB SWAP1 RETURN JUMPDEST PUSH2 0x2AB PUSH1 0x4 DUP1 CALLDATASIZE SUB DUP2 ADD SWAP1 PUSH2 0x2A6 SWAP2 SWAP1 PUSH2 0x1675 JUMP JUMPDEST PUSH2 0xC84 JUMP JUMPDEST STOP JUMPDEST PUSH1 0x5 PUSH1 0x1 ADD SLOAD TIMESTAMP LT ISZERO DUP1 ISZERO PUSH2 0x2D4 JUMPI POP PUSH1 0x1 SLOAD PUSH1 0x5 PUSH1 0x1 ADD SLOAD PUSH2 0x2D0 SWAP2 SWAP1 PUSH2 0x16CD JUMP JUMPDEST TIMESTAMP GT ISZERO JUMPDEST PUSH2 0x2DC JUMPI PUSH0 DUP1 REVERT JUMPDEST PUSH0 PUSH1 0x8 PUSH0 CALLER PUSH20 0xFFFFFFFFFFFFFFFFFFFFFFFFFFFFFFFFFFFFFFFF AND PUSH20 0xFFFFFFFFFFFFFFFFFFFFFFFFFFFFFFFFFFFFFFFF AND DUP2 MSTORE PUSH1 0x20 ADD SWAP1 DUP2 MSTORE PUSH1 0x20 ADD PUSH0 KECCAK256 SLOAD SWAP1 POP PUSH0 PUSH1 0x4 DUP3 DUP2 SLOAD DUP2 LT PUSH2 0x332 JUMPI PUSH2 0x331 PUSH2 0x1700 JUMP JUMPDEST JUMPDEST SWAP1 PUSH0 MSTORE PUSH1 0x20 PUSH0 KECCAK256 SWAP1 PUSH1 0x2 MUL ADD PUSH1 0x1 ADD PUSH0 SWAP1 SLOAD SWAP1 PUSH2 0x100 EXP SWAP1 DIV PUSH1 0xFF AND PUSH2 0x3D4 JUMPI PUSH1 0x1 SWAP1 POP DUP3 PUSH1 0x7 PUSH0 CALLER PUSH20 0xFFFFFFFFFFFFFFFFFFFFFFFFFFFFFFFFFFFFFFFF AND PUSH20 0xFFFFFFFFFFFFFFFFFFFFFFFFFFFFFFFFFFFFFFFF AND DUP2 MSTORE PUSH1 0x20 ADD SWAP1 DUP2 MSTORE PUSH1 0x20 ADD PUSH0 KECCAK256 DUP2 SWAP1 SSTORE POP PUSH1 0x1 PUSH1 0x4 DUP4 DUP2 SLOAD DUP2 LT PUSH2 0x3AE JUMPI PUSH2 0x3AD PUSH2 0x1700 JUMP JUMPDEST JUMPDEST SWAP1 PUSH0 MSTORE PUSH1 0x20 PUSH0 KECCAK256 SWAP1 PUSH1 0x2 MUL ADD PUSH1 0x1 ADD PUSH0 PUSH2 0x100 EXP DUP2 SLOAD DUP2 PUSH1 0xFF MUL NOT AND SWAP1 DUP4 ISZERO ISZERO MUL OR SWAP1 SSTORE POP JUMPDEST PUSH0 PUSH1 0x3 PUSH1 0x7 PUSH0 CALLER PUSH20 0xFFFFFFFFFFFFFFFFFFFFFFFFFFFFFFFFFFFFFFFF AND PUSH20 0xFFFFFFFFFFFFFFFFFFFFFFFFFFFFFFFFFFFFFFFF AND DUP2 MSTORE PUSH1 0x20 ADD SWAP1 DUP2 MSTORE PUSH1 0x20 ADD PUSH0 KECCAK256 SLOAD DUP2 SLOAD DUP2 LT PUSH2 0x426 JUMPI PUSH2 0x425 PUSH2 0x1700 JUMP JUMPDEST JUMPDEST SWAP1 PUSH0 MSTORE PUSH1 0x20 PUSH0 KECCAK256 SWAP1 PUSH1 0x3 MUL ADD SWAP1 POP DUP2 DUP2 PUSH1 0x2 ADD SLOAD PUSH2 0x444 SWAP2 SWAP1 PUSH2 0x16CD JUMP JUMPDEST DUP2 PUSH1 0x2 ADD DUP2 SWAP1 SSTORE POP PUSH32 0xD5F7CB52613A2BACD6E90C181D02D8EB3D9236BDB28D47EDF16FE7C8FF2E39A3 PUSH1 0x7 PUSH0 CALLER PUSH20 0xFFFFFFFFFFFFFFFFFFFFFFFFFFFFFFFFFFFFFFFF AND PUSH20 0xFFFFFFFFFFFFFFFFFFFFFFFFFFFFFFFFFFFFFFFF AND DUP2 MSTORE PUSH1 0x20 ADD SWAP1 DUP2 MSTORE PUSH1 0x20 ADD PUSH0 KECCAK256 SLOAD DUP3 PUSH0 ADD PUSH1 0x40 MLOAD PUSH2 0x4BC SWAP3 SWAP2 SWAP1 PUSH2 0x181D JUMP JUMPDEST PUSH1 0x40 MLOAD DUP1 SWAP2 SUB SWAP1 LOG1 POP POP POP POP JUMP JUMPDEST PUSH1 0x5 DUP1 PUSH0 ADD DUP1 SLOAD PUSH2 0x4DA SWAP1 PUSH2 0x175A JUMP JUMPDEST DUP1 PUSH1 0x1F ADD PUSH1 0x20 DUP1 SWAP2 DIV MUL PUSH1 0x20 ADD PUSH1 0x40 MLOAD SWAP1 DUP2 ADD PUSH1 0x40 MSTORE DUP1 SWAP3 SWAP2 SWAP1 DUP2 DUP2 MSTORE PUSH1 0x20 ADD DUP3 DUP1 SLOAD PUSH2 0x506 SWAP1 PUSH2 0x175A JUMP JUMPDEST DUP1 ISZERO PUSH2 0x551 JUMPI DUP1 PUSH1 0x1F LT PUSH2 0x528 JUMPI PUSH2 0x100 DUP1 DUP4 SLOAD DIV MUL DUP4 MSTORE SWAP2 PUSH1 0x20 ADD SWAP2 PUSH2 0x551 JUMP JUMPDEST DUP3 ADD SWAP2 SWAP1 PUSH0 MSTORE PUSH1 0x20 PUSH0 KECCAK256 SWAP1 JUMPDEST DUP2 SLOAD DUP2 MSTORE SWAP1 PUSH1 0x1 ADD SWAP1 PUSH1 0x20 ADD DUP1 DUP4 GT PUSH2 0x534 JUMPI DUP3 SWAP1 SUB PUSH1 0x1F AND DUP3 ADD SWAP2 JUMPDEST POP POP POP POP POP SWAP1 DUP1 PUSH1 0x1 ADD SLOAD SWAP1 POP DUP3 JUMP JUMPDEST PUSH2 0x569 PUSH2 0xD08 JUMP JUMPDEST PUSH2 0x572 PUSH0 PUSH2 0xD8F JUMP JUMPDEST JUMP JUMPDEST PUSH2 0x57C PUSH2 0xD08 JUMP JUMPDEST PUSH1 0x2 SLOAD PUSH1 0x5 PUSH1 0x1 ADD SLOAD PUSH2 0x58F SWAP2 SWAP1 PUSH2 0x184B JUMP JUMPDEST TIMESTAMP GT ISZERO PUSH2 0x59A JUMPI PUSH0 DUP1 REVERT JUMPDEST PUSH0 PUSH1 0x9 DUP4 PUSH1 0x40 MLOAD PUSH2 0x5AB SWAP2 SWAP1 PUSH2 0x18B8 JUMP JUMPDEST SWAP1 DUP2 MSTORE PUSH1 0x20 ADD PUSH1 0x40 MLOAD DUP1 SWAP2 SUB SWAP1 KECCAK256 SLOAD EQ PUSH2 0x5C3 JUMPI PUSH0 DUP1 REVERT JUMPDEST PUSH2 0x5CD DUP3 DUP3 PUSH2 0xE50 JUMP JUMPDEST POP POP JUMP JUMPDEST PUSH0 DUP1 PUSH0 SWAP1 SLOAD SWAP1 PUSH2 0x100 EXP SWAP1 DIV PUSH20 0xFFFFFFFFFFFFFFFFFFFFFFFFFFFFFFFFFFFFFFFF AND SWAP1 POP SWAP1 JUMP JUMPDEST PUSH1 0x3 DUP2 DUP2 SLOAD DUP2 LT PUSH2 0x607 JUMPI PUSH0 DUP1 REVERT JUMPDEST SWAP1 PUSH0 MSTORE PUSH1 0x20 PUSH0 KECCAK256 SWAP1 PUSH1 0x3 MUL ADD PUSH0 SWAP2 POP SWAP1 POP DUP1 PUSH0 ADD DUP1 SLOAD PUSH2 0x626 SWAP1 PUSH2 0x175A JUMP JUMPDEST DUP1 PUSH1 0x1F ADD PUSH1 0x20 DUP1 SWAP2 DIV MUL PUSH1 0x20 ADD PUSH1 0x40 MLOAD SWAP1 DUP2 ADD PUSH1 0x40 MSTORE DUP1 SWAP3 SWAP2 SWAP1 DUP2 DUP2 MSTORE PUSH1 0x20 ADD DUP3 DUP1 SLOAD PUSH2 0x652 SWAP1 PUSH2 0x175A JUMP JUMPDEST DUP1 ISZERO PUSH2 0x69D JUMPI DUP1 PUSH1 0x1F LT PUSH2 0x674 JUMPI PUSH2 0x100 DUP1 DUP4 SLOAD DIV MUL DUP4 MSTORE SWAP2 PUSH1 0x20 ADD SWAP2 PUSH2 0x69D JUMP JUMPDEST DUP3 ADD SWAP2 SWAP1 PUSH0 MSTORE PUSH1 0x20 PUSH0 KECCAK256 SWAP1 JUMPDEST DUP2 SLOAD DUP2 MSTORE SWAP1 PUSH1 0x1 ADD SWAP1 PUSH1 0x20 ADD DUP1 DUP4 GT PUSH2 0x680 JUMPI DUP3 SWAP1 SUB PUSH1 0x1F AND DUP3 ADD SWAP2 JUMPDEST POP POP POP POP POP SWAP1 DUP1 PUSH1 0x1 ADD DUP1 SLOAD PUSH2 0x6B2 SWAP1 PUSH2 0x175A JUMP JUMPDEST DUP1 PUSH1 0x1F ADD PUSH1 0x20 DUP1 SWAP2 DIV MUL PUSH1 0x20 ADD PUSH1 0x40 MLOAD SWAP1 DUP2 ADD PUSH1 0x40 MSTORE DUP1 SWAP3 SWAP2 SWAP1 DUP2 DUP2 MSTORE PUSH1 0x20 ADD DUP3 DUP1 SLOAD PUSH2 0x6DE SWAP1 PUSH2 0x175A JUMP JUMPDEST DUP1 ISZERO PUSH2 0x729 JUMPI DUP1 PUSH1 0x1F LT PUSH2 0x700 JUMPI PUSH2 0x100 DUP1 DUP4 SLOAD DIV MUL DUP4 MSTORE SWAP2 PUSH1 0x20 ADD SWAP2 PUSH2 0x729 JUMP JUMPDEST DUP3 ADD SWAP2 SWAP1 PUSH0 MSTORE PUSH1 0x20 PUSH0 KECCAK256 SWAP1 JUMPDEST DUP2 SLOAD DUP2 MSTORE SWAP1 PUSH1 0x1 ADD SWAP1 PUSH1 0x20 ADD DUP1 DUP4 GT PUSH2 0x70C JUMPI DUP3 SWAP1 SUB PUSH1 0x1F AND DUP3 ADD SWAP2 JUMPDEST POP POP POP POP POP SWAP1 DUP1 PUSH1 0x2 ADD SLOAD SWAP1 POP DUP4 JUMP JUMPDEST PUSH1 0x60 DUP1 PUSH1 0x5 PUSH1 0x1 ADD SLOAD TIMESTAMP LT ISZERO DUP1 ISZERO PUSH2 0x763 JUMPI POP PUSH1 0x1 SLOAD PUSH1 0x5 PUSH1 0x1 ADD SLOAD PUSH2 0x75F SWAP2 SWAP1 PUSH2 0x16CD JUMP JUMPDEST TIMESTAMP GT ISZERO JUMPDEST PUSH2 0x76B JUMPI PUSH0 DUP1 REVERT JUMPDEST PUSH0 PUSH1 0x3 DUP5 DUP2 SLOAD DUP2 LT PUSH2 0x780 JUMPI PUSH2 0x77F PUSH2 0x1700 JUMP JUMPDEST JUMPDEST SWAP1 PUSH0 MSTORE PUSH1 0x20 PUSH0 KECCAK256 SWAP1 PUSH1 0x3 MUL ADD SWAP1 POP DUP1 PUSH0 ADD DUP2 PUSH1 0x1 ADD DUP2 DUP1 SLOAD PUSH2 0x7A1 SWAP1 PUSH2 0x175A JUMP JUMPDEST DUP1 PUSH1 0x1F ADD PUSH1 0x20 DUP1 SWAP2 DIV MUL PUSH1 0x20 ADD PUSH1 0x40 MLOAD SWAP1 DUP2 ADD PUSH1 0x40 MSTORE DUP1 SWAP3 SWAP2 SWAP1 DUP2 DUP2 MSTORE PUSH1 0x20 ADD DUP3 DUP1 SLOAD PUSH2 0x7CD SWAP1 PUSH2 0x175A JUMP JUMPDEST DUP1 ISZERO PUSH2 0x818 JUMPI DUP1 PUSH1 0x1F LT PUSH2 0x7EF JUMPI PUSH2 0x100 DUP1 DUP4 SLOAD DIV MUL DUP4 MSTORE SWAP2 PUSH1 0x20 ADD SWAP2 PUSH2 0x818 JUMP JUMPDEST DUP3 ADD SWAP2 SWAP1 PUSH0 MSTORE PUSH1 0x20 PUSH0 KECCAK256 SWAP1 JUMPDEST DUP2 SLOAD DUP2 MSTORE SWAP1 PUSH1 0x1 ADD SWAP1 PUSH1 0x20 ADD DUP1 DUP4 GT PUSH2 0x7FB JUMPI DUP3 SWAP1 SUB PUSH1 0x1F AND DUP3 ADD SWAP2 JUMPDEST POP POP POP POP POP SWAP2 POP DUP1 DUP1 SLOAD PUSH2 0x82B SWAP1 PUSH2 0x175A JUMP JUMPDEST DUP1 PUSH1 0x1F ADD PUSH1 0x20 DUP1 SWAP2 DIV MUL PUSH1 0x20 ADD PUSH1 0x40 MLOAD SWAP1 DUP2 ADD PUSH1 0x40 MSTORE DUP1 SWAP3 SWAP2 SWAP1 DUP2 DUP2 MSTORE PUSH1 0x20 ADD DUP3 DUP1 SLOAD PUSH2 0x857 SWAP1 PUSH2 0x175A JUMP JUMPDEST DUP1 ISZERO PUSH2 0x8A2 JUMPI DUP1 PUSH1 0x1F LT PUSH2 0x879 JUMPI PUSH2 0x100 DUP1 DUP4 SLOAD DIV MUL DUP4 MSTORE SWAP2 PUSH1 0x20 ADD SWAP2 PUSH2 0x8A2 JUMP JUMPDEST DUP3 ADD SWAP2 SWAP1 PUSH0 MSTORE PUSH1 0x20 PUSH0 KECCAK256 SWAP1 JUMPDEST DUP2 SLOAD DUP2 MSTORE SWAP1 PUSH1 0x1 ADD SWAP1 PUSH1 0x20 ADD DUP1 DUP4 GT PUSH2 0x885 JUMPI DUP3 SWAP1 SUB PUSH1 0x1F AND DUP3 ADD SWAP2 JUMPDEST POP POP POP POP POP SWAP1 POP SWAP3 POP SWAP3 POP POP SWAP2 POP SWAP2 JUMP JUMPDEST PUSH2 0x8BB PUSH2 0xD08 JUMP JUMPDEST PUSH0 PUSH1 0x5 PUSH1 0x1 ADD SLOAD EQ PUSH2 0x8CB JUMPI PUSH0 DUP1 REVERT JUMPDEST DUP2 PUSH1 0x5 PUSH0 ADD SWAP1 DUP2 PUSH2 0x8DC SWAP2 SWAP1 PUSH2 0x1A59 JUMP JUMPDEST POP DUP1 PUSH1 0x5 PUSH1 0x1 ADD DUP2 SWAP1 SSTORE POP POP POP JUMP JUMPDEST PUSH1 0x4 DUP2 DUP2 SLOAD DUP2 LT PUSH2 0x8FA JUMPI PUSH0 DUP1 REVERT JUMPDEST SWAP1 PUSH0 MSTORE PUSH1 0x20 PUSH0 KECCAK256 SWAP1 PUSH1 0x2 MUL ADD PUSH0 SWAP2 POP SWAP1 POP DUP1 PUSH0 ADD DUP1 SLOAD PUSH2 0x919 SWAP1 PUSH2 0x175A JUMP JUMPDEST DUP1 PUSH1 0x1F ADD PUSH1 0x20 DUP1 SWAP2 DIV MUL PUSH1 0x20 ADD PUSH1 0x40 MLOAD SWAP1 DUP2 ADD PUSH1 0x40 MSTORE DUP1 SWAP3 SWAP2 SWAP1 DUP2 DUP2 MSTORE PUSH1 0x20 ADD DUP3 DUP1 SLOAD PUSH2 0x945 SWAP1 PUSH2 0x175A JUMP JUMPDEST DUP1 ISZERO PUSH2 0x990 JUMPI DUP1 PUSH1 0x1F LT PUSH2 0x967 JUMPI PUSH2 0x100 DUP1 DUP4 SLOAD DIV MUL DUP4 MSTORE SWAP2 PUSH1 0x20 ADD SWAP2 PUSH2 0x990 JUMP JUMPDEST DUP3 ADD SWAP2 SWAP1 PUSH0 MSTORE PUSH1 0x20 PUSH0 KECCAK256 SWAP1 JUMPDEST DUP2 SLOAD DUP2 MSTORE SWAP1 PUSH1 0x1 ADD SWAP1 PUSH1 0x20 ADD DUP1 DUP4 GT PUSH2 0x973 JUMPI DUP3 SWAP1 SUB PUSH1 0x1F AND DUP3 ADD SWAP2 JUMPDEST POP POP POP POP POP SWAP1 DUP1 PUSH1 0x1 ADD PUSH0 SWAP1 SLOAD SWAP1 PUSH2 0x100 EXP SWAP1 DIV PUSH1 0xFF AND SWAP1 POP DUP3 JUMP JUMPDEST PUSH0 PUSH1 0x1 SLOAD PUSH1 0x5 PUSH1 0x1 ADD SLOAD PUSH2 0x9C0 SWAP2 SWAP1 PUSH2 0x16CD JUMP JUMPDEST TIMESTAMP LT ISZERO PUSH2 0x9CB JUMPI PUSH0 DUP1 REVERT JUMPDEST PUSH0 DUP1 JUMPDEST PUSH1 0x3 DUP1 SLOAD SWAP1 POP DUP2 LT ISZERO PUSH2 0xA19 JUMPI PUSH1 0x3 DUP2 DUP2 SLOAD DUP2 LT PUSH2 0x9EF JUMPI PUSH2 0x9EE PUSH2 0x1700 JUMP JUMPDEST JUMPDEST SWAP1 PUSH0 MSTORE PUSH1 0x20 PUSH0 KECCAK256 SWAP1 PUSH1 0x3 MUL ADD PUSH1 0x2 ADD SLOAD DUP3 PUSH2 0xA0A SWAP2 SWAP1 PUSH2 0x16CD JUMP JUMPDEST SWAP2 POP DUP1 DUP1 PUSH1 0x1 ADD SWAP2 POP POP PUSH2 0x9CE JUMP JUMPDEST POP DUP1 SWAP2 POP POP SWAP1 JUMP JUMPDEST DUP1 PUSH1 0x12 DUP2 PUSH1 0xFF AND LT ISZERO PUSH2 0xA32 JUMPI PUSH0 DUP1 REVERT JUMPDEST PUSH1 0x2 SLOAD PUSH1 0x5 PUSH1 0x1 ADD SLOAD PUSH2 0xA45 SWAP2 SWAP1 PUSH2 0x184B JUMP JUMPDEST TIMESTAMP GT ISZERO PUSH2 0xA50 JUMPI PUSH0 DUP1 REVERT JUMPDEST PUSH0 PUSH1 0x8 PUSH0 CALLER PUSH20 0xFFFFFFFFFFFFFFFFFFFFFFFFFFFFFFFFFFFFFFFF AND PUSH20 0xFFFFFFFFFFFFFFFFFFFFFFFFFFFFFFFFFFFFFFFF AND DUP2 MSTORE PUSH1 0x20 ADD SWAP1 DUP2 MSTORE PUSH1 0x20 ADD PUSH0 KECCAK256 SLOAD EQ PUSH2 0xA98 JUMPI PUSH0 DUP1 REVERT JUMPDEST PUSH2 0xAA1 DUP4 PUSH2 0xF01 JUMP JUMPDEST POP POP POP JUMP JUMPDEST PUSH0 PUSH1 0x5 PUSH1 0x1 ADD SLOAD TIMESTAMP LT ISZERO DUP1 ISZERO PUSH2 0xACE JUMPI POP PUSH1 0x1 SLOAD PUSH1 0x5 PUSH1 0x1 ADD SLOAD PUSH2 0xACA SWAP2 SWAP1 PUSH2 0x16CD JUMP JUMPDEST TIMESTAMP GT ISZERO JUMPDEST PUSH2 0xAD6 JUMPI PUSH0 DUP1 REVERT JUMPDEST PUSH1 0x3 DUP1 SLOAD SWAP1 POP SWAP1 POP SWAP1 JUMP JUMPDEST PUSH1 0x60 PUSH1 0x1 SLOAD PUSH1 0x5 PUSH1 0x1 ADD SLOAD PUSH2 0xAF6 SWAP2 SWAP1 PUSH2 0x16CD JUMP JUMPDEST TIMESTAMP LT ISZERO PUSH2 0xB01 JUMPI PUSH0 DUP1 REVERT JUMPDEST PUSH1 0x3 DUP1 SLOAD DUP1 PUSH1 0x20 MUL PUSH1 0x20 ADD PUSH1 0x40 MLOAD SWAP1 DUP2 ADD PUSH1 0x40 MSTORE DUP1 SWAP3 SWAP2 SWAP1 DUP2 DUP2 MSTORE PUSH1 0x20 ADD PUSH0 SWAP1 JUMPDEST DUP3 DUP3 LT ISZERO PUSH2 0xC7B JUMPI DUP4 DUP3 SWAP1 PUSH0 MSTORE PUSH1 0x20 PUSH0 KECCAK256 SWAP1 PUSH1 0x3 MUL ADD PUSH1 0x40 MLOAD DUP1 PUSH1 0x60 ADD PUSH1 0x40 MSTORE SWAP1 DUP2 PUSH0 DUP3 ADD DUP1 SLOAD PUSH2 0xB52 SWAP1 PUSH2 0x175A JUMP JUMPDEST DUP1 PUSH1 0x1F ADD PUSH1 0x20 DUP1 SWAP2 DIV MUL PUSH1 0x20 ADD PUSH1 0x40 MLOAD SWAP1 DUP2 ADD PUSH1 0x40 MSTORE DUP1 SWAP3 SWAP2 SWAP1 DUP2 DUP2 MSTORE PUSH1 0x20 ADD DUP3 DUP1 SLOAD PUSH2 0xB7E SWAP1 PUSH2 0x175A JUMP JUMPDEST DUP1 ISZERO PUSH2 0xBC9 JUMPI DUP1 PUSH1 0x1F LT PUSH2 0xBA0 JUMPI PUSH2 0x100 DUP1 DUP4 SLOAD DIV MUL DUP4 MSTORE SWAP2 PUSH1 0x20 ADD SWAP2 PUSH2 0xBC9 JUMP JUMPDEST DUP3 ADD SWAP2 SWAP1 PUSH0 MSTORE PUSH1 0x20 PUSH0 KECCAK256 SWAP1 JUMPDEST DUP2 SLOAD DUP2 MSTORE SWAP1 PUSH1 0x1 ADD SWAP1 PUSH1 0x20 ADD DUP1 DUP4 GT PUSH2 0xBAC JUMPI DUP3 SWAP1 SUB PUSH1 0x1F AND DUP3 ADD SWAP2 JUMPDEST POP POP POP POP POP DUP2 MSTORE PUSH1 0x20 ADD PUSH1 0x1 DUP3 ADD DUP1 SLOAD PUSH2 0xBE2 SWAP1 PUSH2 0x175A JUMP JUMPDEST DUP1 PUSH1 0x1F ADD PUSH1 0x20 DUP1 SWAP2 DIV MUL PUSH1 0x20 ADD PUSH1 0x40 MLOAD SWAP1 DUP2 ADD PUSH1 0x40 MSTORE DUP1 SWAP3 SWAP2 SWAP1 DUP2 DUP2 MSTORE PUSH1 0x20 ADD DUP3 DUP1 SLOAD PUSH2 0xC0E SWAP1 PUSH2 0x175A JUMP JUMPDEST DUP1 ISZERO PUSH2 0xC59 JUMPI DUP1 PUSH1 0x1F LT PUSH2 0xC30 JUMPI PUSH2 0x100 DUP1 DUP4 SLOAD DIV MUL DUP4 MSTORE SWAP2 PUSH1 0x20 ADD SWAP2 PUSH2 0xC59 JUMP JUMPDEST DUP3 ADD SWAP2 SWAP1 PUSH0 MSTORE PUSH1 0x20 PUSH0 KECCAK256 SWAP1 JUMPDEST DUP2 SLOAD DUP2 MSTORE SWAP1 PUSH1 0x1 ADD SWAP1 PUSH1 0x20 ADD DUP1 DUP4 GT PUSH2 0xC3C JUMPI DUP3 SWAP1 SUB PUSH1 0x1F AND DUP3 ADD SWAP2 JUMPDEST POP POP POP POP POP DUP2 MSTORE PUSH1 0x20 ADD PUSH1 0x2 DUP3 ADD SLOAD DUP2 MSTORE POP POP DUP2 MSTORE PUSH1 0x20 ADD SWAP1 PUSH1 0x1 ADD SWAP1 PUSH2 0xB22 JUMP JUMPDEST POP POP POP POP SWAP1 POP SWAP1 JUMP JUMPDEST PUSH2 0xC8C PUSH2 0xD08 JUMP JUMPDEST PUSH0 PUSH20 0xFFFFFFFFFFFFFFFFFFFFFFFFFFFFFFFFFFFFFFFF AND DUP2 PUSH20 0xFFFFFFFFFFFFFFFFFFFFFFFFFFFFFFFFFFFFFFFF AND SUB PUSH2 0xCFC JUMPI PUSH0 PUSH1 0x40 MLOAD PUSH32 0x1E4FBDF700000000000000000000000000000000000000000000000000000000 DUP2 MSTORE PUSH1 0x4 ADD PUSH2 0xCF3 SWAP2 SWAP1 PUSH2 0x12E9 JUMP JUMPDEST PUSH1 0x40 MLOAD DUP1 SWAP2 SUB SWAP1 REVERT JUMPDEST PUSH2 0xD05 DUP2 PUSH2 0xD8F JUMP JUMPDEST POP JUMP JUMPDEST PUSH2 0xD10 PUSH2 0xFCB JUMP JUMPDEST PUSH20 0xFFFFFFFFFFFFFFFFFFFFFFFFFFFFFFFFFFFFFFFF AND PUSH2 0xD2E PUSH2 0x5D1 JUMP JUMPDEST PUSH20 0xFFFFFFFFFFFFFFFFFFFFFFFFFFFFFFFFFFFFFFFF AND EQ PUSH2 0xD8D JUMPI PUSH2 0xD51 PUSH2 0xFCB JUMP JUMPDEST PUSH1 0x40 MLOAD PUSH32 0x118CDAA700000000000000000000000000000000000000000000000000000000 DUP2 MSTORE PUSH1 0x4 ADD PUSH2 0xD84 SWAP2 SWAP1 PUSH2 0x12E9 JUMP JUMPDEST PUSH1 0x40 MLOAD DUP1 SWAP2 SUB SWAP1 REVERT JUMPDEST JUMP JUMPDEST PUSH0 DUP1 PUSH0 SWAP1 SLOAD SWAP1 PUSH2 0x100 EXP SWAP1 DIV PUSH20 0xFFFFFFFFFFFFFFFFFFFFFFFFFFFFFFFFFFFFFFFF AND SWAP1 POP DUP2 PUSH0 DUP1 PUSH2 0x100 EXP DUP2 SLOAD DUP2 PUSH20 0xFFFFFFFFFFFFFFFFFFFFFFFFFFFFFFFFFFFFFFFF MUL NOT AND SWAP1 DUP4 PUSH20 0xFFFFFFFFFFFFFFFFFFFFFFFFFFFFFFFFFFFFFFFF AND MUL OR SWAP1 SSTORE POP DUP2 PUSH20 0xFFFFFFFFFFFFFFFFFFFFFFFFFFFFFFFFFFFFFFFF AND DUP2 PUSH20 0xFFFFFFFFFFFFFFFFFFFFFFFFFFFFFFFFFFFFFFFF AND PUSH32 0x8BE0079C531659141344CD1FD0A4F28419497F9722A3DAAFE3B4186F6B6457E0 PUSH1 0x40 MLOAD PUSH1 0x40 MLOAD DUP1 SWAP2 SUB SWAP1 LOG3 POP POP JUMP JUMPDEST PUSH1 0x3 PUSH1 0x40 MLOAD DUP1 PUSH1 0x60 ADD PUSH1 0x40 MSTORE DUP1 DUP4 DUP2 MSTORE PUSH1 0x20 ADD DUP5 DUP2 MSTORE PUSH1 0x20 ADD PUSH0 DUP2 MSTORE POP SWAP1 DUP1 PUSH1 0x1 DUP2 SLOAD ADD DUP1 DUP3 SSTORE DUP1 SWAP2 POP POP PUSH1 0x1 SWAP1 SUB SWAP1 PUSH0 MSTORE PUSH1 0x20 PUSH0 KECCAK256 SWAP1 PUSH1 0x3 MUL ADD PUSH0 SWAP1 SWAP2 SWAP1 SWAP2 SWAP1 SWAP2 POP PUSH0 DUP3 ADD MLOAD DUP2 PUSH0 ADD SWAP1 DUP2 PUSH2 0xEA6 SWAP2 SWAP1 PUSH2 0x1A59 JUMP JUMPDEST POP PUSH1 0x20 DUP3 ADD MLOAD DUP2 PUSH1 0x1 ADD SWAP1 DUP2 PUSH2 0xEBC SWAP2 SWAP1 PUSH2 0x1A59 JUMP JUMPDEST POP PUSH1 0x40 DUP3 ADD MLOAD DUP2 PUSH1 0x2 ADD SSTORE POP POP PUSH1 0x1 PUSH1 0x3 DUP1 SLOAD SWAP1 POP PUSH2 0xEDB SWAP2 SWAP1 PUSH2 0x184B JUMP JUMPDEST PUSH1 0x9 DUP4 PUSH1 0x40 MLOAD PUSH2 0xEEB SWAP2 SWAP1 PUSH2 0x18B8 JUMP JUMPDEST SWAP1 DUP2 MSTORE PUSH1 0x20 ADD PUSH1 0x40 MLOAD DUP1 SWAP2 SUB SWAP1 KECCAK256 DUP2 SWAP1 SSTORE POP POP POP JUMP JUMPDEST PUSH1 0x4 PUSH1 0x40 MLOAD DUP1 PUSH1 0x40 ADD PUSH1 0x40 MSTORE DUP1 DUP4 DUP2 MSTORE PUSH1 0x20 ADD PUSH0 ISZERO ISZERO DUP2 MSTORE POP SWAP1 DUP1 PUSH1 0x1 DUP2 SLOAD ADD DUP1 DUP3 SSTORE DUP1 SWAP2 POP POP PUSH1 0x1 SWAP1 SUB SWAP1 PUSH0 MSTORE PUSH1 0x20 PUSH0 KECCAK256 SWAP1 PUSH1 0x2 MUL ADD PUSH0 SWAP1 SWAP2 SWAP1 SWAP2 SWAP1 SWAP2 POP PUSH0 DUP3 ADD MLOAD DUP2 PUSH0 ADD SWAP1 DUP2 PUSH2 0xF53 SWAP2 SWAP1 PUSH2 0x1A59 JUMP JUMPDEST POP PUSH1 0x20 DUP3 ADD MLOAD DUP2 PUSH1 0x1 ADD PUSH0 PUSH2 0x100 EXP DUP2 SLOAD DUP2 PUSH1 0xFF MUL NOT AND SWAP1 DUP4 ISZERO ISZERO MUL OR SWAP1 SSTORE POP POP POP PUSH1 0x1 PUSH1 0x4 DUP1 SLOAD SWAP1 POP PUSH2 0xF87 SWAP2 SWAP1 PUSH2 0x184B JUMP JUMPDEST PUSH1 0x8 PUSH0 CALLER PUSH20 0xFFFFFFFFFFFFFFFFFFFFFFFFFFFFFFFFFFFFFFFF AND PUSH20 0xFFFFFFFFFFFFFFFFFFFFFFFFFFFFFFFFFFFFFFFF AND DUP2 MSTORE PUSH1 0x20 ADD SWAP1 DUP2 MSTORE PUSH1 0x20 ADD PUSH0 KECCAK256 DUP2 SWAP1 SSTORE POP POP JUMP JUMPDEST PUSH0 CALLER SWAP1 POP SWAP1 JUMP JUMPDEST PUSH0 PUSH1 0x40 MLOAD SWAP1 POP SWAP1 JUMP JUMPDEST PUSH0 DUP1 REVERT JUMPDEST PUSH0 DUP1 REVERT JUMPDEST PUSH0 DUP2 SWAP1 POP SWAP2 SWAP1 POP JUMP JUMPDEST PUSH2 0xFF5 DUP2 PUSH2 0xFE3 JUMP JUMPDEST DUP2 EQ PUSH2 0xFFF JUMPI PUSH0 DUP1 REVERT JUMPDEST POP JUMP JUMPDEST PUSH0 DUP2 CALLDATALOAD SWAP1 POP PUSH2 0x1010 DUP2 PUSH2 0xFEC JUMP JUMPDEST SWAP3 SWAP2 POP POP JUMP JUMPDEST PUSH0 PUSH1 0x20 DUP3 DUP5 SUB SLT ISZERO PUSH2 0x102B JUMPI PUSH2 0x102A PUSH2 0xFDB JUMP JUMPDEST JUMPDEST PUSH0 PUSH2 0x1038 DUP5 DUP3 DUP6 ADD PUSH2 0x1002 JUMP JUMPDEST SWAP2 POP POP SWAP3 SWAP2 POP POP JUMP JUMPDEST PUSH0 DUP2 MLOAD SWAP1 POP SWAP2 SWAP1 POP JUMP JUMPDEST PUSH0 DUP3 DUP3 MSTORE PUSH1 0x20 DUP3 ADD SWAP1 POP SWAP3 SWAP2 POP POP JUMP JUMPDEST PUSH0 JUMPDEST DUP4 DUP2 LT ISZERO PUSH2 0x1078 JUMPI DUP1 DUP3 ADD MLOAD DUP2 DUP5 ADD MSTORE PUSH1 0x20 DUP2 ADD SWAP1 POP PUSH2 0x105D JUMP JUMPDEST PUSH0 DUP5 DUP5 ADD MSTORE POP POP POP POP JUMP JUMPDEST PUSH0 PUSH1 0x1F NOT PUSH1 0x1F DUP4 ADD AND SWAP1 POP SWAP2 SWAP1 POP JUMP JUMPDEST PUSH0 PUSH2 0x109D DUP3 PUSH2 0x1041 JUMP JUMPDEST PUSH2 0x10A7 DUP2 DUP6 PUSH2 0x104B JUMP JUMPDEST SWAP4 POP PUSH2 0x10B7 DUP2 DUP6 PUSH1 0x20 DUP7 ADD PUSH2 0x105B JUMP JUMPDEST PUSH2 0x10C0 DUP2 PUSH2 0x1083 JUMP JUMPDEST DUP5 ADD SWAP2 POP POP SWAP3 SWAP2 POP POP JUMP JUMPDEST PUSH2 0x10D4 DUP2 PUSH2 0xFE3 JUMP JUMPDEST DUP3 MSTORE POP POP JUMP JUMPDEST PUSH0 PUSH1 0x40 DUP3 ADD SWAP1 POP DUP2 DUP2 SUB PUSH0 DUP4 ADD MSTORE PUSH2 0x10F2 DUP2 DUP6 PUSH2 0x1093 JUMP JUMPDEST SWAP1 POP PUSH2 0x1101 PUSH1 0x20 DUP4 ADD DUP5 PUSH2 0x10CB JUMP JUMPDEST SWAP4 SWAP3 POP POP POP JUMP JUMPDEST PUSH0 DUP1 REVERT JUMPDEST PUSH0 DUP1 REVERT JUMPDEST PUSH32 0x4E487B7100000000000000000000000000000000000000000000000000000000 PUSH0 MSTORE PUSH1 0x41 PUSH1 0x4 MSTORE PUSH1 0x24 PUSH0 REVERT JUMPDEST PUSH2 0x1146 DUP3 PUSH2 0x1083 JUMP JUMPDEST DUP2 ADD DUP2 DUP2 LT PUSH8 0xFFFFFFFFFFFFFFFF DUP3 GT OR ISZERO PUSH2 0x1165 JUMPI PUSH2 0x1164 PUSH2 0x1110 JUMP JUMPDEST JUMPDEST DUP1 PUSH1 0x40 MSTORE POP POP POP JUMP JUMPDEST PUSH0 PUSH2 0x1177 PUSH2 0xFD2 JUMP JUMPDEST SWAP1 POP PUSH2 0x1183 DUP3 DUP3 PUSH2 0x113D JUMP JUMPDEST SWAP2 SWAP1 POP JUMP JUMPDEST PUSH0 PUSH8 0xFFFFFFFFFFFFFFFF DUP3 GT ISZERO PUSH2 0x11A2 JUMPI PUSH2 0x11A1 PUSH2 0x1110 JUMP JUMPDEST JUMPDEST PUSH2 0x11AB DUP3 PUSH2 0x1083 JUMP JUMPDEST SWAP1 POP PUSH1 0x20 DUP2 ADD SWAP1 POP SWAP2 SWAP1 POP JUMP JUMPDEST DUP3 DUP2 DUP4 CALLDATACOPY PUSH0 DUP4 DUP4 ADD MSTORE POP POP POP JUMP JUMPDEST PUSH0 PUSH2 0x11D8 PUSH2 0x11D3 DUP5 PUSH2 0x1188 JUMP JUMPDEST PUSH2 0x116E JUMP JUMPDEST SWAP1 POP DUP3 DUP2 MSTORE PUSH1 0x20 DUP2 ADD DUP5 DUP5 DUP5 ADD GT ISZERO PUSH2 0x11F4 JUMPI PUSH2 0x11F3 PUSH2 0x110C JUMP JUMPDEST JUMPDEST PUSH2 0x11FF DUP5 DUP3 DUP6 PUSH2 0x11B8 JUMP JUMPDEST POP SWAP4 SWAP3 POP POP POP JUMP JUMPDEST PUSH0 DUP3 PUSH1 0x1F DUP4 ADD SLT PUSH2 0x121B JUMPI PUSH2 0x121A PUSH2 0x1108 JUMP JUMPDEST JUMPDEST DUP2 CALLDATALOAD PUSH2 0x122B DUP5 DUP3 PUSH1 0x20 DUP7 ADD PUSH2 0x11C6 JUMP JUMPDEST SWAP2 POP POP SWAP3 SWAP2 POP POP JUMP JUMPDEST PUSH0 DUP1 PUSH1 0x40 DUP4 DUP6 SUB SLT ISZERO PUSH2 0x124A JUMPI PUSH2 0x1249 PUSH2 0xFDB JUMP JUMPDEST JUMPDEST PUSH0 DUP4 ADD CALLDATALOAD PUSH8 0xFFFFFFFFFFFFFFFF DUP2 GT ISZERO PUSH2 0x1267 JUMPI PUSH2 0x1266 PUSH2 0xFDF JUMP JUMPDEST JUMPDEST PUSH2 0x1273 DUP6 DUP3 DUP7 ADD PUSH2 0x1207 JUMP JUMPDEST SWAP3 POP POP PUSH1 0x20 DUP4 ADD CALLDATALOAD PUSH8 0xFFFFFFFFFFFFFFFF DUP2 GT ISZERO PUSH2 0x1294 JUMPI PUSH2 0x1293 PUSH2 0xFDF JUMP JUMPDEST JUMPDEST PUSH2 0x12A0 DUP6 DUP3 DUP7 ADD PUSH2 0x1207 JUMP JUMPDEST SWAP2 POP POP SWAP3 POP SWAP3 SWAP1 POP JUMP JUMPDEST PUSH0 PUSH20 0xFFFFFFFFFFFFFFFFFFFFFFFFFFFFFFFFFFFFFFFF DUP3 AND SWAP1 POP SWAP2 SWAP1 POP JUMP JUMPDEST PUSH0 PUSH2 0x12D3 DUP3 PUSH2 0x12AA JUMP JUMPDEST SWAP1 POP SWAP2 SWAP1 POP JUMP JUMPDEST PUSH2 0x12E3 DUP2 PUSH2 0x12C9 JUMP JUMPDEST DUP3 MSTORE POP POP JUMP JUMPDEST PUSH0 PUSH1 0x20 DUP3 ADD SWAP1 POP PUSH2 0x12FC PUSH0 DUP4 ADD DUP5 PUSH2 0x12DA JUMP JUMPDEST SWAP3 SWAP2 POP POP JUMP JUMPDEST PUSH0 PUSH1 0x60 DUP3 ADD SWAP1 POP DUP2 DUP2 SUB PUSH0 DUP4 ADD MSTORE PUSH2 0x131A DUP2 DUP7 PUSH2 0x1093 JUMP JUMPDEST SWAP1 POP DUP2 DUP2 SUB PUSH1 0x20 DUP4 ADD MSTORE PUSH2 0x132E DUP2 DUP6 PUSH2 0x1093 JUMP JUMPDEST SWAP1 POP PUSH2 0x133D PUSH1 0x40 DUP4 ADD DUP5 PUSH2 0x10CB JUMP JUMPDEST SWAP5 SWAP4 POP POP POP POP JUMP JUMPDEST PUSH0 PUSH1 0x40 DUP3 ADD SWAP1 POP DUP2 DUP2 SUB PUSH0 DUP4 ADD MSTORE PUSH2 0x135D DUP2 DUP6 PUSH2 0x1093 JUMP JUMPDEST SWAP1 POP DUP2 DUP2 SUB PUSH1 0x20 DUP4 ADD MSTORE PUSH2 0x1371 DUP2 DUP5 PUSH2 0x1093 JUMP JUMPDEST SWAP1 POP SWAP4 SWAP3 POP POP POP JUMP JUMPDEST PUSH0 DUP1 PUSH1 0x40 DUP4 DUP6 SUB SLT ISZERO PUSH2 0x1390 JUMPI PUSH2 0x138F PUSH2 0xFDB JUMP JUMPDEST JUMPDEST PUSH0 DUP4 ADD CALLDATALOAD PUSH8 0xFFFFFFFFFFFFFFFF DUP2 GT ISZERO PUSH2 0x13AD JUMPI PUSH2 0x13AC PUSH2 0xFDF JUMP JUMPDEST JUMPDEST PUSH2 0x13B9 DUP6 DUP3 DUP7 ADD PUSH2 0x1207 JUMP JUMPDEST SWAP3 POP POP PUSH1 0x20 PUSH2 0x13CA DUP6 DUP3 DUP7 ADD PUSH2 0x1002 JUMP JUMPDEST SWAP2 POP POP SWAP3 POP SWAP3 SWAP1 POP JUMP JUMPDEST PUSH0 DUP2 ISZERO ISZERO SWAP1 POP SWAP2 SWAP1 POP JUMP JUMPDEST PUSH2 0x13E8 DUP2 PUSH2 0x13D4 JUMP JUMPDEST DUP3 MSTORE POP POP JUMP JUMPDEST PUSH0 PUSH1 0x40 DUP3 ADD SWAP1 POP DUP2 DUP2 SUB PUSH0 DUP4 ADD MSTORE PUSH2 0x1406 DUP2 DUP6 PUSH2 0x1093 JUMP JUMPDEST SWAP1 POP PUSH2 0x1415 PUSH1 0x20 DUP4 ADD DUP5 PUSH2 0x13DF JUMP JUMPDEST SWAP4 SWAP3 POP POP POP JUMP JUMPDEST PUSH0 PUSH1 0x20 DUP3 ADD SWAP1 POP PUSH2 0x142F PUSH0 DUP4 ADD DUP5 PUSH2 0x10CB JUMP JUMPDEST SWAP3 SWAP2 POP POP JUMP JUMPDEST PUSH0 PUSH1 0xFF DUP3 AND SWAP1 POP SWAP2 SWAP1 POP JUMP JUMPDEST PUSH2 0x144A DUP2 PUSH2 0x1435 JUMP JUMPDEST DUP2 EQ PUSH2 0x1454 JUMPI PUSH0 DUP1 REVERT JUMPDEST POP JUMP JUMPDEST PUSH0 DUP2 CALLDATALOAD SWAP1 POP PUSH2 0x1465 DUP2 PUSH2 0x1441 JUMP JUMPDEST SWAP3 SWAP2 POP POP JUMP JUMPDEST PUSH0 DUP1 PUSH1 0x40 DUP4 DUP6 SUB SLT ISZERO PUSH2 0x1481 JUMPI PUSH2 0x1480 PUSH2 0xFDB JUMP JUMPDEST JUMPDEST PUSH0 DUP4 ADD CALLDATALOAD PUSH8 0xFFFFFFFFFFFFFFFF DUP2 GT ISZERO PUSH2 0x149E JUMPI PUSH2 0x149D PUSH2 0xFDF JUMP JUMPDEST JUMPDEST PUSH2 0x14AA DUP6 DUP3 DUP7 ADD PUSH2 0x1207 JUMP JUMPDEST SWAP3 POP POP PUSH1 0x20 PUSH2 0x14BB DUP6 DUP3 DUP7 ADD PUSH2 0x1457 JUMP JUMPDEST SWAP2 POP POP SWAP3 POP SWAP3 SWAP1 POP JUMP JUMPDEST PUSH0 DUP2 MLOAD SWAP1 POP SWAP2 SWAP1 POP JUMP JUMPDEST PUSH0 DUP3 DUP3 MSTORE PUSH1 0x20 DUP3 ADD SWAP1 POP SWAP3 SWAP2 POP POP JUMP JUMPDEST PUSH0 DUP2 SWAP1 POP PUSH1 0x20 DUP3 ADD SWAP1 POP SWAP2 SWAP1 POP JUMP JUMPDEST PUSH0 DUP3 DUP3 MSTORE PUSH1 0x20 DUP3 ADD SWAP1 POP SWAP3 SWAP2 POP POP JUMP JUMPDEST PUSH0 PUSH2 0x1508 DUP3 PUSH2 0x1041 JUMP JUMPDEST PUSH2 0x1512 DUP2 DUP6 PUSH2 0x14EE JUMP JUMPDEST SWAP4 POP PUSH2 0x1522 DUP2 DUP6 PUSH1 0x20 DUP7 ADD PUSH2 0x105B JUMP JUMPDEST PUSH2 0x152B DUP2 PUSH2 0x1083 JUMP JUMPDEST DUP5 ADD SWAP2 POP POP SWAP3 SWAP2 POP POP JUMP JUMPDEST PUSH2 0x153F DUP2 PUSH2 0xFE3 JUMP JUMPDEST DUP3 MSTORE POP POP JUMP JUMPDEST PUSH0 PUSH1 0x60 DUP4 ADD PUSH0 DUP4 ADD MLOAD DUP5 DUP3 SUB PUSH0 DUP7 ADD MSTORE PUSH2 0x155F DUP3 DUP3 PUSH2 0x14FE JUMP JUMPDEST SWAP2 POP POP PUSH1 0x20 DUP4 ADD MLOAD DUP5 DUP3 SUB PUSH1 0x20 DUP7 ADD MSTORE PUSH2 0x1579 DUP3 DUP3 PUSH2 0x14FE JUMP JUMPDEST SWAP2 POP POP PUSH1 0x40 DUP4 ADD MLOAD PUSH2 0x158E PUSH1 0x40 DUP7 ADD DUP3 PUSH2 0x1536 JUMP JUMPDEST POP DUP1 SWAP2 POP POP SWAP3 SWAP2 POP POP JUMP JUMPDEST PUSH0 PUSH2 0x15A4 DUP4 DUP4 PUSH2 0x1545 JUMP JUMPDEST SWAP1 POP SWAP3 SWAP2 POP POP JUMP JUMPDEST PUSH0 PUSH1 0x20 DUP3 ADD SWAP1 POP SWAP2 SWAP1 POP JUMP JUMPDEST PUSH0 PUSH2 0x15C2 DUP3 PUSH2 0x14C5 JUMP JUMPDEST PUSH2 0x15CC DUP2 DUP6 PUSH2 0x14CF JUMP JUMPDEST SWAP4 POP DUP4 PUSH1 0x20 DUP3 MUL DUP6 ADD PUSH2 0x15DE DUP6 PUSH2 0x14DF JUMP JUMPDEST DUP1 PUSH0 JUMPDEST DUP6 DUP2 LT ISZERO PUSH2 0x1619 JUMPI DUP5 DUP5 SUB DUP10 MSTORE DUP2 MLOAD PUSH2 0x15FA DUP6 DUP3 PUSH2 0x1599 JUMP JUMPDEST SWAP5 POP PUSH2 0x1605 DUP4 PUSH2 0x15AC JUMP JUMPDEST SWAP3 POP PUSH1 0x20 DUP11 ADD SWAP10 POP POP PUSH1 0x1 DUP2 ADD SWAP1 POP PUSH2 0x15E1 JUMP JUMPDEST POP DUP3 SWAP8 POP DUP8 SWAP6 POP POP POP POP POP POP SWAP3 SWAP2 POP POP JUMP JUMPDEST PUSH0 PUSH1 0x20 DUP3 ADD SWAP1 POP DUP2 DUP2 SUB PUSH0 DUP4 ADD MSTORE PUSH2 0x1643 DUP2 DUP5 PUSH2 0x15B8 JUMP JUMPDEST SWAP1 POP SWAP3 SWAP2 POP POP JUMP JUMPDEST PUSH2 0x1654 DUP2 PUSH2 0x12C9 JUMP JUMPDEST DUP2 EQ PUSH2 0x165E JUMPI PUSH0 DUP1 REVERT JUMPDEST POP JUMP JUMPDEST PUSH0 DUP2 CALLDATALOAD SWAP1 POP PUSH2 0x166F DUP2 PUSH2 0x164B JUMP JUMPDEST SWAP3 SWAP2 POP POP JUMP JUMPDEST PUSH0 PUSH1 0x20 DUP3 DUP5 SUB SLT ISZERO PUSH2 0x168A JUMPI PUSH2 0x1689 PUSH2 0xFDB JUMP JUMPDEST JUMPDEST PUSH0 PUSH2 0x1697 DUP5 DUP3 DUP6 ADD PUSH2 0x1661 JUMP JUMPDEST SWAP2 POP POP SWAP3 SWAP2 POP POP JUMP JUMPDEST PUSH32 0x4E487B7100000000000000000000000000000000000000000000000000000000 PUSH0 MSTORE PUSH1 0x11 PUSH1 0x4 MSTORE PUSH1 0x24 PUSH0 REVERT JUMPDEST PUSH0 PUSH2 0x16D7 DUP3 PUSH2 0xFE3 JUMP JUMPDEST SWAP2 POP PUSH2 0x16E2 DUP4 PUSH2 0xFE3 JUMP JUMPDEST SWAP3 POP DUP3 DUP3 ADD SWAP1 POP DUP1 DUP3 GT ISZERO PUSH2 0x16FA JUMPI PUSH2 0x16F9 PUSH2 0x16A0 JUMP JUMPDEST JUMPDEST SWAP3 SWAP2 POP POP JUMP JUMPDEST PUSH32 0x4E487B7100000000000000000000000000000000000000000000000000000000 PUSH0 MSTORE PUSH1 0x32 PUSH1 0x4 MSTORE PUSH1 0x24 PUSH0 REVERT JUMPDEST PUSH32 0x4E487B7100000000000000000000000000000000000000000000000000000000 PUSH0 MSTORE PUSH1 0x22 PUSH1 0x4 MSTORE PUSH1 0x24 PUSH0 REVERT JUMPDEST PUSH0 PUSH1 0x2 DUP3 DIV SWAP1 POP PUSH1 0x1 DUP3 AND DUP1 PUSH2 0x1771 JUMPI PUSH1 0x7F DUP3 AND SWAP2 POP JUMPDEST PUSH1 0x20 DUP3 LT DUP2 SUB PUSH2 0x1784 JUMPI PUSH2 0x1783 PUSH2 0x172D JUMP JUMPDEST JUMPDEST POP SWAP2 SWAP1 POP JUMP JUMPDEST PUSH0 DUP2 SWAP1 POP DUP2 PUSH0 MSTORE PUSH1 0x20 PUSH0 KECCAK256 SWAP1 POP SWAP2 SWAP1 POP JUMP JUMPDEST PUSH0 DUP2 SLOAD PUSH2 0x17A8 DUP2 PUSH2 0x175A JUMP JUMPDEST PUSH2 0x17B2 DUP2 DUP7 PUSH2 0x104B JUMP JUMPDEST SWAP5 POP PUSH1 0x1 DUP3 AND PUSH0 DUP2 EQ PUSH2 0x17CC JUMPI PUSH1 0x1 DUP2 EQ PUSH2 0x17E2 JUMPI PUSH2 0x1814 JUMP JUMPDEST PUSH1 0xFF NOT DUP4 AND DUP7 MSTORE DUP2 ISZERO ISZERO PUSH1 0x20 MUL DUP7 ADD SWAP4 POP PUSH2 0x1814 JUMP JUMPDEST PUSH2 0x17EB DUP6 PUSH2 0x178A JUMP JUMPDEST PUSH0 JUMPDEST DUP4 DUP2 LT ISZERO PUSH2 0x180C JUMPI DUP2 SLOAD DUP2 DUP10 ADD MSTORE PUSH1 0x1 DUP3 ADD SWAP2 POP PUSH1 0x20 DUP2 ADD SWAP1 POP PUSH2 0x17ED JUMP JUMPDEST DUP1 DUP9 ADD SWAP6 POP POP POP JUMPDEST POP POP POP SWAP3 SWAP2 POP POP JUMP JUMPDEST PUSH0 PUSH1 0x40 DUP3 ADD SWAP1 POP PUSH2 0x1830 PUSH0 DUP4 ADD DUP6 PUSH2 0x10CB JUMP JUMPDEST DUP2 DUP2 SUB PUSH1 0x20 DUP4 ADD MSTORE PUSH2 0x1842 DUP2 DUP5 PUSH2 0x179C JUMP JUMPDEST SWAP1 POP SWAP4 SWAP3 POP POP POP JUMP JUMPDEST PUSH0 PUSH2 0x1855 DUP3 PUSH2 0xFE3 JUMP JUMPDEST SWAP2 POP PUSH2 0x1860 DUP4 PUSH2 0xFE3 JUMP JUMPDEST SWAP3 POP DUP3 DUP3 SUB SWAP1 POP DUP2 DUP2 GT ISZERO PUSH2 0x1878 JUMPI PUSH2 0x1877 PUSH2 0x16A0 JUMP JUMPDEST JUMPDEST SWAP3 SWAP2 POP POP JUMP JUMPDEST PUSH0 DUP2 SWAP1 POP SWAP3 SWAP2 POP POP JUMP JUMPDEST PUSH0 PUSH2 0x1892 DUP3 PUSH2 0x1041 JUMP JUMPDEST PUSH2 0x189C DUP2 DUP6 PUSH2 0x187E JUMP JUMPDEST SWAP4 POP PUSH2 0x18AC DUP2 DUP6 PUSH1 0x20 DUP7 ADD PUSH2 0x105B JUMP JUMPDEST DUP1 DUP5 ADD SWAP2 POP POP SWAP3 SWAP2 POP POP JUMP JUMPDEST PUSH0 PUSH2 0x18C3 DUP3 DUP5 PUSH2 0x1888 JUMP JUMPDEST SWAP2 POP DUP2 SWAP1 POP SWAP3 SWAP2 POP POP JUMP JUMPDEST PUSH0 PUSH1 0x20 PUSH1 0x1F DUP4 ADD DIV SWAP1 POP SWAP2 SWAP1 POP JUMP JUMPDEST PUSH0 DUP3 DUP3 SHL SWAP1 POP SWAP3 SWAP2 POP POP JUMP JUMPDEST PUSH0 PUSH1 0x8 DUP4 MUL PUSH2 0x1918 PUSH32 0xFFFFFFFFFFFFFFFFFFFFFFFFFFFFFFFFFFFFFFFFFFFFFFFFFFFFFFFFFFFFFFFF DUP3 PUSH2 0x18DD JUMP JUMPDEST PUSH2 0x1922 DUP7 DUP4 PUSH2 0x18DD JUMP JUMPDEST SWAP6 POP DUP1 NOT DUP5 AND SWAP4 POP DUP1 DUP7 AND DUP5 OR SWAP3 POP POP POP SWAP4 SWAP3 POP POP POP JUMP JUMPDEST PUSH0 DUP2 SWAP1 POP SWAP2 SWAP1 POP JUMP JUMPDEST PUSH0 PUSH2 0x195D PUSH2 0x1958 PUSH2 0x1953 DUP5 PUSH2 0xFE3 JUMP JUMPDEST PUSH2 0x193A JUMP JUMPDEST PUSH2 0xFE3 JUMP JUMPDEST SWAP1 POP SWAP2 SWAP1 POP JUMP JUMPDEST PUSH0 DUP2 SWAP1 POP SWAP2 SWAP1 POP JUMP JUMPDEST PUSH2 0x1976 DUP4 PUSH2 0x1943 JUMP JUMPDEST PUSH2 0x198A PUSH2 0x1982 DUP3 PUSH2 0x1964 JUMP JUMPDEST DUP5 DUP5 SLOAD PUSH2 0x18E9 JUMP JUMPDEST DUP3 SSTORE POP POP POP POP JUMP JUMPDEST PUSH0 SWAP1 JUMP JUMPDEST PUSH2 0x199E PUSH2 0x1992 JUMP JUMPDEST PUSH2 0x19A9 DUP2 DUP5 DUP5 PUSH2 0x196D JUMP JUMPDEST POP POP POP JUMP JUMPDEST JUMPDEST DUP2 DUP2 LT ISZERO PUSH2 0x19CC JUMPI PUSH2 0x19C1 PUSH0 DUP3 PUSH2 0x1996 JUMP JUMPDEST PUSH1 0x1 DUP2 ADD SWAP1 POP PUSH2 0x19AF JUMP JUMPDEST POP POP JUMP JUMPDEST PUSH1 0x1F DUP3 GT ISZERO PUSH2 0x1A11 JUMPI PUSH2 0x19E2 DUP2 PUSH2 0x178A JUMP JUMPDEST PUSH2 0x19EB DUP5 PUSH2 0x18CE JUMP JUMPDEST DUP2 ADD PUSH1 0x20 DUP6 LT ISZERO PUSH2 0x19FA JUMPI DUP2 SWAP1 POP JUMPDEST PUSH2 0x1A0E PUSH2 0x1A06 DUP6 PUSH2 0x18CE JUMP JUMPDEST DUP4 ADD DUP3 PUSH2 0x19AE JUMP JUMPDEST POP POP JUMPDEST POP POP POP JUMP JUMPDEST PUSH0 DUP3 DUP3 SHR SWAP1 POP SWAP3 SWAP2 POP POP JUMP JUMPDEST PUSH0 PUSH2 0x1A31 PUSH0 NOT DUP5 PUSH1 0x8 MUL PUSH2 0x1A16 JUMP JUMPDEST NOT DUP1 DUP4 AND SWAP2 POP POP SWAP3 SWAP2 POP POP JUMP JUMPDEST PUSH0 PUSH2 0x1A49 DUP4 DUP4 PUSH2 0x1A22 JUMP JUMPDEST SWAP2 POP DUP3 PUSH1 0x2 MUL DUP3 OR SWAP1 POP SWAP3 SWAP2 POP POP JUMP JUMPDEST PUSH2 0x1A62 DUP3 PUSH2 0x1041 JUMP JUMPDEST PUSH8 0xFFFFFFFFFFFFFFFF DUP2 GT ISZERO PUSH2 0x1A7B JUMPI PUSH2 0x1A7A PUSH2 0x1110 JUMP JUMPDEST JUMPDEST PUSH2 0x1A85 DUP3 SLOAD PUSH2 0x175A JUMP JUMPDEST PUSH2 0x1A90 DUP3 DUP3 DUP6 PUSH2 0x19D0 JUMP JUMPDEST PUSH0 PUSH1 0x20 SWAP1 POP PUSH1 0x1F DUP4 GT PUSH1 0x1 DUP2 EQ PUSH2 0x1AC1 JUMPI PUSH0 DUP5 ISZERO PUSH2 0x1AAF JUMPI DUP3 DUP8 ADD MLOAD SWAP1 POP JUMPDEST PUSH2 0x1AB9 DUP6 DUP3 PUSH2 0x1A3E JUMP JUMPDEST DUP7 SSTORE POP PUSH2 0x1B20 JUMP JUMPDEST PUSH1 0x1F NOT DUP5 AND PUSH2 0x1ACF DUP7 PUSH2 0x178A JUMP JUMPDEST PUSH0 JUMPDEST DUP3 DUP2 LT ISZERO PUSH2 0x1AF6 JUMPI DUP5 DUP10 ADD MLOAD DUP3 SSTORE PUSH1 0x1 DUP3 ADD SWAP2 POP PUSH1 0x20 DUP6 ADD SWAP5 POP PUSH1 0x20 DUP2 ADD SWAP1 POP PUSH2 0x1AD1 JUMP JUMPDEST DUP7 DUP4 LT ISZERO PUSH2 0x1B13 JUMPI DUP5 DUP10 ADD MLOAD PUSH2 0x1B0F PUSH1 0x1F DUP10 AND DUP3 PUSH2 0x1A22 JUMP JUMPDEST DUP4 SSTORE POP JUMPDEST PUSH1 0x1 PUSH1 0x2 DUP9 MUL ADD DUP9 SSTORE POP POP POP JUMPDEST POP POP POP POP POP POP JUMP INVALID LOG2 PUSH5 0x6970667358 0x22 SLT KECCAK256 EXP 0xDB PUSH4 0x9994FB88 0x21 0x4B BALANCE REVERT 0xC4 CHAINID CALLDATASIZE ISZERO KECCAK256 0xBA 0xD 0x2A EXP DUP16 ADDMOD SIGNEXTEND CODECOPY 0xAD COINBASE 0xB7 EXTCODESIZE ADD DUP13 BALANCE 0xD8 PUSH5 0x736F6C6343 STOP ADDMOD AND STOP CALLER "
				},
				"gasEstimates": {
					"creation": {
						"codeDepositCost": "1401200",
						"executionCost": "infinite",
						"totalCost": "infinite"
					},
					"external": {
						"candidatos(uint256)": "infinite",
						"crearJornada(string,uint256)": "infinite",
						"enviarVoto(uint256)": "infinite",
						"inscribirCandidato(string,string)": "infinite",
						"inscribirParticipante(string,uint8)": "infinite",
						"jornadaVotacion()": "infinite",
						"owner()": "2560",
						"participantes(uint256)": "infinite",
						"renounceOwnership()": "infinite",
						"transferOwnership(address)": "infinite",
						"verCandidato(uint256)": "infinite",
						"verNumeroCandidatos()": "infinite",
						"verResultadoVotaciones()": "infinite",
						"verTotalVotos()": "infinite"
					},
					"internal": {
						"_crearCandidato(string memory,string memory)": "infinite",
						"_crearParticipante(string memory)": "infinite"
					}
				},
				"methodIdentifiers": {
					"candidatos(uint256)": "8f023f85",
					"crearJornada(string,uint256)": "b0c73513",
					"enviarVoto(uint256)": "0e0864cb",
					"inscribirCandidato(string,string)": "89813f84",
					"inscribirParticipante(string,uint8)": "c1961cea",
					"jornadaVotacion()": "6cdf69f0",
					"owner()": "8da5cb5b",
					"participantes(uint256)": "b25924c1",
					"renounceOwnership()": "715018a6",
					"transferOwnership(address)": "f2fde38b",
					"verCandidato(uint256)": "8f6021c3",
					"verNumeroCandidatos()": "e3446174",
					"verResultadoVotaciones()": "ee55f11e",
					"verTotalVotos()": "b5e422d4"
				}
			},
			"storageLayout": {
				"storage": [
					{
						"astId": 8,
						"contract": "contracts/Urna.sol:Urna",
						"label": "_owner",
						"offset": 0,
						"slot": "0",
						"type": "t_address"
					},
					{
						"astId": 193,
						"contract": "contracts/Urna.sol:Urna",
						"label": "duracionJornada",
						"offset": 0,
						"slot": "1",
						"type": "t_uint256"
					},
					{
						"astId": 196,
						"contract": "contracts/Urna.sol:Urna",
						"label": "limiteInscripciones",
						"offset": 0,
						"slot": "2",
						"type": "t_uint256"
					},
					{
						"astId": 217,
						"contract": "contracts/Urna.sol:Urna",
						"label": "candidatos",
						"offset": 0,
						"slot": "3",
						"type": "t_array(t_struct(Candidato)208_storage)dyn_storage"
					},
					{
						"astId": 221,
						"contract": "contracts/Urna.sol:Urna",
						"label": "participantes",
						"offset": 0,
						"slot": "4",
						"type": "t_array(t_struct(Participante)213_storage)dyn_storage"
					},
					{
						"astId": 224,
						"contract": "contracts/Urna.sol:Urna",
						"label": "jornadaVotacion",
						"offset": 0,
						"slot": "5",
						"type": "t_struct(Jornada)201_storage"
					},
					{
						"astId": 228,
						"contract": "contracts/Urna.sol:Urna",
						"label": "votoACandidato",
						"offset": 0,
						"slot": "7",
						"type": "t_mapping(t_address,t_uint256)"
					},
					{
						"astId": 232,
						"contract": "contracts/Urna.sol:Urna",
						"label": "inscripcionParticipante",
						"offset": 0,
						"slot": "8",
						"type": "t_mapping(t_address,t_uint256)"
					},
					{
						"astId": 236,
						"contract": "contracts/Urna.sol:Urna",
						"label": "candidatoPartido",
						"offset": 0,
						"slot": "9",
						"type": "t_mapping(t_string_memory_ptr,t_uint256)"
					}
				],
				"types": {
					"t_address": {
						"encoding": "inplace",
						"label": "address",
						"numberOfBytes": "20"
					},
					"t_array(t_struct(Candidato)208_storage)dyn_storage": {
						"base": "t_struct(Candidato)208_storage",
						"encoding": "dynamic_array",
						"label": "struct Urna.Candidato[]",
						"numberOfBytes": "32"
					},
					"t_array(t_struct(Participante)213_storage)dyn_storage": {
						"base": "t_struct(Participante)213_storage",
						"encoding": "dynamic_array",
						"label": "struct Urna.Participante[]",
						"numberOfBytes": "32"
					},
					"t_bool": {
						"encoding": "inplace",
						"label": "bool",
						"numberOfBytes": "1"
					},
					"t_mapping(t_address,t_uint256)": {
						"encoding": "mapping",
						"key": "t_address",
						"label": "mapping(address => uint256)",
						"numberOfBytes": "32",
						"value": "t_uint256"
					},
					"t_mapping(t_string_memory_ptr,t_uint256)": {
						"encoding": "mapping",
						"key": "t_string_memory_ptr",
						"label": "mapping(string => uint256)",
						"numberOfBytes": "32",
						"value": "t_uint256"
					},
					"t_string_memory_ptr": {
						"encoding": "bytes",
						"label": "string",
						"numberOfBytes": "32"
					},
					"t_string_storage": {
						"encoding": "bytes",
						"label": "string",
						"numberOfBytes": "32"
					},
					"t_struct(Candidato)208_storage": {
						"encoding": "inplace",
						"label": "struct Urna.Candidato",
						"members": [
							{
								"astId": 203,
								"contract": "contracts/Urna.sol:Urna",
								"label": "nombre",
								"offset": 0,
								"slot": "0",
								"type": "t_string_storage"
							},
							{
								"astId": 205,
								"contract": "contracts/Urna.sol:Urna",
								"label": "partido",
								"offset": 0,
								"slot": "1",
								"type": "t_string_storage"
							},
							{
								"astId": 207,
								"contract": "contracts/Urna.sol:Urna",
								"label": "votos",
								"offset": 0,
								"slot": "2",
								"type": "t_uint256"
							}
						],
						"numberOfBytes": "96"
					},
					"t_struct(Jornada)201_storage": {
						"encoding": "inplace",
						"label": "struct Urna.Jornada",
						"members": [
							{
								"astId": 198,
								"contract": "contracts/Urna.sol:Urna",
								"label": "nombre",
								"offset": 0,
								"slot": "0",
								"type": "t_string_storage"
							},
							{
								"astId": 200,
								"contract": "contracts/Urna.sol:Urna",
								"label": "fechaHoraInicio",
								"offset": 0,
								"slot": "1",
								"type": "t_uint256"
							}
						],
						"numberOfBytes": "64"
					},
					"t_struct(Participante)213_storage": {
						"encoding": "inplace",
						"label": "struct Urna.Participante",
						"members": [
							{
								"astId": 210,
								"contract": "contracts/Urna.sol:Urna",
								"label": "nombre",
								"offset": 0,
								"slot": "0",
								"type": "t_string_storage"
							},
							{
								"astId": 212,
								"contract": "contracts/Urna.sol:Urna",
								"label": "haVotado",
								"offset": 0,
								"slot": "1",
								"type": "t_bool"
							}
						],
						"numberOfBytes": "64"
					},
					"t_uint256": {
						"encoding": "inplace",
						"label": "uint256",
						"numberOfBytes": "32"
					}
				}
			},
			"userdoc": {
				"kind": "user",
				"methods": {},
				"version": 1
			}
		}
	}
}