{
	"contracts/Urna.sol": {
		"Urna": {
			"abi": [
				{
					"inputs": [
						{
							"internalType": "address",
							"name": "initialOwner",
							"type": "address"
						}
					],
					"stateMutability": "nonpayable",
					"type": "constructor"
				},
				{
					"inputs": [
						{
							"internalType": "address",
							"name": "owner",
							"type": "address"
						}
					],
					"name": "OwnableInvalidOwner",
					"type": "error"
				},
				{
					"inputs": [
						{
							"internalType": "address",
							"name": "account",
							"type": "address"
						}
					],
					"name": "OwnableUnauthorizedAccount",
					"type": "error"
				},
				{
					"anonymous": false,
					"inputs": [
						{
							"indexed": true,
							"internalType": "address",
							"name": "previousOwner",
							"type": "address"
						},
						{
							"indexed": true,
							"internalType": "address",
							"name": "newOwner",
							"type": "address"
						}
					],
					"name": "OwnershipTransferred",
					"type": "event"
				},
				{
					"anonymous": false,
					"inputs": [
						{
							"indexed": false,
							"internalType": "uint256",
							"name": "idCandidato",
							"type": "uint256"
						},
						{
							"indexed": false,
							"internalType": "string",
							"name": "nombreCandidato",
							"type": "string"
						}
					],
					"name": "VotoRegistrado",
					"type": "event"
				},
				{
					"inputs": [
						{
							"internalType": "uint256",
							"name": "",
							"type": "uint256"
						}
					],
					"name": "candidatos",
					"outputs": [
						{
							"internalType": "string",
							"name": "nombre",
							"type": "string"
						},
						{
							"internalType": "string",
							"name": "partido",
							"type": "string"
						},
						{
							"internalType": "uint256",
							"name": "votos",
							"type": "uint256"
						}
					],
					"stateMutability": "view",
					"type": "function"
				},
				{
					"inputs": [
						{
							"internalType": "string",
							"name": "_nombre",
							"type": "string"
						},
						{
							"internalType": "uint256",
							"name": "_fechaHoraInicio",
							"type": "uint256"
						}
					],
					"name": "crearJornada",
					"outputs": [],
					"stateMutability": "nonpayable",
					"type": "function"
				},
				{
					"inputs": [
						{
							"internalType": "uint256",
							"name": "_idCandidato",
							"type": "uint256"
						}
					],
					"name": "enviarVoto",
					"outputs": [],
					"stateMutability": "nonpayable",
					"type": "function"
				},
				{
					"inputs": [
						{
							"internalType": "string",
							"name": "_partido",
							"type": "string"
						},
						{
							"internalType": "string",
							"name": "_nombre",
							"type": "string"
						}
					],
					"name": "inscribirCandidato",
					"outputs": [],
					"stateMutability": "nonpayable",
					"type": "function"
				},
				{
					"inputs": [
						{
							"internalType": "string",
							"name": "_nombre",
							"type": "string"
						},
						{
							"internalType": "uint8",
							"name": "_edad",
							"type": "uint8"
						}
					],
					"name": "inscribirParticipante",
					"outputs": [],
					"stateMutability": "nonpayable",
					"type": "function"
				},
				{
					"inputs": [],
					"name": "jornadaVotacion",
					"outputs": [
						{
							"internalType": "string",
							"name": "nombre",
							"type": "string"
						},
						{
							"internalType": "uint256",
							"name": "fechaHoraInicio",
							"type": "uint256"
						}
					],
					"stateMutability": "view",
					"type": "function"
				},
				{
					"inputs": [],
					"name": "owner",
					"outputs": [
						{
							"internalType": "address",
							"name": "",
							"type": "address"
						}
					],
					"stateMutability": "view",
					"type": "function"
				},
				{
					"inputs": [
						{
							"internalType": "uint256",
							"name": "",
							"type": "uint256"
						}
					],
					"name": "participantes",
					"outputs": [
						{
							"internalType": "string",
							"name": "nombre",
							"type": "string"
						},
						{
							"internalType": "bool",
							"name": "haVotado",
							"type": "bool"
						}
					],
					"stateMutability": "view",
					"type": "function"
				},
				{
					"inputs": [
						{
							"internalType": "uint256",
							"name": "",
							"type": "uint256"
						}
					],
					"name": "partidos",
					"outputs": [
						{
							"internalType": "string",
							"name": "nombre",
							"type": "string"
						}
					],
					"stateMutability": "view",
					"type": "function"
				},
				{
					"inputs": [],
					"name": "renounceOwnership",
					"outputs": [],
					"stateMutability": "nonpayable",
					"type": "function"
				},
				{
					"inputs": [
						{
							"internalType": "address",
							"name": "newOwner",
							"type": "address"
						}
					],
					"name": "transferOwnership",
					"outputs": [],
					"stateMutability": "nonpayable",
					"type": "function"
				},
				{
					"inputs": [
						{
							"internalType": "uint256",
							"name": "_idCandidato",
							"type": "uint256"
						}
					],
					"name": "verCandidato",
					"outputs": [
						{
							"internalType": "string",
							"name": "",
							"type": "string"
						},
						{
							"internalType": "string",
							"name": "",
							"type": "string"
						}
					],
					"stateMutability": "view",
					"type": "function"
				},
				{
					"inputs": [],
					"name": "verNumeroCandidatos",
					"outputs": [
						{
							"internalType": "uint256",
							"name": "",
							"type": "uint256"
						}
					],
					"stateMutability": "view",
					"type": "function"
				},
				{
					"inputs": [],
					"name": "verResultadoVotaciones",
					"outputs": [
						{
							"components": [
								{
									"internalType": "string",
									"name": "nombre",
									"type": "string"
								},
								{
									"internalType": "string",
									"name": "partido",
									"type": "string"
								},
								{
									"internalType": "uint256",
									"name": "votos",
									"type": "uint256"
								}
							],
							"internalType": "struct Urna.Candidato[]",
							"name": "",
							"type": "tuple[]"
						}
					],
					"stateMutability": "view",
					"type": "function"
				},
				{
					"inputs": [],
					"name": "verTotalVotos",
					"outputs": [
						{
							"internalType": "uint256",
							"name": "",
							"type": "uint256"
						}
					],
					"stateMutability": "view",
					"type": "function"
				},
				{
					"inputs": [],
					"name": "verVoto",
					"outputs": [
						{
							"internalType": "uint256",
							"name": "",
							"type": "uint256"
						}
					],
					"stateMutability": "view",
					"type": "function"
				}
			],
			"devdoc": {
				"errors": {
					"OwnableInvalidOwner(address)": [
						{
							"details": "The owner is not a valid owner account. (eg. `address(0)`)"
						}
					],
					"OwnableUnauthorizedAccount(address)": [
						{
							"details": "The caller account is not authorized to perform an operation."
						}
					]
				},
				"kind": "dev",
				"methods": {
					"owner()": {
						"details": "Returns the address of the current owner."
					},
					"renounceOwnership()": {
						"details": "Leaves the contract without owner. It will not be possible to call `onlyOwner` functions. Can only be called by the current owner. NOTE: Renouncing ownership will leave the contract without an owner, thereby disabling any functionality that is only available to the owner."
					},
					"transferOwnership(address)": {
						"details": "Transfers ownership of the contract to a new account (`newOwner`). Can only be called by the current owner."
					}
				},
				"version": 1
			},
			"evm": {
				"assembly": "    /* \"contracts/Urna.sol\":114:4649  contract Urna is Ownable {... */\n  mstore(0x40, 0x80)\n    /* \"contracts/Urna.sol\":310:317  8 hours */\n  0x7080\n    /* \"contracts/Urna.sol\":287:317  uint duracionJornada = 8 hours */\n  0x01\n  sstore\n    /* \"contracts/Urna.sol\":351:357  1 days */\n  0x015180\n    /* \"contracts/Urna.sol\":324:357  uint limiteInscripciones = 1 days */\n  0x02\n  sstore\n    /* \"contracts/Urna.sol\":146:204  constructor(address initialOwner) Ownable(initialOwner) {} */\n  callvalue\n  dup1\n  iszero\n  tag_1\n  jumpi\n  0x00\n  dup1\n  revert\ntag_1:\n  pop\n  mload(0x40)\n  sub(codesize, bytecodeSize)\n  dup1\n  bytecodeSize\n  dup4\n  codecopy\n  dup2\n  dup2\n  add\n  0x40\n  mstore\n  dup2\n  add\n  swap1\n  tag_2\n  swap2\n  swap1\n  tag_3\n  jump\t// in\ntag_2:\n    /* \"contracts/Urna.sol\":188:200  initialOwner */\n  dup1\n    /* \"OpenZeppelin-Ownable/access/Ownable.sol\":2555:2556  0 */\n  0x00\n    /* \"OpenZeppelin-Ownable/access/Ownable.sol\":2531:2557  initialOwner == address(0) */\n  0xffffffffffffffffffffffffffffffffffffffff\n  and\n    /* \"OpenZeppelin-Ownable/access/Ownable.sol\":2531:2543  initialOwner */\n  dup2\n    /* \"OpenZeppelin-Ownable/access/Ownable.sol\":2531:2557  initialOwner == address(0) */\n  0xffffffffffffffffffffffffffffffffffffffff\n  and\n  sub\n    /* \"OpenZeppelin-Ownable/access/Ownable.sol\":2527:2622  if (initialOwner == address(0)) {... */\n  tag_7\n  jumpi\n    /* \"OpenZeppelin-Ownable/access/Ownable.sol\":2608:2609  0 */\n  0x00\n    /* \"OpenZeppelin-Ownable/access/Ownable.sol\":2580:2611  OwnableInvalidOwner(address(0)) */\n  mload(0x40)\n  0x1e4fbdf700000000000000000000000000000000000000000000000000000000\n  dup2\n  mstore\n  0x04\n  add\n  tag_8\n  swap2\n  swap1\n  tag_9\n  jump\t// in\ntag_8:\n  mload(0x40)\n  dup1\n  swap2\n  sub\n  swap1\n  revert\n    /* \"OpenZeppelin-Ownable/access/Ownable.sol\":2527:2622  if (initialOwner == address(0)) {... */\ntag_7:\n    /* \"OpenZeppelin-Ownable/access/Ownable.sol\":2631:2663  _transferOwnership(initialOwner) */\n  tag_10\n    /* \"OpenZeppelin-Ownable/access/Ownable.sol\":2650:2662  initialOwner */\n  dup2\n    /* \"OpenZeppelin-Ownable/access/Ownable.sol\":2631:2649  _transferOwnership */\n  shl(0x20, tag_11)\n    /* \"OpenZeppelin-Ownable/access/Ownable.sol\":2631:2663  _transferOwnership(initialOwner) */\n  0x20\n  shr\n  jump\t// in\ntag_10:\n    /* \"OpenZeppelin-Ownable/access/Ownable.sol\":2483:2670  constructor(address initialOwner) {... */\n  pop\n    /* \"contracts/Urna.sol\":146:204  constructor(address initialOwner) Ownable(initialOwner) {} */\n  pop\n    /* \"contracts/Urna.sol\":114:4649  contract Urna is Ownable {... */\n  jump(tag_13)\n    /* \"OpenZeppelin-Ownable/access/Ownable.sol\":4170:4357  function _transferOwnership(address newOwner) internal virtual {... */\ntag_11:\n    /* \"OpenZeppelin-Ownable/access/Ownable.sol\":4243:4259  address oldOwner */\n  0x00\n    /* \"OpenZeppelin-Ownable/access/Ownable.sol\":4262:4268  _owner */\n  dup1\n  0x00\n  swap1\n  sload\n  swap1\n  0x0100\n  exp\n  swap1\n  div\n  0xffffffffffffffffffffffffffffffffffffffff\n  and\n    /* \"OpenZeppelin-Ownable/access/Ownable.sol\":4243:4268  address oldOwner = _owner */\n  swap1\n  pop\n    /* \"OpenZeppelin-Ownable/access/Ownable.sol\":4287:4295  newOwner */\n  dup2\n    /* \"OpenZeppelin-Ownable/access/Ownable.sol\":4278:4284  _owner */\n  0x00\n  dup1\n    /* \"OpenZeppelin-Ownable/access/Ownable.sol\":4278:4295  _owner = newOwner */\n  0x0100\n  exp\n  dup2\n  sload\n  dup2\n  0xffffffffffffffffffffffffffffffffffffffff\n  mul\n  not\n  and\n  swap1\n  dup4\n  0xffffffffffffffffffffffffffffffffffffffff\n  and\n  mul\n  or\n  swap1\n  sstore\n  pop\n    /* \"OpenZeppelin-Ownable/access/Ownable.sol\":4341:4349  newOwner */\n  dup2\n    /* \"OpenZeppelin-Ownable/access/Ownable.sol\":4310:4350  OwnershipTransferred(oldOwner, newOwner) */\n  0xffffffffffffffffffffffffffffffffffffffff\n  and\n    /* \"OpenZeppelin-Ownable/access/Ownable.sol\":4331:4339  oldOwner */\n  dup2\n    /* \"OpenZeppelin-Ownable/access/Ownable.sol\":4310:4350  OwnershipTransferred(oldOwner, newOwner) */\n  0xffffffffffffffffffffffffffffffffffffffff\n  and\n  0x8be0079c531659141344cd1fd0a4f28419497f9722a3daafe3b4186f6b6457e0\n  mload(0x40)\n  mload(0x40)\n  dup1\n  swap2\n  sub\n  swap1\n  log3\n    /* \"OpenZeppelin-Ownable/access/Ownable.sol\":4233:4357  {... */\n  pop\n    /* \"OpenZeppelin-Ownable/access/Ownable.sol\":4170:4357  function _transferOwnership(address newOwner) internal virtual {... */\n  pop\n  jump\t// out\n    /* \"#utility.yul\":88:205   */\ntag_16:\n    /* \"#utility.yul\":197:198   */\n  0x00\n    /* \"#utility.yul\":194:195   */\n  dup1\n    /* \"#utility.yul\":187:199   */\n  revert\n    /* \"#utility.yul\":334:460   */\ntag_18:\n    /* \"#utility.yul\":371:378   */\n  0x00\n    /* \"#utility.yul\":411:453   */\n  0xffffffffffffffffffffffffffffffffffffffff\n    /* \"#utility.yul\":404:409   */\n  dup3\n    /* \"#utility.yul\":400:454   */\n  and\n    /* \"#utility.yul\":389:454   */\n  swap1\n  pop\n    /* \"#utility.yul\":334:460   */\n  swap2\n  swap1\n  pop\n  jump\t// out\n    /* \"#utility.yul\":466:562   */\ntag_19:\n    /* \"#utility.yul\":503:510   */\n  0x00\n    /* \"#utility.yul\":532:556   */\n  tag_29\n    /* \"#utility.yul\":550:555   */\n  dup3\n    /* \"#utility.yul\":532:556   */\n  tag_18\n  jump\t// in\ntag_29:\n    /* \"#utility.yul\":521:556   */\n  swap1\n  pop\n    /* \"#utility.yul\":466:562   */\n  swap2\n  swap1\n  pop\n  jump\t// out\n    /* \"#utility.yul\":568:690   */\ntag_20:\n    /* \"#utility.yul\":641:665   */\n  tag_31\n    /* \"#utility.yul\":659:664   */\n  dup2\n    /* \"#utility.yul\":641:665   */\n  tag_19\n  jump\t// in\ntag_31:\n    /* \"#utility.yul\":634:639   */\n  dup2\n    /* \"#utility.yul\":631:666   */\n  eq\n    /* \"#utility.yul\":621:684   */\n  tag_32\n  jumpi\n    /* \"#utility.yul\":680:681   */\n  0x00\n    /* \"#utility.yul\":677:678   */\n  dup1\n    /* \"#utility.yul\":670:682   */\n  revert\n    /* \"#utility.yul\":621:684   */\ntag_32:\n    /* \"#utility.yul\":568:690   */\n  pop\n  jump\t// out\n    /* \"#utility.yul\":696:839   */\ntag_21:\n    /* \"#utility.yul\":753:758   */\n  0x00\n    /* \"#utility.yul\":784:790   */\n  dup2\n    /* \"#utility.yul\":778:791   */\n  mload\n    /* \"#utility.yul\":769:791   */\n  swap1\n  pop\n    /* \"#utility.yul\":800:833   */\n  tag_34\n    /* \"#utility.yul\":827:832   */\n  dup2\n    /* \"#utility.yul\":800:833   */\n  tag_20\n  jump\t// in\ntag_34:\n    /* \"#utility.yul\":696:839   */\n  swap3\n  swap2\n  pop\n  pop\n  jump\t// out\n    /* \"#utility.yul\":845:1196   */\ntag_3:\n    /* \"#utility.yul\":915:921   */\n  0x00\n    /* \"#utility.yul\":964:966   */\n  0x20\n    /* \"#utility.yul\":952:961   */\n  dup3\n    /* \"#utility.yul\":943:950   */\n  dup5\n    /* \"#utility.yul\":939:962   */\n  sub\n    /* \"#utility.yul\":935:967   */\n  slt\n    /* \"#utility.yul\":932:1051   */\n  iszero\n  tag_36\n  jumpi\n    /* \"#utility.yul\":970:1049   */\n  tag_37\n  tag_16\n  jump\t// in\ntag_37:\n    /* \"#utility.yul\":932:1051   */\ntag_36:\n    /* \"#utility.yul\":1090:1091   */\n  0x00\n    /* \"#utility.yul\":1115:1179   */\n  tag_38\n    /* \"#utility.yul\":1171:1178   */\n  dup5\n    /* \"#utility.yul\":1162:1168   */\n  dup3\n    /* \"#utility.yul\":1151:1160   */\n  dup6\n    /* \"#utility.yul\":1147:1169   */\n  add\n    /* \"#utility.yul\":1115:1179   */\n  tag_21\n  jump\t// in\ntag_38:\n    /* \"#utility.yul\":1105:1179   */\n  swap2\n  pop\n    /* \"#utility.yul\":1061:1189   */\n  pop\n    /* \"#utility.yul\":845:1196   */\n  swap3\n  swap2\n  pop\n  pop\n  jump\t// out\n    /* \"#utility.yul\":1202:1320   */\ntag_22:\n    /* \"#utility.yul\":1289:1313   */\n  tag_40\n    /* \"#utility.yul\":1307:1312   */\n  dup2\n    /* \"#utility.yul\":1289:1313   */\n  tag_19\n  jump\t// in\ntag_40:\n    /* \"#utility.yul\":1284:1287   */\n  dup3\n    /* \"#utility.yul\":1277:1314   */\n  mstore\n    /* \"#utility.yul\":1202:1320   */\n  pop\n  pop\n  jump\t// out\n    /* \"#utility.yul\":1326:1548   */\ntag_9:\n    /* \"#utility.yul\":1419:1423   */\n  0x00\n    /* \"#utility.yul\":1457:1459   */\n  0x20\n    /* \"#utility.yul\":1446:1455   */\n  dup3\n    /* \"#utility.yul\":1442:1460   */\n  add\n    /* \"#utility.yul\":1434:1460   */\n  swap1\n  pop\n    /* \"#utility.yul\":1470:1541   */\n  tag_42\n    /* \"#utility.yul\":1538:1539   */\n  0x00\n    /* \"#utility.yul\":1527:1536   */\n  dup4\n    /* \"#utility.yul\":1523:1540   */\n  add\n    /* \"#utility.yul\":1514:1520   */\n  dup5\n    /* \"#utility.yul\":1470:1541   */\n  tag_22\n  jump\t// in\ntag_42:\n    /* \"#utility.yul\":1326:1548   */\n  swap3\n  swap2\n  pop\n  pop\n  jump\t// out\n    /* \"contracts/Urna.sol\":114:4649  contract Urna is Ownable {... */\ntag_13:\n  dataSize(sub_0)\n  dup1\n  dataOffset(sub_0)\n  0x00\n  codecopy\n  0x00\n  return\nstop\n\nsub_0: assembly {\n        /* \"contracts/Urna.sol\":114:4649  contract Urna is Ownable {... */\n      mstore(0x40, 0x80)\n      callvalue\n      dup1\n      iszero\n      tag_1\n      jumpi\n      0x00\n      dup1\n      revert\n    tag_1:\n      pop\n      jumpi(tag_2, lt(calldatasize, 0x04))\n      shr(0xe0, calldataload(0x00))\n      dup1\n      0x8f6021c3\n      gt\n      tag_19\n      jumpi\n      dup1\n      0xc1961cea\n      gt\n      tag_20\n      jumpi\n      dup1\n      0xc1961cea\n      eq\n      tag_15\n      jumpi\n      dup1\n      0xe3446174\n      eq\n      tag_16\n      jumpi\n      dup1\n      0xee55f11e\n      eq\n      tag_17\n      jumpi\n      dup1\n      0xf2fde38b\n      eq\n      tag_18\n      jumpi\n      jump(tag_2)\n    tag_20:\n      dup1\n      0x8f6021c3\n      eq\n      tag_11\n      jumpi\n      dup1\n      0xb0c73513\n      eq\n      tag_12\n      jumpi\n      dup1\n      0xb25924c1\n      eq\n      tag_13\n      jumpi\n      dup1\n      0xb5e422d4\n      eq\n      tag_14\n      jumpi\n      jump(tag_2)\n    tag_19:\n      dup1\n      0x715018a6\n      gt\n      tag_21\n      jumpi\n      dup1\n      0x715018a6\n      eq\n      tag_7\n      jumpi\n      dup1\n      0x89813f84\n      eq\n      tag_8\n      jumpi\n      dup1\n      0x8da5cb5b\n      eq\n      tag_9\n      jumpi\n      dup1\n      0x8f023f85\n      eq\n      tag_10\n      jumpi\n      jump(tag_2)\n    tag_21:\n      dup1\n      0x0e0864cb\n      eq\n      tag_3\n      jumpi\n      dup1\n      0x40deb070\n      eq\n      tag_4\n      jumpi\n      dup1\n      0x6bb7aaf5\n      eq\n      tag_5\n      jumpi\n      dup1\n      0x6cdf69f0\n      eq\n      tag_6\n      jumpi\n    tag_2:\n      0x00\n      dup1\n      revert\n        /* \"contracts/Urna.sol\":3496:4112  function enviarVoto(uint _idCandidato) public /*duranteJornada*/ {... */\n    tag_3:\n      tag_22\n      0x04\n      dup1\n      calldatasize\n      sub\n      dup2\n      add\n      swap1\n      tag_23\n      swap2\n      swap1\n      tag_24\n      jump\t// in\n    tag_23:\n      tag_25\n      jump\t// in\n    tag_22:\n      stop\n        /* \"contracts/Urna.sol\":697:722  Partido[] public partidos */\n    tag_4:\n      tag_26\n      0x04\n      dup1\n      calldatasize\n      sub\n      dup2\n      add\n      swap1\n      tag_27\n      swap2\n      swap1\n      tag_24\n      jump\t// in\n    tag_27:\n      tag_28\n      jump\t// in\n    tag_26:\n      mload(0x40)\n      tag_29\n      swap2\n      swap1\n      tag_30\n      jump\t// in\n    tag_29:\n      mload(0x40)\n      dup1\n      swap2\n      sub\n      swap1\n      return\n        /* \"contracts/Urna.sol\":4120:4238  function verVoto() external view /*duranteJornada*/ returns(uint) {... */\n    tag_5:\n      tag_31\n      tag_32\n      jump\t// in\n    tag_31:\n      mload(0x40)\n      tag_33\n      swap2\n      swap1\n      tag_34\n      jump\t// in\n    tag_33:\n      mload(0x40)\n      dup1\n      swap2\n      sub\n      swap1\n      return\n        /* \"contracts/Urna.sol\":807:837  Jornada public jornadaVotacion */\n    tag_6:\n      tag_35\n      tag_36\n      jump\t// in\n    tag_35:\n      mload(0x40)\n      tag_37\n      swap3\n      swap2\n      swap1\n      tag_38\n      jump\t// in\n    tag_37:\n      mload(0x40)\n      dup1\n      swap2\n      sub\n      swap1\n      return\n        /* \"OpenZeppelin-Ownable/access/Ownable.sol\":3551:3652  function renounceOwnership() public virtual onlyOwner {... */\n    tag_7:\n      tag_39\n      tag_40\n      jump\t// in\n    tag_39:\n      stop\n        /* \"contracts/Urna.sol\":2593:3087  function inscribirCandidato(string memory _partido, string memory _nombre) public onlyOwner /*dentroDePlazoInscripciones*/ {... */\n    tag_8:\n      tag_41\n      0x04\n      dup1\n      calldatasize\n      sub\n      dup2\n      add\n      swap1\n      tag_42\n      swap2\n      swap1\n      tag_43\n      jump\t// in\n    tag_42:\n      tag_44\n      jump\t// in\n    tag_41:\n      stop\n        /* \"OpenZeppelin-Ownable/access/Ownable.sol\":2896:2981  function owner() public view virtual returns (address) {... */\n    tag_9:\n      tag_45\n      tag_46\n      jump\t// in\n    tag_45:\n      mload(0x40)\n      tag_47\n      swap2\n      swap1\n      tag_48\n      jump\t// in\n    tag_47:\n      mload(0x40)\n      dup1\n      swap2\n      sub\n      swap1\n      return\n        /* \"contracts/Urna.sol\":729:758  Candidato[] public candidatos */\n    tag_10:\n      tag_49\n      0x04\n      dup1\n      calldatasize\n      sub\n      dup2\n      add\n      swap1\n      tag_50\n      swap2\n      swap1\n      tag_24\n      jump\t// in\n    tag_50:\n      tag_51\n      jump\t// in\n    tag_49:\n      mload(0x40)\n      tag_52\n      swap4\n      swap3\n      swap2\n      swap1\n      tag_53\n      jump\t// in\n    tag_52:\n      mload(0x40)\n      dup1\n      swap2\n      sub\n      swap1\n      return\n        /* \"contracts/Urna.sol\":3224:3488  function verCandidato(uint _idCandidato) external view /*duranteJornada*/ returns(string memory, string memory) {... */\n    tag_11:\n      tag_54\n      0x04\n      dup1\n      calldatasize\n      sub\n      dup2\n      add\n      swap1\n      tag_55\n      swap2\n      swap1\n      tag_24\n      jump\t// in\n    tag_55:\n      tag_56\n      jump\t// in\n    tag_54:\n      mload(0x40)\n      tag_57\n      swap3\n      swap2\n      swap1\n      tag_58\n      jump\t// in\n    tag_57:\n      mload(0x40)\n      dup1\n      swap2\n      sub\n      swap1\n      return\n        /* \"contracts/Urna.sol\":1546:1802  function crearJornada(string memory _nombre, uint256 _fechaHoraInicio) public onlyOwner {... */\n    tag_12:\n      tag_59\n      0x04\n      dup1\n      calldatasize\n      sub\n      dup2\n      add\n      swap1\n      tag_60\n      swap2\n      swap1\n      tag_61\n      jump\t// in\n    tag_60:\n      tag_62\n      jump\t// in\n    tag_59:\n      stop\n        /* \"contracts/Urna.sol\":765:800  Participante[] public participantes */\n    tag_13:\n      tag_63\n      0x04\n      dup1\n      calldatasize\n      sub\n      dup2\n      add\n      swap1\n      tag_64\n      swap2\n      swap1\n      tag_24\n      jump\t// in\n    tag_64:\n      tag_65\n      jump\t// in\n    tag_63:\n      mload(0x40)\n      tag_66\n      swap3\n      swap2\n      swap1\n      tag_67\n      jump\t// in\n    tag_66:\n      mload(0x40)\n      dup1\n      swap2\n      sub\n      swap1\n      return\n        /* \"contracts/Urna.sol\":4246:4505  function verTotalVotos() external view /*despuesDeJornada*/ returns(uint) {... */\n    tag_14:\n      tag_68\n      tag_69\n      jump\t// in\n    tag_68:\n      mload(0x40)\n      tag_70\n      swap2\n      swap1\n      tag_34\n      jump\t// in\n    tag_70:\n      mload(0x40)\n      dup1\n      swap2\n      sub\n      swap1\n      return\n        /* \"contracts/Urna.sol\":2026:2258  function inscribirParticipante(string memory _nombre, uint8 _edad) public mayorDeEdad(_edad) /*dentroDePlazoInscripciones*/ {... */\n    tag_15:\n      tag_71\n      0x04\n      dup1\n      calldatasize\n      sub\n      dup2\n      add\n      swap1\n      tag_72\n      swap2\n      swap1\n      tag_73\n      jump\t// in\n    tag_72:\n      tag_74\n      jump\t// in\n    tag_71:\n      stop\n        /* \"contracts/Urna.sol\":3095:3216  function verNumeroCandidatos() external view /*duranteJornada*/ returns(uint) {... */\n    tag_16:\n      tag_75\n      tag_76\n      jump\t// in\n    tag_75:\n      mload(0x40)\n      tag_77\n      swap2\n      swap1\n      tag_34\n      jump\t// in\n    tag_77:\n      mload(0x40)\n      dup1\n      swap2\n      sub\n      swap1\n      return\n        /* \"contracts/Urna.sol\":4513:4646  function verResultadoVotaciones() external view /*despuesDeJornada*/ returns(Candidato[] memory) {... */\n    tag_17:\n      tag_78\n      tag_79\n      jump\t// in\n    tag_78:\n      mload(0x40)\n      tag_80\n      swap2\n      swap1\n      tag_81\n      jump\t// in\n    tag_80:\n      mload(0x40)\n      dup1\n      swap2\n      sub\n      swap1\n      return\n        /* \"OpenZeppelin-Ownable/access/Ownable.sol\":3801:4016  function transferOwnership(address newOwner) public virtual onlyOwner {... */\n    tag_18:\n      tag_82\n      0x04\n      dup1\n      calldatasize\n      sub\n      dup2\n      add\n      swap1\n      tag_83\n      swap2\n      swap1\n      tag_84\n      jump\t// in\n    tag_83:\n      tag_85\n      jump\t// in\n    tag_82:\n      stop\n        /* \"contracts/Urna.sol\":3496:4112  function enviarVoto(uint _idCandidato) public /*duranteJornada*/ {... */\n    tag_25:\n        /* \"contracts/Urna.sol\":3572:3591  uint idParticipante */\n      0x00\n        /* \"contracts/Urna.sol\":3594:3617  inscripcionParticipante */\n      0x09\n        /* \"contracts/Urna.sol\":3594:3629  inscripcionParticipante[msg.sender] */\n      0x00\n        /* \"contracts/Urna.sol\":3618:3628  msg.sender */\n      caller\n        /* \"contracts/Urna.sol\":3594:3629  inscripcionParticipante[msg.sender] */\n      0xffffffffffffffffffffffffffffffffffffffff\n      and\n      0xffffffffffffffffffffffffffffffffffffffff\n      and\n      dup2\n      mstore\n      0x20\n      add\n      swap1\n      dup2\n      mstore\n      0x20\n      add\n      0x00\n      keccak256\n      sload\n        /* \"contracts/Urna.sol\":3572:3629  uint idParticipante = inscripcionParticipante[msg.sender] */\n      swap1\n      pop\n        /* \"contracts/Urna.sol\":3640:3654  uint nuevoVoto */\n      0x00\n        /* \"contracts/Urna.sol\":3676:3689  participantes */\n      0x05\n        /* \"contracts/Urna.sol\":3690:3704  idParticipante */\n      dup3\n        /* \"contracts/Urna.sol\":3676:3705  participantes[idParticipante] */\n      dup2\n      sload\n      dup2\n      lt\n      tag_87\n      jumpi\n      tag_88\n      tag_89\n      jump\t// in\n    tag_88:\n    tag_87:\n      swap1\n      0x00\n      mstore\n      keccak256(0x00, 0x20)\n      swap1\n      0x02\n      mul\n      add\n        /* \"contracts/Urna.sol\":3676:3714  participantes[idParticipante].haVotado */\n      0x01\n      add\n      0x00\n      swap1\n      sload\n      swap1\n      0x0100\n      exp\n      swap1\n      div\n      0xff\n      and\n        /* \"contracts/Urna.sol\":3671:3872  if (!participantes[idParticipante].haVotado) {... */\n      tag_91\n      jumpi\n        /* \"contracts/Urna.sol\":3743:3744  1 */\n      0x01\n        /* \"contracts/Urna.sol\":3731:3744  nuevoVoto = 1 */\n      swap1\n      pop\n        /* \"contracts/Urna.sol\":3788:3800  _idCandidato */\n      dup3\n        /* \"contracts/Urna.sol\":3759:3773  votoACandidato */\n      0x08\n        /* \"contracts/Urna.sol\":3759:3785  votoACandidato[msg.sender] */\n      0x00\n        /* \"contracts/Urna.sol\":3774:3784  msg.sender */\n      caller\n        /* \"contracts/Urna.sol\":3759:3785  votoACandidato[msg.sender] */\n      0xffffffffffffffffffffffffffffffffffffffff\n      and\n      0xffffffffffffffffffffffffffffffffffffffff\n      and\n      dup2\n      mstore\n      0x20\n      add\n      swap1\n      dup2\n      mstore\n      0x20\n      add\n      0x00\n      keccak256\n        /* \"contracts/Urna.sol\":3759:3800  votoACandidato[msg.sender] = _idCandidato */\n      dup2\n      swap1\n      sstore\n      pop\n        /* \"contracts/Urna.sol\":3856:3860  true */\n      0x01\n        /* \"contracts/Urna.sol\":3815:3828  participantes */\n      0x05\n        /* \"contracts/Urna.sol\":3829:3843  idParticipante */\n      dup4\n        /* \"contracts/Urna.sol\":3815:3844  participantes[idParticipante] */\n      dup2\n      sload\n      dup2\n      lt\n      tag_92\n      jumpi\n      tag_93\n      tag_89\n      jump\t// in\n    tag_93:\n    tag_92:\n      swap1\n      0x00\n      mstore\n      keccak256(0x00, 0x20)\n      swap1\n      0x02\n      mul\n      add\n        /* \"contracts/Urna.sol\":3815:3853  participantes[idParticipante].haVotado */\n      0x01\n      add\n      0x00\n        /* \"contracts/Urna.sol\":3815:3860  participantes[idParticipante].haVotado = true */\n      0x0100\n      exp\n      dup2\n      sload\n      dup2\n      0xff\n      mul\n      not\n      and\n      swap1\n      dup4\n      iszero\n      iszero\n      mul\n      or\n      swap1\n      sstore\n      pop\n        /* \"contracts/Urna.sol\":3671:3872  if (!participantes[idParticipante].haVotado) {... */\n    tag_91:\n        /* \"contracts/Urna.sol\":3884:3915  Candidato storage candidatoVoto */\n      0x00\n        /* \"contracts/Urna.sol\":3918:3928  candidatos */\n      0x04\n        /* \"contracts/Urna.sol\":3930:3944  votoACandidato */\n      0x08\n        /* \"contracts/Urna.sol\":3930:3956  votoACandidato[msg.sender] */\n      0x00\n        /* \"contracts/Urna.sol\":3945:3955  msg.sender */\n      caller\n        /* \"contracts/Urna.sol\":3930:3956  votoACandidato[msg.sender] */\n      0xffffffffffffffffffffffffffffffffffffffff\n      and\n      0xffffffffffffffffffffffffffffffffffffffff\n      and\n      dup2\n      mstore\n      0x20\n      add\n      swap1\n      dup2\n      mstore\n      0x20\n      add\n      0x00\n      keccak256\n      sload\n        /* \"contracts/Urna.sol\":3918:3958  candidatos[ votoACandidato[msg.sender] ] */\n      dup2\n      sload\n      dup2\n      lt\n      tag_95\n      jumpi\n      tag_96\n      tag_89\n      jump\t// in\n    tag_96:\n    tag_95:\n      swap1\n      0x00\n      mstore\n      keccak256(0x00, 0x20)\n      swap1\n      0x03\n      mul\n      add\n        /* \"contracts/Urna.sol\":3884:3958  Candidato storage candidatoVoto = candidatos[ votoACandidato[msg.sender] ] */\n      swap1\n      pop\n        /* \"contracts/Urna.sol\":4013:4022  nuevoVoto */\n      dup2\n        /* \"contracts/Urna.sol\":3991:4004  candidatoVoto */\n      dup2\n        /* \"contracts/Urna.sol\":3991:4010  candidatoVoto.votos */\n      0x02\n      add\n      sload\n        /* \"contracts/Urna.sol\":3991:4022  candidatoVoto.votos + nuevoVoto */\n      tag_98\n      swap2\n      swap1\n      tag_99\n      jump\t// in\n    tag_98:\n        /* \"contracts/Urna.sol\":3969:3982  candidatoVoto */\n      dup2\n        /* \"contracts/Urna.sol\":3969:3988  candidatoVoto.votos */\n      0x02\n      add\n        /* \"contracts/Urna.sol\":3969:4022  candidatoVoto.votos = candidatoVoto.votos + nuevoVoto */\n      dup2\n      swap1\n      sstore\n      pop\n        /* \"contracts/Urna.sol\":4040:4104  VotoRegistrado(votoACandidato[msg.sender], candidatoVoto.nombre) */\n      0xd5f7cb52613a2bacd6e90c181d02d8eb3d9236bdb28d47edf16fe7c8ff2e39a3\n        /* \"contracts/Urna.sol\":4055:4069  votoACandidato */\n      0x08\n        /* \"contracts/Urna.sol\":4055:4081  votoACandidato[msg.sender] */\n      0x00\n        /* \"contracts/Urna.sol\":4070:4080  msg.sender */\n      caller\n        /* \"contracts/Urna.sol\":4055:4081  votoACandidato[msg.sender] */\n      0xffffffffffffffffffffffffffffffffffffffff\n      and\n      0xffffffffffffffffffffffffffffffffffffffff\n      and\n      dup2\n      mstore\n      0x20\n      add\n      swap1\n      dup2\n      mstore\n      0x20\n      add\n      0x00\n      keccak256\n      sload\n        /* \"contracts/Urna.sol\":4083:4096  candidatoVoto */\n      dup3\n        /* \"contracts/Urna.sol\":4083:4103  candidatoVoto.nombre */\n      0x00\n      add\n        /* \"contracts/Urna.sol\":4040:4104  VotoRegistrado(votoACandidato[msg.sender], candidatoVoto.nombre) */\n      mload(0x40)\n      tag_100\n      swap3\n      swap2\n      swap1\n      tag_101\n      jump\t// in\n    tag_100:\n      mload(0x40)\n      dup1\n      swap2\n      sub\n      swap1\n      log1\n        /* \"contracts/Urna.sol\":3561:4112  {... */\n      pop\n      pop\n      pop\n        /* \"contracts/Urna.sol\":3496:4112  function enviarVoto(uint _idCandidato) public /*duranteJornada*/ {... */\n      pop\n      jump\t// out\n        /* \"contracts/Urna.sol\":697:722  Partido[] public partidos */\n    tag_28:\n      0x03\n      dup2\n      dup2\n      sload\n      dup2\n      lt\n      tag_102\n      jumpi\n      0x00\n      dup1\n      revert\n    tag_102:\n      swap1\n      0x00\n      mstore\n      keccak256(0x00, 0x20)\n      add\n      0x00\n      swap2\n      pop\n      swap1\n      pop\n      dup1\n      0x00\n      add\n      dup1\n      sload\n      tag_104\n      swap1\n      tag_105\n      jump\t// in\n    tag_104:\n      dup1\n      0x1f\n      add\n      0x20\n      dup1\n      swap2\n      div\n      mul\n      0x20\n      add\n      mload(0x40)\n      swap1\n      dup2\n      add\n      0x40\n      mstore\n      dup1\n      swap3\n      swap2\n      swap1\n      dup2\n      dup2\n      mstore\n      0x20\n      add\n      dup3\n      dup1\n      sload\n      tag_106\n      swap1\n      tag_105\n      jump\t// in\n    tag_106:\n      dup1\n      iszero\n      tag_107\n      jumpi\n      dup1\n      0x1f\n      lt\n      tag_108\n      jumpi\n      0x0100\n      dup1\n      dup4\n      sload\n      div\n      mul\n      dup4\n      mstore\n      swap2\n      0x20\n      add\n      swap2\n      jump(tag_107)\n    tag_108:\n      dup3\n      add\n      swap2\n      swap1\n      0x00\n      mstore\n      keccak256(0x00, 0x20)\n      swap1\n    tag_109:\n      dup2\n      sload\n      dup2\n      mstore\n      swap1\n      0x01\n      add\n      swap1\n      0x20\n      add\n      dup1\n      dup4\n      gt\n      tag_109\n      jumpi\n      dup3\n      swap1\n      sub\n      0x1f\n      and\n      dup3\n      add\n      swap2\n    tag_107:\n      pop\n      pop\n      pop\n      pop\n      pop\n      swap1\n      pop\n      dup2\n      jump\t// out\n        /* \"contracts/Urna.sol\":4120:4238  function verVoto() external view /*duranteJornada*/ returns(uint) {... */\n    tag_32:\n        /* \"contracts/Urna.sol\":4180:4184  uint */\n      0x00\n        /* \"contracts/Urna.sol\":4204:4218  votoACandidato */\n      0x08\n        /* \"contracts/Urna.sol\":4204:4230  votoACandidato[msg.sender] */\n      0x00\n        /* \"contracts/Urna.sol\":4219:4229  msg.sender */\n      caller\n        /* \"contracts/Urna.sol\":4204:4230  votoACandidato[msg.sender] */\n      0xffffffffffffffffffffffffffffffffffffffff\n      and\n      0xffffffffffffffffffffffffffffffffffffffff\n      and\n      dup2\n      mstore\n      0x20\n      add\n      swap1\n      dup2\n      mstore\n      0x20\n      add\n      0x00\n      keccak256\n      sload\n        /* \"contracts/Urna.sol\":4197:4230  return votoACandidato[msg.sender] */\n      swap1\n      pop\n        /* \"contracts/Urna.sol\":4120:4238  function verVoto() external view /*duranteJornada*/ returns(uint) {... */\n      swap1\n      jump\t// out\n        /* \"contracts/Urna.sol\":807:837  Jornada public jornadaVotacion */\n    tag_36:\n      0x06\n      dup1\n      0x00\n      add\n      dup1\n      sload\n      tag_111\n      swap1\n      tag_105\n      jump\t// in\n    tag_111:\n      dup1\n      0x1f\n      add\n      0x20\n      dup1\n      swap2\n      div\n      mul\n      0x20\n      add\n      mload(0x40)\n      swap1\n      dup2\n      add\n      0x40\n      mstore\n      dup1\n      swap3\n      swap2\n      swap1\n      dup2\n      dup2\n      mstore\n      0x20\n      add\n      dup3\n      dup1\n      sload\n      tag_112\n      swap1\n      tag_105\n      jump\t// in\n    tag_112:\n      dup1\n      iszero\n      tag_113\n      jumpi\n      dup1\n      0x1f\n      lt\n      tag_114\n      jumpi\n      0x0100\n      dup1\n      dup4\n      sload\n      div\n      mul\n      dup4\n      mstore\n      swap2\n      0x20\n      add\n      swap2\n      jump(tag_113)\n    tag_114:\n      dup3\n      add\n      swap2\n      swap1\n      0x00\n      mstore\n      keccak256(0x00, 0x20)\n      swap1\n    tag_115:\n      dup2\n      sload\n      dup2\n      mstore\n      swap1\n      0x01\n      add\n      swap1\n      0x20\n      add\n      dup1\n      dup4\n      gt\n      tag_115\n      jumpi\n      dup3\n      swap1\n      sub\n      0x1f\n      and\n      dup3\n      add\n      swap2\n    tag_113:\n      pop\n      pop\n      pop\n      pop\n      pop\n      swap1\n      dup1\n      0x01\n      add\n      sload\n      swap1\n      pop\n      dup3\n      jump\t// out\n        /* \"OpenZeppelin-Ownable/access/Ownable.sol\":3551:3652  function renounceOwnership() public virtual onlyOwner {... */\n    tag_40:\n        /* \"OpenZeppelin-Ownable/access/Ownable.sol\":2789:2802  _checkOwner() */\n      tag_117\n        /* \"OpenZeppelin-Ownable/access/Ownable.sol\":2789:2800  _checkOwner */\n      tag_118\n        /* \"OpenZeppelin-Ownable/access/Ownable.sol\":2789:2802  _checkOwner() */\n      jump\t// in\n    tag_117:\n        /* \"OpenZeppelin-Ownable/access/Ownable.sol\":3615:3645  _transferOwnership(address(0)) */\n      tag_120\n        /* \"OpenZeppelin-Ownable/access/Ownable.sol\":3642:3643  0 */\n      0x00\n        /* \"OpenZeppelin-Ownable/access/Ownable.sol\":3615:3633  _transferOwnership */\n      tag_121\n        /* \"OpenZeppelin-Ownable/access/Ownable.sol\":3615:3645  _transferOwnership(address(0)) */\n      jump\t// in\n    tag_120:\n        /* \"OpenZeppelin-Ownable/access/Ownable.sol\":3551:3652  function renounceOwnership() public virtual onlyOwner {... */\n      jump\t// out\n        /* \"contracts/Urna.sol\":2593:3087  function inscribirCandidato(string memory _partido, string memory _nombre) public onlyOwner /*dentroDePlazoInscripciones*/ {... */\n    tag_44:\n        /* \"OpenZeppelin-Ownable/access/Ownable.sol\":2789:2802  _checkOwner() */\n      tag_123\n        /* \"OpenZeppelin-Ownable/access/Ownable.sol\":2789:2800  _checkOwner */\n      tag_118\n        /* \"OpenZeppelin-Ownable/access/Ownable.sol\":2789:2802  _checkOwner() */\n      jump\t// in\n    tag_123:\n        /* \"contracts/Urna.sol\":2727:2745  bool partidoExiste */\n      0x00\n        /* \"contracts/Urna.sol\":2771:2777  uint i */\n      dup1\n        /* \"contracts/Urna.sol\":2766:2984  for (uint i = 0; i < partidos.length; i++) {... */\n    tag_125:\n        /* \"contracts/Urna.sol\":2787:2795  partidos */\n      0x03\n        /* \"contracts/Urna.sol\":2787:2802  partidos.length */\n      dup1\n      sload\n      swap1\n      pop\n        /* \"contracts/Urna.sol\":2783:2784  i */\n      dup2\n        /* \"contracts/Urna.sol\":2783:2802  i < partidos.length */\n      lt\n        /* \"contracts/Urna.sol\":2766:2984  for (uint i = 0; i < partidos.length; i++) {... */\n      iszero\n      tag_126\n      jumpi\n        /* \"contracts/Urna.sol\":2906:2914  _partido */\n      dup4\n        /* \"contracts/Urna.sol\":2889:2915  abi.encodePacked(_partido) */\n      add(0x20, mload(0x40))\n      tag_128\n      swap2\n      swap1\n      tag_129\n      jump\t// in\n    tag_128:\n      mload(0x40)\n      0x20\n      dup2\n      dup4\n      sub\n      sub\n      dup2\n      mstore\n      swap1\n      0x40\n      mstore\n        /* \"contracts/Urna.sol\":2879:2916  keccak256(abi.encodePacked(_partido)) */\n      dup1\n      mload\n      swap1\n      0x20\n      add\n      keccak256\n        /* \"contracts/Urna.sol\":2855:2863  partidos */\n      0x03\n        /* \"contracts/Urna.sol\":2864:2865  i */\n      dup3\n        /* \"contracts/Urna.sol\":2855:2866  partidos[i] */\n      dup2\n      sload\n      dup2\n      lt\n      tag_130\n      jumpi\n      tag_131\n      tag_89\n      jump\t// in\n    tag_131:\n    tag_130:\n      swap1\n      0x00\n      mstore\n      keccak256(0x00, 0x20)\n      add\n        /* \"contracts/Urna.sol\":2855:2873  partidos[i].nombre */\n      0x00\n      add\n        /* \"contracts/Urna.sol\":2838:2874  abi.encodePacked(partidos[i].nombre) */\n      add(0x20, mload(0x40))\n      tag_133\n      swap2\n      swap1\n      tag_134\n      jump\t// in\n    tag_133:\n      mload(0x40)\n      0x20\n      dup2\n      dup4\n      sub\n      sub\n      dup2\n      mstore\n      swap1\n      0x40\n      mstore\n        /* \"contracts/Urna.sol\":2828:2875  keccak256(abi.encodePacked(partidos[i].nombre)) */\n      dup1\n      mload\n      swap1\n      0x20\n      add\n      keccak256\n        /* \"contracts/Urna.sol\":2828:2916  keccak256(abi.encodePacked(partidos[i].nombre)) == keccak256(abi.encodePacked(_partido)) */\n      sub\n        /* \"contracts/Urna.sol\":2824:2973  if (keccak256(abi.encodePacked(partidos[i].nombre)) == keccak256(abi.encodePacked(_partido))) {... */\n      tag_135\n      jumpi\n        /* \"contracts/Urna.sol\":2953:2957  true */\n      0x01\n        /* \"contracts/Urna.sol\":2937:2957  partidoExiste = true */\n      swap2\n      pop\n        /* \"contracts/Urna.sol\":2824:2973  if (keccak256(abi.encodePacked(partidos[i].nombre)) == keccak256(abi.encodePacked(_partido))) {... */\n    tag_135:\n        /* \"contracts/Urna.sol\":2804:2807  i++ */\n      dup1\n      dup1\n      0x01\n      add\n      swap2\n      pop\n      pop\n        /* \"contracts/Urna.sol\":2766:2984  for (uint i = 0; i < partidos.length; i++) {... */\n      jump(tag_125)\n    tag_126:\n      pop\n        /* \"contracts/Urna.sol\":2996:3034  _crearPartido(_partido, partidoExiste) */\n      tag_136\n        /* \"contracts/Urna.sol\":3010:3018  _partido */\n      dup4\n        /* \"contracts/Urna.sol\":3020:3033  partidoExiste */\n      dup3\n        /* \"contracts/Urna.sol\":2996:3009  _crearPartido */\n      tag_137\n        /* \"contracts/Urna.sol\":2996:3034  _crearPartido(_partido, partidoExiste) */\n      jump\t// in\n    tag_136:\n        /* \"contracts/Urna.sol\":3045:3079  _crearCandidato(_partido, _nombre) */\n      tag_138\n        /* \"contracts/Urna.sol\":3061:3069  _partido */\n      dup4\n        /* \"contracts/Urna.sol\":3071:3078  _nombre */\n      dup4\n        /* \"contracts/Urna.sol\":3045:3060  _crearCandidato */\n      tag_139\n        /* \"contracts/Urna.sol\":3045:3079  _crearCandidato(_partido, _nombre) */\n      jump\t// in\n    tag_138:\n        /* \"contracts/Urna.sol\":2716:3087  {... */\n      pop\n        /* \"contracts/Urna.sol\":2593:3087  function inscribirCandidato(string memory _partido, string memory _nombre) public onlyOwner /*dentroDePlazoInscripciones*/ {... */\n      pop\n      pop\n      jump\t// out\n        /* \"OpenZeppelin-Ownable/access/Ownable.sol\":2896:2981  function owner() public view virtual returns (address) {... */\n    tag_46:\n        /* \"OpenZeppelin-Ownable/access/Ownable.sol\":2942:2949  address */\n      0x00\n        /* \"OpenZeppelin-Ownable/access/Ownable.sol\":2968:2974  _owner */\n      dup1\n      0x00\n      swap1\n      sload\n      swap1\n      0x0100\n      exp\n      swap1\n      div\n      0xffffffffffffffffffffffffffffffffffffffff\n      and\n        /* \"OpenZeppelin-Ownable/access/Ownable.sol\":2961:2974  return _owner */\n      swap1\n      pop\n        /* \"OpenZeppelin-Ownable/access/Ownable.sol\":2896:2981  function owner() public view virtual returns (address) {... */\n      swap1\n      jump\t// out\n        /* \"contracts/Urna.sol\":729:758  Candidato[] public candidatos */\n    tag_51:\n      0x04\n      dup2\n      dup2\n      sload\n      dup2\n      lt\n      tag_141\n      jumpi\n      0x00\n      dup1\n      revert\n    tag_141:\n      swap1\n      0x00\n      mstore\n      keccak256(0x00, 0x20)\n      swap1\n      0x03\n      mul\n      add\n      0x00\n      swap2\n      pop\n      swap1\n      pop\n      dup1\n      0x00\n      add\n      dup1\n      sload\n      tag_143\n      swap1\n      tag_105\n      jump\t// in\n    tag_143:\n      dup1\n      0x1f\n      add\n      0x20\n      dup1\n      swap2\n      div\n      mul\n      0x20\n      add\n      mload(0x40)\n      swap1\n      dup2\n      add\n      0x40\n      mstore\n      dup1\n      swap3\n      swap2\n      swap1\n      dup2\n      dup2\n      mstore\n      0x20\n      add\n      dup3\n      dup1\n      sload\n      tag_144\n      swap1\n      tag_105\n      jump\t// in\n    tag_144:\n      dup1\n      iszero\n      tag_145\n      jumpi\n      dup1\n      0x1f\n      lt\n      tag_146\n      jumpi\n      0x0100\n      dup1\n      dup4\n      sload\n      div\n      mul\n      dup4\n      mstore\n      swap2\n      0x20\n      add\n      swap2\n      jump(tag_145)\n    tag_146:\n      dup3\n      add\n      swap2\n      swap1\n      0x00\n      mstore\n      keccak256(0x00, 0x20)\n      swap1\n    tag_147:\n      dup2\n      sload\n      dup2\n      mstore\n      swap1\n      0x01\n      add\n      swap1\n      0x20\n      add\n      dup1\n      dup4\n      gt\n      tag_147\n      jumpi\n      dup3\n      swap1\n      sub\n      0x1f\n      and\n      dup3\n      add\n      swap2\n    tag_145:\n      pop\n      pop\n      pop\n      pop\n      pop\n      swap1\n      dup1\n      0x01\n      add\n      dup1\n      sload\n      tag_148\n      swap1\n      tag_105\n      jump\t// in\n    tag_148:\n      dup1\n      0x1f\n      add\n      0x20\n      dup1\n      swap2\n      div\n      mul\n      0x20\n      add\n      mload(0x40)\n      swap1\n      dup2\n      add\n      0x40\n      mstore\n      dup1\n      swap3\n      swap2\n      swap1\n      dup2\n      dup2\n      mstore\n      0x20\n      add\n      dup3\n      dup1\n      sload\n      tag_149\n      swap1\n      tag_105\n      jump\t// in\n    tag_149:\n      dup1\n      iszero\n      tag_150\n      jumpi\n      dup1\n      0x1f\n      lt\n      tag_151\n      jumpi\n      0x0100\n      dup1\n      dup4\n      sload\n      div\n      mul\n      dup4\n      mstore\n      swap2\n      0x20\n      add\n      swap2\n      jump(tag_150)\n    tag_151:\n      dup3\n      add\n      swap2\n      swap1\n      0x00\n      mstore\n      keccak256(0x00, 0x20)\n      swap1\n    tag_152:\n      dup2\n      sload\n      dup2\n      mstore\n      swap1\n      0x01\n      add\n      swap1\n      0x20\n      add\n      dup1\n      dup4\n      gt\n      tag_152\n      jumpi\n      dup3\n      swap1\n      sub\n      0x1f\n      and\n      dup3\n      add\n      swap2\n    tag_150:\n      pop\n      pop\n      pop\n      pop\n      pop\n      swap1\n      dup1\n      0x02\n      add\n      sload\n      swap1\n      pop\n      dup4\n      jump\t// out\n        /* \"contracts/Urna.sol\":3224:3488  function verCandidato(uint _idCandidato) external view /*duranteJornada*/ returns(string memory, string memory) {... */\n    tag_56:\n        /* \"contracts/Urna.sol\":3306:3319  string memory */\n      0x60\n        /* \"contracts/Urna.sol\":3321:3334  string memory */\n      dup1\n        /* \"contracts/Urna.sol\":3347:3382  Candidato storage candidatoConsulta */\n      0x00\n        /* \"contracts/Urna.sol\":3385:3395  candidatos */\n      0x04\n        /* \"contracts/Urna.sol\":3396:3408  _idCandidato */\n      dup5\n        /* \"contracts/Urna.sol\":3385:3409  candidatos[_idCandidato] */\n      dup2\n      sload\n      dup2\n      lt\n      tag_154\n      jumpi\n      tag_155\n      tag_89\n      jump\t// in\n    tag_155:\n    tag_154:\n      swap1\n      0x00\n      mstore\n      keccak256(0x00, 0x20)\n      swap1\n      0x03\n      mul\n      add\n        /* \"contracts/Urna.sol\":3347:3409  Candidato storage candidatoConsulta = candidatos[_idCandidato] */\n      swap1\n      pop\n        /* \"contracts/Urna.sol\":3428:3445  candidatoConsulta */\n      dup1\n        /* \"contracts/Urna.sol\":3428:3452  candidatoConsulta.nombre */\n      0x00\n      add\n        /* \"contracts/Urna.sol\":3454:3471  candidatoConsulta */\n      dup2\n        /* \"contracts/Urna.sol\":3454:3479  candidatoConsulta.partido */\n      0x01\n      add\n        /* \"contracts/Urna.sol\":3420:3480  return (candidatoConsulta.nombre, candidatoConsulta.partido) */\n      dup2\n      dup1\n      sload\n      tag_157\n      swap1\n      tag_105\n      jump\t// in\n    tag_157:\n      dup1\n      0x1f\n      add\n      0x20\n      dup1\n      swap2\n      div\n      mul\n      0x20\n      add\n      mload(0x40)\n      swap1\n      dup2\n      add\n      0x40\n      mstore\n      dup1\n      swap3\n      swap2\n      swap1\n      dup2\n      dup2\n      mstore\n      0x20\n      add\n      dup3\n      dup1\n      sload\n      tag_158\n      swap1\n      tag_105\n      jump\t// in\n    tag_158:\n      dup1\n      iszero\n      tag_159\n      jumpi\n      dup1\n      0x1f\n      lt\n      tag_160\n      jumpi\n      0x0100\n      dup1\n      dup4\n      sload\n      div\n      mul\n      dup4\n      mstore\n      swap2\n      0x20\n      add\n      swap2\n      jump(tag_159)\n    tag_160:\n      dup3\n      add\n      swap2\n      swap1\n      0x00\n      mstore\n      keccak256(0x00, 0x20)\n      swap1\n    tag_161:\n      dup2\n      sload\n      dup2\n      mstore\n      swap1\n      0x01\n      add\n      swap1\n      0x20\n      add\n      dup1\n      dup4\n      gt\n      tag_161\n      jumpi\n      dup3\n      swap1\n      sub\n      0x1f\n      and\n      dup3\n      add\n      swap2\n    tag_159:\n      pop\n      pop\n      pop\n      pop\n      pop\n      swap2\n      pop\n      dup1\n      dup1\n      sload\n      tag_162\n      swap1\n      tag_105\n      jump\t// in\n    tag_162:\n      dup1\n      0x1f\n      add\n      0x20\n      dup1\n      swap2\n      div\n      mul\n      0x20\n      add\n      mload(0x40)\n      swap1\n      dup2\n      add\n      0x40\n      mstore\n      dup1\n      swap3\n      swap2\n      swap1\n      dup2\n      dup2\n      mstore\n      0x20\n      add\n      dup3\n      dup1\n      sload\n      tag_163\n      swap1\n      tag_105\n      jump\t// in\n    tag_163:\n      dup1\n      iszero\n      tag_164\n      jumpi\n      dup1\n      0x1f\n      lt\n      tag_165\n      jumpi\n      0x0100\n      dup1\n      dup4\n      sload\n      div\n      mul\n      dup4\n      mstore\n      swap2\n      0x20\n      add\n      swap2\n      jump(tag_164)\n    tag_165:\n      dup3\n      add\n      swap2\n      swap1\n      0x00\n      mstore\n      keccak256(0x00, 0x20)\n      swap1\n    tag_166:\n      dup2\n      sload\n      dup2\n      mstore\n      swap1\n      0x01\n      add\n      swap1\n      0x20\n      add\n      dup1\n      dup4\n      gt\n      tag_166\n      jumpi\n      dup3\n      swap1\n      sub\n      0x1f\n      and\n      dup3\n      add\n      swap2\n    tag_164:\n      pop\n      pop\n      pop\n      pop\n      pop\n      swap1\n      pop\n      swap3\n      pop\n      swap3\n      pop\n      pop\n        /* \"contracts/Urna.sol\":3224:3488  function verCandidato(uint _idCandidato) external view /*duranteJornada*/ returns(string memory, string memory) {... */\n      swap2\n      pop\n      swap2\n      jump\t// out\n        /* \"contracts/Urna.sol\":1546:1802  function crearJornada(string memory _nombre, uint256 _fechaHoraInicio) public onlyOwner {... */\n    tag_62:\n        /* \"OpenZeppelin-Ownable/access/Ownable.sol\":2789:2802  _checkOwner() */\n      tag_168\n        /* \"OpenZeppelin-Ownable/access/Ownable.sol\":2789:2800  _checkOwner */\n      tag_118\n        /* \"OpenZeppelin-Ownable/access/Ownable.sol\":2789:2802  _checkOwner() */\n      jump\t// in\n    tag_168:\n        /* \"contracts/Urna.sol\":1688:1689  0 */\n      0x00\n        /* \"contracts/Urna.sol\":1653:1668  jornadaVotacion */\n      0x06\n        /* \"contracts/Urna.sol\":1653:1684  jornadaVotacion.fechaHoraInicio */\n      0x01\n      add\n      sload\n        /* \"contracts/Urna.sol\":1653:1689  jornadaVotacion.fechaHoraInicio == 0 */\n      eq\n        /* \"contracts/Urna.sol\":1645:1690  require(jornadaVotacion.fechaHoraInicio == 0) */\n      tag_170\n      jumpi\n      0x00\n      dup1\n      revert\n    tag_170:\n        /* \"contracts/Urna.sol\":1726:1733  _nombre */\n      dup2\n        /* \"contracts/Urna.sol\":1701:1716  jornadaVotacion */\n      0x06\n        /* \"contracts/Urna.sol\":1701:1723  jornadaVotacion.nombre */\n      0x00\n      add\n        /* \"contracts/Urna.sol\":1701:1733  jornadaVotacion.nombre = _nombre */\n      swap1\n      dup2\n      tag_171\n      swap2\n      swap1\n      tag_172\n      jump\t// in\n    tag_171:\n      pop\n        /* \"contracts/Urna.sol\":1778:1794  _fechaHoraInicio */\n      dup1\n        /* \"contracts/Urna.sol\":1744:1759  jornadaVotacion */\n      0x06\n        /* \"contracts/Urna.sol\":1744:1775  jornadaVotacion.fechaHoraInicio */\n      0x01\n      add\n        /* \"contracts/Urna.sol\":1744:1794  jornadaVotacion.fechaHoraInicio = _fechaHoraInicio */\n      dup2\n      swap1\n      sstore\n      pop\n        /* \"contracts/Urna.sol\":1546:1802  function crearJornada(string memory _nombre, uint256 _fechaHoraInicio) public onlyOwner {... */\n      pop\n      pop\n      jump\t// out\n        /* \"contracts/Urna.sol\":765:800  Participante[] public participantes */\n    tag_65:\n      0x05\n      dup2\n      dup2\n      sload\n      dup2\n      lt\n      tag_173\n      jumpi\n      0x00\n      dup1\n      revert\n    tag_173:\n      swap1\n      0x00\n      mstore\n      keccak256(0x00, 0x20)\n      swap1\n      0x02\n      mul\n      add\n      0x00\n      swap2\n      pop\n      swap1\n      pop\n      dup1\n      0x00\n      add\n      dup1\n      sload\n      tag_175\n      swap1\n      tag_105\n      jump\t// in\n    tag_175:\n      dup1\n      0x1f\n      add\n      0x20\n      dup1\n      swap2\n      div\n      mul\n      0x20\n      add\n      mload(0x40)\n      swap1\n      dup2\n      add\n      0x40\n      mstore\n      dup1\n      swap3\n      swap2\n      swap1\n      dup2\n      dup2\n      mstore\n      0x20\n      add\n      dup3\n      dup1\n      sload\n      tag_176\n      swap1\n      tag_105\n      jump\t// in\n    tag_176:\n      dup1\n      iszero\n      tag_177\n      jumpi\n      dup1\n      0x1f\n      lt\n      tag_178\n      jumpi\n      0x0100\n      dup1\n      dup4\n      sload\n      div\n      mul\n      dup4\n      mstore\n      swap2\n      0x20\n      add\n      swap2\n      jump(tag_177)\n    tag_178:\n      dup3\n      add\n      swap2\n      swap1\n      0x00\n      mstore\n      keccak256(0x00, 0x20)\n      swap1\n    tag_179:\n      dup2\n      sload\n      dup2\n      mstore\n      swap1\n      0x01\n      add\n      swap1\n      0x20\n      add\n      dup1\n      dup4\n      gt\n      tag_179\n      jumpi\n      dup3\n      swap1\n      sub\n      0x1f\n      and\n      dup3\n      add\n      swap2\n    tag_177:\n      pop\n      pop\n      pop\n      pop\n      pop\n      swap1\n      dup1\n      0x01\n      add\n      0x00\n      swap1\n      sload\n      swap1\n      0x0100\n      exp\n      swap1\n      div\n      0xff\n      and\n      swap1\n      pop\n      dup3\n      jump\t// out\n        /* \"contracts/Urna.sol\":4246:4505  function verTotalVotos() external view /*despuesDeJornada*/ returns(uint) {... */\n    tag_69:\n        /* \"contracts/Urna.sol\":4314:4318  uint */\n      0x00\n        /* \"contracts/Urna.sol\":4331:4343  uint counter */\n      dup1\n        /* \"contracts/Urna.sol\":4346:4347  0 */\n      0x00\n        /* \"contracts/Urna.sol\":4331:4347  uint counter = 0 */\n      swap1\n      pop\n        /* \"contracts/Urna.sol\":4365:4371  uint i */\n      0x00\n        /* \"contracts/Urna.sol\":4360:4471  for (uint i = 0; i < candidatos.length; i++) {... */\n    tag_181:\n        /* \"contracts/Urna.sol\":4381:4391  candidatos */\n      0x04\n        /* \"contracts/Urna.sol\":4381:4398  candidatos.length */\n      dup1\n      sload\n      swap1\n      pop\n        /* \"contracts/Urna.sol\":4377:4378  i */\n      dup2\n        /* \"contracts/Urna.sol\":4377:4398  i < candidatos.length */\n      lt\n        /* \"contracts/Urna.sol\":4360:4471  for (uint i = 0; i < candidatos.length; i++) {... */\n      iszero\n      tag_182\n      jumpi\n        /* \"contracts/Urna.sol\":4440:4450  candidatos */\n      0x04\n        /* \"contracts/Urna.sol\":4451:4452  i */\n      dup2\n        /* \"contracts/Urna.sol\":4440:4453  candidatos[i] */\n      dup2\n      sload\n      dup2\n      lt\n      tag_184\n      jumpi\n      tag_185\n      tag_89\n      jump\t// in\n    tag_185:\n    tag_184:\n      swap1\n      0x00\n      mstore\n      keccak256(0x00, 0x20)\n      swap1\n      0x03\n      mul\n      add\n        /* \"contracts/Urna.sol\":4440:4459  candidatos[i].votos */\n      0x02\n      add\n      sload\n        /* \"contracts/Urna.sol\":4430:4437  counter */\n      dup3\n        /* \"contracts/Urna.sol\":4430:4459  counter + candidatos[i].votos */\n      tag_187\n      swap2\n      swap1\n      tag_99\n      jump\t// in\n    tag_187:\n        /* \"contracts/Urna.sol\":4420:4459  counter = counter + candidatos[i].votos */\n      swap2\n      pop\n        /* \"contracts/Urna.sol\":4400:4403  i++ */\n      dup1\n      dup1\n      0x01\n      add\n      swap2\n      pop\n      pop\n        /* \"contracts/Urna.sol\":4360:4471  for (uint i = 0; i < candidatos.length; i++) {... */\n      jump(tag_181)\n    tag_182:\n      pop\n        /* \"contracts/Urna.sol\":4490:4497  counter */\n      dup1\n        /* \"contracts/Urna.sol\":4483:4497  return counter */\n      swap2\n      pop\n      pop\n        /* \"contracts/Urna.sol\":4246:4505  function verTotalVotos() external view /*despuesDeJornada*/ returns(uint) {... */\n      swap1\n      jump\t// out\n        /* \"contracts/Urna.sol\":2026:2258  function inscribirParticipante(string memory _nombre, uint8 _edad) public mayorDeEdad(_edad) /*dentroDePlazoInscripciones*/ {... */\n    tag_74:\n        /* \"contracts/Urna.sol\":2112:2117  _edad */\n      dup1\n        /* \"contracts/Urna.sol\":1013:1015  18 */\n      0x12\n        /* \"contracts/Urna.sol\":1004:1009  _edad */\n      dup2\n        /* \"contracts/Urna.sol\":1004:1015  _edad >= 18 */\n      0xff\n      and\n      lt\n      iszero\n        /* \"contracts/Urna.sol\":996:1016  require(_edad >= 18) */\n      tag_189\n      jumpi\n      0x00\n      dup1\n      revert\n    tag_189:\n        /* \"contracts/Urna.sol\":2208:2209  0 */\n      0x00\n        /* \"contracts/Urna.sol\":2169:2192  inscripcionParticipante */\n      0x09\n        /* \"contracts/Urna.sol\":2169:2204  inscripcionParticipante[msg.sender] */\n      0x00\n        /* \"contracts/Urna.sol\":2193:2203  msg.sender */\n      caller\n        /* \"contracts/Urna.sol\":2169:2204  inscripcionParticipante[msg.sender] */\n      0xffffffffffffffffffffffffffffffffffffffff\n      and\n      0xffffffffffffffffffffffffffffffffffffffff\n      and\n      dup2\n      mstore\n      0x20\n      add\n      swap1\n      dup2\n      mstore\n      0x20\n      add\n      0x00\n      keccak256\n      sload\n        /* \"contracts/Urna.sol\":2169:2209  inscripcionParticipante[msg.sender] == 0 */\n      eq\n        /* \"contracts/Urna.sol\":2161:2210  require(inscripcionParticipante[msg.sender] == 0) */\n      tag_191\n      jumpi\n      0x00\n      dup1\n      revert\n    tag_191:\n        /* \"contracts/Urna.sol\":2223:2250  _crearParticipante(_nombre) */\n      tag_192\n        /* \"contracts/Urna.sol\":2242:2249  _nombre */\n      dup4\n        /* \"contracts/Urna.sol\":2223:2241  _crearParticipante */\n      tag_193\n        /* \"contracts/Urna.sol\":2223:2250  _crearParticipante(_nombre) */\n      jump\t// in\n    tag_192:\n        /* \"contracts/Urna.sol\":2026:2258  function inscribirParticipante(string memory _nombre, uint8 _edad) public mayorDeEdad(_edad) /*dentroDePlazoInscripciones*/ {... */\n      pop\n      pop\n      pop\n      jump\t// out\n        /* \"contracts/Urna.sol\":3095:3216  function verNumeroCandidatos() external view /*duranteJornada*/ returns(uint) {... */\n    tag_76:\n        /* \"contracts/Urna.sol\":3167:3171  uint */\n      0x00\n        /* \"contracts/Urna.sol\":3191:3201  candidatos */\n      0x04\n        /* \"contracts/Urna.sol\":3191:3208  candidatos.length */\n      dup1\n      sload\n      swap1\n      pop\n        /* \"contracts/Urna.sol\":3184:3208  return candidatos.length */\n      swap1\n      pop\n        /* \"contracts/Urna.sol\":3095:3216  function verNumeroCandidatos() external view /*duranteJornada*/ returns(uint) {... */\n      swap1\n      jump\t// out\n        /* \"contracts/Urna.sol\":4513:4646  function verResultadoVotaciones() external view /*despuesDeJornada*/ returns(Candidato[] memory) {... */\n    tag_79:\n        /* \"contracts/Urna.sol\":4590:4608  Candidato[] memory */\n      0x60\n        /* \"contracts/Urna.sol\":4628:4638  candidatos */\n      0x04\n        /* \"contracts/Urna.sol\":4621:4638  return candidatos */\n      dup1\n      sload\n      dup1\n      0x20\n      mul\n      0x20\n      add\n      mload(0x40)\n      swap1\n      dup2\n      add\n      0x40\n      mstore\n      dup1\n      swap3\n      swap2\n      swap1\n      dup2\n      dup2\n      mstore\n      0x20\n      add\n      0x00\n      swap1\n    tag_196:\n      dup3\n      dup3\n      lt\n      iszero\n      tag_197\n      jumpi\n      dup4\n      dup3\n      swap1\n      0x00\n      mstore\n      keccak256(0x00, 0x20)\n      swap1\n      0x03\n      mul\n      add\n      mload(0x40)\n      dup1\n      0x60\n      add\n      0x40\n      mstore\n      swap1\n      dup2\n      0x00\n      dup3\n      add\n      dup1\n      sload\n      tag_199\n      swap1\n      tag_105\n      jump\t// in\n    tag_199:\n      dup1\n      0x1f\n      add\n      0x20\n      dup1\n      swap2\n      div\n      mul\n      0x20\n      add\n      mload(0x40)\n      swap1\n      dup2\n      add\n      0x40\n      mstore\n      dup1\n      swap3\n      swap2\n      swap1\n      dup2\n      dup2\n      mstore\n      0x20\n      add\n      dup3\n      dup1\n      sload\n      tag_200\n      swap1\n      tag_105\n      jump\t// in\n    tag_200:\n      dup1\n      iszero\n      tag_201\n      jumpi\n      dup1\n      0x1f\n      lt\n      tag_202\n      jumpi\n      0x0100\n      dup1\n      dup4\n      sload\n      div\n      mul\n      dup4\n      mstore\n      swap2\n      0x20\n      add\n      swap2\n      jump(tag_201)\n    tag_202:\n      dup3\n      add\n      swap2\n      swap1\n      0x00\n      mstore\n      keccak256(0x00, 0x20)\n      swap1\n    tag_203:\n      dup2\n      sload\n      dup2\n      mstore\n      swap1\n      0x01\n      add\n      swap1\n      0x20\n      add\n      dup1\n      dup4\n      gt\n      tag_203\n      jumpi\n      dup3\n      swap1\n      sub\n      0x1f\n      and\n      dup3\n      add\n      swap2\n    tag_201:\n      pop\n      pop\n      pop\n      pop\n      pop\n      dup2\n      mstore\n      0x20\n      add\n      0x01\n      dup3\n      add\n      dup1\n      sload\n      tag_204\n      swap1\n      tag_105\n      jump\t// in\n    tag_204:\n      dup1\n      0x1f\n      add\n      0x20\n      dup1\n      swap2\n      div\n      mul\n      0x20\n      add\n      mload(0x40)\n      swap1\n      dup2\n      add\n      0x40\n      mstore\n      dup1\n      swap3\n      swap2\n      swap1\n      dup2\n      dup2\n      mstore\n      0x20\n      add\n      dup3\n      dup1\n      sload\n      tag_205\n      swap1\n      tag_105\n      jump\t// in\n    tag_205:\n      dup1\n      iszero\n      tag_206\n      jumpi\n      dup1\n      0x1f\n      lt\n      tag_207\n      jumpi\n      0x0100\n      dup1\n      dup4\n      sload\n      div\n      mul\n      dup4\n      mstore\n      swap2\n      0x20\n      add\n      swap2\n      jump(tag_206)\n    tag_207:\n      dup3\n      add\n      swap2\n      swap1\n      0x00\n      mstore\n      keccak256(0x00, 0x20)\n      swap1\n    tag_208:\n      dup2\n      sload\n      dup2\n      mstore\n      swap1\n      0x01\n      add\n      swap1\n      0x20\n      add\n      dup1\n      dup4\n      gt\n      tag_208\n      jumpi\n      dup3\n      swap1\n      sub\n      0x1f\n      and\n      dup3\n      add\n      swap2\n    tag_206:\n      pop\n      pop\n      pop\n      pop\n      pop\n      dup2\n      mstore\n      0x20\n      add\n      0x02\n      dup3\n      add\n      sload\n      dup2\n      mstore\n      pop\n      pop\n      dup2\n      mstore\n      0x20\n      add\n      swap1\n      0x01\n      add\n      swap1\n      jump(tag_196)\n    tag_197:\n      pop\n      pop\n      pop\n      pop\n      swap1\n      pop\n        /* \"contracts/Urna.sol\":4513:4646  function verResultadoVotaciones() external view /*despuesDeJornada*/ returns(Candidato[] memory) {... */\n      swap1\n      jump\t// out\n        /* \"OpenZeppelin-Ownable/access/Ownable.sol\":3801:4016  function transferOwnership(address newOwner) public virtual onlyOwner {... */\n    tag_85:\n        /* \"OpenZeppelin-Ownable/access/Ownable.sol\":2789:2802  _checkOwner() */\n      tag_210\n        /* \"OpenZeppelin-Ownable/access/Ownable.sol\":2789:2800  _checkOwner */\n      tag_118\n        /* \"OpenZeppelin-Ownable/access/Ownable.sol\":2789:2802  _checkOwner() */\n      jump\t// in\n    tag_210:\n        /* \"OpenZeppelin-Ownable/access/Ownable.sol\":3905:3906  0 */\n      0x00\n        /* \"OpenZeppelin-Ownable/access/Ownable.sol\":3885:3907  newOwner == address(0) */\n      0xffffffffffffffffffffffffffffffffffffffff\n      and\n        /* \"OpenZeppelin-Ownable/access/Ownable.sol\":3885:3893  newOwner */\n      dup2\n        /* \"OpenZeppelin-Ownable/access/Ownable.sol\":3885:3907  newOwner == address(0) */\n      0xffffffffffffffffffffffffffffffffffffffff\n      and\n      sub\n        /* \"OpenZeppelin-Ownable/access/Ownable.sol\":3881:3972  if (newOwner == address(0)) {... */\n      tag_212\n      jumpi\n        /* \"OpenZeppelin-Ownable/access/Ownable.sol\":3958:3959  0 */\n      0x00\n        /* \"OpenZeppelin-Ownable/access/Ownable.sol\":3930:3961  OwnableInvalidOwner(address(0)) */\n      mload(0x40)\n      0x1e4fbdf700000000000000000000000000000000000000000000000000000000\n      dup2\n      mstore\n      0x04\n      add\n      tag_213\n      swap2\n      swap1\n      tag_48\n      jump\t// in\n    tag_213:\n      mload(0x40)\n      dup1\n      swap2\n      sub\n      swap1\n      revert\n        /* \"OpenZeppelin-Ownable/access/Ownable.sol\":3881:3972  if (newOwner == address(0)) {... */\n    tag_212:\n        /* \"OpenZeppelin-Ownable/access/Ownable.sol\":3981:4009  _transferOwnership(newOwner) */\n      tag_214\n        /* \"OpenZeppelin-Ownable/access/Ownable.sol\":4000:4008  newOwner */\n      dup2\n        /* \"OpenZeppelin-Ownable/access/Ownable.sol\":3981:3999  _transferOwnership */\n      tag_121\n        /* \"OpenZeppelin-Ownable/access/Ownable.sol\":3981:4009  _transferOwnership(newOwner) */\n      jump\t// in\n    tag_214:\n        /* \"OpenZeppelin-Ownable/access/Ownable.sol\":3801:4016  function transferOwnership(address newOwner) public virtual onlyOwner {... */\n      pop\n      jump\t// out\n        /* \"OpenZeppelin-Ownable/access/Ownable.sol\":3054:3216  function _checkOwner() internal view virtual {... */\n    tag_118:\n        /* \"OpenZeppelin-Ownable/access/Ownable.sol\":3124:3136  _msgSender() */\n      tag_216\n        /* \"OpenZeppelin-Ownable/access/Ownable.sol\":3124:3134  _msgSender */\n      tag_217\n        /* \"OpenZeppelin-Ownable/access/Ownable.sol\":3124:3136  _msgSender() */\n      jump\t// in\n    tag_216:\n        /* \"OpenZeppelin-Ownable/access/Ownable.sol\":3113:3136  owner() != _msgSender() */\n      0xffffffffffffffffffffffffffffffffffffffff\n      and\n        /* \"OpenZeppelin-Ownable/access/Ownable.sol\":3113:3120  owner() */\n      tag_218\n        /* \"OpenZeppelin-Ownable/access/Ownable.sol\":3113:3118  owner */\n      tag_46\n        /* \"OpenZeppelin-Ownable/access/Ownable.sol\":3113:3120  owner() */\n      jump\t// in\n    tag_218:\n        /* \"OpenZeppelin-Ownable/access/Ownable.sol\":3113:3136  owner() != _msgSender() */\n      0xffffffffffffffffffffffffffffffffffffffff\n      and\n      eq\n        /* \"OpenZeppelin-Ownable/access/Ownable.sol\":3109:3210  if (owner() != _msgSender()) {... */\n      tag_219\n      jumpi\n        /* \"OpenZeppelin-Ownable/access/Ownable.sol\":3186:3198  _msgSender() */\n      tag_220\n        /* \"OpenZeppelin-Ownable/access/Ownable.sol\":3186:3196  _msgSender */\n      tag_217\n        /* \"OpenZeppelin-Ownable/access/Ownable.sol\":3186:3198  _msgSender() */\n      jump\t// in\n    tag_220:\n        /* \"OpenZeppelin-Ownable/access/Ownable.sol\":3159:3199  OwnableUnauthorizedAccount(_msgSender()) */\n      mload(0x40)\n      0x118cdaa700000000000000000000000000000000000000000000000000000000\n      dup2\n      mstore\n      0x04\n      add\n      tag_221\n      swap2\n      swap1\n      tag_48\n      jump\t// in\n    tag_221:\n      mload(0x40)\n      dup1\n      swap2\n      sub\n      swap1\n      revert\n        /* \"OpenZeppelin-Ownable/access/Ownable.sol\":3109:3210  if (owner() != _msgSender()) {... */\n    tag_219:\n        /* \"OpenZeppelin-Ownable/access/Ownable.sol\":3054:3216  function _checkOwner() internal view virtual {... */\n      jump\t// out\n        /* \"OpenZeppelin-Ownable/access/Ownable.sol\":4170:4357  function _transferOwnership(address newOwner) internal virtual {... */\n    tag_121:\n        /* \"OpenZeppelin-Ownable/access/Ownable.sol\":4243:4259  address oldOwner */\n      0x00\n        /* \"OpenZeppelin-Ownable/access/Ownable.sol\":4262:4268  _owner */\n      dup1\n      0x00\n      swap1\n      sload\n      swap1\n      0x0100\n      exp\n      swap1\n      div\n      0xffffffffffffffffffffffffffffffffffffffff\n      and\n        /* \"OpenZeppelin-Ownable/access/Ownable.sol\":4243:4268  address oldOwner = _owner */\n      swap1\n      pop\n        /* \"OpenZeppelin-Ownable/access/Ownable.sol\":4287:4295  newOwner */\n      dup2\n        /* \"OpenZeppelin-Ownable/access/Ownable.sol\":4278:4284  _owner */\n      0x00\n      dup1\n        /* \"OpenZeppelin-Ownable/access/Ownable.sol\":4278:4295  _owner = newOwner */\n      0x0100\n      exp\n      dup2\n      sload\n      dup2\n      0xffffffffffffffffffffffffffffffffffffffff\n      mul\n      not\n      and\n      swap1\n      dup4\n      0xffffffffffffffffffffffffffffffffffffffff\n      and\n      mul\n      or\n      swap1\n      sstore\n      pop\n        /* \"OpenZeppelin-Ownable/access/Ownable.sol\":4341:4349  newOwner */\n      dup2\n        /* \"OpenZeppelin-Ownable/access/Ownable.sol\":4310:4350  OwnershipTransferred(oldOwner, newOwner) */\n      0xffffffffffffffffffffffffffffffffffffffff\n      and\n        /* \"OpenZeppelin-Ownable/access/Ownable.sol\":4331:4339  oldOwner */\n      dup2\n        /* \"OpenZeppelin-Ownable/access/Ownable.sol\":4310:4350  OwnershipTransferred(oldOwner, newOwner) */\n      0xffffffffffffffffffffffffffffffffffffffff\n      and\n      0x8be0079c531659141344cd1fd0a4f28419497f9722a3daafe3b4186f6b6457e0\n      mload(0x40)\n      mload(0x40)\n      dup1\n      swap2\n      sub\n      swap1\n      log3\n        /* \"OpenZeppelin-Ownable/access/Ownable.sol\":4233:4357  {... */\n      pop\n        /* \"OpenZeppelin-Ownable/access/Ownable.sol\":4170:4357  function _transferOwnership(address newOwner) internal virtual {... */\n      pop\n      jump\t// out\n        /* \"contracts/Urna.sol\":2422:2585  function _crearPartido(string memory _partido, bool _partidoExiste) internal {... */\n    tag_137:\n        /* \"contracts/Urna.sol\":2519:2533  _partidoExiste */\n      dup1\n        /* \"contracts/Urna.sol\":2518:2533  !_partidoExiste */\n      iszero\n        /* \"contracts/Urna.sol\":2510:2534  require(!_partidoExiste) */\n      tag_224\n      jumpi\n      0x00\n      dup1\n      revert\n    tag_224:\n        /* \"contracts/Urna.sol\":2545:2553  partidos */\n      0x03\n        /* \"contracts/Urna.sol\":2559:2576  Partido(_partido) */\n      mload(0x40)\n      dup1\n      0x20\n      add\n      0x40\n      mstore\n      dup1\n        /* \"contracts/Urna.sol\":2567:2575  _partido */\n      dup5\n        /* \"contracts/Urna.sol\":2559:2576  Partido(_partido) */\n      dup2\n      mstore\n      pop\n        /* \"contracts/Urna.sol\":2545:2577  partidos.push(Partido(_partido)) */\n      swap1\n      dup1\n      0x01\n      dup2\n      sload\n      add\n      dup1\n      dup3\n      sstore\n      dup1\n      swap2\n      pop\n      pop\n      0x01\n      swap1\n      sub\n      swap1\n      0x00\n      mstore\n      keccak256(0x00, 0x20)\n      add\n      0x00\n      swap1\n      swap2\n      swap1\n      swap2\n      swap1\n      swap2\n      pop\n      0x00\n      dup3\n      add\n      mload\n      dup2\n      0x00\n      add\n      swap1\n      dup2\n      tag_226\n      swap2\n      swap1\n      tag_172\n      jump\t// in\n    tag_226:\n      pop\n      pop\n      pop\n        /* \"contracts/Urna.sol\":2422:2585  function _crearPartido(string memory _partido, bool _partidoExiste) internal {... */\n      pop\n      pop\n      jump\t// out\n        /* \"contracts/Urna.sol\":2266:2414  function _crearCandidato(string memory _partido, string memory _nombre) internal {... */\n    tag_139:\n        /* \"contracts/Urna.sol\":2358:2368  candidatos */\n      0x04\n        /* \"contracts/Urna.sol\":2374:2405  Candidato(_nombre, _partido, 0) */\n      mload(0x40)\n      dup1\n      0x60\n      add\n      0x40\n      mstore\n      dup1\n        /* \"contracts/Urna.sol\":2384:2391  _nombre */\n      dup4\n        /* \"contracts/Urna.sol\":2374:2405  Candidato(_nombre, _partido, 0) */\n      dup2\n      mstore\n      0x20\n      add\n        /* \"contracts/Urna.sol\":2393:2401  _partido */\n      dup5\n        /* \"contracts/Urna.sol\":2374:2405  Candidato(_nombre, _partido, 0) */\n      dup2\n      mstore\n      0x20\n      add\n        /* \"contracts/Urna.sol\":2403:2404  0 */\n      0x00\n        /* \"contracts/Urna.sol\":2374:2405  Candidato(_nombre, _partido, 0) */\n      dup2\n      mstore\n      pop\n        /* \"contracts/Urna.sol\":2358:2406  candidatos.push(Candidato(_nombre, _partido, 0)) */\n      swap1\n      dup1\n      0x01\n      dup2\n      sload\n      add\n      dup1\n      dup3\n      sstore\n      dup1\n      swap2\n      pop\n      pop\n      0x01\n      swap1\n      sub\n      swap1\n      0x00\n      mstore\n      keccak256(0x00, 0x20)\n      swap1\n      0x03\n      mul\n      add\n      0x00\n      swap1\n      swap2\n      swap1\n      swap2\n      swap1\n      swap2\n      pop\n      0x00\n      dup3\n      add\n      mload\n      dup2\n      0x00\n      add\n      swap1\n      dup2\n      tag_229\n      swap2\n      swap1\n      tag_172\n      jump\t// in\n    tag_229:\n      pop\n      0x20\n      dup3\n      add\n      mload\n      dup2\n      0x01\n      add\n      swap1\n      dup2\n      tag_230\n      swap2\n      swap1\n      tag_172\n      jump\t// in\n    tag_230:\n      pop\n      0x40\n      dup3\n      add\n      mload\n      dup2\n      0x02\n      add\n      sstore\n      pop\n      pop\n        /* \"contracts/Urna.sol\":2266:2414  function _crearCandidato(string memory _partido, string memory _nombre) internal {... */\n      pop\n      pop\n      jump\t// out\n        /* \"contracts/Urna.sol\":1810:2018  function _crearParticipante(string memory _nombre) internal {... */\n    tag_193:\n        /* \"contracts/Urna.sol\":1881:1894  participantes */\n      0x05\n        /* \"contracts/Urna.sol\":1900:1928  Participante(_nombre, false) */\n      mload(0x40)\n      dup1\n      0x40\n      add\n      0x40\n      mstore\n      dup1\n        /* \"contracts/Urna.sol\":1913:1920  _nombre */\n      dup4\n        /* \"contracts/Urna.sol\":1900:1928  Participante(_nombre, false) */\n      dup2\n      mstore\n      0x20\n      add\n        /* \"contracts/Urna.sol\":1922:1927  false */\n      0x00\n        /* \"contracts/Urna.sol\":1900:1928  Participante(_nombre, false) */\n      iszero\n      iszero\n      dup2\n      mstore\n      pop\n        /* \"contracts/Urna.sol\":1881:1929  participantes.push(Participante(_nombre, false)) */\n      swap1\n      dup1\n      0x01\n      dup2\n      sload\n      add\n      dup1\n      dup3\n      sstore\n      dup1\n      swap2\n      pop\n      pop\n      0x01\n      swap1\n      sub\n      swap1\n      0x00\n      mstore\n      keccak256(0x00, 0x20)\n      swap1\n      0x02\n      mul\n      add\n      0x00\n      swap1\n      swap2\n      swap1\n      swap2\n      swap1\n      swap2\n      pop\n      0x00\n      dup3\n      add\n      mload\n      dup2\n      0x00\n      add\n      swap1\n      dup2\n      tag_233\n      swap2\n      swap1\n      tag_172\n      jump\t// in\n    tag_233:\n      pop\n      0x20\n      dup3\n      add\n      mload\n      dup2\n      0x01\n      add\n      exp(0x0100, 0x00)\n      dup2\n      sload\n      dup2\n      0xff\n      mul\n      not\n      and\n      swap1\n      dup4\n      iszero\n      iszero\n      mul\n      or\n      swap1\n      sstore\n      pop\n      pop\n      pop\n        /* \"contracts/Urna.sol\":2008:2009  1 */\n      0x01\n        /* \"contracts/Urna.sol\":1985:1998  participantes */\n      0x05\n        /* \"contracts/Urna.sol\":1985:2005  participantes.length */\n      dup1\n      sload\n      swap1\n      pop\n        /* \"contracts/Urna.sol\":1985:2009  participantes.length - 1 */\n      tag_234\n      swap2\n      swap1\n      tag_235\n      jump\t// in\n    tag_234:\n        /* \"contracts/Urna.sol\":1942:1965  inscripcionParticipante */\n      0x09\n        /* \"contracts/Urna.sol\":1942:1977  inscripcionParticipante[msg.sender] */\n      0x00\n        /* \"contracts/Urna.sol\":1966:1976  msg.sender */\n      caller\n        /* \"contracts/Urna.sol\":1942:1977  inscripcionParticipante[msg.sender] */\n      0xffffffffffffffffffffffffffffffffffffffff\n      and\n      0xffffffffffffffffffffffffffffffffffffffff\n      and\n      dup2\n      mstore\n      0x20\n      add\n      swap1\n      dup2\n      mstore\n      0x20\n      add\n      0x00\n      keccak256\n        /* \"contracts/Urna.sol\":1942:2010  inscripcionParticipante[msg.sender] = uint(participantes.length - 1) */\n      dup2\n      swap1\n      sstore\n      pop\n        /* \"contracts/Urna.sol\":1810:2018  function _crearParticipante(string memory _nombre) internal {... */\n      pop\n      jump\t// out\n        /* \"OpenZeppelin-Ownable/utils/Context.sol\":1899:1995  function _msgSender() internal view virtual returns (address) {... */\n    tag_217:\n        /* \"OpenZeppelin-Ownable/utils/Context.sol\":1952:1959  address */\n      0x00\n        /* \"OpenZeppelin-Ownable/utils/Context.sol\":1978:1988  msg.sender */\n      caller\n        /* \"OpenZeppelin-Ownable/utils/Context.sol\":1971:1988  return msg.sender */\n      swap1\n      pop\n        /* \"OpenZeppelin-Ownable/utils/Context.sol\":1899:1995  function _msgSender() internal view virtual returns (address) {... */\n      swap1\n      jump\t// out\n        /* \"#utility.yul\":7:82   */\n    tag_237:\n        /* \"#utility.yul\":40:46   */\n      0x00\n        /* \"#utility.yul\":73:75   */\n      0x40\n        /* \"#utility.yul\":67:76   */\n      mload\n        /* \"#utility.yul\":57:76   */\n      swap1\n      pop\n        /* \"#utility.yul\":7:82   */\n      swap1\n      jump\t// out\n        /* \"#utility.yul\":88:205   */\n    tag_238:\n        /* \"#utility.yul\":197:198   */\n      0x00\n        /* \"#utility.yul\":194:195   */\n      dup1\n        /* \"#utility.yul\":187:199   */\n      revert\n        /* \"#utility.yul\":211:328   */\n    tag_239:\n        /* \"#utility.yul\":320:321   */\n      0x00\n        /* \"#utility.yul\":317:318   */\n      dup1\n        /* \"#utility.yul\":310:322   */\n      revert\n        /* \"#utility.yul\":334:411   */\n    tag_240:\n        /* \"#utility.yul\":371:378   */\n      0x00\n        /* \"#utility.yul\":400:405   */\n      dup2\n        /* \"#utility.yul\":389:405   */\n      swap1\n      pop\n        /* \"#utility.yul\":334:411   */\n      swap2\n      swap1\n      pop\n      jump\t// out\n        /* \"#utility.yul\":417:539   */\n    tag_241:\n        /* \"#utility.yul\":490:514   */\n      tag_305\n        /* \"#utility.yul\":508:513   */\n      dup2\n        /* \"#utility.yul\":490:514   */\n      tag_240\n      jump\t// in\n    tag_305:\n        /* \"#utility.yul\":483:488   */\n      dup2\n        /* \"#utility.yul\":480:515   */\n      eq\n        /* \"#utility.yul\":470:533   */\n      tag_306\n      jumpi\n        /* \"#utility.yul\":529:530   */\n      0x00\n        /* \"#utility.yul\":526:527   */\n      dup1\n        /* \"#utility.yul\":519:531   */\n      revert\n        /* \"#utility.yul\":470:533   */\n    tag_306:\n        /* \"#utility.yul\":417:539   */\n      pop\n      jump\t// out\n        /* \"#utility.yul\":545:684   */\n    tag_242:\n        /* \"#utility.yul\":591:596   */\n      0x00\n        /* \"#utility.yul\":629:635   */\n      dup2\n        /* \"#utility.yul\":616:636   */\n      calldataload\n        /* \"#utility.yul\":607:636   */\n      swap1\n      pop\n        /* \"#utility.yul\":645:678   */\n      tag_308\n        /* \"#utility.yul\":672:677   */\n      dup2\n        /* \"#utility.yul\":645:678   */\n      tag_241\n      jump\t// in\n    tag_308:\n        /* \"#utility.yul\":545:684   */\n      swap3\n      swap2\n      pop\n      pop\n      jump\t// out\n        /* \"#utility.yul\":690:1019   */\n    tag_24:\n        /* \"#utility.yul\":749:755   */\n      0x00\n        /* \"#utility.yul\":798:800   */\n      0x20\n        /* \"#utility.yul\":786:795   */\n      dup3\n        /* \"#utility.yul\":777:784   */\n      dup5\n        /* \"#utility.yul\":773:796   */\n      sub\n        /* \"#utility.yul\":769:801   */\n      slt\n        /* \"#utility.yul\":766:885   */\n      iszero\n      tag_310\n      jumpi\n        /* \"#utility.yul\":804:883   */\n      tag_311\n      tag_238\n      jump\t// in\n    tag_311:\n        /* \"#utility.yul\":766:885   */\n    tag_310:\n        /* \"#utility.yul\":924:925   */\n      0x00\n        /* \"#utility.yul\":949:1002   */\n      tag_312\n        /* \"#utility.yul\":994:1001   */\n      dup5\n        /* \"#utility.yul\":985:991   */\n      dup3\n        /* \"#utility.yul\":974:983   */\n      dup6\n        /* \"#utility.yul\":970:992   */\n      add\n        /* \"#utility.yul\":949:1002   */\n      tag_242\n      jump\t// in\n    tag_312:\n        /* \"#utility.yul\":939:1002   */\n      swap2\n      pop\n        /* \"#utility.yul\":895:1012   */\n      pop\n        /* \"#utility.yul\":690:1019   */\n      swap3\n      swap2\n      pop\n      pop\n      jump\t// out\n        /* \"#utility.yul\":1025:1124   */\n    tag_243:\n        /* \"#utility.yul\":1077:1083   */\n      0x00\n        /* \"#utility.yul\":1111:1116   */\n      dup2\n        /* \"#utility.yul\":1105:1117   */\n      mload\n        /* \"#utility.yul\":1095:1117   */\n      swap1\n      pop\n        /* \"#utility.yul\":1025:1124   */\n      swap2\n      swap1\n      pop\n      jump\t// out\n        /* \"#utility.yul\":1130:1299   */\n    tag_244:\n        /* \"#utility.yul\":1214:1225   */\n      0x00\n        /* \"#utility.yul\":1248:1254   */\n      dup3\n        /* \"#utility.yul\":1243:1246   */\n      dup3\n        /* \"#utility.yul\":1236:1255   */\n      mstore\n        /* \"#utility.yul\":1288:1292   */\n      0x20\n        /* \"#utility.yul\":1283:1286   */\n      dup3\n        /* \"#utility.yul\":1279:1293   */\n      add\n        /* \"#utility.yul\":1264:1293   */\n      swap1\n      pop\n        /* \"#utility.yul\":1130:1299   */\n      swap3\n      swap2\n      pop\n      pop\n      jump\t// out\n        /* \"#utility.yul\":1305:1551   */\n    tag_245:\n        /* \"#utility.yul\":1386:1387   */\n      0x00\n        /* \"#utility.yul\":1396:1509   */\n    tag_316:\n        /* \"#utility.yul\":1410:1416   */\n      dup4\n        /* \"#utility.yul\":1407:1408   */\n      dup2\n        /* \"#utility.yul\":1404:1417   */\n      lt\n        /* \"#utility.yul\":1396:1509   */\n      iszero\n      tag_318\n      jumpi\n        /* \"#utility.yul\":1495:1496   */\n      dup1\n        /* \"#utility.yul\":1490:1493   */\n      dup3\n        /* \"#utility.yul\":1486:1497   */\n      add\n        /* \"#utility.yul\":1480:1498   */\n      mload\n        /* \"#utility.yul\":1476:1477   */\n      dup2\n        /* \"#utility.yul\":1471:1474   */\n      dup5\n        /* \"#utility.yul\":1467:1478   */\n      add\n        /* \"#utility.yul\":1460:1499   */\n      mstore\n        /* \"#utility.yul\":1432:1434   */\n      0x20\n        /* \"#utility.yul\":1429:1430   */\n      dup2\n        /* \"#utility.yul\":1425:1435   */\n      add\n        /* \"#utility.yul\":1420:1435   */\n      swap1\n      pop\n        /* \"#utility.yul\":1396:1509   */\n      jump(tag_316)\n    tag_318:\n        /* \"#utility.yul\":1543:1544   */\n      0x00\n        /* \"#utility.yul\":1534:1540   */\n      dup5\n        /* \"#utility.yul\":1529:1532   */\n      dup5\n        /* \"#utility.yul\":1525:1541   */\n      add\n        /* \"#utility.yul\":1518:1545   */\n      mstore\n        /* \"#utility.yul\":1367:1551   */\n      pop\n        /* \"#utility.yul\":1305:1551   */\n      pop\n      pop\n      pop\n      jump\t// out\n        /* \"#utility.yul\":1557:1659   */\n    tag_246:\n        /* \"#utility.yul\":1598:1604   */\n      0x00\n        /* \"#utility.yul\":1649:1651   */\n      0x1f\n        /* \"#utility.yul\":1645:1652   */\n      not\n        /* \"#utility.yul\":1640:1642   */\n      0x1f\n        /* \"#utility.yul\":1633:1638   */\n      dup4\n        /* \"#utility.yul\":1629:1643   */\n      add\n        /* \"#utility.yul\":1625:1653   */\n      and\n        /* \"#utility.yul\":1615:1653   */\n      swap1\n      pop\n        /* \"#utility.yul\":1557:1659   */\n      swap2\n      swap1\n      pop\n      jump\t// out\n        /* \"#utility.yul\":1665:2042   */\n    tag_247:\n        /* \"#utility.yul\":1753:1756   */\n      0x00\n        /* \"#utility.yul\":1781:1820   */\n      tag_321\n        /* \"#utility.yul\":1814:1819   */\n      dup3\n        /* \"#utility.yul\":1781:1820   */\n      tag_243\n      jump\t// in\n    tag_321:\n        /* \"#utility.yul\":1836:1907   */\n      tag_322\n        /* \"#utility.yul\":1900:1906   */\n      dup2\n        /* \"#utility.yul\":1895:1898   */\n      dup6\n        /* \"#utility.yul\":1836:1907   */\n      tag_244\n      jump\t// in\n    tag_322:\n        /* \"#utility.yul\":1829:1907   */\n      swap4\n      pop\n        /* \"#utility.yul\":1916:1981   */\n      tag_323\n        /* \"#utility.yul\":1974:1980   */\n      dup2\n        /* \"#utility.yul\":1969:1972   */\n      dup6\n        /* \"#utility.yul\":1962:1966   */\n      0x20\n        /* \"#utility.yul\":1955:1960   */\n      dup7\n        /* \"#utility.yul\":1951:1967   */\n      add\n        /* \"#utility.yul\":1916:1981   */\n      tag_245\n      jump\t// in\n    tag_323:\n        /* \"#utility.yul\":2006:2035   */\n      tag_324\n        /* \"#utility.yul\":2028:2034   */\n      dup2\n        /* \"#utility.yul\":2006:2035   */\n      tag_246\n      jump\t// in\n    tag_324:\n        /* \"#utility.yul\":2001:2004   */\n      dup5\n        /* \"#utility.yul\":1997:2036   */\n      add\n        /* \"#utility.yul\":1990:2036   */\n      swap2\n      pop\n        /* \"#utility.yul\":1757:2042   */\n      pop\n        /* \"#utility.yul\":1665:2042   */\n      swap3\n      swap2\n      pop\n      pop\n      jump\t// out\n        /* \"#utility.yul\":2048:2361   */\n    tag_30:\n        /* \"#utility.yul\":2161:2165   */\n      0x00\n        /* \"#utility.yul\":2199:2201   */\n      0x20\n        /* \"#utility.yul\":2188:2197   */\n      dup3\n        /* \"#utility.yul\":2184:2202   */\n      add\n        /* \"#utility.yul\":2176:2202   */\n      swap1\n      pop\n        /* \"#utility.yul\":2248:2257   */\n      dup2\n        /* \"#utility.yul\":2242:2246   */\n      dup2\n        /* \"#utility.yul\":2238:2258   */\n      sub\n        /* \"#utility.yul\":2234:2235   */\n      0x00\n        /* \"#utility.yul\":2223:2232   */\n      dup4\n        /* \"#utility.yul\":2219:2236   */\n      add\n        /* \"#utility.yul\":2212:2259   */\n      mstore\n        /* \"#utility.yul\":2276:2354   */\n      tag_326\n        /* \"#utility.yul\":2349:2353   */\n      dup2\n        /* \"#utility.yul\":2340:2346   */\n      dup5\n        /* \"#utility.yul\":2276:2354   */\n      tag_247\n      jump\t// in\n    tag_326:\n        /* \"#utility.yul\":2268:2354   */\n      swap1\n      pop\n        /* \"#utility.yul\":2048:2361   */\n      swap3\n      swap2\n      pop\n      pop\n      jump\t// out\n        /* \"#utility.yul\":2367:2485   */\n    tag_248:\n        /* \"#utility.yul\":2454:2478   */\n      tag_328\n        /* \"#utility.yul\":2472:2477   */\n      dup2\n        /* \"#utility.yul\":2454:2478   */\n      tag_240\n      jump\t// in\n    tag_328:\n        /* \"#utility.yul\":2449:2452   */\n      dup3\n        /* \"#utility.yul\":2442:2479   */\n      mstore\n        /* \"#utility.yul\":2367:2485   */\n      pop\n      pop\n      jump\t// out\n        /* \"#utility.yul\":2491:2713   */\n    tag_34:\n        /* \"#utility.yul\":2584:2588   */\n      0x00\n        /* \"#utility.yul\":2622:2624   */\n      0x20\n        /* \"#utility.yul\":2611:2620   */\n      dup3\n        /* \"#utility.yul\":2607:2625   */\n      add\n        /* \"#utility.yul\":2599:2625   */\n      swap1\n      pop\n        /* \"#utility.yul\":2635:2706   */\n      tag_330\n        /* \"#utility.yul\":2703:2704   */\n      0x00\n        /* \"#utility.yul\":2692:2701   */\n      dup4\n        /* \"#utility.yul\":2688:2705   */\n      add\n        /* \"#utility.yul\":2679:2685   */\n      dup5\n        /* \"#utility.yul\":2635:2706   */\n      tag_248\n      jump\t// in\n    tag_330:\n        /* \"#utility.yul\":2491:2713   */\n      swap3\n      swap2\n      pop\n      pop\n      jump\t// out\n        /* \"#utility.yul\":2719:3142   */\n    tag_38:\n        /* \"#utility.yul\":2860:2864   */\n      0x00\n        /* \"#utility.yul\":2898:2900   */\n      0x40\n        /* \"#utility.yul\":2887:2896   */\n      dup3\n        /* \"#utility.yul\":2883:2901   */\n      add\n        /* \"#utility.yul\":2875:2901   */\n      swap1\n      pop\n        /* \"#utility.yul\":2947:2956   */\n      dup2\n        /* \"#utility.yul\":2941:2945   */\n      dup2\n        /* \"#utility.yul\":2937:2957   */\n      sub\n        /* \"#utility.yul\":2933:2934   */\n      0x00\n        /* \"#utility.yul\":2922:2931   */\n      dup4\n        /* \"#utility.yul\":2918:2935   */\n      add\n        /* \"#utility.yul\":2911:2958   */\n      mstore\n        /* \"#utility.yul\":2975:3053   */\n      tag_332\n        /* \"#utility.yul\":3048:3052   */\n      dup2\n        /* \"#utility.yul\":3039:3045   */\n      dup6\n        /* \"#utility.yul\":2975:3053   */\n      tag_247\n      jump\t// in\n    tag_332:\n        /* \"#utility.yul\":2967:3053   */\n      swap1\n      pop\n        /* \"#utility.yul\":3063:3135   */\n      tag_333\n        /* \"#utility.yul\":3131:3133   */\n      0x20\n        /* \"#utility.yul\":3120:3129   */\n      dup4\n        /* \"#utility.yul\":3116:3134   */\n      add\n        /* \"#utility.yul\":3107:3113   */\n      dup5\n        /* \"#utility.yul\":3063:3135   */\n      tag_248\n      jump\t// in\n    tag_333:\n        /* \"#utility.yul\":2719:3142   */\n      swap4\n      swap3\n      pop\n      pop\n      pop\n      jump\t// out\n        /* \"#utility.yul\":3148:3265   */\n    tag_249:\n        /* \"#utility.yul\":3257:3258   */\n      0x00\n        /* \"#utility.yul\":3254:3255   */\n      dup1\n        /* \"#utility.yul\":3247:3259   */\n      revert\n        /* \"#utility.yul\":3271:3388   */\n    tag_250:\n        /* \"#utility.yul\":3380:3381   */\n      0x00\n        /* \"#utility.yul\":3377:3378   */\n      dup1\n        /* \"#utility.yul\":3370:3382   */\n      revert\n        /* \"#utility.yul\":3394:3574   */\n    tag_251:\n        /* \"#utility.yul\":3442:3519   */\n      0x4e487b7100000000000000000000000000000000000000000000000000000000\n        /* \"#utility.yul\":3439:3440   */\n      0x00\n        /* \"#utility.yul\":3432:3520   */\n      mstore\n        /* \"#utility.yul\":3539:3543   */\n      0x41\n        /* \"#utility.yul\":3536:3537   */\n      0x04\n        /* \"#utility.yul\":3529:3544   */\n      mstore\n        /* \"#utility.yul\":3563:3567   */\n      0x24\n        /* \"#utility.yul\":3560:3561   */\n      0x00\n        /* \"#utility.yul\":3553:3568   */\n      revert\n        /* \"#utility.yul\":3580:3861   */\n    tag_252:\n        /* \"#utility.yul\":3663:3690   */\n      tag_338\n        /* \"#utility.yul\":3685:3689   */\n      dup3\n        /* \"#utility.yul\":3663:3690   */\n      tag_246\n      jump\t// in\n    tag_338:\n        /* \"#utility.yul\":3655:3661   */\n      dup2\n        /* \"#utility.yul\":3651:3691   */\n      add\n        /* \"#utility.yul\":3793:3799   */\n      dup2\n        /* \"#utility.yul\":3781:3791   */\n      dup2\n        /* \"#utility.yul\":3778:3800   */\n      lt\n        /* \"#utility.yul\":3757:3775   */\n      0xffffffffffffffff\n        /* \"#utility.yul\":3745:3755   */\n      dup3\n        /* \"#utility.yul\":3742:3776   */\n      gt\n        /* \"#utility.yul\":3739:3801   */\n      or\n        /* \"#utility.yul\":3736:3824   */\n      iszero\n      tag_339\n      jumpi\n        /* \"#utility.yul\":3804:3822   */\n      tag_340\n      tag_251\n      jump\t// in\n    tag_340:\n        /* \"#utility.yul\":3736:3824   */\n    tag_339:\n        /* \"#utility.yul\":3844:3854   */\n      dup1\n        /* \"#utility.yul\":3840:3842   */\n      0x40\n        /* \"#utility.yul\":3833:3855   */\n      mstore\n        /* \"#utility.yul\":3623:3861   */\n      pop\n        /* \"#utility.yul\":3580:3861   */\n      pop\n      pop\n      jump\t// out\n        /* \"#utility.yul\":3867:3996   */\n    tag_253:\n        /* \"#utility.yul\":3901:3907   */\n      0x00\n        /* \"#utility.yul\":3928:3948   */\n      tag_342\n      tag_237\n      jump\t// in\n    tag_342:\n        /* \"#utility.yul\":3918:3948   */\n      swap1\n      pop\n        /* \"#utility.yul\":3957:3990   */\n      tag_343\n        /* \"#utility.yul\":3985:3989   */\n      dup3\n        /* \"#utility.yul\":3977:3983   */\n      dup3\n        /* \"#utility.yul\":3957:3990   */\n      tag_252\n      jump\t// in\n    tag_343:\n        /* \"#utility.yul\":3867:3996   */\n      swap2\n      swap1\n      pop\n      jump\t// out\n        /* \"#utility.yul\":4002:4310   */\n    tag_254:\n        /* \"#utility.yul\":4064:4068   */\n      0x00\n        /* \"#utility.yul\":4154:4172   */\n      0xffffffffffffffff\n        /* \"#utility.yul\":4146:4152   */\n      dup3\n        /* \"#utility.yul\":4143:4173   */\n      gt\n        /* \"#utility.yul\":4140:4196   */\n      iszero\n      tag_345\n      jumpi\n        /* \"#utility.yul\":4176:4194   */\n      tag_346\n      tag_251\n      jump\t// in\n    tag_346:\n        /* \"#utility.yul\":4140:4196   */\n    tag_345:\n        /* \"#utility.yul\":4214:4243   */\n      tag_347\n        /* \"#utility.yul\":4236:4242   */\n      dup3\n        /* \"#utility.yul\":4214:4243   */\n      tag_246\n      jump\t// in\n    tag_347:\n        /* \"#utility.yul\":4206:4243   */\n      swap1\n      pop\n        /* \"#utility.yul\":4298:4302   */\n      0x20\n        /* \"#utility.yul\":4292:4296   */\n      dup2\n        /* \"#utility.yul\":4288:4303   */\n      add\n        /* \"#utility.yul\":4280:4303   */\n      swap1\n      pop\n        /* \"#utility.yul\":4002:4310   */\n      swap2\n      swap1\n      pop\n      jump\t// out\n        /* \"#utility.yul\":4316:4462   */\n    tag_255:\n        /* \"#utility.yul\":4413:4419   */\n      dup3\n        /* \"#utility.yul\":4408:4411   */\n      dup2\n        /* \"#utility.yul\":4403:4406   */\n      dup4\n        /* \"#utility.yul\":4390:4420   */\n      calldatacopy\n        /* \"#utility.yul\":4454:4455   */\n      0x00\n        /* \"#utility.yul\":4445:4451   */\n      dup4\n        /* \"#utility.yul\":4440:4443   */\n      dup4\n        /* \"#utility.yul\":4436:4452   */\n      add\n        /* \"#utility.yul\":4429:4456   */\n      mstore\n        /* \"#utility.yul\":4316:4462   */\n      pop\n      pop\n      pop\n      jump\t// out\n        /* \"#utility.yul\":4468:4893   */\n    tag_256:\n        /* \"#utility.yul\":4546:4551   */\n      0x00\n        /* \"#utility.yul\":4571:4637   */\n      tag_350\n        /* \"#utility.yul\":4587:4636   */\n      tag_351\n        /* \"#utility.yul\":4629:4635   */\n      dup5\n        /* \"#utility.yul\":4587:4636   */\n      tag_254\n      jump\t// in\n    tag_351:\n        /* \"#utility.yul\":4571:4637   */\n      tag_253\n      jump\t// in\n    tag_350:\n        /* \"#utility.yul\":4562:4637   */\n      swap1\n      pop\n        /* \"#utility.yul\":4660:4666   */\n      dup3\n        /* \"#utility.yul\":4653:4658   */\n      dup2\n        /* \"#utility.yul\":4646:4667   */\n      mstore\n        /* \"#utility.yul\":4698:4702   */\n      0x20\n        /* \"#utility.yul\":4691:4696   */\n      dup2\n        /* \"#utility.yul\":4687:4703   */\n      add\n        /* \"#utility.yul\":4736:4739   */\n      dup5\n        /* \"#utility.yul\":4727:4733   */\n      dup5\n        /* \"#utility.yul\":4722:4725   */\n      dup5\n        /* \"#utility.yul\":4718:4734   */\n      add\n        /* \"#utility.yul\":4715:4740   */\n      gt\n        /* \"#utility.yul\":4712:4824   */\n      iszero\n      tag_352\n      jumpi\n        /* \"#utility.yul\":4743:4822   */\n      tag_353\n      tag_250\n      jump\t// in\n    tag_353:\n        /* \"#utility.yul\":4712:4824   */\n    tag_352:\n        /* \"#utility.yul\":4833:4887   */\n      tag_354\n        /* \"#utility.yul\":4880:4886   */\n      dup5\n        /* \"#utility.yul\":4875:4878   */\n      dup3\n        /* \"#utility.yul\":4870:4873   */\n      dup6\n        /* \"#utility.yul\":4833:4887   */\n      tag_255\n      jump\t// in\n    tag_354:\n        /* \"#utility.yul\":4552:4893   */\n      pop\n        /* \"#utility.yul\":4468:4893   */\n      swap4\n      swap3\n      pop\n      pop\n      pop\n      jump\t// out\n        /* \"#utility.yul\":4913:5253   */\n    tag_257:\n        /* \"#utility.yul\":4969:4974   */\n      0x00\n        /* \"#utility.yul\":5018:5021   */\n      dup3\n        /* \"#utility.yul\":5011:5015   */\n      0x1f\n        /* \"#utility.yul\":5003:5009   */\n      dup4\n        /* \"#utility.yul\":4999:5016   */\n      add\n        /* \"#utility.yul\":4995:5022   */\n      slt\n        /* \"#utility.yul\":4985:5107   */\n      tag_356\n      jumpi\n        /* \"#utility.yul\":5026:5105   */\n      tag_357\n      tag_249\n      jump\t// in\n    tag_357:\n        /* \"#utility.yul\":4985:5107   */\n    tag_356:\n        /* \"#utility.yul\":5143:5149   */\n      dup2\n        /* \"#utility.yul\":5130:5150   */\n      calldataload\n        /* \"#utility.yul\":5168:5247   */\n      tag_358\n        /* \"#utility.yul\":5243:5246   */\n      dup5\n        /* \"#utility.yul\":5235:5241   */\n      dup3\n        /* \"#utility.yul\":5228:5232   */\n      0x20\n        /* \"#utility.yul\":5220:5226   */\n      dup7\n        /* \"#utility.yul\":5216:5233   */\n      add\n        /* \"#utility.yul\":5168:5247   */\n      tag_256\n      jump\t// in\n    tag_358:\n        /* \"#utility.yul\":5159:5247   */\n      swap2\n      pop\n        /* \"#utility.yul\":4975:5253   */\n      pop\n        /* \"#utility.yul\":4913:5253   */\n      swap3\n      swap2\n      pop\n      pop\n      jump\t// out\n        /* \"#utility.yul\":5259:6093   */\n    tag_43:\n        /* \"#utility.yul\":5347:5353   */\n      0x00\n        /* \"#utility.yul\":5355:5361   */\n      dup1\n        /* \"#utility.yul\":5404:5406   */\n      0x40\n        /* \"#utility.yul\":5392:5401   */\n      dup4\n        /* \"#utility.yul\":5383:5390   */\n      dup6\n        /* \"#utility.yul\":5379:5402   */\n      sub\n        /* \"#utility.yul\":5375:5407   */\n      slt\n        /* \"#utility.yul\":5372:5491   */\n      iszero\n      tag_360\n      jumpi\n        /* \"#utility.yul\":5410:5489   */\n      tag_361\n      tag_238\n      jump\t// in\n    tag_361:\n        /* \"#utility.yul\":5372:5491   */\n    tag_360:\n        /* \"#utility.yul\":5558:5559   */\n      0x00\n        /* \"#utility.yul\":5547:5556   */\n      dup4\n        /* \"#utility.yul\":5543:5560   */\n      add\n        /* \"#utility.yul\":5530:5561   */\n      calldataload\n        /* \"#utility.yul\":5588:5606   */\n      0xffffffffffffffff\n        /* \"#utility.yul\":5580:5586   */\n      dup2\n        /* \"#utility.yul\":5577:5607   */\n      gt\n        /* \"#utility.yul\":5574:5691   */\n      iszero\n      tag_362\n      jumpi\n        /* \"#utility.yul\":5610:5689   */\n      tag_363\n      tag_239\n      jump\t// in\n    tag_363:\n        /* \"#utility.yul\":5574:5691   */\n    tag_362:\n        /* \"#utility.yul\":5715:5778   */\n      tag_364\n        /* \"#utility.yul\":5770:5777   */\n      dup6\n        /* \"#utility.yul\":5761:5767   */\n      dup3\n        /* \"#utility.yul\":5750:5759   */\n      dup7\n        /* \"#utility.yul\":5746:5768   */\n      add\n        /* \"#utility.yul\":5715:5778   */\n      tag_257\n      jump\t// in\n    tag_364:\n        /* \"#utility.yul\":5705:5778   */\n      swap3\n      pop\n        /* \"#utility.yul\":5501:5788   */\n      pop\n        /* \"#utility.yul\":5855:5857   */\n      0x20\n        /* \"#utility.yul\":5844:5853   */\n      dup4\n        /* \"#utility.yul\":5840:5858   */\n      add\n        /* \"#utility.yul\":5827:5859   */\n      calldataload\n        /* \"#utility.yul\":5886:5904   */\n      0xffffffffffffffff\n        /* \"#utility.yul\":5878:5884   */\n      dup2\n        /* \"#utility.yul\":5875:5905   */\n      gt\n        /* \"#utility.yul\":5872:5989   */\n      iszero\n      tag_365\n      jumpi\n        /* \"#utility.yul\":5908:5987   */\n      tag_366\n      tag_239\n      jump\t// in\n    tag_366:\n        /* \"#utility.yul\":5872:5989   */\n    tag_365:\n        /* \"#utility.yul\":6013:6076   */\n      tag_367\n        /* \"#utility.yul\":6068:6075   */\n      dup6\n        /* \"#utility.yul\":6059:6065   */\n      dup3\n        /* \"#utility.yul\":6048:6057   */\n      dup7\n        /* \"#utility.yul\":6044:6066   */\n      add\n        /* \"#utility.yul\":6013:6076   */\n      tag_257\n      jump\t// in\n    tag_367:\n        /* \"#utility.yul\":6003:6076   */\n      swap2\n      pop\n        /* \"#utility.yul\":5798:6086   */\n      pop\n        /* \"#utility.yul\":5259:6093   */\n      swap3\n      pop\n      swap3\n      swap1\n      pop\n      jump\t// out\n        /* \"#utility.yul\":6099:6225   */\n    tag_258:\n        /* \"#utility.yul\":6136:6143   */\n      0x00\n        /* \"#utility.yul\":6176:6218   */\n      0xffffffffffffffffffffffffffffffffffffffff\n        /* \"#utility.yul\":6169:6174   */\n      dup3\n        /* \"#utility.yul\":6165:6219   */\n      and\n        /* \"#utility.yul\":6154:6219   */\n      swap1\n      pop\n        /* \"#utility.yul\":6099:6225   */\n      swap2\n      swap1\n      pop\n      jump\t// out\n        /* \"#utility.yul\":6231:6327   */\n    tag_259:\n        /* \"#utility.yul\":6268:6275   */\n      0x00\n        /* \"#utility.yul\":6297:6321   */\n      tag_370\n        /* \"#utility.yul\":6315:6320   */\n      dup3\n        /* \"#utility.yul\":6297:6321   */\n      tag_258\n      jump\t// in\n    tag_370:\n        /* \"#utility.yul\":6286:6321   */\n      swap1\n      pop\n        /* \"#utility.yul\":6231:6327   */\n      swap2\n      swap1\n      pop\n      jump\t// out\n        /* \"#utility.yul\":6333:6451   */\n    tag_260:\n        /* \"#utility.yul\":6420:6444   */\n      tag_372\n        /* \"#utility.yul\":6438:6443   */\n      dup2\n        /* \"#utility.yul\":6420:6444   */\n      tag_259\n      jump\t// in\n    tag_372:\n        /* \"#utility.yul\":6415:6418   */\n      dup3\n        /* \"#utility.yul\":6408:6445   */\n      mstore\n        /* \"#utility.yul\":6333:6451   */\n      pop\n      pop\n      jump\t// out\n        /* \"#utility.yul\":6457:6679   */\n    tag_48:\n        /* \"#utility.yul\":6550:6554   */\n      0x00\n        /* \"#utility.yul\":6588:6590   */\n      0x20\n        /* \"#utility.yul\":6577:6586   */\n      dup3\n        /* \"#utility.yul\":6573:6591   */\n      add\n        /* \"#utility.yul\":6565:6591   */\n      swap1\n      pop\n        /* \"#utility.yul\":6601:6672   */\n      tag_374\n        /* \"#utility.yul\":6669:6670   */\n      0x00\n        /* \"#utility.yul\":6658:6667   */\n      dup4\n        /* \"#utility.yul\":6654:6671   */\n      add\n        /* \"#utility.yul\":6645:6651   */\n      dup5\n        /* \"#utility.yul\":6601:6672   */\n      tag_260\n      jump\t// in\n    tag_374:\n        /* \"#utility.yul\":6457:6679   */\n      swap3\n      swap2\n      pop\n      pop\n      jump\t// out\n        /* \"#utility.yul\":6685:7309   */\n    tag_53:\n        /* \"#utility.yul\":6874:6878   */\n      0x00\n        /* \"#utility.yul\":6912:6914   */\n      0x60\n        /* \"#utility.yul\":6901:6910   */\n      dup3\n        /* \"#utility.yul\":6897:6915   */\n      add\n        /* \"#utility.yul\":6889:6915   */\n      swap1\n      pop\n        /* \"#utility.yul\":6961:6970   */\n      dup2\n        /* \"#utility.yul\":6955:6959   */\n      dup2\n        /* \"#utility.yul\":6951:6971   */\n      sub\n        /* \"#utility.yul\":6947:6948   */\n      0x00\n        /* \"#utility.yul\":6936:6945   */\n      dup4\n        /* \"#utility.yul\":6932:6949   */\n      add\n        /* \"#utility.yul\":6925:6972   */\n      mstore\n        /* \"#utility.yul\":6989:7067   */\n      tag_376\n        /* \"#utility.yul\":7062:7066   */\n      dup2\n        /* \"#utility.yul\":7053:7059   */\n      dup7\n        /* \"#utility.yul\":6989:7067   */\n      tag_247\n      jump\t// in\n    tag_376:\n        /* \"#utility.yul\":6981:7067   */\n      swap1\n      pop\n        /* \"#utility.yul\":7114:7123   */\n      dup2\n        /* \"#utility.yul\":7108:7112   */\n      dup2\n        /* \"#utility.yul\":7104:7124   */\n      sub\n        /* \"#utility.yul\":7099:7101   */\n      0x20\n        /* \"#utility.yul\":7088:7097   */\n      dup4\n        /* \"#utility.yul\":7084:7102   */\n      add\n        /* \"#utility.yul\":7077:7125   */\n      mstore\n        /* \"#utility.yul\":7142:7220   */\n      tag_377\n        /* \"#utility.yul\":7215:7219   */\n      dup2\n        /* \"#utility.yul\":7206:7212   */\n      dup6\n        /* \"#utility.yul\":7142:7220   */\n      tag_247\n      jump\t// in\n    tag_377:\n        /* \"#utility.yul\":7134:7220   */\n      swap1\n      pop\n        /* \"#utility.yul\":7230:7302   */\n      tag_378\n        /* \"#utility.yul\":7298:7300   */\n      0x40\n        /* \"#utility.yul\":7287:7296   */\n      dup4\n        /* \"#utility.yul\":7283:7301   */\n      add\n        /* \"#utility.yul\":7274:7280   */\n      dup5\n        /* \"#utility.yul\":7230:7302   */\n      tag_248\n      jump\t// in\n    tag_378:\n        /* \"#utility.yul\":6685:7309   */\n      swap5\n      swap4\n      pop\n      pop\n      pop\n      pop\n      jump\t// out\n        /* \"#utility.yul\":7315:7829   */\n    tag_58:\n        /* \"#utility.yul\":7476:7480   */\n      0x00\n        /* \"#utility.yul\":7514:7516   */\n      0x40\n        /* \"#utility.yul\":7503:7512   */\n      dup3\n        /* \"#utility.yul\":7499:7517   */\n      add\n        /* \"#utility.yul\":7491:7517   */\n      swap1\n      pop\n        /* \"#utility.yul\":7563:7572   */\n      dup2\n        /* \"#utility.yul\":7557:7561   */\n      dup2\n        /* \"#utility.yul\":7553:7573   */\n      sub\n        /* \"#utility.yul\":7549:7550   */\n      0x00\n        /* \"#utility.yul\":7538:7547   */\n      dup4\n        /* \"#utility.yul\":7534:7551   */\n      add\n        /* \"#utility.yul\":7527:7574   */\n      mstore\n        /* \"#utility.yul\":7591:7669   */\n      tag_380\n        /* \"#utility.yul\":7664:7668   */\n      dup2\n        /* \"#utility.yul\":7655:7661   */\n      dup6\n        /* \"#utility.yul\":7591:7669   */\n      tag_247\n      jump\t// in\n    tag_380:\n        /* \"#utility.yul\":7583:7669   */\n      swap1\n      pop\n        /* \"#utility.yul\":7716:7725   */\n      dup2\n        /* \"#utility.yul\":7710:7714   */\n      dup2\n        /* \"#utility.yul\":7706:7726   */\n      sub\n        /* \"#utility.yul\":7701:7703   */\n      0x20\n        /* \"#utility.yul\":7690:7699   */\n      dup4\n        /* \"#utility.yul\":7686:7704   */\n      add\n        /* \"#utility.yul\":7679:7727   */\n      mstore\n        /* \"#utility.yul\":7744:7822   */\n      tag_381\n        /* \"#utility.yul\":7817:7821   */\n      dup2\n        /* \"#utility.yul\":7808:7814   */\n      dup5\n        /* \"#utility.yul\":7744:7822   */\n      tag_247\n      jump\t// in\n    tag_381:\n        /* \"#utility.yul\":7736:7822   */\n      swap1\n      pop\n        /* \"#utility.yul\":7315:7829   */\n      swap4\n      swap3\n      pop\n      pop\n      pop\n      jump\t// out\n        /* \"#utility.yul\":7835:8489   */\n    tag_61:\n        /* \"#utility.yul\":7913:7919   */\n      0x00\n        /* \"#utility.yul\":7921:7927   */\n      dup1\n        /* \"#utility.yul\":7970:7972   */\n      0x40\n        /* \"#utility.yul\":7958:7967   */\n      dup4\n        /* \"#utility.yul\":7949:7956   */\n      dup6\n        /* \"#utility.yul\":7945:7968   */\n      sub\n        /* \"#utility.yul\":7941:7973   */\n      slt\n        /* \"#utility.yul\":7938:8057   */\n      iszero\n      tag_383\n      jumpi\n        /* \"#utility.yul\":7976:8055   */\n      tag_384\n      tag_238\n      jump\t// in\n    tag_384:\n        /* \"#utility.yul\":7938:8057   */\n    tag_383:\n        /* \"#utility.yul\":8124:8125   */\n      0x00\n        /* \"#utility.yul\":8113:8122   */\n      dup4\n        /* \"#utility.yul\":8109:8126   */\n      add\n        /* \"#utility.yul\":8096:8127   */\n      calldataload\n        /* \"#utility.yul\":8154:8172   */\n      0xffffffffffffffff\n        /* \"#utility.yul\":8146:8152   */\n      dup2\n        /* \"#utility.yul\":8143:8173   */\n      gt\n        /* \"#utility.yul\":8140:8257   */\n      iszero\n      tag_385\n      jumpi\n        /* \"#utility.yul\":8176:8255   */\n      tag_386\n      tag_239\n      jump\t// in\n    tag_386:\n        /* \"#utility.yul\":8140:8257   */\n    tag_385:\n        /* \"#utility.yul\":8281:8344   */\n      tag_387\n        /* \"#utility.yul\":8336:8343   */\n      dup6\n        /* \"#utility.yul\":8327:8333   */\n      dup3\n        /* \"#utility.yul\":8316:8325   */\n      dup7\n        /* \"#utility.yul\":8312:8334   */\n      add\n        /* \"#utility.yul\":8281:8344   */\n      tag_257\n      jump\t// in\n    tag_387:\n        /* \"#utility.yul\":8271:8344   */\n      swap3\n      pop\n        /* \"#utility.yul\":8067:8354   */\n      pop\n        /* \"#utility.yul\":8393:8395   */\n      0x20\n        /* \"#utility.yul\":8419:8472   */\n      tag_388\n        /* \"#utility.yul\":8464:8471   */\n      dup6\n        /* \"#utility.yul\":8455:8461   */\n      dup3\n        /* \"#utility.yul\":8444:8453   */\n      dup7\n        /* \"#utility.yul\":8440:8462   */\n      add\n        /* \"#utility.yul\":8419:8472   */\n      tag_242\n      jump\t// in\n    tag_388:\n        /* \"#utility.yul\":8409:8472   */\n      swap2\n      pop\n        /* \"#utility.yul\":8364:8482   */\n      pop\n        /* \"#utility.yul\":7835:8489   */\n      swap3\n      pop\n      swap3\n      swap1\n      pop\n      jump\t// out\n        /* \"#utility.yul\":8495:8585   */\n    tag_261:\n        /* \"#utility.yul\":8529:8536   */\n      0x00\n        /* \"#utility.yul\":8572:8577   */\n      dup2\n        /* \"#utility.yul\":8565:8578   */\n      iszero\n        /* \"#utility.yul\":8558:8579   */\n      iszero\n        /* \"#utility.yul\":8547:8579   */\n      swap1\n      pop\n        /* \"#utility.yul\":8495:8585   */\n      swap2\n      swap1\n      pop\n      jump\t// out\n        /* \"#utility.yul\":8591:8700   */\n    tag_262:\n        /* \"#utility.yul\":8672:8693   */\n      tag_391\n        /* \"#utility.yul\":8687:8692   */\n      dup2\n        /* \"#utility.yul\":8672:8693   */\n      tag_261\n      jump\t// in\n    tag_391:\n        /* \"#utility.yul\":8667:8670   */\n      dup3\n        /* \"#utility.yul\":8660:8694   */\n      mstore\n        /* \"#utility.yul\":8591:8700   */\n      pop\n      pop\n      jump\t// out\n        /* \"#utility.yul\":8706:9117   */\n    tag_67:\n        /* \"#utility.yul\":8841:8845   */\n      0x00\n        /* \"#utility.yul\":8879:8881   */\n      0x40\n        /* \"#utility.yul\":8868:8877   */\n      dup3\n        /* \"#utility.yul\":8864:8882   */\n      add\n        /* \"#utility.yul\":8856:8882   */\n      swap1\n      pop\n        /* \"#utility.yul\":8928:8937   */\n      dup2\n        /* \"#utility.yul\":8922:8926   */\n      dup2\n        /* \"#utility.yul\":8918:8938   */\n      sub\n        /* \"#utility.yul\":8914:8915   */\n      0x00\n        /* \"#utility.yul\":8903:8912   */\n      dup4\n        /* \"#utility.yul\":8899:8916   */\n      add\n        /* \"#utility.yul\":8892:8939   */\n      mstore\n        /* \"#utility.yul\":8956:9034   */\n      tag_393\n        /* \"#utility.yul\":9029:9033   */\n      dup2\n        /* \"#utility.yul\":9020:9026   */\n      dup6\n        /* \"#utility.yul\":8956:9034   */\n      tag_247\n      jump\t// in\n    tag_393:\n        /* \"#utility.yul\":8948:9034   */\n      swap1\n      pop\n        /* \"#utility.yul\":9044:9110   */\n      tag_394\n        /* \"#utility.yul\":9106:9108   */\n      0x20\n        /* \"#utility.yul\":9095:9104   */\n      dup4\n        /* \"#utility.yul\":9091:9109   */\n      add\n        /* \"#utility.yul\":9082:9088   */\n      dup5\n        /* \"#utility.yul\":9044:9110   */\n      tag_262\n      jump\t// in\n    tag_394:\n        /* \"#utility.yul\":8706:9117   */\n      swap4\n      swap3\n      pop\n      pop\n      pop\n      jump\t// out\n        /* \"#utility.yul\":9123:9209   */\n    tag_263:\n        /* \"#utility.yul\":9158:9165   */\n      0x00\n        /* \"#utility.yul\":9198:9202   */\n      0xff\n        /* \"#utility.yul\":9191:9196   */\n      dup3\n        /* \"#utility.yul\":9187:9203   */\n      and\n        /* \"#utility.yul\":9176:9203   */\n      swap1\n      pop\n        /* \"#utility.yul\":9123:9209   */\n      swap2\n      swap1\n      pop\n      jump\t// out\n        /* \"#utility.yul\":9215:9333   */\n    tag_264:\n        /* \"#utility.yul\":9286:9308   */\n      tag_397\n        /* \"#utility.yul\":9302:9307   */\n      dup2\n        /* \"#utility.yul\":9286:9308   */\n      tag_263\n      jump\t// in\n    tag_397:\n        /* \"#utility.yul\":9279:9284   */\n      dup2\n        /* \"#utility.yul\":9276:9309   */\n      eq\n        /* \"#utility.yul\":9266:9327   */\n      tag_398\n      jumpi\n        /* \"#utility.yul\":9323:9324   */\n      0x00\n        /* \"#utility.yul\":9320:9321   */\n      dup1\n        /* \"#utility.yul\":9313:9325   */\n      revert\n        /* \"#utility.yul\":9266:9327   */\n    tag_398:\n        /* \"#utility.yul\":9215:9333   */\n      pop\n      jump\t// out\n        /* \"#utility.yul\":9339:9474   */\n    tag_265:\n        /* \"#utility.yul\":9383:9388   */\n      0x00\n        /* \"#utility.yul\":9421:9427   */\n      dup2\n        /* \"#utility.yul\":9408:9428   */\n      calldataload\n        /* \"#utility.yul\":9399:9428   */\n      swap1\n      pop\n        /* \"#utility.yul\":9437:9468   */\n      tag_400\n        /* \"#utility.yul\":9462:9467   */\n      dup2\n        /* \"#utility.yul\":9437:9468   */\n      tag_264\n      jump\t// in\n    tag_400:\n        /* \"#utility.yul\":9339:9474   */\n      swap3\n      swap2\n      pop\n      pop\n      jump\t// out\n        /* \"#utility.yul\":9480:10130   */\n    tag_73:\n        /* \"#utility.yul\":9556:9562   */\n      0x00\n        /* \"#utility.yul\":9564:9570   */\n      dup1\n        /* \"#utility.yul\":9613:9615   */\n      0x40\n        /* \"#utility.yul\":9601:9610   */\n      dup4\n        /* \"#utility.yul\":9592:9599   */\n      dup6\n        /* \"#utility.yul\":9588:9611   */\n      sub\n        /* \"#utility.yul\":9584:9616   */\n      slt\n        /* \"#utility.yul\":9581:9700   */\n      iszero\n      tag_402\n      jumpi\n        /* \"#utility.yul\":9619:9698   */\n      tag_403\n      tag_238\n      jump\t// in\n    tag_403:\n        /* \"#utility.yul\":9581:9700   */\n    tag_402:\n        /* \"#utility.yul\":9767:9768   */\n      0x00\n        /* \"#utility.yul\":9756:9765   */\n      dup4\n        /* \"#utility.yul\":9752:9769   */\n      add\n        /* \"#utility.yul\":9739:9770   */\n      calldataload\n        /* \"#utility.yul\":9797:9815   */\n      0xffffffffffffffff\n        /* \"#utility.yul\":9789:9795   */\n      dup2\n        /* \"#utility.yul\":9786:9816   */\n      gt\n        /* \"#utility.yul\":9783:9900   */\n      iszero\n      tag_404\n      jumpi\n        /* \"#utility.yul\":9819:9898   */\n      tag_405\n      tag_239\n      jump\t// in\n    tag_405:\n        /* \"#utility.yul\":9783:9900   */\n    tag_404:\n        /* \"#utility.yul\":9924:9987   */\n      tag_406\n        /* \"#utility.yul\":9979:9986   */\n      dup6\n        /* \"#utility.yul\":9970:9976   */\n      dup3\n        /* \"#utility.yul\":9959:9968   */\n      dup7\n        /* \"#utility.yul\":9955:9977   */\n      add\n        /* \"#utility.yul\":9924:9987   */\n      tag_257\n      jump\t// in\n    tag_406:\n        /* \"#utility.yul\":9914:9987   */\n      swap3\n      pop\n        /* \"#utility.yul\":9710:9997   */\n      pop\n        /* \"#utility.yul\":10036:10038   */\n      0x20\n        /* \"#utility.yul\":10062:10113   */\n      tag_407\n        /* \"#utility.yul\":10105:10112   */\n      dup6\n        /* \"#utility.yul\":10096:10102   */\n      dup3\n        /* \"#utility.yul\":10085:10094   */\n      dup7\n        /* \"#utility.yul\":10081:10103   */\n      add\n        /* \"#utility.yul\":10062:10113   */\n      tag_265\n      jump\t// in\n    tag_407:\n        /* \"#utility.yul\":10052:10113   */\n      swap2\n      pop\n        /* \"#utility.yul\":10007:10123   */\n      pop\n        /* \"#utility.yul\":9480:10130   */\n      swap3\n      pop\n      swap3\n      swap1\n      pop\n      jump\t// out\n        /* \"#utility.yul\":10136:10276   */\n    tag_266:\n        /* \"#utility.yul\":10229:10235   */\n      0x00\n        /* \"#utility.yul\":10263:10268   */\n      dup2\n        /* \"#utility.yul\":10257:10269   */\n      mload\n        /* \"#utility.yul\":10247:10269   */\n      swap1\n      pop\n        /* \"#utility.yul\":10136:10276   */\n      swap2\n      swap1\n      pop\n      jump\t// out\n        /* \"#utility.yul\":10282:10492   */\n    tag_267:\n        /* \"#utility.yul\":10407:10418   */\n      0x00\n        /* \"#utility.yul\":10441:10447   */\n      dup3\n        /* \"#utility.yul\":10436:10439   */\n      dup3\n        /* \"#utility.yul\":10429:10448   */\n      mstore\n        /* \"#utility.yul\":10481:10485   */\n      0x20\n        /* \"#utility.yul\":10476:10479   */\n      dup3\n        /* \"#utility.yul\":10472:10486   */\n      add\n        /* \"#utility.yul\":10457:10486   */\n      swap1\n      pop\n        /* \"#utility.yul\":10282:10492   */\n      swap3\n      swap2\n      pop\n      pop\n      jump\t// out\n        /* \"#utility.yul\":10498:10656   */\n    tag_268:\n        /* \"#utility.yul\":10591:10595   */\n      0x00\n        /* \"#utility.yul\":10614:10617   */\n      dup2\n        /* \"#utility.yul\":10606:10617   */\n      swap1\n      pop\n        /* \"#utility.yul\":10644:10648   */\n      0x20\n        /* \"#utility.yul\":10639:10642   */\n      dup3\n        /* \"#utility.yul\":10635:10649   */\n      add\n        /* \"#utility.yul\":10627:10649   */\n      swap1\n      pop\n        /* \"#utility.yul\":10498:10656   */\n      swap2\n      swap1\n      pop\n      jump\t// out\n        /* \"#utility.yul\":10662:10821   */\n    tag_269:\n        /* \"#utility.yul\":10736:10747   */\n      0x00\n        /* \"#utility.yul\":10770:10776   */\n      dup3\n        /* \"#utility.yul\":10765:10768   */\n      dup3\n        /* \"#utility.yul\":10758:10777   */\n      mstore\n        /* \"#utility.yul\":10810:10814   */\n      0x20\n        /* \"#utility.yul\":10805:10808   */\n      dup3\n        /* \"#utility.yul\":10801:10815   */\n      add\n        /* \"#utility.yul\":10786:10815   */\n      swap1\n      pop\n        /* \"#utility.yul\":10662:10821   */\n      swap3\n      swap2\n      pop\n      pop\n      jump\t// out\n        /* \"#utility.yul\":10827:11184   */\n    tag_270:\n        /* \"#utility.yul\":10905:10908   */\n      0x00\n        /* \"#utility.yul\":10933:10972   */\n      tag_413\n        /* \"#utility.yul\":10966:10971   */\n      dup3\n        /* \"#utility.yul\":10933:10972   */\n      tag_243\n      jump\t// in\n    tag_413:\n        /* \"#utility.yul\":10988:11049   */\n      tag_414\n        /* \"#utility.yul\":11042:11048   */\n      dup2\n        /* \"#utility.yul\":11037:11040   */\n      dup6\n        /* \"#utility.yul\":10988:11049   */\n      tag_269\n      jump\t// in\n    tag_414:\n        /* \"#utility.yul\":10981:11049   */\n      swap4\n      pop\n        /* \"#utility.yul\":11058:11123   */\n      tag_415\n        /* \"#utility.yul\":11116:11122   */\n      dup2\n        /* \"#utility.yul\":11111:11114   */\n      dup6\n        /* \"#utility.yul\":11104:11108   */\n      0x20\n        /* \"#utility.yul\":11097:11102   */\n      dup7\n        /* \"#utility.yul\":11093:11109   */\n      add\n        /* \"#utility.yul\":11058:11123   */\n      tag_245\n      jump\t// in\n    tag_415:\n        /* \"#utility.yul\":11148:11177   */\n      tag_416\n        /* \"#utility.yul\":11170:11176   */\n      dup2\n        /* \"#utility.yul\":11148:11177   */\n      tag_246\n      jump\t// in\n    tag_416:\n        /* \"#utility.yul\":11143:11146   */\n      dup5\n        /* \"#utility.yul\":11139:11178   */\n      add\n        /* \"#utility.yul\":11132:11178   */\n      swap2\n      pop\n        /* \"#utility.yul\":10909:11184   */\n      pop\n        /* \"#utility.yul\":10827:11184   */\n      swap3\n      swap2\n      pop\n      pop\n      jump\t// out\n        /* \"#utility.yul\":11190:11298   */\n    tag_271:\n        /* \"#utility.yul\":11267:11291   */\n      tag_418\n        /* \"#utility.yul\":11285:11290   */\n      dup2\n        /* \"#utility.yul\":11267:11291   */\n      tag_240\n      jump\t// in\n    tag_418:\n        /* \"#utility.yul\":11262:11265   */\n      dup3\n        /* \"#utility.yul\":11255:11292   */\n      mstore\n        /* \"#utility.yul\":11190:11298   */\n      pop\n      pop\n      jump\t// out\n        /* \"#utility.yul\":11358:12207   */\n    tag_272:\n        /* \"#utility.yul\":11469:11472   */\n      0x00\n        /* \"#utility.yul\":11505:11509   */\n      0x60\n        /* \"#utility.yul\":11500:11503   */\n      dup4\n        /* \"#utility.yul\":11496:11510   */\n      add\n        /* \"#utility.yul\":11594:11598   */\n      0x00\n        /* \"#utility.yul\":11587:11592   */\n      dup4\n        /* \"#utility.yul\":11583:11599   */\n      add\n        /* \"#utility.yul\":11577:11600   */\n      mload\n        /* \"#utility.yul\":11647:11650   */\n      dup5\n        /* \"#utility.yul\":11641:11645   */\n      dup3\n        /* \"#utility.yul\":11637:11651   */\n      sub\n        /* \"#utility.yul\":11630:11634   */\n      0x00\n        /* \"#utility.yul\":11625:11628   */\n      dup7\n        /* \"#utility.yul\":11621:11635   */\n      add\n        /* \"#utility.yul\":11614:11652   */\n      mstore\n        /* \"#utility.yul\":11673:11746   */\n      tag_420\n        /* \"#utility.yul\":11741:11745   */\n      dup3\n        /* \"#utility.yul\":11727:11739   */\n      dup3\n        /* \"#utility.yul\":11673:11746   */\n      tag_270\n      jump\t// in\n    tag_420:\n        /* \"#utility.yul\":11665:11746   */\n      swap2\n      pop\n        /* \"#utility.yul\":11520:11757   */\n      pop\n        /* \"#utility.yul\":11842:11846   */\n      0x20\n        /* \"#utility.yul\":11835:11840   */\n      dup4\n        /* \"#utility.yul\":11831:11847   */\n      add\n        /* \"#utility.yul\":11825:11848   */\n      mload\n        /* \"#utility.yul\":11895:11898   */\n      dup5\n        /* \"#utility.yul\":11889:11893   */\n      dup3\n        /* \"#utility.yul\":11885:11899   */\n      sub\n        /* \"#utility.yul\":11878:11882   */\n      0x20\n        /* \"#utility.yul\":11873:11876   */\n      dup7\n        /* \"#utility.yul\":11869:11883   */\n      add\n        /* \"#utility.yul\":11862:11900   */\n      mstore\n        /* \"#utility.yul\":11921:11994   */\n      tag_421\n        /* \"#utility.yul\":11989:11993   */\n      dup3\n        /* \"#utility.yul\":11975:11987   */\n      dup3\n        /* \"#utility.yul\":11921:11994   */\n      tag_270\n      jump\t// in\n    tag_421:\n        /* \"#utility.yul\":11913:11994   */\n      swap2\n      pop\n        /* \"#utility.yul\":11767:12005   */\n      pop\n        /* \"#utility.yul\":12088:12092   */\n      0x40\n        /* \"#utility.yul\":12081:12086   */\n      dup4\n        /* \"#utility.yul\":12077:12093   */\n      add\n        /* \"#utility.yul\":12071:12094   */\n      mload\n        /* \"#utility.yul\":12107:12170   */\n      tag_422\n        /* \"#utility.yul\":12164:12168   */\n      0x40\n        /* \"#utility.yul\":12159:12162   */\n      dup7\n        /* \"#utility.yul\":12155:12169   */\n      add\n        /* \"#utility.yul\":12141:12153   */\n      dup3\n        /* \"#utility.yul\":12107:12170   */\n      tag_271\n      jump\t// in\n    tag_422:\n        /* \"#utility.yul\":12015:12180   */\n      pop\n        /* \"#utility.yul\":12197:12201   */\n      dup1\n        /* \"#utility.yul\":12190:12201   */\n      swap2\n      pop\n        /* \"#utility.yul\":11474:12207   */\n      pop\n        /* \"#utility.yul\":11358:12207   */\n      swap3\n      swap2\n      pop\n      pop\n      jump\t// out\n        /* \"#utility.yul\":12213:12473   */\n    tag_273:\n        /* \"#utility.yul\":12334:12344   */\n      0x00\n        /* \"#utility.yul\":12369:12467   */\n      tag_424\n        /* \"#utility.yul\":12463:12466   */\n      dup4\n        /* \"#utility.yul\":12455:12461   */\n      dup4\n        /* \"#utility.yul\":12369:12467   */\n      tag_272\n      jump\t// in\n    tag_424:\n        /* \"#utility.yul\":12355:12467   */\n      swap1\n      pop\n        /* \"#utility.yul\":12213:12473   */\n      swap3\n      swap2\n      pop\n      pop\n      jump\t// out\n        /* \"#utility.yul\":12479:12618   */\n    tag_274:\n        /* \"#utility.yul\":12575:12579   */\n      0x00\n        /* \"#utility.yul\":12607:12611   */\n      0x20\n        /* \"#utility.yul\":12602:12605   */\n      dup3\n        /* \"#utility.yul\":12598:12612   */\n      add\n        /* \"#utility.yul\":12590:12612   */\n      swap1\n      pop\n        /* \"#utility.yul\":12479:12618   */\n      swap2\n      swap1\n      pop\n      jump\t// out\n        /* \"#utility.yul\":12682:13801   */\n    tag_275:\n        /* \"#utility.yul\":12853:12856   */\n      0x00\n        /* \"#utility.yul\":12882:12962   */\n      tag_427\n        /* \"#utility.yul\":12956:12961   */\n      dup3\n        /* \"#utility.yul\":12882:12962   */\n      tag_266\n      jump\t// in\n    tag_427:\n        /* \"#utility.yul\":12978:13090   */\n      tag_428\n        /* \"#utility.yul\":13083:13089   */\n      dup2\n        /* \"#utility.yul\":13078:13081   */\n      dup6\n        /* \"#utility.yul\":12978:13090   */\n      tag_267\n      jump\t// in\n    tag_428:\n        /* \"#utility.yul\":12971:13090   */\n      swap4\n      pop\n        /* \"#utility.yul\":13116:13119   */\n      dup4\n        /* \"#utility.yul\":13161:13165   */\n      0x20\n        /* \"#utility.yul\":13153:13159   */\n      dup3\n        /* \"#utility.yul\":13149:13166   */\n      mul\n        /* \"#utility.yul\":13144:13147   */\n      dup6\n        /* \"#utility.yul\":13140:13167   */\n      add\n        /* \"#utility.yul\":13191:13273   */\n      tag_429\n        /* \"#utility.yul\":13267:13272   */\n      dup6\n        /* \"#utility.yul\":13191:13273   */\n      tag_268\n      jump\t// in\n    tag_429:\n        /* \"#utility.yul\":13296:13303   */\n      dup1\n        /* \"#utility.yul\":13327:13328   */\n      0x00\n        /* \"#utility.yul\":13312:13756   */\n    tag_430:\n        /* \"#utility.yul\":13337:13343   */\n      dup6\n        /* \"#utility.yul\":13334:13335   */\n      dup2\n        /* \"#utility.yul\":13331:13344   */\n      lt\n        /* \"#utility.yul\":13312:13756   */\n      iszero\n      tag_432\n      jumpi\n        /* \"#utility.yul\":13408:13417   */\n      dup5\n        /* \"#utility.yul\":13402:13406   */\n      dup5\n        /* \"#utility.yul\":13398:13418   */\n      sub\n        /* \"#utility.yul\":13393:13396   */\n      dup10\n        /* \"#utility.yul\":13386:13419   */\n      mstore\n        /* \"#utility.yul\":13459:13465   */\n      dup2\n        /* \"#utility.yul\":13453:13466   */\n      mload\n        /* \"#utility.yul\":13487:13603   */\n      tag_433\n        /* \"#utility.yul\":13598:13602   */\n      dup6\n        /* \"#utility.yul\":13583:13596   */\n      dup3\n        /* \"#utility.yul\":13487:13603   */\n      tag_273\n      jump\t// in\n    tag_433:\n        /* \"#utility.yul\":13479:13603   */\n      swap5\n      pop\n        /* \"#utility.yul\":13626:13712   */\n      tag_434\n        /* \"#utility.yul\":13705:13711   */\n      dup4\n        /* \"#utility.yul\":13626:13712   */\n      tag_274\n      jump\t// in\n    tag_434:\n        /* \"#utility.yul\":13616:13712   */\n      swap3\n      pop\n        /* \"#utility.yul\":13741:13745   */\n      0x20\n        /* \"#utility.yul\":13736:13739   */\n      dup11\n        /* \"#utility.yul\":13732:13746   */\n      add\n        /* \"#utility.yul\":13725:13746   */\n      swap10\n      pop\n        /* \"#utility.yul\":13372:13756   */\n      pop\n        /* \"#utility.yul\":13359:13360   */\n      0x01\n        /* \"#utility.yul\":13356:13357   */\n      dup2\n        /* \"#utility.yul\":13352:13361   */\n      add\n        /* \"#utility.yul\":13347:13361   */\n      swap1\n      pop\n        /* \"#utility.yul\":13312:13756   */\n      jump(tag_430)\n    tag_432:\n        /* \"#utility.yul\":13316:13330   */\n      pop\n        /* \"#utility.yul\":13772:13776   */\n      dup3\n        /* \"#utility.yul\":13765:13776   */\n      swap8\n      pop\n        /* \"#utility.yul\":13792:13795   */\n      dup8\n        /* \"#utility.yul\":13785:13795   */\n      swap6\n      pop\n        /* \"#utility.yul\":12858:13801   */\n      pop\n      pop\n      pop\n      pop\n      pop\n        /* \"#utility.yul\":12682:13801   */\n      swap3\n      swap2\n      pop\n      pop\n      jump\t// out\n        /* \"#utility.yul\":13807:14284   */\n    tag_81:\n        /* \"#utility.yul\":14002:14006   */\n      0x00\n        /* \"#utility.yul\":14040:14042   */\n      0x20\n        /* \"#utility.yul\":14029:14038   */\n      dup3\n        /* \"#utility.yul\":14025:14043   */\n      add\n        /* \"#utility.yul\":14017:14043   */\n      swap1\n      pop\n        /* \"#utility.yul\":14089:14098   */\n      dup2\n        /* \"#utility.yul\":14083:14087   */\n      dup2\n        /* \"#utility.yul\":14079:14099   */\n      sub\n        /* \"#utility.yul\":14075:14076   */\n      0x00\n        /* \"#utility.yul\":14064:14073   */\n      dup4\n        /* \"#utility.yul\":14060:14077   */\n      add\n        /* \"#utility.yul\":14053:14100   */\n      mstore\n        /* \"#utility.yul\":14117:14277   */\n      tag_436\n        /* \"#utility.yul\":14272:14276   */\n      dup2\n        /* \"#utility.yul\":14263:14269   */\n      dup5\n        /* \"#utility.yul\":14117:14277   */\n      tag_275\n      jump\t// in\n    tag_436:\n        /* \"#utility.yul\":14109:14277   */\n      swap1\n      pop\n        /* \"#utility.yul\":13807:14284   */\n      swap3\n      swap2\n      pop\n      pop\n      jump\t// out\n        /* \"#utility.yul\":14290:14412   */\n    tag_276:\n        /* \"#utility.yul\":14363:14387   */\n      tag_438\n        /* \"#utility.yul\":14381:14386   */\n      dup2\n        /* \"#utility.yul\":14363:14387   */\n      tag_259\n      jump\t// in\n    tag_438:\n        /* \"#utility.yul\":14356:14361   */\n      dup2\n        /* \"#utility.yul\":14353:14388   */\n      eq\n        /* \"#utility.yul\":14343:14406   */\n      tag_439\n      jumpi\n        /* \"#utility.yul\":14402:14403   */\n      0x00\n        /* \"#utility.yul\":14399:14400   */\n      dup1\n        /* \"#utility.yul\":14392:14404   */\n      revert\n        /* \"#utility.yul\":14343:14406   */\n    tag_439:\n        /* \"#utility.yul\":14290:14412   */\n      pop\n      jump\t// out\n        /* \"#utility.yul\":14418:14557   */\n    tag_277:\n        /* \"#utility.yul\":14464:14469   */\n      0x00\n        /* \"#utility.yul\":14502:14508   */\n      dup2\n        /* \"#utility.yul\":14489:14509   */\n      calldataload\n        /* \"#utility.yul\":14480:14509   */\n      swap1\n      pop\n        /* \"#utility.yul\":14518:14551   */\n      tag_441\n        /* \"#utility.yul\":14545:14550   */\n      dup2\n        /* \"#utility.yul\":14518:14551   */\n      tag_276\n      jump\t// in\n    tag_441:\n        /* \"#utility.yul\":14418:14557   */\n      swap3\n      swap2\n      pop\n      pop\n      jump\t// out\n        /* \"#utility.yul\":14563:14892   */\n    tag_84:\n        /* \"#utility.yul\":14622:14628   */\n      0x00\n        /* \"#utility.yul\":14671:14673   */\n      0x20\n        /* \"#utility.yul\":14659:14668   */\n      dup3\n        /* \"#utility.yul\":14650:14657   */\n      dup5\n        /* \"#utility.yul\":14646:14669   */\n      sub\n        /* \"#utility.yul\":14642:14674   */\n      slt\n        /* \"#utility.yul\":14639:14758   */\n      iszero\n      tag_443\n      jumpi\n        /* \"#utility.yul\":14677:14756   */\n      tag_444\n      tag_238\n      jump\t// in\n    tag_444:\n        /* \"#utility.yul\":14639:14758   */\n    tag_443:\n        /* \"#utility.yul\":14797:14798   */\n      0x00\n        /* \"#utility.yul\":14822:14875   */\n      tag_445\n        /* \"#utility.yul\":14867:14874   */\n      dup5\n        /* \"#utility.yul\":14858:14864   */\n      dup3\n        /* \"#utility.yul\":14847:14856   */\n      dup6\n        /* \"#utility.yul\":14843:14865   */\n      add\n        /* \"#utility.yul\":14822:14875   */\n      tag_277\n      jump\t// in\n    tag_445:\n        /* \"#utility.yul\":14812:14875   */\n      swap2\n      pop\n        /* \"#utility.yul\":14768:14885   */\n      pop\n        /* \"#utility.yul\":14563:14892   */\n      swap3\n      swap2\n      pop\n      pop\n      jump\t// out\n        /* \"#utility.yul\":14898:15078   */\n    tag_89:\n        /* \"#utility.yul\":14946:15023   */\n      0x4e487b7100000000000000000000000000000000000000000000000000000000\n        /* \"#utility.yul\":14943:14944   */\n      0x00\n        /* \"#utility.yul\":14936:15024   */\n      mstore\n        /* \"#utility.yul\":15043:15047   */\n      0x32\n        /* \"#utility.yul\":15040:15041   */\n      0x04\n        /* \"#utility.yul\":15033:15048   */\n      mstore\n        /* \"#utility.yul\":15067:15071   */\n      0x24\n        /* \"#utility.yul\":15064:15065   */\n      0x00\n        /* \"#utility.yul\":15057:15072   */\n      revert\n        /* \"#utility.yul\":15084:15264   */\n    tag_278:\n        /* \"#utility.yul\":15132:15209   */\n      0x4e487b7100000000000000000000000000000000000000000000000000000000\n        /* \"#utility.yul\":15129:15130   */\n      0x00\n        /* \"#utility.yul\":15122:15210   */\n      mstore\n        /* \"#utility.yul\":15229:15233   */\n      0x11\n        /* \"#utility.yul\":15226:15227   */\n      0x04\n        /* \"#utility.yul\":15219:15234   */\n      mstore\n        /* \"#utility.yul\":15253:15257   */\n      0x24\n        /* \"#utility.yul\":15250:15251   */\n      0x00\n        /* \"#utility.yul\":15243:15258   */\n      revert\n        /* \"#utility.yul\":15270:15461   */\n    tag_99:\n        /* \"#utility.yul\":15310:15313   */\n      0x00\n        /* \"#utility.yul\":15329:15349   */\n      tag_449\n        /* \"#utility.yul\":15347:15348   */\n      dup3\n        /* \"#utility.yul\":15329:15349   */\n      tag_240\n      jump\t// in\n    tag_449:\n        /* \"#utility.yul\":15324:15349   */\n      swap2\n      pop\n        /* \"#utility.yul\":15363:15383   */\n      tag_450\n        /* \"#utility.yul\":15381:15382   */\n      dup4\n        /* \"#utility.yul\":15363:15383   */\n      tag_240\n      jump\t// in\n    tag_450:\n        /* \"#utility.yul\":15358:15383   */\n      swap3\n      pop\n        /* \"#utility.yul\":15406:15407   */\n      dup3\n        /* \"#utility.yul\":15403:15404   */\n      dup3\n        /* \"#utility.yul\":15399:15408   */\n      add\n        /* \"#utility.yul\":15392:15408   */\n      swap1\n      pop\n        /* \"#utility.yul\":15427:15430   */\n      dup1\n        /* \"#utility.yul\":15424:15425   */\n      dup3\n        /* \"#utility.yul\":15421:15431   */\n      gt\n        /* \"#utility.yul\":15418:15454   */\n      iszero\n      tag_451\n      jumpi\n        /* \"#utility.yul\":15434:15452   */\n      tag_452\n      tag_278\n      jump\t// in\n    tag_452:\n        /* \"#utility.yul\":15418:15454   */\n    tag_451:\n        /* \"#utility.yul\":15270:15461   */\n      swap3\n      swap2\n      pop\n      pop\n      jump\t// out\n        /* \"#utility.yul\":15467:15647   */\n    tag_279:\n        /* \"#utility.yul\":15515:15592   */\n      0x4e487b7100000000000000000000000000000000000000000000000000000000\n        /* \"#utility.yul\":15512:15513   */\n      0x00\n        /* \"#utility.yul\":15505:15593   */\n      mstore\n        /* \"#utility.yul\":15612:15616   */\n      0x22\n        /* \"#utility.yul\":15609:15610   */\n      0x04\n        /* \"#utility.yul\":15602:15617   */\n      mstore\n        /* \"#utility.yul\":15636:15640   */\n      0x24\n        /* \"#utility.yul\":15633:15634   */\n      0x00\n        /* \"#utility.yul\":15626:15641   */\n      revert\n        /* \"#utility.yul\":15653:15973   */\n    tag_105:\n        /* \"#utility.yul\":15697:15703   */\n      0x00\n        /* \"#utility.yul\":15734:15735   */\n      0x02\n        /* \"#utility.yul\":15728:15732   */\n      dup3\n        /* \"#utility.yul\":15724:15736   */\n      div\n        /* \"#utility.yul\":15714:15736   */\n      swap1\n      pop\n        /* \"#utility.yul\":15781:15782   */\n      0x01\n        /* \"#utility.yul\":15775:15779   */\n      dup3\n        /* \"#utility.yul\":15771:15783   */\n      and\n        /* \"#utility.yul\":15802:15820   */\n      dup1\n        /* \"#utility.yul\":15792:15873   */\n      tag_455\n      jumpi\n        /* \"#utility.yul\":15858:15862   */\n      0x7f\n        /* \"#utility.yul\":15850:15856   */\n      dup3\n        /* \"#utility.yul\":15846:15863   */\n      and\n        /* \"#utility.yul\":15836:15863   */\n      swap2\n      pop\n        /* \"#utility.yul\":15792:15873   */\n    tag_455:\n        /* \"#utility.yul\":15920:15922   */\n      0x20\n        /* \"#utility.yul\":15912:15918   */\n      dup3\n        /* \"#utility.yul\":15909:15923   */\n      lt\n        /* \"#utility.yul\":15889:15907   */\n      dup2\n        /* \"#utility.yul\":15886:15924   */\n      sub\n        /* \"#utility.yul\":15883:15967   */\n      tag_456\n      jumpi\n        /* \"#utility.yul\":15939:15957   */\n      tag_457\n      tag_279\n      jump\t// in\n    tag_457:\n        /* \"#utility.yul\":15883:15967   */\n    tag_456:\n        /* \"#utility.yul\":15704:15973   */\n      pop\n        /* \"#utility.yul\":15653:15973   */\n      swap2\n      swap1\n      pop\n      jump\t// out\n        /* \"#utility.yul\":15979:16120   */\n    tag_280:\n        /* \"#utility.yul\":16028:16032   */\n      0x00\n        /* \"#utility.yul\":16051:16054   */\n      dup2\n        /* \"#utility.yul\":16043:16054   */\n      swap1\n      pop\n        /* \"#utility.yul\":16074:16077   */\n      dup2\n        /* \"#utility.yul\":16071:16072   */\n      0x00\n        /* \"#utility.yul\":16064:16078   */\n      mstore\n        /* \"#utility.yul\":16108:16112   */\n      0x20\n        /* \"#utility.yul\":16105:16106   */\n      0x00\n        /* \"#utility.yul\":16095:16113   */\n      keccak256\n        /* \"#utility.yul\":16087:16113   */\n      swap1\n      pop\n        /* \"#utility.yul\":15979:16120   */\n      swap2\n      swap1\n      pop\n      jump\t// out\n        /* \"#utility.yul\":16150:16981   */\n    tag_281:\n        /* \"#utility.yul\":16235:16238   */\n      0x00\n        /* \"#utility.yul\":16272:16277   */\n      dup2\n        /* \"#utility.yul\":16266:16278   */\n      sload\n        /* \"#utility.yul\":16301:16337   */\n      tag_460\n        /* \"#utility.yul\":16327:16336   */\n      dup2\n        /* \"#utility.yul\":16301:16337   */\n      tag_105\n      jump\t// in\n    tag_460:\n        /* \"#utility.yul\":16353:16424   */\n      tag_461\n        /* \"#utility.yul\":16417:16423   */\n      dup2\n        /* \"#utility.yul\":16412:16415   */\n      dup7\n        /* \"#utility.yul\":16353:16424   */\n      tag_244\n      jump\t// in\n    tag_461:\n        /* \"#utility.yul\":16346:16424   */\n      swap5\n      pop\n        /* \"#utility.yul\":16455:16456   */\n      0x01\n        /* \"#utility.yul\":16444:16453   */\n      dup3\n        /* \"#utility.yul\":16440:16457   */\n      and\n        /* \"#utility.yul\":16471:16472   */\n      0x00\n        /* \"#utility.yul\":16466:16630   */\n      dup2\n      eq\n      tag_463\n      jumpi\n        /* \"#utility.yul\":16644:16645   */\n      0x01\n        /* \"#utility.yul\":16639:16975   */\n      dup2\n      eq\n      tag_464\n      jumpi\n        /* \"#utility.yul\":16433:16975   */\n      jump(tag_462)\n        /* \"#utility.yul\":16466:16630   */\n    tag_463:\n        /* \"#utility.yul\":16550:16554   */\n      0xff\n        /* \"#utility.yul\":16546:16555   */\n      not\n        /* \"#utility.yul\":16535:16544   */\n      dup4\n        /* \"#utility.yul\":16531:16556   */\n      and\n        /* \"#utility.yul\":16526:16529   */\n      dup7\n        /* \"#utility.yul\":16519:16557   */\n      mstore\n        /* \"#utility.yul\":16610:16616   */\n      dup2\n        /* \"#utility.yul\":16603:16617   */\n      iszero\n        /* \"#utility.yul\":16596:16618   */\n      iszero\n        /* \"#utility.yul\":16590:16594   */\n      0x20\n        /* \"#utility.yul\":16586:16619   */\n      mul\n        /* \"#utility.yul\":16581:16584   */\n      dup7\n        /* \"#utility.yul\":16577:16620   */\n      add\n        /* \"#utility.yul\":16570:16620   */\n      swap4\n      pop\n        /* \"#utility.yul\":16466:16630   */\n      jump(tag_462)\n        /* \"#utility.yul\":16639:16975   */\n    tag_464:\n        /* \"#utility.yul\":16706:16744   */\n      tag_465\n        /* \"#utility.yul\":16738:16743   */\n      dup6\n        /* \"#utility.yul\":16706:16744   */\n      tag_280\n      jump\t// in\n    tag_465:\n        /* \"#utility.yul\":16766:16767   */\n      0x00\n        /* \"#utility.yul\":16780:16934   */\n    tag_466:\n        /* \"#utility.yul\":16794:16800   */\n      dup4\n        /* \"#utility.yul\":16791:16792   */\n      dup2\n        /* \"#utility.yul\":16788:16801   */\n      lt\n        /* \"#utility.yul\":16780:16934   */\n      iszero\n      tag_468\n      jumpi\n        /* \"#utility.yul\":16868:16875   */\n      dup2\n        /* \"#utility.yul\":16862:16876   */\n      sload\n        /* \"#utility.yul\":16858:16859   */\n      dup2\n        /* \"#utility.yul\":16853:16856   */\n      dup10\n        /* \"#utility.yul\":16849:16860   */\n      add\n        /* \"#utility.yul\":16842:16877   */\n      mstore\n        /* \"#utility.yul\":16918:16919   */\n      0x01\n        /* \"#utility.yul\":16909:16916   */\n      dup3\n        /* \"#utility.yul\":16905:16920   */\n      add\n        /* \"#utility.yul\":16894:16920   */\n      swap2\n      pop\n        /* \"#utility.yul\":16816:16820   */\n      0x20\n        /* \"#utility.yul\":16813:16814   */\n      dup2\n        /* \"#utility.yul\":16809:16821   */\n      add\n        /* \"#utility.yul\":16804:16821   */\n      swap1\n      pop\n        /* \"#utility.yul\":16780:16934   */\n      jump(tag_466)\n    tag_468:\n        /* \"#utility.yul\":16963:16964   */\n      dup1\n        /* \"#utility.yul\":16958:16961   */\n      dup9\n        /* \"#utility.yul\":16954:16965   */\n      add\n        /* \"#utility.yul\":16947:16965   */\n      swap6\n      pop\n        /* \"#utility.yul\":16646:16975   */\n      pop\n      pop\n        /* \"#utility.yul\":16433:16975   */\n    tag_462:\n      pop\n        /* \"#utility.yul\":16239:16981   */\n      pop\n      pop\n        /* \"#utility.yul\":16150:16981   */\n      swap3\n      swap2\n      pop\n      pop\n      jump\t// out\n        /* \"#utility.yul\":16987:17404   */\n    tag_101:\n        /* \"#utility.yul\":17125:17129   */\n      0x00\n        /* \"#utility.yul\":17163:17165   */\n      0x40\n        /* \"#utility.yul\":17152:17161   */\n      dup3\n        /* \"#utility.yul\":17148:17166   */\n      add\n        /* \"#utility.yul\":17140:17166   */\n      swap1\n      pop\n        /* \"#utility.yul\":17176:17247   */\n      tag_470\n        /* \"#utility.yul\":17244:17245   */\n      0x00\n        /* \"#utility.yul\":17233:17242   */\n      dup4\n        /* \"#utility.yul\":17229:17246   */\n      add\n        /* \"#utility.yul\":17220:17226   */\n      dup6\n        /* \"#utility.yul\":17176:17247   */\n      tag_248\n      jump\t// in\n    tag_470:\n        /* \"#utility.yul\":17294:17303   */\n      dup2\n        /* \"#utility.yul\":17288:17292   */\n      dup2\n        /* \"#utility.yul\":17284:17304   */\n      sub\n        /* \"#utility.yul\":17279:17281   */\n      0x20\n        /* \"#utility.yul\":17268:17277   */\n      dup4\n        /* \"#utility.yul\":17264:17282   */\n      add\n        /* \"#utility.yul\":17257:17305   */\n      mstore\n        /* \"#utility.yul\":17322:17397   */\n      tag_471\n        /* \"#utility.yul\":17392:17396   */\n      dup2\n        /* \"#utility.yul\":17383:17389   */\n      dup5\n        /* \"#utility.yul\":17322:17397   */\n      tag_281\n      jump\t// in\n    tag_471:\n        /* \"#utility.yul\":17314:17397   */\n      swap1\n      pop\n        /* \"#utility.yul\":16987:17404   */\n      swap4\n      swap3\n      pop\n      pop\n      pop\n      jump\t// out\n        /* \"#utility.yul\":17410:17558   */\n    tag_282:\n        /* \"#utility.yul\":17512:17523   */\n      0x00\n        /* \"#utility.yul\":17549:17552   */\n      dup2\n        /* \"#utility.yul\":17534:17552   */\n      swap1\n      pop\n        /* \"#utility.yul\":17410:17558   */\n      swap3\n      swap2\n      pop\n      pop\n      jump\t// out\n        /* \"#utility.yul\":17564:17954   */\n    tag_283:\n        /* \"#utility.yul\":17670:17673   */\n      0x00\n        /* \"#utility.yul\":17698:17737   */\n      tag_474\n        /* \"#utility.yul\":17731:17736   */\n      dup3\n        /* \"#utility.yul\":17698:17737   */\n      tag_243\n      jump\t// in\n    tag_474:\n        /* \"#utility.yul\":17753:17842   */\n      tag_475\n        /* \"#utility.yul\":17835:17841   */\n      dup2\n        /* \"#utility.yul\":17830:17833   */\n      dup6\n        /* \"#utility.yul\":17753:17842   */\n      tag_282\n      jump\t// in\n    tag_475:\n        /* \"#utility.yul\":17746:17842   */\n      swap4\n      pop\n        /* \"#utility.yul\":17851:17916   */\n      tag_476\n        /* \"#utility.yul\":17909:17915   */\n      dup2\n        /* \"#utility.yul\":17904:17907   */\n      dup6\n        /* \"#utility.yul\":17897:17901   */\n      0x20\n        /* \"#utility.yul\":17890:17895   */\n      dup7\n        /* \"#utility.yul\":17886:17902   */\n      add\n        /* \"#utility.yul\":17851:17916   */\n      tag_245\n      jump\t// in\n    tag_476:\n        /* \"#utility.yul\":17941:17947   */\n      dup1\n        /* \"#utility.yul\":17936:17939   */\n      dup5\n        /* \"#utility.yul\":17932:17948   */\n      add\n        /* \"#utility.yul\":17925:17948   */\n      swap2\n      pop\n        /* \"#utility.yul\":17674:17954   */\n      pop\n        /* \"#utility.yul\":17564:17954   */\n      swap3\n      swap2\n      pop\n      pop\n      jump\t// out\n        /* \"#utility.yul\":17960:18235   */\n    tag_129:\n        /* \"#utility.yul\":18092:18095   */\n      0x00\n        /* \"#utility.yul\":18114:18209   */\n      tag_478\n        /* \"#utility.yul\":18205:18208   */\n      dup3\n        /* \"#utility.yul\":18196:18202   */\n      dup5\n        /* \"#utility.yul\":18114:18209   */\n      tag_283\n      jump\t// in\n    tag_478:\n        /* \"#utility.yul\":18107:18209   */\n      swap2\n      pop\n        /* \"#utility.yul\":18226:18229   */\n      dup2\n        /* \"#utility.yul\":18219:18229   */\n      swap1\n      pop\n        /* \"#utility.yul\":17960:18235   */\n      swap3\n      swap2\n      pop\n      pop\n      jump\t// out\n        /* \"#utility.yul\":18265:19139   */\n    tag_284:\n        /* \"#utility.yul\":18368:18371   */\n      0x00\n        /* \"#utility.yul\":18405:18410   */\n      dup2\n        /* \"#utility.yul\":18399:18411   */\n      sload\n        /* \"#utility.yul\":18434:18470   */\n      tag_480\n        /* \"#utility.yul\":18460:18469   */\n      dup2\n        /* \"#utility.yul\":18434:18470   */\n      tag_105\n      jump\t// in\n    tag_480:\n        /* \"#utility.yul\":18486:18575   */\n      tag_481\n        /* \"#utility.yul\":18568:18574   */\n      dup2\n        /* \"#utility.yul\":18563:18566   */\n      dup7\n        /* \"#utility.yul\":18486:18575   */\n      tag_282\n      jump\t// in\n    tag_481:\n        /* \"#utility.yul\":18479:18575   */\n      swap5\n      pop\n        /* \"#utility.yul\":18606:18607   */\n      0x01\n        /* \"#utility.yul\":18595:18604   */\n      dup3\n        /* \"#utility.yul\":18591:18608   */\n      and\n        /* \"#utility.yul\":18622:18623   */\n      0x00\n        /* \"#utility.yul\":18617:18783   */\n      dup2\n      eq\n      tag_483\n      jumpi\n        /* \"#utility.yul\":18797:18798   */\n      0x01\n        /* \"#utility.yul\":18792:19133   */\n      dup2\n      eq\n      tag_484\n      jumpi\n        /* \"#utility.yul\":18584:19133   */\n      jump(tag_482)\n        /* \"#utility.yul\":18617:18783   */\n    tag_483:\n        /* \"#utility.yul\":18701:18705   */\n      0xff\n        /* \"#utility.yul\":18697:18706   */\n      not\n        /* \"#utility.yul\":18686:18695   */\n      dup4\n        /* \"#utility.yul\":18682:18707   */\n      and\n        /* \"#utility.yul\":18677:18680   */\n      dup7\n        /* \"#utility.yul\":18670:18708   */\n      mstore\n        /* \"#utility.yul\":18763:18769   */\n      dup2\n        /* \"#utility.yul\":18756:18770   */\n      iszero\n        /* \"#utility.yul\":18749:18771   */\n      iszero\n        /* \"#utility.yul\":18741:18747   */\n      dup3\n        /* \"#utility.yul\":18737:18772   */\n      mul\n        /* \"#utility.yul\":18732:18735   */\n      dup7\n        /* \"#utility.yul\":18728:18773   */\n      add\n        /* \"#utility.yul\":18721:18773   */\n      swap4\n      pop\n        /* \"#utility.yul\":18617:18783   */\n      jump(tag_482)\n        /* \"#utility.yul\":18792:19133   */\n    tag_484:\n        /* \"#utility.yul\":18859:18897   */\n      tag_485\n        /* \"#utility.yul\":18891:18896   */\n      dup6\n        /* \"#utility.yul\":18859:18897   */\n      tag_280\n      jump\t// in\n    tag_485:\n        /* \"#utility.yul\":18919:18920   */\n      0x00\n        /* \"#utility.yul\":18933:19087   */\n    tag_486:\n        /* \"#utility.yul\":18947:18953   */\n      dup4\n        /* \"#utility.yul\":18944:18945   */\n      dup2\n        /* \"#utility.yul\":18941:18954   */\n      lt\n        /* \"#utility.yul\":18933:19087   */\n      iszero\n      tag_488\n      jumpi\n        /* \"#utility.yul\":19021:19028   */\n      dup2\n        /* \"#utility.yul\":19015:19029   */\n      sload\n        /* \"#utility.yul\":19011:19012   */\n      dup2\n        /* \"#utility.yul\":19006:19009   */\n      dup10\n        /* \"#utility.yul\":19002:19013   */\n      add\n        /* \"#utility.yul\":18995:19030   */\n      mstore\n        /* \"#utility.yul\":19071:19072   */\n      0x01\n        /* \"#utility.yul\":19062:19069   */\n      dup3\n        /* \"#utility.yul\":19058:19073   */\n      add\n        /* \"#utility.yul\":19047:19073   */\n      swap2\n      pop\n        /* \"#utility.yul\":18969:18973   */\n      0x20\n        /* \"#utility.yul\":18966:18967   */\n      dup2\n        /* \"#utility.yul\":18962:18974   */\n      add\n        /* \"#utility.yul\":18957:18974   */\n      swap1\n      pop\n        /* \"#utility.yul\":18933:19087   */\n      jump(tag_486)\n    tag_488:\n        /* \"#utility.yul\":19116:19122   */\n      dup4\n        /* \"#utility.yul\":19111:19114   */\n      dup9\n        /* \"#utility.yul\":19107:19123   */\n      add\n        /* \"#utility.yul\":19100:19123   */\n      swap6\n      pop\n        /* \"#utility.yul\":18799:19133   */\n      pop\n      pop\n        /* \"#utility.yul\":18584:19133   */\n    tag_482:\n      pop\n        /* \"#utility.yul\":18372:19139   */\n      pop\n      pop\n        /* \"#utility.yul\":18265:19139   */\n      swap3\n      swap2\n      pop\n      pop\n      jump\t// out\n        /* \"#utility.yul\":19145:19414   */\n    tag_134:\n        /* \"#utility.yul\":19274:19277   */\n      0x00\n        /* \"#utility.yul\":19296:19388   */\n      tag_490\n        /* \"#utility.yul\":19384:19387   */\n      dup3\n        /* \"#utility.yul\":19375:19381   */\n      dup5\n        /* \"#utility.yul\":19296:19388   */\n      tag_284\n      jump\t// in\n    tag_490:\n        /* \"#utility.yul\":19289:19388   */\n      swap2\n      pop\n        /* \"#utility.yul\":19405:19408   */\n      dup2\n        /* \"#utility.yul\":19398:19408   */\n      swap1\n      pop\n        /* \"#utility.yul\":19145:19414   */\n      swap3\n      swap2\n      pop\n      pop\n      jump\t// out\n        /* \"#utility.yul\":19420:19513   */\n    tag_285:\n        /* \"#utility.yul\":19457:19463   */\n      0x00\n        /* \"#utility.yul\":19504:19506   */\n      0x20\n        /* \"#utility.yul\":19499:19501   */\n      0x1f\n        /* \"#utility.yul\":19492:19497   */\n      dup4\n        /* \"#utility.yul\":19488:19502   */\n      add\n        /* \"#utility.yul\":19484:19507   */\n      div\n        /* \"#utility.yul\":19474:19507   */\n      swap1\n      pop\n        /* \"#utility.yul\":19420:19513   */\n      swap2\n      swap1\n      pop\n      jump\t// out\n        /* \"#utility.yul\":19519:19626   */\n    tag_286:\n        /* \"#utility.yul\":19563:19571   */\n      0x00\n        /* \"#utility.yul\":19613:19618   */\n      dup3\n        /* \"#utility.yul\":19607:19611   */\n      dup3\n        /* \"#utility.yul\":19603:19619   */\n      shl\n        /* \"#utility.yul\":19582:19619   */\n      swap1\n      pop\n        /* \"#utility.yul\":19519:19626   */\n      swap3\n      swap2\n      pop\n      pop\n      jump\t// out\n        /* \"#utility.yul\":19632:20025   */\n    tag_287:\n        /* \"#utility.yul\":19701:19707   */\n      0x00\n        /* \"#utility.yul\":19751:19752   */\n      0x08\n        /* \"#utility.yul\":19739:19749   */\n      dup4\n        /* \"#utility.yul\":19735:19753   */\n      mul\n        /* \"#utility.yul\":19774:19871   */\n      tag_494\n        /* \"#utility.yul\":19804:19870   */\n      0xffffffffffffffffffffffffffffffffffffffffffffffffffffffffffffffff\n        /* \"#utility.yul\":19793:19802   */\n      dup3\n        /* \"#utility.yul\":19774:19871   */\n      tag_286\n      jump\t// in\n    tag_494:\n        /* \"#utility.yul\":19892:19931   */\n      tag_495\n        /* \"#utility.yul\":19922:19930   */\n      dup7\n        /* \"#utility.yul\":19911:19920   */\n      dup4\n        /* \"#utility.yul\":19892:19931   */\n      tag_286\n      jump\t// in\n    tag_495:\n        /* \"#utility.yul\":19880:19931   */\n      swap6\n      pop\n        /* \"#utility.yul\":19964:19968   */\n      dup1\n        /* \"#utility.yul\":19960:19969   */\n      not\n        /* \"#utility.yul\":19953:19958   */\n      dup5\n        /* \"#utility.yul\":19949:19970   */\n      and\n        /* \"#utility.yul\":19940:19970   */\n      swap4\n      pop\n        /* \"#utility.yul\":20013:20017   */\n      dup1\n        /* \"#utility.yul\":20003:20011   */\n      dup7\n        /* \"#utility.yul\":19999:20018   */\n      and\n        /* \"#utility.yul\":19992:19997   */\n      dup5\n        /* \"#utility.yul\":19989:20019   */\n      or\n        /* \"#utility.yul\":19979:20019   */\n      swap3\n      pop\n        /* \"#utility.yul\":19708:20025   */\n      pop\n      pop\n        /* \"#utility.yul\":19632:20025   */\n      swap4\n      swap3\n      pop\n      pop\n      pop\n      jump\t// out\n        /* \"#utility.yul\":20031:20091   */\n    tag_288:\n        /* \"#utility.yul\":20059:20062   */\n      0x00\n        /* \"#utility.yul\":20080:20085   */\n      dup2\n        /* \"#utility.yul\":20073:20085   */\n      swap1\n      pop\n        /* \"#utility.yul\":20031:20091   */\n      swap2\n      swap1\n      pop\n      jump\t// out\n        /* \"#utility.yul\":20097:20239   */\n    tag_289:\n        /* \"#utility.yul\":20147:20156   */\n      0x00\n        /* \"#utility.yul\":20180:20233   */\n      tag_498\n        /* \"#utility.yul\":20198:20232   */\n      tag_499\n        /* \"#utility.yul\":20207:20231   */\n      tag_500\n        /* \"#utility.yul\":20225:20230   */\n      dup5\n        /* \"#utility.yul\":20207:20231   */\n      tag_240\n      jump\t// in\n    tag_500:\n        /* \"#utility.yul\":20198:20232   */\n      tag_288\n      jump\t// in\n    tag_499:\n        /* \"#utility.yul\":20180:20233   */\n      tag_240\n      jump\t// in\n    tag_498:\n        /* \"#utility.yul\":20167:20233   */\n      swap1\n      pop\n        /* \"#utility.yul\":20097:20239   */\n      swap2\n      swap1\n      pop\n      jump\t// out\n        /* \"#utility.yul\":20245:20320   */\n    tag_290:\n        /* \"#utility.yul\":20288:20291   */\n      0x00\n        /* \"#utility.yul\":20309:20314   */\n      dup2\n        /* \"#utility.yul\":20302:20314   */\n      swap1\n      pop\n        /* \"#utility.yul\":20245:20320   */\n      swap2\n      swap1\n      pop\n      jump\t// out\n        /* \"#utility.yul\":20326:20595   */\n    tag_291:\n        /* \"#utility.yul\":20436:20475   */\n      tag_503\n        /* \"#utility.yul\":20467:20474   */\n      dup4\n        /* \"#utility.yul\":20436:20475   */\n      tag_289\n      jump\t// in\n    tag_503:\n        /* \"#utility.yul\":20497:20588   */\n      tag_504\n        /* \"#utility.yul\":20546:20587   */\n      tag_505\n        /* \"#utility.yul\":20570:20586   */\n      dup3\n        /* \"#utility.yul\":20546:20587   */\n      tag_290\n      jump\t// in\n    tag_505:\n        /* \"#utility.yul\":20538:20544   */\n      dup5\n        /* \"#utility.yul\":20531:20535   */\n      dup5\n        /* \"#utility.yul\":20525:20536   */\n      sload\n        /* \"#utility.yul\":20497:20588   */\n      tag_287\n      jump\t// in\n    tag_504:\n        /* \"#utility.yul\":20491:20495   */\n      dup3\n        /* \"#utility.yul\":20484:20589   */\n      sstore\n        /* \"#utility.yul\":20402:20595   */\n      pop\n        /* \"#utility.yul\":20326:20595   */\n      pop\n      pop\n      pop\n      jump\t// out\n        /* \"#utility.yul\":20601:20674   */\n    tag_292:\n        /* \"#utility.yul\":20646:20649   */\n      0x00\n        /* \"#utility.yul\":20601:20674   */\n      swap1\n      jump\t// out\n        /* \"#utility.yul\":20680:20869   */\n    tag_293:\n        /* \"#utility.yul\":20757:20789   */\n      tag_508\n      tag_292\n      jump\t// in\n    tag_508:\n        /* \"#utility.yul\":20798:20863   */\n      tag_509\n        /* \"#utility.yul\":20856:20862   */\n      dup2\n        /* \"#utility.yul\":20848:20854   */\n      dup5\n        /* \"#utility.yul\":20842:20846   */\n      dup5\n        /* \"#utility.yul\":20798:20863   */\n      tag_291\n      jump\t// in\n    tag_509:\n        /* \"#utility.yul\":20733:20869   */\n      pop\n        /* \"#utility.yul\":20680:20869   */\n      pop\n      pop\n      jump\t// out\n        /* \"#utility.yul\":20875:21061   */\n    tag_294:\n        /* \"#utility.yul\":20935:21055   */\n    tag_511:\n        /* \"#utility.yul\":20952:20955   */\n      dup2\n        /* \"#utility.yul\":20945:20950   */\n      dup2\n        /* \"#utility.yul\":20942:20956   */\n      lt\n        /* \"#utility.yul\":20935:21055   */\n      iszero\n      tag_513\n      jumpi\n        /* \"#utility.yul\":21006:21045   */\n      tag_514\n        /* \"#utility.yul\":21043:21044   */\n      0x00\n        /* \"#utility.yul\":21036:21041   */\n      dup3\n        /* \"#utility.yul\":21006:21045   */\n      tag_293\n      jump\t// in\n    tag_514:\n        /* \"#utility.yul\":20979:20980   */\n      0x01\n        /* \"#utility.yul\":20972:20977   */\n      dup2\n        /* \"#utility.yul\":20968:20981   */\n      add\n        /* \"#utility.yul\":20959:20981   */\n      swap1\n      pop\n        /* \"#utility.yul\":20935:21055   */\n      jump(tag_511)\n    tag_513:\n        /* \"#utility.yul\":20875:21061   */\n      pop\n      pop\n      jump\t// out\n        /* \"#utility.yul\":21067:21610   */\n    tag_295:\n        /* \"#utility.yul\":21168:21170   */\n      0x1f\n        /* \"#utility.yul\":21163:21166   */\n      dup3\n        /* \"#utility.yul\":21160:21171   */\n      gt\n        /* \"#utility.yul\":21157:21603   */\n      iszero\n      tag_516\n      jumpi\n        /* \"#utility.yul\":21202:21240   */\n      tag_517\n        /* \"#utility.yul\":21234:21239   */\n      dup2\n        /* \"#utility.yul\":21202:21240   */\n      tag_280\n      jump\t// in\n    tag_517:\n        /* \"#utility.yul\":21286:21315   */\n      tag_518\n        /* \"#utility.yul\":21304:21314   */\n      dup5\n        /* \"#utility.yul\":21286:21315   */\n      tag_285\n      jump\t// in\n    tag_518:\n        /* \"#utility.yul\":21276:21284   */\n      dup2\n        /* \"#utility.yul\":21272:21316   */\n      add\n        /* \"#utility.yul\":21469:21471   */\n      0x20\n        /* \"#utility.yul\":21457:21467   */\n      dup6\n        /* \"#utility.yul\":21454:21472   */\n      lt\n        /* \"#utility.yul\":21451:21500   */\n      iszero\n      tag_519\n      jumpi\n        /* \"#utility.yul\":21490:21498   */\n      dup2\n        /* \"#utility.yul\":21475:21498   */\n      swap1\n      pop\n        /* \"#utility.yul\":21451:21500   */\n    tag_519:\n        /* \"#utility.yul\":21513:21593   */\n      tag_520\n        /* \"#utility.yul\":21569:21591   */\n      tag_521\n        /* \"#utility.yul\":21587:21590   */\n      dup6\n        /* \"#utility.yul\":21569:21591   */\n      tag_285\n      jump\t// in\n    tag_521:\n        /* \"#utility.yul\":21559:21567   */\n      dup4\n        /* \"#utility.yul\":21555:21592   */\n      add\n        /* \"#utility.yul\":21542:21553   */\n      dup3\n        /* \"#utility.yul\":21513:21593   */\n      tag_294\n      jump\t// in\n    tag_520:\n        /* \"#utility.yul\":21172:21603   */\n      pop\n      pop\n        /* \"#utility.yul\":21157:21603   */\n    tag_516:\n        /* \"#utility.yul\":21067:21610   */\n      pop\n      pop\n      pop\n      jump\t// out\n        /* \"#utility.yul\":21616:21733   */\n    tag_296:\n        /* \"#utility.yul\":21670:21678   */\n      0x00\n        /* \"#utility.yul\":21720:21725   */\n      dup3\n        /* \"#utility.yul\":21714:21718   */\n      dup3\n        /* \"#utility.yul\":21710:21726   */\n      shr\n        /* \"#utility.yul\":21689:21726   */\n      swap1\n      pop\n        /* \"#utility.yul\":21616:21733   */\n      swap3\n      swap2\n      pop\n      pop\n      jump\t// out\n        /* \"#utility.yul\":21739:21908   */\n    tag_297:\n        /* \"#utility.yul\":21783:21789   */\n      0x00\n        /* \"#utility.yul\":21816:21867   */\n      tag_524\n        /* \"#utility.yul\":21864:21865   */\n      0x00\n        /* \"#utility.yul\":21860:21866   */\n      not\n        /* \"#utility.yul\":21852:21857   */\n      dup5\n        /* \"#utility.yul\":21849:21850   */\n      0x08\n        /* \"#utility.yul\":21845:21858   */\n      mul\n        /* \"#utility.yul\":21816:21867   */\n      tag_296\n      jump\t// in\n    tag_524:\n        /* \"#utility.yul\":21812:21868   */\n      not\n        /* \"#utility.yul\":21897:21901   */\n      dup1\n        /* \"#utility.yul\":21891:21895   */\n      dup4\n        /* \"#utility.yul\":21887:21902   */\n      and\n        /* \"#utility.yul\":21877:21902   */\n      swap2\n      pop\n        /* \"#utility.yul\":21790:21908   */\n      pop\n        /* \"#utility.yul\":21739:21908   */\n      swap3\n      swap2\n      pop\n      pop\n      jump\t// out\n        /* \"#utility.yul\":21913:22208   */\n    tag_298:\n        /* \"#utility.yul\":21989:21993   */\n      0x00\n        /* \"#utility.yul\":22135:22164   */\n      tag_526\n        /* \"#utility.yul\":22160:22163   */\n      dup4\n        /* \"#utility.yul\":22154:22158   */\n      dup4\n        /* \"#utility.yul\":22135:22164   */\n      tag_297\n      jump\t// in\n    tag_526:\n        /* \"#utility.yul\":22127:22164   */\n      swap2\n      pop\n        /* \"#utility.yul\":22197:22200   */\n      dup3\n        /* \"#utility.yul\":22194:22195   */\n      0x02\n        /* \"#utility.yul\":22190:22201   */\n      mul\n        /* \"#utility.yul\":22184:22188   */\n      dup3\n        /* \"#utility.yul\":22181:22202   */\n      or\n        /* \"#utility.yul\":22173:22202   */\n      swap1\n      pop\n        /* \"#utility.yul\":21913:22208   */\n      swap3\n      swap2\n      pop\n      pop\n      jump\t// out\n        /* \"#utility.yul\":22213:23608   */\n    tag_172:\n        /* \"#utility.yul\":22330:22367   */\n      tag_528\n        /* \"#utility.yul\":22363:22366   */\n      dup3\n        /* \"#utility.yul\":22330:22367   */\n      tag_243\n      jump\t// in\n    tag_528:\n        /* \"#utility.yul\":22432:22450   */\n      0xffffffffffffffff\n        /* \"#utility.yul\":22424:22430   */\n      dup2\n        /* \"#utility.yul\":22421:22451   */\n      gt\n        /* \"#utility.yul\":22418:22474   */\n      iszero\n      tag_529\n      jumpi\n        /* \"#utility.yul\":22454:22472   */\n      tag_530\n      tag_251\n      jump\t// in\n    tag_530:\n        /* \"#utility.yul\":22418:22474   */\n    tag_529:\n        /* \"#utility.yul\":22498:22536   */\n      tag_531\n        /* \"#utility.yul\":22530:22534   */\n      dup3\n        /* \"#utility.yul\":22524:22535   */\n      sload\n        /* \"#utility.yul\":22498:22536   */\n      tag_105\n      jump\t// in\n    tag_531:\n        /* \"#utility.yul\":22583:22650   */\n      tag_532\n        /* \"#utility.yul\":22643:22649   */\n      dup3\n        /* \"#utility.yul\":22635:22641   */\n      dup3\n        /* \"#utility.yul\":22629:22633   */\n      dup6\n        /* \"#utility.yul\":22583:22650   */\n      tag_295\n      jump\t// in\n    tag_532:\n        /* \"#utility.yul\":22677:22678   */\n      0x00\n        /* \"#utility.yul\":22701:22705   */\n      0x20\n        /* \"#utility.yul\":22688:22705   */\n      swap1\n      pop\n        /* \"#utility.yul\":22733:22735   */\n      0x1f\n        /* \"#utility.yul\":22725:22731   */\n      dup4\n        /* \"#utility.yul\":22722:22736   */\n      gt\n        /* \"#utility.yul\":22750:22751   */\n      0x01\n        /* \"#utility.yul\":22745:23363   */\n      dup2\n      eq\n      tag_534\n      jumpi\n        /* \"#utility.yul\":23407:23408   */\n      0x00\n        /* \"#utility.yul\":23424:23430   */\n      dup5\n        /* \"#utility.yul\":23421:23498   */\n      iszero\n      tag_535\n      jumpi\n        /* \"#utility.yul\":23473:23482   */\n      dup3\n        /* \"#utility.yul\":23468:23471   */\n      dup8\n        /* \"#utility.yul\":23464:23483   */\n      add\n        /* \"#utility.yul\":23458:23484   */\n      mload\n        /* \"#utility.yul\":23449:23484   */\n      swap1\n      pop\n        /* \"#utility.yul\":23421:23498   */\n    tag_535:\n        /* \"#utility.yul\":23524:23591   */\n      tag_536\n        /* \"#utility.yul\":23584:23590   */\n      dup6\n        /* \"#utility.yul\":23577:23582   */\n      dup3\n        /* \"#utility.yul\":23524:23591   */\n      tag_298\n      jump\t// in\n    tag_536:\n        /* \"#utility.yul\":23518:23522   */\n      dup7\n        /* \"#utility.yul\":23511:23592   */\n      sstore\n        /* \"#utility.yul\":23380:23602   */\n      pop\n        /* \"#utility.yul\":22715:23602   */\n      jump(tag_533)\n        /* \"#utility.yul\":22745:23363   */\n    tag_534:\n        /* \"#utility.yul\":22797:22801   */\n      0x1f\n        /* \"#utility.yul\":22793:22802   */\n      not\n        /* \"#utility.yul\":22785:22791   */\n      dup5\n        /* \"#utility.yul\":22781:22803   */\n      and\n        /* \"#utility.yul\":22831:22868   */\n      tag_537\n        /* \"#utility.yul\":22863:22867   */\n      dup7\n        /* \"#utility.yul\":22831:22868   */\n      tag_280\n      jump\t// in\n    tag_537:\n        /* \"#utility.yul\":22890:22891   */\n      0x00\n        /* \"#utility.yul\":22904:23112   */\n    tag_538:\n        /* \"#utility.yul\":22918:22925   */\n      dup3\n        /* \"#utility.yul\":22915:22916   */\n      dup2\n        /* \"#utility.yul\":22912:22926   */\n      lt\n        /* \"#utility.yul\":22904:23112   */\n      iszero\n      tag_540\n      jumpi\n        /* \"#utility.yul\":22997:23006   */\n      dup5\n        /* \"#utility.yul\":22992:22995   */\n      dup10\n        /* \"#utility.yul\":22988:23007   */\n      add\n        /* \"#utility.yul\":22982:23008   */\n      mload\n        /* \"#utility.yul\":22974:22980   */\n      dup3\n        /* \"#utility.yul\":22967:23009   */\n      sstore\n        /* \"#utility.yul\":23048:23049   */\n      0x01\n        /* \"#utility.yul\":23040:23046   */\n      dup3\n        /* \"#utility.yul\":23036:23050   */\n      add\n        /* \"#utility.yul\":23026:23050   */\n      swap2\n      pop\n        /* \"#utility.yul\":23095:23097   */\n      0x20\n        /* \"#utility.yul\":23084:23093   */\n      dup6\n        /* \"#utility.yul\":23080:23098   */\n      add\n        /* \"#utility.yul\":23067:23098   */\n      swap5\n      pop\n        /* \"#utility.yul\":22941:22945   */\n      0x20\n        /* \"#utility.yul\":22938:22939   */\n      dup2\n        /* \"#utility.yul\":22934:22946   */\n      add\n        /* \"#utility.yul\":22929:22946   */\n      swap1\n      pop\n        /* \"#utility.yul\":22904:23112   */\n      jump(tag_538)\n    tag_540:\n        /* \"#utility.yul\":23140:23146   */\n      dup7\n        /* \"#utility.yul\":23131:23138   */\n      dup4\n        /* \"#utility.yul\":23128:23147   */\n      lt\n        /* \"#utility.yul\":23125:23304   */\n      iszero\n      tag_541\n      jumpi\n        /* \"#utility.yul\":23198:23207   */\n      dup5\n        /* \"#utility.yul\":23193:23196   */\n      dup10\n        /* \"#utility.yul\":23189:23208   */\n      add\n        /* \"#utility.yul\":23183:23209   */\n      mload\n        /* \"#utility.yul\":23241:23289   */\n      tag_542\n        /* \"#utility.yul\":23283:23287   */\n      0x1f\n        /* \"#utility.yul\":23275:23281   */\n      dup10\n        /* \"#utility.yul\":23271:23288   */\n      and\n        /* \"#utility.yul\":23260:23269   */\n      dup3\n        /* \"#utility.yul\":23241:23289   */\n      tag_297\n      jump\t// in\n    tag_542:\n        /* \"#utility.yul\":23233:23239   */\n      dup4\n        /* \"#utility.yul\":23226:23290   */\n      sstore\n        /* \"#utility.yul\":23148:23304   */\n      pop\n        /* \"#utility.yul\":23125:23304   */\n    tag_541:\n        /* \"#utility.yul\":23350:23351   */\n      0x01\n        /* \"#utility.yul\":23346:23347   */\n      0x02\n        /* \"#utility.yul\":23338:23344   */\n      dup9\n        /* \"#utility.yul\":23334:23348   */\n      mul\n        /* \"#utility.yul\":23330:23352   */\n      add\n        /* \"#utility.yul\":23324:23328   */\n      dup9\n        /* \"#utility.yul\":23317:23353   */\n      sstore\n        /* \"#utility.yul\":22752:23363   */\n      pop\n      pop\n      pop\n        /* \"#utility.yul\":22715:23602   */\n    tag_533:\n      pop\n        /* \"#utility.yul\":22305:23608   */\n      pop\n      pop\n      pop\n        /* \"#utility.yul\":22213:23608   */\n      pop\n      pop\n      jump\t// out\n        /* \"#utility.yul\":23614:23808   */\n    tag_235:\n        /* \"#utility.yul\":23654:23658   */\n      0x00\n        /* \"#utility.yul\":23674:23694   */\n      tag_544\n        /* \"#utility.yul\":23692:23693   */\n      dup3\n        /* \"#utility.yul\":23674:23694   */\n      tag_240\n      jump\t// in\n    tag_544:\n        /* \"#utility.yul\":23669:23694   */\n      swap2\n      pop\n        /* \"#utility.yul\":23708:23728   */\n      tag_545\n        /* \"#utility.yul\":23726:23727   */\n      dup4\n        /* \"#utility.yul\":23708:23728   */\n      tag_240\n      jump\t// in\n    tag_545:\n        /* \"#utility.yul\":23703:23728   */\n      swap3\n      pop\n        /* \"#utility.yul\":23752:23753   */\n      dup3\n        /* \"#utility.yul\":23749:23750   */\n      dup3\n        /* \"#utility.yul\":23745:23754   */\n      sub\n        /* \"#utility.yul\":23737:23754   */\n      swap1\n      pop\n        /* \"#utility.yul\":23776:23777   */\n      dup2\n        /* \"#utility.yul\":23770:23774   */\n      dup2\n        /* \"#utility.yul\":23767:23778   */\n      gt\n        /* \"#utility.yul\":23764:23801   */\n      iszero\n      tag_546\n      jumpi\n        /* \"#utility.yul\":23781:23799   */\n      tag_547\n      tag_278\n      jump\t// in\n    tag_547:\n        /* \"#utility.yul\":23764:23801   */\n    tag_546:\n        /* \"#utility.yul\":23614:23808   */\n      swap3\n      swap2\n      pop\n      pop\n      jump\t// out\n\n    auxdata: 0xa26469706673582212206df274f2d005804cf8df5b2b90c96c724201150fe581c663cdd46184692c11bb64736f6c63430008160033\n}\n",
				"bytecode": {
					"linkReferences": {},
					"object": "6080604052617080600155620151806002553480156200001d575f80fd5b5060405162001f5d38038062001f5d8339818101604052810190620000439190620001f6565b805f73ffffffffffffffffffffffffffffffffffffffff168173ffffffffffffffffffffffffffffffffffffffff1603620000b7575f6040517f1e4fbdf7000000000000000000000000000000000000000000000000000000008152600401620000ae919062000237565b60405180910390fd5b620000c881620000d060201b60201c565b505062000252565b5f805f9054906101000a900473ffffffffffffffffffffffffffffffffffffffff169050815f806101000a81548173ffffffffffffffffffffffffffffffffffffffff021916908373ffffffffffffffffffffffffffffffffffffffff1602179055508173ffffffffffffffffffffffffffffffffffffffff168173ffffffffffffffffffffffffffffffffffffffff167f8be0079c531659141344cd1fd0a4f28419497f9722a3daafe3b4186f6b6457e060405160405180910390a35050565b5f80fd5b5f73ffffffffffffffffffffffffffffffffffffffff82169050919050565b5f620001c08262000195565b9050919050565b620001d281620001b4565b8114620001dd575f80fd5b50565b5f81519050620001f081620001c7565b92915050565b5f602082840312156200020e576200020d62000191565b5b5f6200021d84828501620001e0565b91505092915050565b6200023181620001b4565b82525050565b5f6020820190506200024c5f83018462000226565b92915050565b611cfd80620002605f395ff3fe608060405234801561000f575f80fd5b50600436106100fe575f3560e01c80638f6021c311610095578063c1961cea11610064578063c1961cea1461029d578063e3446174146102b9578063ee55f11e146102d7578063f2fde38b146102f5576100fe565b80638f6021c314610201578063b0c7351314610232578063b25924c11461024e578063b5e422d41461027f576100fe565b8063715018a6116100d1578063715018a61461018b57806389813f84146101955780638da5cb5b146101b15780638f023f85146101cf576100fe565b80630e0864cb1461010257806340deb0701461011e5780636bb7aaf51461014e5780636cdf69f01461016c575b5f80fd5b61011c600480360381019061011791906110ff565b610311565b005b610138600480360381019061013391906110ff565b6104ff565b60405161014591906111b4565b60405180910390f35b6101566105aa565b60405161016391906111e3565b60405180910390f35b6101746105ee565b6040516101829291906111fc565b60405180910390f35b610193610685565b005b6101af60048036038101906101aa9190611356565b610698565b005b6101b961074c565b6040516101c6919061140b565b60405180910390f35b6101e960048036038101906101e491906110ff565b610773565b6040516101f893929190611424565b60405180910390f35b61021b600480360381019061021691906110ff565b6108b4565b604051610229929190611467565b60405180910390f35b61024c6004803603810190610247919061149c565b6109ff565b005b610268600480360381019061026391906110ff565b610a37565b604051610276929190611510565b60405180910390f35b610287610af8565b60405161029491906111e3565b60405180910390f35b6102b760048036038101906102b29190611574565b610b52565b005b6102c1610bb9565b6040516102ce91906111e3565b60405180910390f35b6102df610bc5565b6040516102ec9190611734565b60405180910390f35b61030f600480360381019061030a919061177e565b610d4a565b005b5f60095f3373ffffffffffffffffffffffffffffffffffffffff1673ffffffffffffffffffffffffffffffffffffffff1681526020019081526020015f205490505f60058281548110610367576103666117a9565b5b905f5260205f2090600202016001015f9054906101000a900460ff1661040957600190508260085f3373ffffffffffffffffffffffffffffffffffffffff1673ffffffffffffffffffffffffffffffffffffffff1681526020019081526020015f20819055506001600583815481106103e3576103e26117a9565b5b905f5260205f2090600202016001015f6101000a81548160ff0219169083151502179055505b5f600460085f3373ffffffffffffffffffffffffffffffffffffffff1673ffffffffffffffffffffffffffffffffffffffff1681526020019081526020015f20548154811061045b5761045a6117a9565b5b905f5260205f20906003020190508181600201546104799190611803565b81600201819055507fd5f7cb52613a2bacd6e90c181d02d8eb3d9236bdb28d47edf16fe7c8ff2e39a360085f3373ffffffffffffffffffffffffffffffffffffffff1673ffffffffffffffffffffffffffffffffffffffff1681526020019081526020015f2054825f016040516104f1929190611926565b60405180910390a150505050565b6003818154811061050e575f80fd5b905f5260205f20015f91509050805f01805461052990611863565b80601f016020809104026020016040519081016040528092919081815260200182805461055590611863565b80156105a05780601f10610577576101008083540402835291602001916105a0565b820191905f5260205f20905b81548152906001019060200180831161058357829003601f168201915b5050505050905081565b5f60085f3373ffffffffffffffffffffffffffffffffffffffff1673ffffffffffffffffffffffffffffffffffffffff1681526020019081526020015f2054905090565b6006805f0180546105fe90611863565b80601f016020809104026020016040519081016040528092919081815260200182805461062a90611863565b80156106755780601f1061064c57610100808354040283529160200191610675565b820191905f5260205f20905b81548152906001019060200180831161065857829003601f168201915b5050505050908060010154905082565b61068d610dce565b6106965f610e55565b565b6106a0610dce565b5f805b60038054905081101561073257836040516020016106c1919061198e565b60405160208183030381529060405280519060200120600382815481106106eb576106ea6117a9565b5b905f5260205f20015f016040516020016107059190611a24565b604051602081830303815290604052805190602001200361072557600191505b80806001019150506106a3565b5061073d8382610f16565b6107478383610f6d565b505050565b5f805f9054906101000a900473ffffffffffffffffffffffffffffffffffffffff16905090565b60048181548110610782575f80fd5b905f5260205f2090600302015f91509050805f0180546107a190611863565b80601f01602080910402602001604051908101604052809291908181526020018280546107cd90611863565b80156108185780601f106107ef57610100808354040283529160200191610818565b820191905f5260205f20905b8154815290600101906020018083116107fb57829003601f168201915b50505050509080600101805461082d90611863565b80601f016020809104026020016040519081016040528092919081815260200182805461085990611863565b80156108a45780601f1061087b576101008083540402835291602001916108a4565b820191905f5260205f20905b81548152906001019060200180831161088757829003601f168201915b5050505050908060020154905083565b6060805f600484815481106108cc576108cb6117a9565b5b905f5260205f2090600302019050805f01816001018180546108ed90611863565b80601f016020809104026020016040519081016040528092919081815260200182805461091990611863565b80156109645780601f1061093b57610100808354040283529160200191610964565b820191905f5260205f20905b81548152906001019060200180831161094757829003601f168201915b5050505050915080805461097790611863565b80601f01602080910402602001604051908101604052809291908181526020018280546109a390611863565b80156109ee5780601f106109c5576101008083540402835291602001916109ee565b820191905f5260205f20905b8154815290600101906020018083116109d157829003601f168201915b505050505090509250925050915091565b610a07610dce565b5f60066001015414610a17575f80fd5b8160065f019081610a289190611bc5565b50806006600101819055505050565b60058181548110610a46575f80fd5b905f5260205f2090600202015f91509050805f018054610a6590611863565b80601f0160208091040260200160405190810160405280929190818152602001828054610a9190611863565b8015610adc5780601f10610ab357610100808354040283529160200191610adc565b820191905f5260205f20905b815481529060010190602001808311610abf57829003601f168201915b505050505090806001015f9054906101000a900460ff16905082565b5f805f90505f5b600480549050811015610b4a5760048181548110610b2057610b1f6117a9565b5b905f5260205f2090600302016002015482610b3b9190611803565b91508080600101915050610aff565b508091505090565b8060128160ff161015610b63575f80fd5b5f60095f3373ffffffffffffffffffffffffffffffffffffffff1673ffffffffffffffffffffffffffffffffffffffff1681526020019081526020015f205414610bab575f80fd5b610bb483610fea565b505050565b5f600480549050905090565b60606004805480602002602001604051908101604052809291908181526020015f905b82821015610d41578382905f5260205f2090600302016040518060600160405290815f82018054610c1890611863565b80601f0160208091040260200160405190810160405280929190818152602001828054610c4490611863565b8015610c8f5780601f10610c6657610100808354040283529160200191610c8f565b820191905f5260205f20905b815481529060010190602001808311610c7257829003601f168201915b50505050508152602001600182018054610ca890611863565b80601f0160208091040260200160405190810160405280929190818152602001828054610cd490611863565b8015610d1f5780601f10610cf657610100808354040283529160200191610d1f565b820191905f5260205f20905b815481529060010190602001808311610d0257829003601f168201915b5050505050815260200160028201548152505081526020019060010190610be8565b50505050905090565b610d52610dce565b5f73ffffffffffffffffffffffffffffffffffffffff168173ffffffffffffffffffffffffffffffffffffffff1603610dc2575f6040517f1e4fbdf7000000000000000000000000000000000000000000000000000000008152600401610db9919061140b565b60405180910390fd5b610dcb81610e55565b50565b610dd66110b4565b73ffffffffffffffffffffffffffffffffffffffff16610df461074c565b73ffffffffffffffffffffffffffffffffffffffff1614610e5357610e176110b4565b6040517f118cdaa7000000000000000000000000000000000000000000000000000000008152600401610e4a919061140b565b60405180910390fd5b565b5f805f9054906101000a900473ffffffffffffffffffffffffffffffffffffffff169050815f806101000a81548173ffffffffffffffffffffffffffffffffffffffff021916908373ffffffffffffffffffffffffffffffffffffffff1602179055508173ffffffffffffffffffffffffffffffffffffffff168173ffffffffffffffffffffffffffffffffffffffff167f8be0079c531659141344cd1fd0a4f28419497f9722a3daafe3b4186f6b6457e060405160405180910390a35050565b8015610f20575f80fd5b6003604051806020016040528084815250908060018154018082558091505060019003905f5260205f20015f909190919091505f820151815f019081610f669190611bc5565b5050505050565b600460405180606001604052808381526020018481526020015f815250908060018154018082558091505060019003905f5260205f2090600302015f909190919091505f820151815f019081610fc39190611bc5565b506020820151816001019081610fd99190611bc5565b506040820151816002015550505050565b600560405180604001604052808381526020015f1515815250908060018154018082558091505060019003905f5260205f2090600202015f909190919091505f820151815f01908161103c9190611bc5565b506020820151816001015f6101000a81548160ff021916908315150217905550505060016005805490506110709190611c94565b60095f3373ffffffffffffffffffffffffffffffffffffffff1673ffffffffffffffffffffffffffffffffffffffff1681526020019081526020015f208190555050565b5f33905090565b5f604051905090565b5f80fd5b5f80fd5b5f819050919050565b6110de816110cc565b81146110e8575f80fd5b50565b5f813590506110f9816110d5565b92915050565b5f60208284031215611114576111136110c4565b5b5f611121848285016110eb565b91505092915050565b5f81519050919050565b5f82825260208201905092915050565b5f5b83811015611161578082015181840152602081019050611146565b5f8484015250505050565b5f601f19601f8301169050919050565b5f6111868261112a565b6111908185611134565b93506111a0818560208601611144565b6111a98161116c565b840191505092915050565b5f6020820190508181035f8301526111cc818461117c565b905092915050565b6111dd816110cc565b82525050565b5f6020820190506111f65f8301846111d4565b92915050565b5f6040820190508181035f830152611214818561117c565b905061122360208301846111d4565b9392505050565b5f80fd5b5f80fd5b7f4e487b71000000000000000000000000000000000000000000000000000000005f52604160045260245ffd5b6112688261116c565b810181811067ffffffffffffffff8211171561128757611286611232565b5b80604052505050565b5f6112996110bb565b90506112a5828261125f565b919050565b5f67ffffffffffffffff8211156112c4576112c3611232565b5b6112cd8261116c565b9050602081019050919050565b828183375f83830152505050565b5f6112fa6112f5846112aa565b611290565b9050828152602081018484840111156113165761131561122e565b5b6113218482856112da565b509392505050565b5f82601f83011261133d5761133c61122a565b5b813561134d8482602086016112e8565b91505092915050565b5f806040838503121561136c5761136b6110c4565b5b5f83013567ffffffffffffffff811115611389576113886110c8565b5b61139585828601611329565b925050602083013567ffffffffffffffff8111156113b6576113b56110c8565b5b6113c285828601611329565b9150509250929050565b5f73ffffffffffffffffffffffffffffffffffffffff82169050919050565b5f6113f5826113cc565b9050919050565b611405816113eb565b82525050565b5f60208201905061141e5f8301846113fc565b92915050565b5f6060820190508181035f83015261143c818661117c565b90508181036020830152611450818561117c565b905061145f60408301846111d4565b949350505050565b5f6040820190508181035f83015261147f818561117c565b90508181036020830152611493818461117c565b90509392505050565b5f80604083850312156114b2576114b16110c4565b5b5f83013567ffffffffffffffff8111156114cf576114ce6110c8565b5b6114db85828601611329565b92505060206114ec858286016110eb565b9150509250929050565b5f8115159050919050565b61150a816114f6565b82525050565b5f6040820190508181035f830152611528818561117c565b90506115376020830184611501565b9392505050565b5f60ff82169050919050565b6115538161153e565b811461155d575f80fd5b50565b5f8135905061156e8161154a565b92915050565b5f806040838503121561158a576115896110c4565b5b5f83013567ffffffffffffffff8111156115a7576115a66110c8565b5b6115b385828601611329565b92505060206115c485828601611560565b9150509250929050565b5f81519050919050565b5f82825260208201905092915050565b5f819050602082019050919050565b5f82825260208201905092915050565b5f6116118261112a565b61161b81856115f7565b935061162b818560208601611144565b6116348161116c565b840191505092915050565b611648816110cc565b82525050565b5f606083015f8301518482035f8601526116688282611607565b915050602083015184820360208601526116828282611607565b9150506040830151611697604086018261163f565b508091505092915050565b5f6116ad838361164e565b905092915050565b5f602082019050919050565b5f6116cb826115ce565b6116d581856115d8565b9350836020820285016116e7856115e8565b805f5b85811015611722578484038952815161170385826116a2565b945061170e836116b5565b925060208a019950506001810190506116ea565b50829750879550505050505092915050565b5f6020820190508181035f83015261174c81846116c1565b905092915050565b61175d816113eb565b8114611767575f80fd5b50565b5f8135905061177881611754565b92915050565b5f60208284031215611793576117926110c4565b5b5f6117a08482850161176a565b91505092915050565b7f4e487b71000000000000000000000000000000000000000000000000000000005f52603260045260245ffd5b7f4e487b71000000000000000000000000000000000000000000000000000000005f52601160045260245ffd5b5f61180d826110cc565b9150611818836110cc565b92508282019050808211156118305761182f6117d6565b5b92915050565b7f4e487b71000000000000000000000000000000000000000000000000000000005f52602260045260245ffd5b5f600282049050600182168061187a57607f821691505b60208210810361188d5761188c611836565b5b50919050565b5f819050815f5260205f209050919050565b5f81546118b181611863565b6118bb8186611134565b9450600182165f81146118d557600181146118eb5761191d565b60ff19831686528115156020028601935061191d565b6118f485611893565b5f5b83811015611915578154818901526001820191506020810190506118f6565b808801955050505b50505092915050565b5f6040820190506119395f8301856111d4565b818103602083015261194b81846118a5565b90509392505050565b5f81905092915050565b5f6119688261112a565b6119728185611954565b9350611982818560208601611144565b80840191505092915050565b5f611999828461195e565b915081905092915050565b5f81546119b081611863565b6119ba8186611954565b9450600182165f81146119d457600181146119e957611a1b565b60ff1983168652811515820286019350611a1b565b6119f285611893565b5f5b83811015611a13578154818901526001820191506020810190506119f4565b838801955050505b50505092915050565b5f611a2f82846119a4565b915081905092915050565b5f6020601f8301049050919050565b5f82821b905092915050565b5f60088302611a847fffffffffffffffffffffffffffffffffffffffffffffffffffffffffffffffff82611a49565b611a8e8683611a49565b95508019841693508086168417925050509392505050565b5f819050919050565b5f611ac9611ac4611abf846110cc565b611aa6565b6110cc565b9050919050565b5f819050919050565b611ae283611aaf565b611af6611aee82611ad0565b848454611a55565b825550505050565b5f90565b611b0a611afe565b611b15818484611ad9565b505050565b5b81811015611b3857611b2d5f82611b02565b600181019050611b1b565b5050565b601f821115611b7d57611b4e81611893565b611b5784611a3a565b81016020851015611b66578190505b611b7a611b7285611a3a565b830182611b1a565b50505b505050565b5f82821c905092915050565b5f611b9d5f1984600802611b82565b1980831691505092915050565b5f611bb58383611b8e565b9150826002028217905092915050565b611bce8261112a565b67ffffffffffffffff811115611be757611be6611232565b5b611bf18254611863565b611bfc828285611b3c565b5f60209050601f831160018114611c2d575f8415611c1b578287015190505b611c258582611baa565b865550611c8c565b601f198416611c3b86611893565b5f5b82811015611c6257848901518255600182019150602085019450602081019050611c3d565b86831015611c7f5784890151611c7b601f891682611b8e565b8355505b6001600288020188555050505b505050505050565b5f611c9e826110cc565b9150611ca9836110cc565b9250828203905081811115611cc157611cc06117d6565b5b9291505056fea26469706673582212206df274f2d005804cf8df5b2b90c96c724201150fe581c663cdd46184692c11bb64736f6c63430008160033",
					"opcodes": "PUSH1 0x80 PUSH1 0x40 MSTORE PUSH2 0x7080 PUSH1 0x1 SSTORE PUSH3 0x15180 PUSH1 0x2 SSTORE CALLVALUE DUP1 ISZERO PUSH3 0x1D JUMPI PUSH0 DUP1 REVERT JUMPDEST POP PUSH1 0x40 MLOAD PUSH3 0x1F5D CODESIZE SUB DUP1 PUSH3 0x1F5D DUP4 CODECOPY DUP2 DUP2 ADD PUSH1 0x40 MSTORE DUP2 ADD SWAP1 PUSH3 0x43 SWAP2 SWAP1 PUSH3 0x1F6 JUMP JUMPDEST DUP1 PUSH0 PUSH20 0xFFFFFFFFFFFFFFFFFFFFFFFFFFFFFFFFFFFFFFFF AND DUP2 PUSH20 0xFFFFFFFFFFFFFFFFFFFFFFFFFFFFFFFFFFFFFFFF AND SUB PUSH3 0xB7 JUMPI PUSH0 PUSH1 0x40 MLOAD PUSH32 0x1E4FBDF700000000000000000000000000000000000000000000000000000000 DUP2 MSTORE PUSH1 0x4 ADD PUSH3 0xAE SWAP2 SWAP1 PUSH3 0x237 JUMP JUMPDEST PUSH1 0x40 MLOAD DUP1 SWAP2 SUB SWAP1 REVERT JUMPDEST PUSH3 0xC8 DUP2 PUSH3 0xD0 PUSH1 0x20 SHL PUSH1 0x20 SHR JUMP JUMPDEST POP POP PUSH3 0x252 JUMP JUMPDEST PUSH0 DUP1 PUSH0 SWAP1 SLOAD SWAP1 PUSH2 0x100 EXP SWAP1 DIV PUSH20 0xFFFFFFFFFFFFFFFFFFFFFFFFFFFFFFFFFFFFFFFF AND SWAP1 POP DUP2 PUSH0 DUP1 PUSH2 0x100 EXP DUP2 SLOAD DUP2 PUSH20 0xFFFFFFFFFFFFFFFFFFFFFFFFFFFFFFFFFFFFFFFF MUL NOT AND SWAP1 DUP4 PUSH20 0xFFFFFFFFFFFFFFFFFFFFFFFFFFFFFFFFFFFFFFFF AND MUL OR SWAP1 SSTORE POP DUP2 PUSH20 0xFFFFFFFFFFFFFFFFFFFFFFFFFFFFFFFFFFFFFFFF AND DUP2 PUSH20 0xFFFFFFFFFFFFFFFFFFFFFFFFFFFFFFFFFFFFFFFF AND PUSH32 0x8BE0079C531659141344CD1FD0A4F28419497F9722A3DAAFE3B4186F6B6457E0 PUSH1 0x40 MLOAD PUSH1 0x40 MLOAD DUP1 SWAP2 SUB SWAP1 LOG3 POP POP JUMP JUMPDEST PUSH0 DUP1 REVERT JUMPDEST PUSH0 PUSH20 0xFFFFFFFFFFFFFFFFFFFFFFFFFFFFFFFFFFFFFFFF DUP3 AND SWAP1 POP SWAP2 SWAP1 POP JUMP JUMPDEST PUSH0 PUSH3 0x1C0 DUP3 PUSH3 0x195 JUMP JUMPDEST SWAP1 POP SWAP2 SWAP1 POP JUMP JUMPDEST PUSH3 0x1D2 DUP2 PUSH3 0x1B4 JUMP JUMPDEST DUP2 EQ PUSH3 0x1DD JUMPI PUSH0 DUP1 REVERT JUMPDEST POP JUMP JUMPDEST PUSH0 DUP2 MLOAD SWAP1 POP PUSH3 0x1F0 DUP2 PUSH3 0x1C7 JUMP JUMPDEST SWAP3 SWAP2 POP POP JUMP JUMPDEST PUSH0 PUSH1 0x20 DUP3 DUP5 SUB SLT ISZERO PUSH3 0x20E JUMPI PUSH3 0x20D PUSH3 0x191 JUMP JUMPDEST JUMPDEST PUSH0 PUSH3 0x21D DUP5 DUP3 DUP6 ADD PUSH3 0x1E0 JUMP JUMPDEST SWAP2 POP POP SWAP3 SWAP2 POP POP JUMP JUMPDEST PUSH3 0x231 DUP2 PUSH3 0x1B4 JUMP JUMPDEST DUP3 MSTORE POP POP JUMP JUMPDEST PUSH0 PUSH1 0x20 DUP3 ADD SWAP1 POP PUSH3 0x24C PUSH0 DUP4 ADD DUP5 PUSH3 0x226 JUMP JUMPDEST SWAP3 SWAP2 POP POP JUMP JUMPDEST PUSH2 0x1CFD DUP1 PUSH3 0x260 PUSH0 CODECOPY PUSH0 RETURN INVALID PUSH1 0x80 PUSH1 0x40 MSTORE CALLVALUE DUP1 ISZERO PUSH2 0xF JUMPI PUSH0 DUP1 REVERT JUMPDEST POP PUSH1 0x4 CALLDATASIZE LT PUSH2 0xFE JUMPI PUSH0 CALLDATALOAD PUSH1 0xE0 SHR DUP1 PUSH4 0x8F6021C3 GT PUSH2 0x95 JUMPI DUP1 PUSH4 0xC1961CEA GT PUSH2 0x64 JUMPI DUP1 PUSH4 0xC1961CEA EQ PUSH2 0x29D JUMPI DUP1 PUSH4 0xE3446174 EQ PUSH2 0x2B9 JUMPI DUP1 PUSH4 0xEE55F11E EQ PUSH2 0x2D7 JUMPI DUP1 PUSH4 0xF2FDE38B EQ PUSH2 0x2F5 JUMPI PUSH2 0xFE JUMP JUMPDEST DUP1 PUSH4 0x8F6021C3 EQ PUSH2 0x201 JUMPI DUP1 PUSH4 0xB0C73513 EQ PUSH2 0x232 JUMPI DUP1 PUSH4 0xB25924C1 EQ PUSH2 0x24E JUMPI DUP1 PUSH4 0xB5E422D4 EQ PUSH2 0x27F JUMPI PUSH2 0xFE JUMP JUMPDEST DUP1 PUSH4 0x715018A6 GT PUSH2 0xD1 JUMPI DUP1 PUSH4 0x715018A6 EQ PUSH2 0x18B JUMPI DUP1 PUSH4 0x89813F84 EQ PUSH2 0x195 JUMPI DUP1 PUSH4 0x8DA5CB5B EQ PUSH2 0x1B1 JUMPI DUP1 PUSH4 0x8F023F85 EQ PUSH2 0x1CF JUMPI PUSH2 0xFE JUMP JUMPDEST DUP1 PUSH4 0xE0864CB EQ PUSH2 0x102 JUMPI DUP1 PUSH4 0x40DEB070 EQ PUSH2 0x11E JUMPI DUP1 PUSH4 0x6BB7AAF5 EQ PUSH2 0x14E JUMPI DUP1 PUSH4 0x6CDF69F0 EQ PUSH2 0x16C JUMPI JUMPDEST PUSH0 DUP1 REVERT JUMPDEST PUSH2 0x11C PUSH1 0x4 DUP1 CALLDATASIZE SUB DUP2 ADD SWAP1 PUSH2 0x117 SWAP2 SWAP1 PUSH2 0x10FF JUMP JUMPDEST PUSH2 0x311 JUMP JUMPDEST STOP JUMPDEST PUSH2 0x138 PUSH1 0x4 DUP1 CALLDATASIZE SUB DUP2 ADD SWAP1 PUSH2 0x133 SWAP2 SWAP1 PUSH2 0x10FF JUMP JUMPDEST PUSH2 0x4FF JUMP JUMPDEST PUSH1 0x40 MLOAD PUSH2 0x145 SWAP2 SWAP1 PUSH2 0x11B4 JUMP JUMPDEST PUSH1 0x40 MLOAD DUP1 SWAP2 SUB SWAP1 RETURN JUMPDEST PUSH2 0x156 PUSH2 0x5AA JUMP JUMPDEST PUSH1 0x40 MLOAD PUSH2 0x163 SWAP2 SWAP1 PUSH2 0x11E3 JUMP JUMPDEST PUSH1 0x40 MLOAD DUP1 SWAP2 SUB SWAP1 RETURN JUMPDEST PUSH2 0x174 PUSH2 0x5EE JUMP JUMPDEST PUSH1 0x40 MLOAD PUSH2 0x182 SWAP3 SWAP2 SWAP1 PUSH2 0x11FC JUMP JUMPDEST PUSH1 0x40 MLOAD DUP1 SWAP2 SUB SWAP1 RETURN JUMPDEST PUSH2 0x193 PUSH2 0x685 JUMP JUMPDEST STOP JUMPDEST PUSH2 0x1AF PUSH1 0x4 DUP1 CALLDATASIZE SUB DUP2 ADD SWAP1 PUSH2 0x1AA SWAP2 SWAP1 PUSH2 0x1356 JUMP JUMPDEST PUSH2 0x698 JUMP JUMPDEST STOP JUMPDEST PUSH2 0x1B9 PUSH2 0x74C JUMP JUMPDEST PUSH1 0x40 MLOAD PUSH2 0x1C6 SWAP2 SWAP1 PUSH2 0x140B JUMP JUMPDEST PUSH1 0x40 MLOAD DUP1 SWAP2 SUB SWAP1 RETURN JUMPDEST PUSH2 0x1E9 PUSH1 0x4 DUP1 CALLDATASIZE SUB DUP2 ADD SWAP1 PUSH2 0x1E4 SWAP2 SWAP1 PUSH2 0x10FF JUMP JUMPDEST PUSH2 0x773 JUMP JUMPDEST PUSH1 0x40 MLOAD PUSH2 0x1F8 SWAP4 SWAP3 SWAP2 SWAP1 PUSH2 0x1424 JUMP JUMPDEST PUSH1 0x40 MLOAD DUP1 SWAP2 SUB SWAP1 RETURN JUMPDEST PUSH2 0x21B PUSH1 0x4 DUP1 CALLDATASIZE SUB DUP2 ADD SWAP1 PUSH2 0x216 SWAP2 SWAP1 PUSH2 0x10FF JUMP JUMPDEST PUSH2 0x8B4 JUMP JUMPDEST PUSH1 0x40 MLOAD PUSH2 0x229 SWAP3 SWAP2 SWAP1 PUSH2 0x1467 JUMP JUMPDEST PUSH1 0x40 MLOAD DUP1 SWAP2 SUB SWAP1 RETURN JUMPDEST PUSH2 0x24C PUSH1 0x4 DUP1 CALLDATASIZE SUB DUP2 ADD SWAP1 PUSH2 0x247 SWAP2 SWAP1 PUSH2 0x149C JUMP JUMPDEST PUSH2 0x9FF JUMP JUMPDEST STOP JUMPDEST PUSH2 0x268 PUSH1 0x4 DUP1 CALLDATASIZE SUB DUP2 ADD SWAP1 PUSH2 0x263 SWAP2 SWAP1 PUSH2 0x10FF JUMP JUMPDEST PUSH2 0xA37 JUMP JUMPDEST PUSH1 0x40 MLOAD PUSH2 0x276 SWAP3 SWAP2 SWAP1 PUSH2 0x1510 JUMP JUMPDEST PUSH1 0x40 MLOAD DUP1 SWAP2 SUB SWAP1 RETURN JUMPDEST PUSH2 0x287 PUSH2 0xAF8 JUMP JUMPDEST PUSH1 0x40 MLOAD PUSH2 0x294 SWAP2 SWAP1 PUSH2 0x11E3 JUMP JUMPDEST PUSH1 0x40 MLOAD DUP1 SWAP2 SUB SWAP1 RETURN JUMPDEST PUSH2 0x2B7 PUSH1 0x4 DUP1 CALLDATASIZE SUB DUP2 ADD SWAP1 PUSH2 0x2B2 SWAP2 SWAP1 PUSH2 0x1574 JUMP JUMPDEST PUSH2 0xB52 JUMP JUMPDEST STOP JUMPDEST PUSH2 0x2C1 PUSH2 0xBB9 JUMP JUMPDEST PUSH1 0x40 MLOAD PUSH2 0x2CE SWAP2 SWAP1 PUSH2 0x11E3 JUMP JUMPDEST PUSH1 0x40 MLOAD DUP1 SWAP2 SUB SWAP1 RETURN JUMPDEST PUSH2 0x2DF PUSH2 0xBC5 JUMP JUMPDEST PUSH1 0x40 MLOAD PUSH2 0x2EC SWAP2 SWAP1 PUSH2 0x1734 JUMP JUMPDEST PUSH1 0x40 MLOAD DUP1 SWAP2 SUB SWAP1 RETURN JUMPDEST PUSH2 0x30F PUSH1 0x4 DUP1 CALLDATASIZE SUB DUP2 ADD SWAP1 PUSH2 0x30A SWAP2 SWAP1 PUSH2 0x177E JUMP JUMPDEST PUSH2 0xD4A JUMP JUMPDEST STOP JUMPDEST PUSH0 PUSH1 0x9 PUSH0 CALLER PUSH20 0xFFFFFFFFFFFFFFFFFFFFFFFFFFFFFFFFFFFFFFFF AND PUSH20 0xFFFFFFFFFFFFFFFFFFFFFFFFFFFFFFFFFFFFFFFF AND DUP2 MSTORE PUSH1 0x20 ADD SWAP1 DUP2 MSTORE PUSH1 0x20 ADD PUSH0 KECCAK256 SLOAD SWAP1 POP PUSH0 PUSH1 0x5 DUP3 DUP2 SLOAD DUP2 LT PUSH2 0x367 JUMPI PUSH2 0x366 PUSH2 0x17A9 JUMP JUMPDEST JUMPDEST SWAP1 PUSH0 MSTORE PUSH1 0x20 PUSH0 KECCAK256 SWAP1 PUSH1 0x2 MUL ADD PUSH1 0x1 ADD PUSH0 SWAP1 SLOAD SWAP1 PUSH2 0x100 EXP SWAP1 DIV PUSH1 0xFF AND PUSH2 0x409 JUMPI PUSH1 0x1 SWAP1 POP DUP3 PUSH1 0x8 PUSH0 CALLER PUSH20 0xFFFFFFFFFFFFFFFFFFFFFFFFFFFFFFFFFFFFFFFF AND PUSH20 0xFFFFFFFFFFFFFFFFFFFFFFFFFFFFFFFFFFFFFFFF AND DUP2 MSTORE PUSH1 0x20 ADD SWAP1 DUP2 MSTORE PUSH1 0x20 ADD PUSH0 KECCAK256 DUP2 SWAP1 SSTORE POP PUSH1 0x1 PUSH1 0x5 DUP4 DUP2 SLOAD DUP2 LT PUSH2 0x3E3 JUMPI PUSH2 0x3E2 PUSH2 0x17A9 JUMP JUMPDEST JUMPDEST SWAP1 PUSH0 MSTORE PUSH1 0x20 PUSH0 KECCAK256 SWAP1 PUSH1 0x2 MUL ADD PUSH1 0x1 ADD PUSH0 PUSH2 0x100 EXP DUP2 SLOAD DUP2 PUSH1 0xFF MUL NOT AND SWAP1 DUP4 ISZERO ISZERO MUL OR SWAP1 SSTORE POP JUMPDEST PUSH0 PUSH1 0x4 PUSH1 0x8 PUSH0 CALLER PUSH20 0xFFFFFFFFFFFFFFFFFFFFFFFFFFFFFFFFFFFFFFFF AND PUSH20 0xFFFFFFFFFFFFFFFFFFFFFFFFFFFFFFFFFFFFFFFF AND DUP2 MSTORE PUSH1 0x20 ADD SWAP1 DUP2 MSTORE PUSH1 0x20 ADD PUSH0 KECCAK256 SLOAD DUP2 SLOAD DUP2 LT PUSH2 0x45B JUMPI PUSH2 0x45A PUSH2 0x17A9 JUMP JUMPDEST JUMPDEST SWAP1 PUSH0 MSTORE PUSH1 0x20 PUSH0 KECCAK256 SWAP1 PUSH1 0x3 MUL ADD SWAP1 POP DUP2 DUP2 PUSH1 0x2 ADD SLOAD PUSH2 0x479 SWAP2 SWAP1 PUSH2 0x1803 JUMP JUMPDEST DUP2 PUSH1 0x2 ADD DUP2 SWAP1 SSTORE POP PUSH32 0xD5F7CB52613A2BACD6E90C181D02D8EB3D9236BDB28D47EDF16FE7C8FF2E39A3 PUSH1 0x8 PUSH0 CALLER PUSH20 0xFFFFFFFFFFFFFFFFFFFFFFFFFFFFFFFFFFFFFFFF AND PUSH20 0xFFFFFFFFFFFFFFFFFFFFFFFFFFFFFFFFFFFFFFFF AND DUP2 MSTORE PUSH1 0x20 ADD SWAP1 DUP2 MSTORE PUSH1 0x20 ADD PUSH0 KECCAK256 SLOAD DUP3 PUSH0 ADD PUSH1 0x40 MLOAD PUSH2 0x4F1 SWAP3 SWAP2 SWAP1 PUSH2 0x1926 JUMP JUMPDEST PUSH1 0x40 MLOAD DUP1 SWAP2 SUB SWAP1 LOG1 POP POP POP POP JUMP JUMPDEST PUSH1 0x3 DUP2 DUP2 SLOAD DUP2 LT PUSH2 0x50E JUMPI PUSH0 DUP1 REVERT JUMPDEST SWAP1 PUSH0 MSTORE PUSH1 0x20 PUSH0 KECCAK256 ADD PUSH0 SWAP2 POP SWAP1 POP DUP1 PUSH0 ADD DUP1 SLOAD PUSH2 0x529 SWAP1 PUSH2 0x1863 JUMP JUMPDEST DUP1 PUSH1 0x1F ADD PUSH1 0x20 DUP1 SWAP2 DIV MUL PUSH1 0x20 ADD PUSH1 0x40 MLOAD SWAP1 DUP2 ADD PUSH1 0x40 MSTORE DUP1 SWAP3 SWAP2 SWAP1 DUP2 DUP2 MSTORE PUSH1 0x20 ADD DUP3 DUP1 SLOAD PUSH2 0x555 SWAP1 PUSH2 0x1863 JUMP JUMPDEST DUP1 ISZERO PUSH2 0x5A0 JUMPI DUP1 PUSH1 0x1F LT PUSH2 0x577 JUMPI PUSH2 0x100 DUP1 DUP4 SLOAD DIV MUL DUP4 MSTORE SWAP2 PUSH1 0x20 ADD SWAP2 PUSH2 0x5A0 JUMP JUMPDEST DUP3 ADD SWAP2 SWAP1 PUSH0 MSTORE PUSH1 0x20 PUSH0 KECCAK256 SWAP1 JUMPDEST DUP2 SLOAD DUP2 MSTORE SWAP1 PUSH1 0x1 ADD SWAP1 PUSH1 0x20 ADD DUP1 DUP4 GT PUSH2 0x583 JUMPI DUP3 SWAP1 SUB PUSH1 0x1F AND DUP3 ADD SWAP2 JUMPDEST POP POP POP POP POP SWAP1 POP DUP2 JUMP JUMPDEST PUSH0 PUSH1 0x8 PUSH0 CALLER PUSH20 0xFFFFFFFFFFFFFFFFFFFFFFFFFFFFFFFFFFFFFFFF AND PUSH20 0xFFFFFFFFFFFFFFFFFFFFFFFFFFFFFFFFFFFFFFFF AND DUP2 MSTORE PUSH1 0x20 ADD SWAP1 DUP2 MSTORE PUSH1 0x20 ADD PUSH0 KECCAK256 SLOAD SWAP1 POP SWAP1 JUMP JUMPDEST PUSH1 0x6 DUP1 PUSH0 ADD DUP1 SLOAD PUSH2 0x5FE SWAP1 PUSH2 0x1863 JUMP JUMPDEST DUP1 PUSH1 0x1F ADD PUSH1 0x20 DUP1 SWAP2 DIV MUL PUSH1 0x20 ADD PUSH1 0x40 MLOAD SWAP1 DUP2 ADD PUSH1 0x40 MSTORE DUP1 SWAP3 SWAP2 SWAP1 DUP2 DUP2 MSTORE PUSH1 0x20 ADD DUP3 DUP1 SLOAD PUSH2 0x62A SWAP1 PUSH2 0x1863 JUMP JUMPDEST DUP1 ISZERO PUSH2 0x675 JUMPI DUP1 PUSH1 0x1F LT PUSH2 0x64C JUMPI PUSH2 0x100 DUP1 DUP4 SLOAD DIV MUL DUP4 MSTORE SWAP2 PUSH1 0x20 ADD SWAP2 PUSH2 0x675 JUMP JUMPDEST DUP3 ADD SWAP2 SWAP1 PUSH0 MSTORE PUSH1 0x20 PUSH0 KECCAK256 SWAP1 JUMPDEST DUP2 SLOAD DUP2 MSTORE SWAP1 PUSH1 0x1 ADD SWAP1 PUSH1 0x20 ADD DUP1 DUP4 GT PUSH2 0x658 JUMPI DUP3 SWAP1 SUB PUSH1 0x1F AND DUP3 ADD SWAP2 JUMPDEST POP POP POP POP POP SWAP1 DUP1 PUSH1 0x1 ADD SLOAD SWAP1 POP DUP3 JUMP JUMPDEST PUSH2 0x68D PUSH2 0xDCE JUMP JUMPDEST PUSH2 0x696 PUSH0 PUSH2 0xE55 JUMP JUMPDEST JUMP JUMPDEST PUSH2 0x6A0 PUSH2 0xDCE JUMP JUMPDEST PUSH0 DUP1 JUMPDEST PUSH1 0x3 DUP1 SLOAD SWAP1 POP DUP2 LT ISZERO PUSH2 0x732 JUMPI DUP4 PUSH1 0x40 MLOAD PUSH1 0x20 ADD PUSH2 0x6C1 SWAP2 SWAP1 PUSH2 0x198E JUMP JUMPDEST PUSH1 0x40 MLOAD PUSH1 0x20 DUP2 DUP4 SUB SUB DUP2 MSTORE SWAP1 PUSH1 0x40 MSTORE DUP1 MLOAD SWAP1 PUSH1 0x20 ADD KECCAK256 PUSH1 0x3 DUP3 DUP2 SLOAD DUP2 LT PUSH2 0x6EB JUMPI PUSH2 0x6EA PUSH2 0x17A9 JUMP JUMPDEST JUMPDEST SWAP1 PUSH0 MSTORE PUSH1 0x20 PUSH0 KECCAK256 ADD PUSH0 ADD PUSH1 0x40 MLOAD PUSH1 0x20 ADD PUSH2 0x705 SWAP2 SWAP1 PUSH2 0x1A24 JUMP JUMPDEST PUSH1 0x40 MLOAD PUSH1 0x20 DUP2 DUP4 SUB SUB DUP2 MSTORE SWAP1 PUSH1 0x40 MSTORE DUP1 MLOAD SWAP1 PUSH1 0x20 ADD KECCAK256 SUB PUSH2 0x725 JUMPI PUSH1 0x1 SWAP2 POP JUMPDEST DUP1 DUP1 PUSH1 0x1 ADD SWAP2 POP POP PUSH2 0x6A3 JUMP JUMPDEST POP PUSH2 0x73D DUP4 DUP3 PUSH2 0xF16 JUMP JUMPDEST PUSH2 0x747 DUP4 DUP4 PUSH2 0xF6D JUMP JUMPDEST POP POP POP JUMP JUMPDEST PUSH0 DUP1 PUSH0 SWAP1 SLOAD SWAP1 PUSH2 0x100 EXP SWAP1 DIV PUSH20 0xFFFFFFFFFFFFFFFFFFFFFFFFFFFFFFFFFFFFFFFF AND SWAP1 POP SWAP1 JUMP JUMPDEST PUSH1 0x4 DUP2 DUP2 SLOAD DUP2 LT PUSH2 0x782 JUMPI PUSH0 DUP1 REVERT JUMPDEST SWAP1 PUSH0 MSTORE PUSH1 0x20 PUSH0 KECCAK256 SWAP1 PUSH1 0x3 MUL ADD PUSH0 SWAP2 POP SWAP1 POP DUP1 PUSH0 ADD DUP1 SLOAD PUSH2 0x7A1 SWAP1 PUSH2 0x1863 JUMP JUMPDEST DUP1 PUSH1 0x1F ADD PUSH1 0x20 DUP1 SWAP2 DIV MUL PUSH1 0x20 ADD PUSH1 0x40 MLOAD SWAP1 DUP2 ADD PUSH1 0x40 MSTORE DUP1 SWAP3 SWAP2 SWAP1 DUP2 DUP2 MSTORE PUSH1 0x20 ADD DUP3 DUP1 SLOAD PUSH2 0x7CD SWAP1 PUSH2 0x1863 JUMP JUMPDEST DUP1 ISZERO PUSH2 0x818 JUMPI DUP1 PUSH1 0x1F LT PUSH2 0x7EF JUMPI PUSH2 0x100 DUP1 DUP4 SLOAD DIV MUL DUP4 MSTORE SWAP2 PUSH1 0x20 ADD SWAP2 PUSH2 0x818 JUMP JUMPDEST DUP3 ADD SWAP2 SWAP1 PUSH0 MSTORE PUSH1 0x20 PUSH0 KECCAK256 SWAP1 JUMPDEST DUP2 SLOAD DUP2 MSTORE SWAP1 PUSH1 0x1 ADD SWAP1 PUSH1 0x20 ADD DUP1 DUP4 GT PUSH2 0x7FB JUMPI DUP3 SWAP1 SUB PUSH1 0x1F AND DUP3 ADD SWAP2 JUMPDEST POP POP POP POP POP SWAP1 DUP1 PUSH1 0x1 ADD DUP1 SLOAD PUSH2 0x82D SWAP1 PUSH2 0x1863 JUMP JUMPDEST DUP1 PUSH1 0x1F ADD PUSH1 0x20 DUP1 SWAP2 DIV MUL PUSH1 0x20 ADD PUSH1 0x40 MLOAD SWAP1 DUP2 ADD PUSH1 0x40 MSTORE DUP1 SWAP3 SWAP2 SWAP1 DUP2 DUP2 MSTORE PUSH1 0x20 ADD DUP3 DUP1 SLOAD PUSH2 0x859 SWAP1 PUSH2 0x1863 JUMP JUMPDEST DUP1 ISZERO PUSH2 0x8A4 JUMPI DUP1 PUSH1 0x1F LT PUSH2 0x87B JUMPI PUSH2 0x100 DUP1 DUP4 SLOAD DIV MUL DUP4 MSTORE SWAP2 PUSH1 0x20 ADD SWAP2 PUSH2 0x8A4 JUMP JUMPDEST DUP3 ADD SWAP2 SWAP1 PUSH0 MSTORE PUSH1 0x20 PUSH0 KECCAK256 SWAP1 JUMPDEST DUP2 SLOAD DUP2 MSTORE SWAP1 PUSH1 0x1 ADD SWAP1 PUSH1 0x20 ADD DUP1 DUP4 GT PUSH2 0x887 JUMPI DUP3 SWAP1 SUB PUSH1 0x1F AND DUP3 ADD SWAP2 JUMPDEST POP POP POP POP POP SWAP1 DUP1 PUSH1 0x2 ADD SLOAD SWAP1 POP DUP4 JUMP JUMPDEST PUSH1 0x60 DUP1 PUSH0 PUSH1 0x4 DUP5 DUP2 SLOAD DUP2 LT PUSH2 0x8CC JUMPI PUSH2 0x8CB PUSH2 0x17A9 JUMP JUMPDEST JUMPDEST SWAP1 PUSH0 MSTORE PUSH1 0x20 PUSH0 KECCAK256 SWAP1 PUSH1 0x3 MUL ADD SWAP1 POP DUP1 PUSH0 ADD DUP2 PUSH1 0x1 ADD DUP2 DUP1 SLOAD PUSH2 0x8ED SWAP1 PUSH2 0x1863 JUMP JUMPDEST DUP1 PUSH1 0x1F ADD PUSH1 0x20 DUP1 SWAP2 DIV MUL PUSH1 0x20 ADD PUSH1 0x40 MLOAD SWAP1 DUP2 ADD PUSH1 0x40 MSTORE DUP1 SWAP3 SWAP2 SWAP1 DUP2 DUP2 MSTORE PUSH1 0x20 ADD DUP3 DUP1 SLOAD PUSH2 0x919 SWAP1 PUSH2 0x1863 JUMP JUMPDEST DUP1 ISZERO PUSH2 0x964 JUMPI DUP1 PUSH1 0x1F LT PUSH2 0x93B JUMPI PUSH2 0x100 DUP1 DUP4 SLOAD DIV MUL DUP4 MSTORE SWAP2 PUSH1 0x20 ADD SWAP2 PUSH2 0x964 JUMP JUMPDEST DUP3 ADD SWAP2 SWAP1 PUSH0 MSTORE PUSH1 0x20 PUSH0 KECCAK256 SWAP1 JUMPDEST DUP2 SLOAD DUP2 MSTORE SWAP1 PUSH1 0x1 ADD SWAP1 PUSH1 0x20 ADD DUP1 DUP4 GT PUSH2 0x947 JUMPI DUP3 SWAP1 SUB PUSH1 0x1F AND DUP3 ADD SWAP2 JUMPDEST POP POP POP POP POP SWAP2 POP DUP1 DUP1 SLOAD PUSH2 0x977 SWAP1 PUSH2 0x1863 JUMP JUMPDEST DUP1 PUSH1 0x1F ADD PUSH1 0x20 DUP1 SWAP2 DIV MUL PUSH1 0x20 ADD PUSH1 0x40 MLOAD SWAP1 DUP2 ADD PUSH1 0x40 MSTORE DUP1 SWAP3 SWAP2 SWAP1 DUP2 DUP2 MSTORE PUSH1 0x20 ADD DUP3 DUP1 SLOAD PUSH2 0x9A3 SWAP1 PUSH2 0x1863 JUMP JUMPDEST DUP1 ISZERO PUSH2 0x9EE JUMPI DUP1 PUSH1 0x1F LT PUSH2 0x9C5 JUMPI PUSH2 0x100 DUP1 DUP4 SLOAD DIV MUL DUP4 MSTORE SWAP2 PUSH1 0x20 ADD SWAP2 PUSH2 0x9EE JUMP JUMPDEST DUP3 ADD SWAP2 SWAP1 PUSH0 MSTORE PUSH1 0x20 PUSH0 KECCAK256 SWAP1 JUMPDEST DUP2 SLOAD DUP2 MSTORE SWAP1 PUSH1 0x1 ADD SWAP1 PUSH1 0x20 ADD DUP1 DUP4 GT PUSH2 0x9D1 JUMPI DUP3 SWAP1 SUB PUSH1 0x1F AND DUP3 ADD SWAP2 JUMPDEST POP POP POP POP POP SWAP1 POP SWAP3 POP SWAP3 POP POP SWAP2 POP SWAP2 JUMP JUMPDEST PUSH2 0xA07 PUSH2 0xDCE JUMP JUMPDEST PUSH0 PUSH1 0x6 PUSH1 0x1 ADD SLOAD EQ PUSH2 0xA17 JUMPI PUSH0 DUP1 REVERT JUMPDEST DUP2 PUSH1 0x6 PUSH0 ADD SWAP1 DUP2 PUSH2 0xA28 SWAP2 SWAP1 PUSH2 0x1BC5 JUMP JUMPDEST POP DUP1 PUSH1 0x6 PUSH1 0x1 ADD DUP2 SWAP1 SSTORE POP POP POP JUMP JUMPDEST PUSH1 0x5 DUP2 DUP2 SLOAD DUP2 LT PUSH2 0xA46 JUMPI PUSH0 DUP1 REVERT JUMPDEST SWAP1 PUSH0 MSTORE PUSH1 0x20 PUSH0 KECCAK256 SWAP1 PUSH1 0x2 MUL ADD PUSH0 SWAP2 POP SWAP1 POP DUP1 PUSH0 ADD DUP1 SLOAD PUSH2 0xA65 SWAP1 PUSH2 0x1863 JUMP JUMPDEST DUP1 PUSH1 0x1F ADD PUSH1 0x20 DUP1 SWAP2 DIV MUL PUSH1 0x20 ADD PUSH1 0x40 MLOAD SWAP1 DUP2 ADD PUSH1 0x40 MSTORE DUP1 SWAP3 SWAP2 SWAP1 DUP2 DUP2 MSTORE PUSH1 0x20 ADD DUP3 DUP1 SLOAD PUSH2 0xA91 SWAP1 PUSH2 0x1863 JUMP JUMPDEST DUP1 ISZERO PUSH2 0xADC JUMPI DUP1 PUSH1 0x1F LT PUSH2 0xAB3 JUMPI PUSH2 0x100 DUP1 DUP4 SLOAD DIV MUL DUP4 MSTORE SWAP2 PUSH1 0x20 ADD SWAP2 PUSH2 0xADC JUMP JUMPDEST DUP3 ADD SWAP2 SWAP1 PUSH0 MSTORE PUSH1 0x20 PUSH0 KECCAK256 SWAP1 JUMPDEST DUP2 SLOAD DUP2 MSTORE SWAP1 PUSH1 0x1 ADD SWAP1 PUSH1 0x20 ADD DUP1 DUP4 GT PUSH2 0xABF JUMPI DUP3 SWAP1 SUB PUSH1 0x1F AND DUP3 ADD SWAP2 JUMPDEST POP POP POP POP POP SWAP1 DUP1 PUSH1 0x1 ADD PUSH0 SWAP1 SLOAD SWAP1 PUSH2 0x100 EXP SWAP1 DIV PUSH1 0xFF AND SWAP1 POP DUP3 JUMP JUMPDEST PUSH0 DUP1 PUSH0 SWAP1 POP PUSH0 JUMPDEST PUSH1 0x4 DUP1 SLOAD SWAP1 POP DUP2 LT ISZERO PUSH2 0xB4A JUMPI PUSH1 0x4 DUP2 DUP2 SLOAD DUP2 LT PUSH2 0xB20 JUMPI PUSH2 0xB1F PUSH2 0x17A9 JUMP JUMPDEST JUMPDEST SWAP1 PUSH0 MSTORE PUSH1 0x20 PUSH0 KECCAK256 SWAP1 PUSH1 0x3 MUL ADD PUSH1 0x2 ADD SLOAD DUP3 PUSH2 0xB3B SWAP2 SWAP1 PUSH2 0x1803 JUMP JUMPDEST SWAP2 POP DUP1 DUP1 PUSH1 0x1 ADD SWAP2 POP POP PUSH2 0xAFF JUMP JUMPDEST POP DUP1 SWAP2 POP POP SWAP1 JUMP JUMPDEST DUP1 PUSH1 0x12 DUP2 PUSH1 0xFF AND LT ISZERO PUSH2 0xB63 JUMPI PUSH0 DUP1 REVERT JUMPDEST PUSH0 PUSH1 0x9 PUSH0 CALLER PUSH20 0xFFFFFFFFFFFFFFFFFFFFFFFFFFFFFFFFFFFFFFFF AND PUSH20 0xFFFFFFFFFFFFFFFFFFFFFFFFFFFFFFFFFFFFFFFF AND DUP2 MSTORE PUSH1 0x20 ADD SWAP1 DUP2 MSTORE PUSH1 0x20 ADD PUSH0 KECCAK256 SLOAD EQ PUSH2 0xBAB JUMPI PUSH0 DUP1 REVERT JUMPDEST PUSH2 0xBB4 DUP4 PUSH2 0xFEA JUMP JUMPDEST POP POP POP JUMP JUMPDEST PUSH0 PUSH1 0x4 DUP1 SLOAD SWAP1 POP SWAP1 POP SWAP1 JUMP JUMPDEST PUSH1 0x60 PUSH1 0x4 DUP1 SLOAD DUP1 PUSH1 0x20 MUL PUSH1 0x20 ADD PUSH1 0x40 MLOAD SWAP1 DUP2 ADD PUSH1 0x40 MSTORE DUP1 SWAP3 SWAP2 SWAP1 DUP2 DUP2 MSTORE PUSH1 0x20 ADD PUSH0 SWAP1 JUMPDEST DUP3 DUP3 LT ISZERO PUSH2 0xD41 JUMPI DUP4 DUP3 SWAP1 PUSH0 MSTORE PUSH1 0x20 PUSH0 KECCAK256 SWAP1 PUSH1 0x3 MUL ADD PUSH1 0x40 MLOAD DUP1 PUSH1 0x60 ADD PUSH1 0x40 MSTORE SWAP1 DUP2 PUSH0 DUP3 ADD DUP1 SLOAD PUSH2 0xC18 SWAP1 PUSH2 0x1863 JUMP JUMPDEST DUP1 PUSH1 0x1F ADD PUSH1 0x20 DUP1 SWAP2 DIV MUL PUSH1 0x20 ADD PUSH1 0x40 MLOAD SWAP1 DUP2 ADD PUSH1 0x40 MSTORE DUP1 SWAP3 SWAP2 SWAP1 DUP2 DUP2 MSTORE PUSH1 0x20 ADD DUP3 DUP1 SLOAD PUSH2 0xC44 SWAP1 PUSH2 0x1863 JUMP JUMPDEST DUP1 ISZERO PUSH2 0xC8F JUMPI DUP1 PUSH1 0x1F LT PUSH2 0xC66 JUMPI PUSH2 0x100 DUP1 DUP4 SLOAD DIV MUL DUP4 MSTORE SWAP2 PUSH1 0x20 ADD SWAP2 PUSH2 0xC8F JUMP JUMPDEST DUP3 ADD SWAP2 SWAP1 PUSH0 MSTORE PUSH1 0x20 PUSH0 KECCAK256 SWAP1 JUMPDEST DUP2 SLOAD DUP2 MSTORE SWAP1 PUSH1 0x1 ADD SWAP1 PUSH1 0x20 ADD DUP1 DUP4 GT PUSH2 0xC72 JUMPI DUP3 SWAP1 SUB PUSH1 0x1F AND DUP3 ADD SWAP2 JUMPDEST POP POP POP POP POP DUP2 MSTORE PUSH1 0x20 ADD PUSH1 0x1 DUP3 ADD DUP1 SLOAD PUSH2 0xCA8 SWAP1 PUSH2 0x1863 JUMP JUMPDEST DUP1 PUSH1 0x1F ADD PUSH1 0x20 DUP1 SWAP2 DIV MUL PUSH1 0x20 ADD PUSH1 0x40 MLOAD SWAP1 DUP2 ADD PUSH1 0x40 MSTORE DUP1 SWAP3 SWAP2 SWAP1 DUP2 DUP2 MSTORE PUSH1 0x20 ADD DUP3 DUP1 SLOAD PUSH2 0xCD4 SWAP1 PUSH2 0x1863 JUMP JUMPDEST DUP1 ISZERO PUSH2 0xD1F JUMPI DUP1 PUSH1 0x1F LT PUSH2 0xCF6 JUMPI PUSH2 0x100 DUP1 DUP4 SLOAD DIV MUL DUP4 MSTORE SWAP2 PUSH1 0x20 ADD SWAP2 PUSH2 0xD1F JUMP JUMPDEST DUP3 ADD SWAP2 SWAP1 PUSH0 MSTORE PUSH1 0x20 PUSH0 KECCAK256 SWAP1 JUMPDEST DUP2 SLOAD DUP2 MSTORE SWAP1 PUSH1 0x1 ADD SWAP1 PUSH1 0x20 ADD DUP1 DUP4 GT PUSH2 0xD02 JUMPI DUP3 SWAP1 SUB PUSH1 0x1F AND DUP3 ADD SWAP2 JUMPDEST POP POP POP POP POP DUP2 MSTORE PUSH1 0x20 ADD PUSH1 0x2 DUP3 ADD SLOAD DUP2 MSTORE POP POP DUP2 MSTORE PUSH1 0x20 ADD SWAP1 PUSH1 0x1 ADD SWAP1 PUSH2 0xBE8 JUMP JUMPDEST POP POP POP POP SWAP1 POP SWAP1 JUMP JUMPDEST PUSH2 0xD52 PUSH2 0xDCE JUMP JUMPDEST PUSH0 PUSH20 0xFFFFFFFFFFFFFFFFFFFFFFFFFFFFFFFFFFFFFFFF AND DUP2 PUSH20 0xFFFFFFFFFFFFFFFFFFFFFFFFFFFFFFFFFFFFFFFF AND SUB PUSH2 0xDC2 JUMPI PUSH0 PUSH1 0x40 MLOAD PUSH32 0x1E4FBDF700000000000000000000000000000000000000000000000000000000 DUP2 MSTORE PUSH1 0x4 ADD PUSH2 0xDB9 SWAP2 SWAP1 PUSH2 0x140B JUMP JUMPDEST PUSH1 0x40 MLOAD DUP1 SWAP2 SUB SWAP1 REVERT JUMPDEST PUSH2 0xDCB DUP2 PUSH2 0xE55 JUMP JUMPDEST POP JUMP JUMPDEST PUSH2 0xDD6 PUSH2 0x10B4 JUMP JUMPDEST PUSH20 0xFFFFFFFFFFFFFFFFFFFFFFFFFFFFFFFFFFFFFFFF AND PUSH2 0xDF4 PUSH2 0x74C JUMP JUMPDEST PUSH20 0xFFFFFFFFFFFFFFFFFFFFFFFFFFFFFFFFFFFFFFFF AND EQ PUSH2 0xE53 JUMPI PUSH2 0xE17 PUSH2 0x10B4 JUMP JUMPDEST PUSH1 0x40 MLOAD PUSH32 0x118CDAA700000000000000000000000000000000000000000000000000000000 DUP2 MSTORE PUSH1 0x4 ADD PUSH2 0xE4A SWAP2 SWAP1 PUSH2 0x140B JUMP JUMPDEST PUSH1 0x40 MLOAD DUP1 SWAP2 SUB SWAP1 REVERT JUMPDEST JUMP JUMPDEST PUSH0 DUP1 PUSH0 SWAP1 SLOAD SWAP1 PUSH2 0x100 EXP SWAP1 DIV PUSH20 0xFFFFFFFFFFFFFFFFFFFFFFFFFFFFFFFFFFFFFFFF AND SWAP1 POP DUP2 PUSH0 DUP1 PUSH2 0x100 EXP DUP2 SLOAD DUP2 PUSH20 0xFFFFFFFFFFFFFFFFFFFFFFFFFFFFFFFFFFFFFFFF MUL NOT AND SWAP1 DUP4 PUSH20 0xFFFFFFFFFFFFFFFFFFFFFFFFFFFFFFFFFFFFFFFF AND MUL OR SWAP1 SSTORE POP DUP2 PUSH20 0xFFFFFFFFFFFFFFFFFFFFFFFFFFFFFFFFFFFFFFFF AND DUP2 PUSH20 0xFFFFFFFFFFFFFFFFFFFFFFFFFFFFFFFFFFFFFFFF AND PUSH32 0x8BE0079C531659141344CD1FD0A4F28419497F9722A3DAAFE3B4186F6B6457E0 PUSH1 0x40 MLOAD PUSH1 0x40 MLOAD DUP1 SWAP2 SUB SWAP1 LOG3 POP POP JUMP JUMPDEST DUP1 ISZERO PUSH2 0xF20 JUMPI PUSH0 DUP1 REVERT JUMPDEST PUSH1 0x3 PUSH1 0x40 MLOAD DUP1 PUSH1 0x20 ADD PUSH1 0x40 MSTORE DUP1 DUP5 DUP2 MSTORE POP SWAP1 DUP1 PUSH1 0x1 DUP2 SLOAD ADD DUP1 DUP3 SSTORE DUP1 SWAP2 POP POP PUSH1 0x1 SWAP1 SUB SWAP1 PUSH0 MSTORE PUSH1 0x20 PUSH0 KECCAK256 ADD PUSH0 SWAP1 SWAP2 SWAP1 SWAP2 SWAP1 SWAP2 POP PUSH0 DUP3 ADD MLOAD DUP2 PUSH0 ADD SWAP1 DUP2 PUSH2 0xF66 SWAP2 SWAP1 PUSH2 0x1BC5 JUMP JUMPDEST POP POP POP POP POP JUMP JUMPDEST PUSH1 0x4 PUSH1 0x40 MLOAD DUP1 PUSH1 0x60 ADD PUSH1 0x40 MSTORE DUP1 DUP4 DUP2 MSTORE PUSH1 0x20 ADD DUP5 DUP2 MSTORE PUSH1 0x20 ADD PUSH0 DUP2 MSTORE POP SWAP1 DUP1 PUSH1 0x1 DUP2 SLOAD ADD DUP1 DUP3 SSTORE DUP1 SWAP2 POP POP PUSH1 0x1 SWAP1 SUB SWAP1 PUSH0 MSTORE PUSH1 0x20 PUSH0 KECCAK256 SWAP1 PUSH1 0x3 MUL ADD PUSH0 SWAP1 SWAP2 SWAP1 SWAP2 SWAP1 SWAP2 POP PUSH0 DUP3 ADD MLOAD DUP2 PUSH0 ADD SWAP1 DUP2 PUSH2 0xFC3 SWAP2 SWAP1 PUSH2 0x1BC5 JUMP JUMPDEST POP PUSH1 0x20 DUP3 ADD MLOAD DUP2 PUSH1 0x1 ADD SWAP1 DUP2 PUSH2 0xFD9 SWAP2 SWAP1 PUSH2 0x1BC5 JUMP JUMPDEST POP PUSH1 0x40 DUP3 ADD MLOAD DUP2 PUSH1 0x2 ADD SSTORE POP POP POP POP JUMP JUMPDEST PUSH1 0x5 PUSH1 0x40 MLOAD DUP1 PUSH1 0x40 ADD PUSH1 0x40 MSTORE DUP1 DUP4 DUP2 MSTORE PUSH1 0x20 ADD PUSH0 ISZERO ISZERO DUP2 MSTORE POP SWAP1 DUP1 PUSH1 0x1 DUP2 SLOAD ADD DUP1 DUP3 SSTORE DUP1 SWAP2 POP POP PUSH1 0x1 SWAP1 SUB SWAP1 PUSH0 MSTORE PUSH1 0x20 PUSH0 KECCAK256 SWAP1 PUSH1 0x2 MUL ADD PUSH0 SWAP1 SWAP2 SWAP1 SWAP2 SWAP1 SWAP2 POP PUSH0 DUP3 ADD MLOAD DUP2 PUSH0 ADD SWAP1 DUP2 PUSH2 0x103C SWAP2 SWAP1 PUSH2 0x1BC5 JUMP JUMPDEST POP PUSH1 0x20 DUP3 ADD MLOAD DUP2 PUSH1 0x1 ADD PUSH0 PUSH2 0x100 EXP DUP2 SLOAD DUP2 PUSH1 0xFF MUL NOT AND SWAP1 DUP4 ISZERO ISZERO MUL OR SWAP1 SSTORE POP POP POP PUSH1 0x1 PUSH1 0x5 DUP1 SLOAD SWAP1 POP PUSH2 0x1070 SWAP2 SWAP1 PUSH2 0x1C94 JUMP JUMPDEST PUSH1 0x9 PUSH0 CALLER PUSH20 0xFFFFFFFFFFFFFFFFFFFFFFFFFFFFFFFFFFFFFFFF AND PUSH20 0xFFFFFFFFFFFFFFFFFFFFFFFFFFFFFFFFFFFFFFFF AND DUP2 MSTORE PUSH1 0x20 ADD SWAP1 DUP2 MSTORE PUSH1 0x20 ADD PUSH0 KECCAK256 DUP2 SWAP1 SSTORE POP POP JUMP JUMPDEST PUSH0 CALLER SWAP1 POP SWAP1 JUMP JUMPDEST PUSH0 PUSH1 0x40 MLOAD SWAP1 POP SWAP1 JUMP JUMPDEST PUSH0 DUP1 REVERT JUMPDEST PUSH0 DUP1 REVERT JUMPDEST PUSH0 DUP2 SWAP1 POP SWAP2 SWAP1 POP JUMP JUMPDEST PUSH2 0x10DE DUP2 PUSH2 0x10CC JUMP JUMPDEST DUP2 EQ PUSH2 0x10E8 JUMPI PUSH0 DUP1 REVERT JUMPDEST POP JUMP JUMPDEST PUSH0 DUP2 CALLDATALOAD SWAP1 POP PUSH2 0x10F9 DUP2 PUSH2 0x10D5 JUMP JUMPDEST SWAP3 SWAP2 POP POP JUMP JUMPDEST PUSH0 PUSH1 0x20 DUP3 DUP5 SUB SLT ISZERO PUSH2 0x1114 JUMPI PUSH2 0x1113 PUSH2 0x10C4 JUMP JUMPDEST JUMPDEST PUSH0 PUSH2 0x1121 DUP5 DUP3 DUP6 ADD PUSH2 0x10EB JUMP JUMPDEST SWAP2 POP POP SWAP3 SWAP2 POP POP JUMP JUMPDEST PUSH0 DUP2 MLOAD SWAP1 POP SWAP2 SWAP1 POP JUMP JUMPDEST PUSH0 DUP3 DUP3 MSTORE PUSH1 0x20 DUP3 ADD SWAP1 POP SWAP3 SWAP2 POP POP JUMP JUMPDEST PUSH0 JUMPDEST DUP4 DUP2 LT ISZERO PUSH2 0x1161 JUMPI DUP1 DUP3 ADD MLOAD DUP2 DUP5 ADD MSTORE PUSH1 0x20 DUP2 ADD SWAP1 POP PUSH2 0x1146 JUMP JUMPDEST PUSH0 DUP5 DUP5 ADD MSTORE POP POP POP POP JUMP JUMPDEST PUSH0 PUSH1 0x1F NOT PUSH1 0x1F DUP4 ADD AND SWAP1 POP SWAP2 SWAP1 POP JUMP JUMPDEST PUSH0 PUSH2 0x1186 DUP3 PUSH2 0x112A JUMP JUMPDEST PUSH2 0x1190 DUP2 DUP6 PUSH2 0x1134 JUMP JUMPDEST SWAP4 POP PUSH2 0x11A0 DUP2 DUP6 PUSH1 0x20 DUP7 ADD PUSH2 0x1144 JUMP JUMPDEST PUSH2 0x11A9 DUP2 PUSH2 0x116C JUMP JUMPDEST DUP5 ADD SWAP2 POP POP SWAP3 SWAP2 POP POP JUMP JUMPDEST PUSH0 PUSH1 0x20 DUP3 ADD SWAP1 POP DUP2 DUP2 SUB PUSH0 DUP4 ADD MSTORE PUSH2 0x11CC DUP2 DUP5 PUSH2 0x117C JUMP JUMPDEST SWAP1 POP SWAP3 SWAP2 POP POP JUMP JUMPDEST PUSH2 0x11DD DUP2 PUSH2 0x10CC JUMP JUMPDEST DUP3 MSTORE POP POP JUMP JUMPDEST PUSH0 PUSH1 0x20 DUP3 ADD SWAP1 POP PUSH2 0x11F6 PUSH0 DUP4 ADD DUP5 PUSH2 0x11D4 JUMP JUMPDEST SWAP3 SWAP2 POP POP JUMP JUMPDEST PUSH0 PUSH1 0x40 DUP3 ADD SWAP1 POP DUP2 DUP2 SUB PUSH0 DUP4 ADD MSTORE PUSH2 0x1214 DUP2 DUP6 PUSH2 0x117C JUMP JUMPDEST SWAP1 POP PUSH2 0x1223 PUSH1 0x20 DUP4 ADD DUP5 PUSH2 0x11D4 JUMP JUMPDEST SWAP4 SWAP3 POP POP POP JUMP JUMPDEST PUSH0 DUP1 REVERT JUMPDEST PUSH0 DUP1 REVERT JUMPDEST PUSH32 0x4E487B7100000000000000000000000000000000000000000000000000000000 PUSH0 MSTORE PUSH1 0x41 PUSH1 0x4 MSTORE PUSH1 0x24 PUSH0 REVERT JUMPDEST PUSH2 0x1268 DUP3 PUSH2 0x116C JUMP JUMPDEST DUP2 ADD DUP2 DUP2 LT PUSH8 0xFFFFFFFFFFFFFFFF DUP3 GT OR ISZERO PUSH2 0x1287 JUMPI PUSH2 0x1286 PUSH2 0x1232 JUMP JUMPDEST JUMPDEST DUP1 PUSH1 0x40 MSTORE POP POP POP JUMP JUMPDEST PUSH0 PUSH2 0x1299 PUSH2 0x10BB JUMP JUMPDEST SWAP1 POP PUSH2 0x12A5 DUP3 DUP3 PUSH2 0x125F JUMP JUMPDEST SWAP2 SWAP1 POP JUMP JUMPDEST PUSH0 PUSH8 0xFFFFFFFFFFFFFFFF DUP3 GT ISZERO PUSH2 0x12C4 JUMPI PUSH2 0x12C3 PUSH2 0x1232 JUMP JUMPDEST JUMPDEST PUSH2 0x12CD DUP3 PUSH2 0x116C JUMP JUMPDEST SWAP1 POP PUSH1 0x20 DUP2 ADD SWAP1 POP SWAP2 SWAP1 POP JUMP JUMPDEST DUP3 DUP2 DUP4 CALLDATACOPY PUSH0 DUP4 DUP4 ADD MSTORE POP POP POP JUMP JUMPDEST PUSH0 PUSH2 0x12FA PUSH2 0x12F5 DUP5 PUSH2 0x12AA JUMP JUMPDEST PUSH2 0x1290 JUMP JUMPDEST SWAP1 POP DUP3 DUP2 MSTORE PUSH1 0x20 DUP2 ADD DUP5 DUP5 DUP5 ADD GT ISZERO PUSH2 0x1316 JUMPI PUSH2 0x1315 PUSH2 0x122E JUMP JUMPDEST JUMPDEST PUSH2 0x1321 DUP5 DUP3 DUP6 PUSH2 0x12DA JUMP JUMPDEST POP SWAP4 SWAP3 POP POP POP JUMP JUMPDEST PUSH0 DUP3 PUSH1 0x1F DUP4 ADD SLT PUSH2 0x133D JUMPI PUSH2 0x133C PUSH2 0x122A JUMP JUMPDEST JUMPDEST DUP2 CALLDATALOAD PUSH2 0x134D DUP5 DUP3 PUSH1 0x20 DUP7 ADD PUSH2 0x12E8 JUMP JUMPDEST SWAP2 POP POP SWAP3 SWAP2 POP POP JUMP JUMPDEST PUSH0 DUP1 PUSH1 0x40 DUP4 DUP6 SUB SLT ISZERO PUSH2 0x136C JUMPI PUSH2 0x136B PUSH2 0x10C4 JUMP JUMPDEST JUMPDEST PUSH0 DUP4 ADD CALLDATALOAD PUSH8 0xFFFFFFFFFFFFFFFF DUP2 GT ISZERO PUSH2 0x1389 JUMPI PUSH2 0x1388 PUSH2 0x10C8 JUMP JUMPDEST JUMPDEST PUSH2 0x1395 DUP6 DUP3 DUP7 ADD PUSH2 0x1329 JUMP JUMPDEST SWAP3 POP POP PUSH1 0x20 DUP4 ADD CALLDATALOAD PUSH8 0xFFFFFFFFFFFFFFFF DUP2 GT ISZERO PUSH2 0x13B6 JUMPI PUSH2 0x13B5 PUSH2 0x10C8 JUMP JUMPDEST JUMPDEST PUSH2 0x13C2 DUP6 DUP3 DUP7 ADD PUSH2 0x1329 JUMP JUMPDEST SWAP2 POP POP SWAP3 POP SWAP3 SWAP1 POP JUMP JUMPDEST PUSH0 PUSH20 0xFFFFFFFFFFFFFFFFFFFFFFFFFFFFFFFFFFFFFFFF DUP3 AND SWAP1 POP SWAP2 SWAP1 POP JUMP JUMPDEST PUSH0 PUSH2 0x13F5 DUP3 PUSH2 0x13CC JUMP JUMPDEST SWAP1 POP SWAP2 SWAP1 POP JUMP JUMPDEST PUSH2 0x1405 DUP2 PUSH2 0x13EB JUMP JUMPDEST DUP3 MSTORE POP POP JUMP JUMPDEST PUSH0 PUSH1 0x20 DUP3 ADD SWAP1 POP PUSH2 0x141E PUSH0 DUP4 ADD DUP5 PUSH2 0x13FC JUMP JUMPDEST SWAP3 SWAP2 POP POP JUMP JUMPDEST PUSH0 PUSH1 0x60 DUP3 ADD SWAP1 POP DUP2 DUP2 SUB PUSH0 DUP4 ADD MSTORE PUSH2 0x143C DUP2 DUP7 PUSH2 0x117C JUMP JUMPDEST SWAP1 POP DUP2 DUP2 SUB PUSH1 0x20 DUP4 ADD MSTORE PUSH2 0x1450 DUP2 DUP6 PUSH2 0x117C JUMP JUMPDEST SWAP1 POP PUSH2 0x145F PUSH1 0x40 DUP4 ADD DUP5 PUSH2 0x11D4 JUMP JUMPDEST SWAP5 SWAP4 POP POP POP POP JUMP JUMPDEST PUSH0 PUSH1 0x40 DUP3 ADD SWAP1 POP DUP2 DUP2 SUB PUSH0 DUP4 ADD MSTORE PUSH2 0x147F DUP2 DUP6 PUSH2 0x117C JUMP JUMPDEST SWAP1 POP DUP2 DUP2 SUB PUSH1 0x20 DUP4 ADD MSTORE PUSH2 0x1493 DUP2 DUP5 PUSH2 0x117C JUMP JUMPDEST SWAP1 POP SWAP4 SWAP3 POP POP POP JUMP JUMPDEST PUSH0 DUP1 PUSH1 0x40 DUP4 DUP6 SUB SLT ISZERO PUSH2 0x14B2 JUMPI PUSH2 0x14B1 PUSH2 0x10C4 JUMP JUMPDEST JUMPDEST PUSH0 DUP4 ADD CALLDATALOAD PUSH8 0xFFFFFFFFFFFFFFFF DUP2 GT ISZERO PUSH2 0x14CF JUMPI PUSH2 0x14CE PUSH2 0x10C8 JUMP JUMPDEST JUMPDEST PUSH2 0x14DB DUP6 DUP3 DUP7 ADD PUSH2 0x1329 JUMP JUMPDEST SWAP3 POP POP PUSH1 0x20 PUSH2 0x14EC DUP6 DUP3 DUP7 ADD PUSH2 0x10EB JUMP JUMPDEST SWAP2 POP POP SWAP3 POP SWAP3 SWAP1 POP JUMP JUMPDEST PUSH0 DUP2 ISZERO ISZERO SWAP1 POP SWAP2 SWAP1 POP JUMP JUMPDEST PUSH2 0x150A DUP2 PUSH2 0x14F6 JUMP JUMPDEST DUP3 MSTORE POP POP JUMP JUMPDEST PUSH0 PUSH1 0x40 DUP3 ADD SWAP1 POP DUP2 DUP2 SUB PUSH0 DUP4 ADD MSTORE PUSH2 0x1528 DUP2 DUP6 PUSH2 0x117C JUMP JUMPDEST SWAP1 POP PUSH2 0x1537 PUSH1 0x20 DUP4 ADD DUP5 PUSH2 0x1501 JUMP JUMPDEST SWAP4 SWAP3 POP POP POP JUMP JUMPDEST PUSH0 PUSH1 0xFF DUP3 AND SWAP1 POP SWAP2 SWAP1 POP JUMP JUMPDEST PUSH2 0x1553 DUP2 PUSH2 0x153E JUMP JUMPDEST DUP2 EQ PUSH2 0x155D JUMPI PUSH0 DUP1 REVERT JUMPDEST POP JUMP JUMPDEST PUSH0 DUP2 CALLDATALOAD SWAP1 POP PUSH2 0x156E DUP2 PUSH2 0x154A JUMP JUMPDEST SWAP3 SWAP2 POP POP JUMP JUMPDEST PUSH0 DUP1 PUSH1 0x40 DUP4 DUP6 SUB SLT ISZERO PUSH2 0x158A JUMPI PUSH2 0x1589 PUSH2 0x10C4 JUMP JUMPDEST JUMPDEST PUSH0 DUP4 ADD CALLDATALOAD PUSH8 0xFFFFFFFFFFFFFFFF DUP2 GT ISZERO PUSH2 0x15A7 JUMPI PUSH2 0x15A6 PUSH2 0x10C8 JUMP JUMPDEST JUMPDEST PUSH2 0x15B3 DUP6 DUP3 DUP7 ADD PUSH2 0x1329 JUMP JUMPDEST SWAP3 POP POP PUSH1 0x20 PUSH2 0x15C4 DUP6 DUP3 DUP7 ADD PUSH2 0x1560 JUMP JUMPDEST SWAP2 POP POP SWAP3 POP SWAP3 SWAP1 POP JUMP JUMPDEST PUSH0 DUP2 MLOAD SWAP1 POP SWAP2 SWAP1 POP JUMP JUMPDEST PUSH0 DUP3 DUP3 MSTORE PUSH1 0x20 DUP3 ADD SWAP1 POP SWAP3 SWAP2 POP POP JUMP JUMPDEST PUSH0 DUP2 SWAP1 POP PUSH1 0x20 DUP3 ADD SWAP1 POP SWAP2 SWAP1 POP JUMP JUMPDEST PUSH0 DUP3 DUP3 MSTORE PUSH1 0x20 DUP3 ADD SWAP1 POP SWAP3 SWAP2 POP POP JUMP JUMPDEST PUSH0 PUSH2 0x1611 DUP3 PUSH2 0x112A JUMP JUMPDEST PUSH2 0x161B DUP2 DUP6 PUSH2 0x15F7 JUMP JUMPDEST SWAP4 POP PUSH2 0x162B DUP2 DUP6 PUSH1 0x20 DUP7 ADD PUSH2 0x1144 JUMP JUMPDEST PUSH2 0x1634 DUP2 PUSH2 0x116C JUMP JUMPDEST DUP5 ADD SWAP2 POP POP SWAP3 SWAP2 POP POP JUMP JUMPDEST PUSH2 0x1648 DUP2 PUSH2 0x10CC JUMP JUMPDEST DUP3 MSTORE POP POP JUMP JUMPDEST PUSH0 PUSH1 0x60 DUP4 ADD PUSH0 DUP4 ADD MLOAD DUP5 DUP3 SUB PUSH0 DUP7 ADD MSTORE PUSH2 0x1668 DUP3 DUP3 PUSH2 0x1607 JUMP JUMPDEST SWAP2 POP POP PUSH1 0x20 DUP4 ADD MLOAD DUP5 DUP3 SUB PUSH1 0x20 DUP7 ADD MSTORE PUSH2 0x1682 DUP3 DUP3 PUSH2 0x1607 JUMP JUMPDEST SWAP2 POP POP PUSH1 0x40 DUP4 ADD MLOAD PUSH2 0x1697 PUSH1 0x40 DUP7 ADD DUP3 PUSH2 0x163F JUMP JUMPDEST POP DUP1 SWAP2 POP POP SWAP3 SWAP2 POP POP JUMP JUMPDEST PUSH0 PUSH2 0x16AD DUP4 DUP4 PUSH2 0x164E JUMP JUMPDEST SWAP1 POP SWAP3 SWAP2 POP POP JUMP JUMPDEST PUSH0 PUSH1 0x20 DUP3 ADD SWAP1 POP SWAP2 SWAP1 POP JUMP JUMPDEST PUSH0 PUSH2 0x16CB DUP3 PUSH2 0x15CE JUMP JUMPDEST PUSH2 0x16D5 DUP2 DUP6 PUSH2 0x15D8 JUMP JUMPDEST SWAP4 POP DUP4 PUSH1 0x20 DUP3 MUL DUP6 ADD PUSH2 0x16E7 DUP6 PUSH2 0x15E8 JUMP JUMPDEST DUP1 PUSH0 JUMPDEST DUP6 DUP2 LT ISZERO PUSH2 0x1722 JUMPI DUP5 DUP5 SUB DUP10 MSTORE DUP2 MLOAD PUSH2 0x1703 DUP6 DUP3 PUSH2 0x16A2 JUMP JUMPDEST SWAP5 POP PUSH2 0x170E DUP4 PUSH2 0x16B5 JUMP JUMPDEST SWAP3 POP PUSH1 0x20 DUP11 ADD SWAP10 POP POP PUSH1 0x1 DUP2 ADD SWAP1 POP PUSH2 0x16EA JUMP JUMPDEST POP DUP3 SWAP8 POP DUP8 SWAP6 POP POP POP POP POP POP SWAP3 SWAP2 POP POP JUMP JUMPDEST PUSH0 PUSH1 0x20 DUP3 ADD SWAP1 POP DUP2 DUP2 SUB PUSH0 DUP4 ADD MSTORE PUSH2 0x174C DUP2 DUP5 PUSH2 0x16C1 JUMP JUMPDEST SWAP1 POP SWAP3 SWAP2 POP POP JUMP JUMPDEST PUSH2 0x175D DUP2 PUSH2 0x13EB JUMP JUMPDEST DUP2 EQ PUSH2 0x1767 JUMPI PUSH0 DUP1 REVERT JUMPDEST POP JUMP JUMPDEST PUSH0 DUP2 CALLDATALOAD SWAP1 POP PUSH2 0x1778 DUP2 PUSH2 0x1754 JUMP JUMPDEST SWAP3 SWAP2 POP POP JUMP JUMPDEST PUSH0 PUSH1 0x20 DUP3 DUP5 SUB SLT ISZERO PUSH2 0x1793 JUMPI PUSH2 0x1792 PUSH2 0x10C4 JUMP JUMPDEST JUMPDEST PUSH0 PUSH2 0x17A0 DUP5 DUP3 DUP6 ADD PUSH2 0x176A JUMP JUMPDEST SWAP2 POP POP SWAP3 SWAP2 POP POP JUMP JUMPDEST PUSH32 0x4E487B7100000000000000000000000000000000000000000000000000000000 PUSH0 MSTORE PUSH1 0x32 PUSH1 0x4 MSTORE PUSH1 0x24 PUSH0 REVERT JUMPDEST PUSH32 0x4E487B7100000000000000000000000000000000000000000000000000000000 PUSH0 MSTORE PUSH1 0x11 PUSH1 0x4 MSTORE PUSH1 0x24 PUSH0 REVERT JUMPDEST PUSH0 PUSH2 0x180D DUP3 PUSH2 0x10CC JUMP JUMPDEST SWAP2 POP PUSH2 0x1818 DUP4 PUSH2 0x10CC JUMP JUMPDEST SWAP3 POP DUP3 DUP3 ADD SWAP1 POP DUP1 DUP3 GT ISZERO PUSH2 0x1830 JUMPI PUSH2 0x182F PUSH2 0x17D6 JUMP JUMPDEST JUMPDEST SWAP3 SWAP2 POP POP JUMP JUMPDEST PUSH32 0x4E487B7100000000000000000000000000000000000000000000000000000000 PUSH0 MSTORE PUSH1 0x22 PUSH1 0x4 MSTORE PUSH1 0x24 PUSH0 REVERT JUMPDEST PUSH0 PUSH1 0x2 DUP3 DIV SWAP1 POP PUSH1 0x1 DUP3 AND DUP1 PUSH2 0x187A JUMPI PUSH1 0x7F DUP3 AND SWAP2 POP JUMPDEST PUSH1 0x20 DUP3 LT DUP2 SUB PUSH2 0x188D JUMPI PUSH2 0x188C PUSH2 0x1836 JUMP JUMPDEST JUMPDEST POP SWAP2 SWAP1 POP JUMP JUMPDEST PUSH0 DUP2 SWAP1 POP DUP2 PUSH0 MSTORE PUSH1 0x20 PUSH0 KECCAK256 SWAP1 POP SWAP2 SWAP1 POP JUMP JUMPDEST PUSH0 DUP2 SLOAD PUSH2 0x18B1 DUP2 PUSH2 0x1863 JUMP JUMPDEST PUSH2 0x18BB DUP2 DUP7 PUSH2 0x1134 JUMP JUMPDEST SWAP5 POP PUSH1 0x1 DUP3 AND PUSH0 DUP2 EQ PUSH2 0x18D5 JUMPI PUSH1 0x1 DUP2 EQ PUSH2 0x18EB JUMPI PUSH2 0x191D JUMP JUMPDEST PUSH1 0xFF NOT DUP4 AND DUP7 MSTORE DUP2 ISZERO ISZERO PUSH1 0x20 MUL DUP7 ADD SWAP4 POP PUSH2 0x191D JUMP JUMPDEST PUSH2 0x18F4 DUP6 PUSH2 0x1893 JUMP JUMPDEST PUSH0 JUMPDEST DUP4 DUP2 LT ISZERO PUSH2 0x1915 JUMPI DUP2 SLOAD DUP2 DUP10 ADD MSTORE PUSH1 0x1 DUP3 ADD SWAP2 POP PUSH1 0x20 DUP2 ADD SWAP1 POP PUSH2 0x18F6 JUMP JUMPDEST DUP1 DUP9 ADD SWAP6 POP POP POP JUMPDEST POP POP POP SWAP3 SWAP2 POP POP JUMP JUMPDEST PUSH0 PUSH1 0x40 DUP3 ADD SWAP1 POP PUSH2 0x1939 PUSH0 DUP4 ADD DUP6 PUSH2 0x11D4 JUMP JUMPDEST DUP2 DUP2 SUB PUSH1 0x20 DUP4 ADD MSTORE PUSH2 0x194B DUP2 DUP5 PUSH2 0x18A5 JUMP JUMPDEST SWAP1 POP SWAP4 SWAP3 POP POP POP JUMP JUMPDEST PUSH0 DUP2 SWAP1 POP SWAP3 SWAP2 POP POP JUMP JUMPDEST PUSH0 PUSH2 0x1968 DUP3 PUSH2 0x112A JUMP JUMPDEST PUSH2 0x1972 DUP2 DUP6 PUSH2 0x1954 JUMP JUMPDEST SWAP4 POP PUSH2 0x1982 DUP2 DUP6 PUSH1 0x20 DUP7 ADD PUSH2 0x1144 JUMP JUMPDEST DUP1 DUP5 ADD SWAP2 POP POP SWAP3 SWAP2 POP POP JUMP JUMPDEST PUSH0 PUSH2 0x1999 DUP3 DUP5 PUSH2 0x195E JUMP JUMPDEST SWAP2 POP DUP2 SWAP1 POP SWAP3 SWAP2 POP POP JUMP JUMPDEST PUSH0 DUP2 SLOAD PUSH2 0x19B0 DUP2 PUSH2 0x1863 JUMP JUMPDEST PUSH2 0x19BA DUP2 DUP7 PUSH2 0x1954 JUMP JUMPDEST SWAP5 POP PUSH1 0x1 DUP3 AND PUSH0 DUP2 EQ PUSH2 0x19D4 JUMPI PUSH1 0x1 DUP2 EQ PUSH2 0x19E9 JUMPI PUSH2 0x1A1B JUMP JUMPDEST PUSH1 0xFF NOT DUP4 AND DUP7 MSTORE DUP2 ISZERO ISZERO DUP3 MUL DUP7 ADD SWAP4 POP PUSH2 0x1A1B JUMP JUMPDEST PUSH2 0x19F2 DUP6 PUSH2 0x1893 JUMP JUMPDEST PUSH0 JUMPDEST DUP4 DUP2 LT ISZERO PUSH2 0x1A13 JUMPI DUP2 SLOAD DUP2 DUP10 ADD MSTORE PUSH1 0x1 DUP3 ADD SWAP2 POP PUSH1 0x20 DUP2 ADD SWAP1 POP PUSH2 0x19F4 JUMP JUMPDEST DUP4 DUP9 ADD SWAP6 POP POP POP JUMPDEST POP POP POP SWAP3 SWAP2 POP POP JUMP JUMPDEST PUSH0 PUSH2 0x1A2F DUP3 DUP5 PUSH2 0x19A4 JUMP JUMPDEST SWAP2 POP DUP2 SWAP1 POP SWAP3 SWAP2 POP POP JUMP JUMPDEST PUSH0 PUSH1 0x20 PUSH1 0x1F DUP4 ADD DIV SWAP1 POP SWAP2 SWAP1 POP JUMP JUMPDEST PUSH0 DUP3 DUP3 SHL SWAP1 POP SWAP3 SWAP2 POP POP JUMP JUMPDEST PUSH0 PUSH1 0x8 DUP4 MUL PUSH2 0x1A84 PUSH32 0xFFFFFFFFFFFFFFFFFFFFFFFFFFFFFFFFFFFFFFFFFFFFFFFFFFFFFFFFFFFFFFFF DUP3 PUSH2 0x1A49 JUMP JUMPDEST PUSH2 0x1A8E DUP7 DUP4 PUSH2 0x1A49 JUMP JUMPDEST SWAP6 POP DUP1 NOT DUP5 AND SWAP4 POP DUP1 DUP7 AND DUP5 OR SWAP3 POP POP POP SWAP4 SWAP3 POP POP POP JUMP JUMPDEST PUSH0 DUP2 SWAP1 POP SWAP2 SWAP1 POP JUMP JUMPDEST PUSH0 PUSH2 0x1AC9 PUSH2 0x1AC4 PUSH2 0x1ABF DUP5 PUSH2 0x10CC JUMP JUMPDEST PUSH2 0x1AA6 JUMP JUMPDEST PUSH2 0x10CC JUMP JUMPDEST SWAP1 POP SWAP2 SWAP1 POP JUMP JUMPDEST PUSH0 DUP2 SWAP1 POP SWAP2 SWAP1 POP JUMP JUMPDEST PUSH2 0x1AE2 DUP4 PUSH2 0x1AAF JUMP JUMPDEST PUSH2 0x1AF6 PUSH2 0x1AEE DUP3 PUSH2 0x1AD0 JUMP JUMPDEST DUP5 DUP5 SLOAD PUSH2 0x1A55 JUMP JUMPDEST DUP3 SSTORE POP POP POP POP JUMP JUMPDEST PUSH0 SWAP1 JUMP JUMPDEST PUSH2 0x1B0A PUSH2 0x1AFE JUMP JUMPDEST PUSH2 0x1B15 DUP2 DUP5 DUP5 PUSH2 0x1AD9 JUMP JUMPDEST POP POP POP JUMP JUMPDEST JUMPDEST DUP2 DUP2 LT ISZERO PUSH2 0x1B38 JUMPI PUSH2 0x1B2D PUSH0 DUP3 PUSH2 0x1B02 JUMP JUMPDEST PUSH1 0x1 DUP2 ADD SWAP1 POP PUSH2 0x1B1B JUMP JUMPDEST POP POP JUMP JUMPDEST PUSH1 0x1F DUP3 GT ISZERO PUSH2 0x1B7D JUMPI PUSH2 0x1B4E DUP2 PUSH2 0x1893 JUMP JUMPDEST PUSH2 0x1B57 DUP5 PUSH2 0x1A3A JUMP JUMPDEST DUP2 ADD PUSH1 0x20 DUP6 LT ISZERO PUSH2 0x1B66 JUMPI DUP2 SWAP1 POP JUMPDEST PUSH2 0x1B7A PUSH2 0x1B72 DUP6 PUSH2 0x1A3A JUMP JUMPDEST DUP4 ADD DUP3 PUSH2 0x1B1A JUMP JUMPDEST POP POP JUMPDEST POP POP POP JUMP JUMPDEST PUSH0 DUP3 DUP3 SHR SWAP1 POP SWAP3 SWAP2 POP POP JUMP JUMPDEST PUSH0 PUSH2 0x1B9D PUSH0 NOT DUP5 PUSH1 0x8 MUL PUSH2 0x1B82 JUMP JUMPDEST NOT DUP1 DUP4 AND SWAP2 POP POP SWAP3 SWAP2 POP POP JUMP JUMPDEST PUSH0 PUSH2 0x1BB5 DUP4 DUP4 PUSH2 0x1B8E JUMP JUMPDEST SWAP2 POP DUP3 PUSH1 0x2 MUL DUP3 OR SWAP1 POP SWAP3 SWAP2 POP POP JUMP JUMPDEST PUSH2 0x1BCE DUP3 PUSH2 0x112A JUMP JUMPDEST PUSH8 0xFFFFFFFFFFFFFFFF DUP2 GT ISZERO PUSH2 0x1BE7 JUMPI PUSH2 0x1BE6 PUSH2 0x1232 JUMP JUMPDEST JUMPDEST PUSH2 0x1BF1 DUP3 SLOAD PUSH2 0x1863 JUMP JUMPDEST PUSH2 0x1BFC DUP3 DUP3 DUP6 PUSH2 0x1B3C JUMP JUMPDEST PUSH0 PUSH1 0x20 SWAP1 POP PUSH1 0x1F DUP4 GT PUSH1 0x1 DUP2 EQ PUSH2 0x1C2D JUMPI PUSH0 DUP5 ISZERO PUSH2 0x1C1B JUMPI DUP3 DUP8 ADD MLOAD SWAP1 POP JUMPDEST PUSH2 0x1C25 DUP6 DUP3 PUSH2 0x1BAA JUMP JUMPDEST DUP7 SSTORE POP PUSH2 0x1C8C JUMP JUMPDEST PUSH1 0x1F NOT DUP5 AND PUSH2 0x1C3B DUP7 PUSH2 0x1893 JUMP JUMPDEST PUSH0 JUMPDEST DUP3 DUP2 LT ISZERO PUSH2 0x1C62 JUMPI DUP5 DUP10 ADD MLOAD DUP3 SSTORE PUSH1 0x1 DUP3 ADD SWAP2 POP PUSH1 0x20 DUP6 ADD SWAP5 POP PUSH1 0x20 DUP2 ADD SWAP1 POP PUSH2 0x1C3D JUMP JUMPDEST DUP7 DUP4 LT ISZERO PUSH2 0x1C7F JUMPI DUP5 DUP10 ADD MLOAD PUSH2 0x1C7B PUSH1 0x1F DUP10 AND DUP3 PUSH2 0x1B8E JUMP JUMPDEST DUP4 SSTORE POP JUMPDEST PUSH1 0x1 PUSH1 0x2 DUP9 MUL ADD DUP9 SSTORE POP POP POP JUMPDEST POP POP POP POP POP POP JUMP JUMPDEST PUSH0 PUSH2 0x1C9E DUP3 PUSH2 0x10CC JUMP JUMPDEST SWAP2 POP PUSH2 0x1CA9 DUP4 PUSH2 0x10CC JUMP JUMPDEST SWAP3 POP DUP3 DUP3 SUB SWAP1 POP DUP2 DUP2 GT ISZERO PUSH2 0x1CC1 JUMPI PUSH2 0x1CC0 PUSH2 0x17D6 JUMP JUMPDEST JUMPDEST SWAP3 SWAP2 POP POP JUMP INVALID LOG2 PUSH5 0x6970667358 0x22 SLT KECCAK256 PUSH14 0xF274F2D005804CF8DF5B2B90C96C PUSH19 0x4201150FE581C663CDD46184692C11BB64736F PUSH13 0x63430008160033000000000000 "
				},
				"gasEstimates": {
					"creation": {
						"codeDepositCost": "1484200",
						"executionCost": "infinite",
						"totalCost": "infinite"
					},
					"external": {
						"candidatos(uint256)": "infinite",
						"crearJornada(string,uint256)": "infinite",
						"enviarVoto(uint256)": "infinite",
						"inscribirCandidato(string,string)": "infinite",
						"inscribirParticipante(string,uint8)": "infinite",
						"jornadaVotacion()": "infinite",
						"owner()": "2582",
						"participantes(uint256)": "infinite",
						"partidos(uint256)": "infinite",
						"renounceOwnership()": "infinite",
						"transferOwnership(address)": "infinite",
						"verCandidato(uint256)": "infinite",
						"verNumeroCandidatos()": "2484",
						"verResultadoVotaciones()": "infinite",
						"verTotalVotos()": "infinite",
						"verVoto()": "2587"
					},
					"internal": {
						"_crearCandidato(string memory,string memory)": "infinite",
						"_crearParticipante(string memory)": "infinite",
						"_crearPartido(string memory,bool)": "infinite"
					}
				},
				"methodIdentifiers": {
					"candidatos(uint256)": "8f023f85",
					"crearJornada(string,uint256)": "b0c73513",
					"enviarVoto(uint256)": "0e0864cb",
					"inscribirCandidato(string,string)": "89813f84",
					"inscribirParticipante(string,uint8)": "c1961cea",
					"jornadaVotacion()": "6cdf69f0",
					"owner()": "8da5cb5b",
					"participantes(uint256)": "b25924c1",
					"partidos(uint256)": "40deb070",
					"renounceOwnership()": "715018a6",
					"transferOwnership(address)": "f2fde38b",
					"verCandidato(uint256)": "8f6021c3",
					"verNumeroCandidatos()": "e3446174",
					"verResultadoVotaciones()": "ee55f11e",
					"verTotalVotos()": "b5e422d4",
					"verVoto()": "6bb7aaf5"
				}
			},
			"storageLayout": {
				"storage": [
					{
						"astId": 8,
						"contract": "contracts/Urna.sol:Urna",
						"label": "_owner",
						"offset": 0,
						"slot": "0",
						"type": "t_address"
					},
					{
						"astId": 192,
						"contract": "contracts/Urna.sol:Urna",
						"label": "duracionJornada",
						"offset": 0,
						"slot": "1",
						"type": "t_uint256"
					},
					{
						"astId": 195,
						"contract": "contracts/Urna.sol:Urna",
						"label": "limiteInscripciones",
						"offset": 0,
						"slot": "2",
						"type": "t_uint256"
					},
					{
						"astId": 219,
						"contract": "contracts/Urna.sol:Urna",
						"label": "partidos",
						"offset": 0,
						"slot": "3",
						"type": "t_array(t_struct(Partido)203_storage)dyn_storage"
					},
					{
						"astId": 223,
						"contract": "contracts/Urna.sol:Urna",
						"label": "candidatos",
						"offset": 0,
						"slot": "4",
						"type": "t_array(t_struct(Candidato)210_storage)dyn_storage"
					},
					{
						"astId": 227,
						"contract": "contracts/Urna.sol:Urna",
						"label": "participantes",
						"offset": 0,
						"slot": "5",
						"type": "t_array(t_struct(Participante)215_storage)dyn_storage"
					},
					{
						"astId": 230,
						"contract": "contracts/Urna.sol:Urna",
						"label": "jornadaVotacion",
						"offset": 0,
						"slot": "6",
						"type": "t_struct(Jornada)200_storage"
					},
					{
						"astId": 234,
						"contract": "contracts/Urna.sol:Urna",
						"label": "votoACandidato",
						"offset": 0,
						"slot": "8",
						"type": "t_mapping(t_address,t_uint256)"
					},
					{
						"astId": 238,
						"contract": "contracts/Urna.sol:Urna",
						"label": "inscripcionParticipante",
						"offset": 0,
						"slot": "9",
						"type": "t_mapping(t_address,t_uint256)"
					}
				],
				"types": {
					"t_address": {
						"encoding": "inplace",
						"label": "address",
						"numberOfBytes": "20"
					},
					"t_array(t_struct(Candidato)210_storage)dyn_storage": {
						"base": "t_struct(Candidato)210_storage",
						"encoding": "dynamic_array",
						"label": "struct Urna.Candidato[]",
						"numberOfBytes": "32"
					},
					"t_array(t_struct(Participante)215_storage)dyn_storage": {
						"base": "t_struct(Participante)215_storage",
						"encoding": "dynamic_array",
						"label": "struct Urna.Participante[]",
						"numberOfBytes": "32"
					},
					"t_array(t_struct(Partido)203_storage)dyn_storage": {
						"base": "t_struct(Partido)203_storage",
						"encoding": "dynamic_array",
						"label": "struct Urna.Partido[]",
						"numberOfBytes": "32"
					},
					"t_bool": {
						"encoding": "inplace",
						"label": "bool",
						"numberOfBytes": "1"
					},
					"t_mapping(t_address,t_uint256)": {
						"encoding": "mapping",
						"key": "t_address",
						"label": "mapping(address => uint256)",
						"numberOfBytes": "32",
						"value": "t_uint256"
					},
					"t_string_storage": {
						"encoding": "bytes",
						"label": "string",
						"numberOfBytes": "32"
					},
					"t_struct(Candidato)210_storage": {
						"encoding": "inplace",
						"label": "struct Urna.Candidato",
						"members": [
							{
								"astId": 205,
								"contract": "contracts/Urna.sol:Urna",
								"label": "nombre",
								"offset": 0,
								"slot": "0",
								"type": "t_string_storage"
							},
							{
								"astId": 207,
								"contract": "contracts/Urna.sol:Urna",
								"label": "partido",
								"offset": 0,
								"slot": "1",
								"type": "t_string_storage"
							},
							{
								"astId": 209,
								"contract": "contracts/Urna.sol:Urna",
								"label": "votos",
								"offset": 0,
								"slot": "2",
								"type": "t_uint256"
							}
						],
						"numberOfBytes": "96"
					},
					"t_struct(Jornada)200_storage": {
						"encoding": "inplace",
						"label": "struct Urna.Jornada",
						"members": [
							{
								"astId": 197,
								"contract": "contracts/Urna.sol:Urna",
								"label": "nombre",
								"offset": 0,
								"slot": "0",
								"type": "t_string_storage"
							},
							{
								"astId": 199,
								"contract": "contracts/Urna.sol:Urna",
								"label": "fechaHoraInicio",
								"offset": 0,
								"slot": "1",
								"type": "t_uint256"
							}
						],
						"numberOfBytes": "64"
					},
					"t_struct(Participante)215_storage": {
						"encoding": "inplace",
						"label": "struct Urna.Participante",
						"members": [
							{
								"astId": 212,
								"contract": "contracts/Urna.sol:Urna",
								"label": "nombre",
								"offset": 0,
								"slot": "0",
								"type": "t_string_storage"
							},
							{
								"astId": 214,
								"contract": "contracts/Urna.sol:Urna",
								"label": "haVotado",
								"offset": 0,
								"slot": "1",
								"type": "t_bool"
							}
						],
						"numberOfBytes": "64"
					},
					"t_struct(Partido)203_storage": {
						"encoding": "inplace",
						"label": "struct Urna.Partido",
						"members": [
							{
								"astId": 202,
								"contract": "contracts/Urna.sol:Urna",
								"label": "nombre",
								"offset": 0,
								"slot": "0",
								"type": "t_string_storage"
							}
						],
						"numberOfBytes": "32"
					},
					"t_uint256": {
						"encoding": "inplace",
						"label": "uint256",
						"numberOfBytes": "32"
					}
				}
			},
			"userdoc": {
				"kind": "user",
				"methods": {},
				"version": 1
			}
		}
	}
}